:10000000F8C0000026C1000024C1000022C1000089
:1000100020C100001EC100001CC100001AC1000068
:1000200018C1000016C1000014C1000012C1000078
:1000300010C100000EC100000CC100000AC1000088
:1000400008C1000006C1000004C1000002C1000098
:1000500000C10000FEC00000FCC00000D3C40000CE
:10006000F8C0000099C70000CDC70000F2C0000032
:10007000F0C00000EEC00000ECC00000EAC00000CC
:10008000E8C00000E6C00000E4C00000E2C00000DC
:100090000C9458080C948E08DCC00000DAC00000F4
:1000A000D8C00000D6C00000D4C00000D2C00000FC
:1000B000D0C00000CEC00000CCC00000CAC000000C
:1000C000C8C00000C6C00000C4C000000C94E40812
:1000D0000C941A09BEC000000C9470090C94A60977
:1000E000B8C0000000000A0B02090C0D0E0807033F
:1000F00004010000000000000000000000000000FB
:1001000000000000000000000000000000000000EF
:1001100012111000000000000000000000000000AC
:100120000000000000000000000001021020200874
:100130000810204010204080020102010804020142
:1001400001020408102040808040201008040201B1
:10015000800402018040201008040201080402010A
:100160000102040810204080010204081020408091
:1001700005050505070508080808020202020A0A23
:100180000808040404040101010101010101030341
:10019000030303030303040707070C0C0C0C0C0CEC
:1001A0000C0C0202020206060606060606060B0BE9
:1001B0000B0B0B0B0B0B00002200250028002B0063
:1001C0002E003100340002010000050108010B017E
:1001D00000002100240027002A002D0030003300F9
:1001E00001010000040107010A012B08B7084309B7
:1001F000CF0911241FBECFEFD1E2DEBFCDBF00E09B
:100200000CBF12E0A0E0B2E0EAEAF4E100E00BBFCC
:1002100002C007900D92A432B107D9F724E0A4E2FE
:10022000B2E001C01D92AD3BB207E1F710E0C9EFAB
:10023000D0E000E006C021970109802FFE010E9456
:100240004B0AC53FD10780E00807A9F791D10C946C
:10025000530AD6CE611101C00CC56130E9F362E0EA
:10026000FBCF662311F061E040C560E0FDCFCF9287
:10027000DF92EF92FF926B017C019F7720E030E0EC
:1002800040E859E523D287FF26C020E030E040E077
:100290005FE3C701B6014FD387FD0CC020E030E01B
:1002A00040E05FE3C701B6019AD1FF90EF90DF9085
:1002B000CF9079C220E030E040E05FEBC701B601AB
:1002C0003AD318167CF420E030E0A901C701B6014A
:1002D00036D36B017C01C701B601FF90EF90DF9030
:1002E000CF90089520E030E040E05FE3C701B60121
:1002F00075D1FF90EF90DF90CF90D5C14F925F9274
:100300006F927F928F929F92AF92BF92CF92DF9225
:10031000EF92FF92C090B604D090B704E090B8047A
:10032000F090B904C701B60103D22B013C01209122
:1003300008023091090240910A0250910B02C6D185
:1003400087FF4DC0F7FC4BC08090000290900102E7
:10035000A0900202B090030220E030E040E85FE3AA
:10036000609104027091050280910602909107024B
:1003700035D19B01AC01C301B201DDD287FD33C091
:100380001092B6041092B7041092B8041092B904F7
:10039000C501B4016CDF6B017C0120E030E040E876
:1003A00053E494D16FEF87FF0CC020E030E0A90147
:1003B000C701B601C0D260E087FD03C0C701B60126
:1003C00089D189E0FF90EF90DF90CF90BF90AF9000
:1003D0009F908F907F906F905F904F9042CF812C35
:1003E000912C5401B9CF8FEFC81AD80AE80AF80A3D
:1003F000C092B604D092B704E092B804F092B90467
:10040000C7CF1F93CF93DF9310922502109224023F
:10041000CEEAD4E08DE0FE0111928A95E9F711E071
:100420001C8781E090E0A0E0B0E089839A83AB83F1
:10043000BC8361E089E00EDF1D83188619861A8669
:100440001B86DF91CF911F9108958091AE04811199
:1004500003C081E08093AE04089526E030E040E8D8
:1004600055E260E070E090E080E000C081309105EE
:1004700069F01CF4892B39F008958230910549F018
:10048000039751F008958AE392E026C587ED92E044
:10049000FCCF84E793E0F9CF81E194E0F6CF0895B3
:1004A000CF92DF92EF92FF920F931F93F5D260935A
:1004B00026027093270280932802909329020091CC
:1004C0002A0210912B0220912C0230912D026B01F7
:1004D0007C01C01AD10AE20AF30A97018601003AA8
:1004E00016482140310508F160932A0270932B02CF
:1004F00080932C0290932D0225D0CED200912A0217
:1005000010912B0220912C0230912D02601B710B57
:10051000820B930B603A76488140910570F081E040
:1005200090E09093300280932F0281E01F910F9111
:10053000FF90EF90DF90CF900895109230021092CC
:100540002F02F3CF80912E0291E0980F90932E020C
:10055000882349F021E030E03093300220932F02CD
:1005600080932E020895CADE80912E028150F8CF2A
:10057000CF93DF931092BC041092BB04B2D26DDF14
:10058000C0911002D0911102198218823ADFF894BA
:1005900086DF81E028813981232B09F080E0809378
:1005A000BB0478948091BB04811107C04EDFF8949E
:1005B00090E080E0DF91CF91089581E0288139813A
:1005C000232B09F480E08093BC049091BC0481E06B
:1005D000911180E08093BB0463DFE4CF5058BB27C8
:1005E000AA270ED057C148D130F04DD120F031F4B8
:1005F0009F3F11F41EF43DC10EF4E095E7FB0AC1E4
:10060000E92F59D180F3BA1762077307840795075A
:1006100018F071F49EF588C10EF4E0950B2EBA2FF8
:10062000A02D0B01B90190010C01CA01A0011124F8
:10063000FF27591B99F0593F50F4503E68F11A16A4
:10064000F040A22F232F342F4427585FF3CF469535
:1006500037952795A795F0405395C9F77EF41F1657
:10066000BA0B620B730B840BBAF09150A1F0FF0F21
:10067000BB1F661F771F881FC2F70EC0BA0F621F0D
:10068000731F841F48F4879577956795B795F795FD
:100690009E3F08F0B3CF9395880F08F09927EE0F8F
:1006A00097958795089529D180F09F3740F491114F
:1006B0000EF43BC160E070E080E89FE3089526F00F
:1006C0001B16611D711D811DABC0C5C07FD008F414
:1006D00081E00895F8D088F09F5790F0B92F9927BE
:1006E000B751A0F0D1F0660F771F881F991F1AF03D
:1006F000BA95C9F712C0B13081F016D1B1E00895B2
:1007000013C1672F782F8827B85F39F0B93FCCF332
:10071000869577956795B395D9F73EF49095809532
:10072000709561957F4F8F4F9F4F0895E89409C052
:1007300097FB3EF490958095709561957F4F8F4F14
:100740009F4F9923A9F0F92F96E9BB279395F6952A
:10075000879577956795B795F111F8CFFAF4BB0FA8
:1007600011F460FF1BC06F5F7F4F8F4F9F4F16C00C
:10077000882311F096E911C0772321F09EE8872F96
:10078000762F05C0662371F096E8862F70E060E052
:100790002AF09A95660F771F881FDAF7880F9695CB
:1007A000879597F90895A9D080F09F3740F491116B
:1007B0000EF0BBC060E070E080E89FEB089526F487
:1007C0001B16611D711D811D2BC045C0990F0008AE
:1007D000550FAA0BE0E8FEEF16161706E807F90713
:1007E000C0F012161306E407F50798F0621B730BAE
:1007F000840B950B39F40A2661F0232B242B252B2F
:1008000021F408950A2609F4A140A6958FEF811DD1
:10081000811D089597F99F6780E870E060E0089572
:10082000882371F4772321F09850872B762F07C007
:10083000662311F499270DC09051862B70E060E07B
:100840002AF09A95660F771F881FDAF7880F96951A
:10085000879597F908959F3F31F0915020F487953F
:1008600077956795B795880F911D9695879597F918
:1008700008959FEF80EC089500240A941616170639
:1008800018060906089500240A9412161306140681
:1008900005060895092E0394000C11F4882352F0E4
:1008A000BB0F40F4BF2B11F460FF04C06F5F7F4F9C
:1008B0008F4F9F4F089557FD9058440F551F59F083
:1008C0005F3F71F04795880F97FB991F61F09F3F3D
:1008D00079F087950895121613061406551FF2CF66
:1008E0004695F1DF08C0161617061806991FF1CFB6
:1008F00086957105610508940895E5DFA0F0BEE7CF
:10090000B91788F4BB279F3860F41616B11D672FFE
:10091000782F8827985FF7CF869577956795B11DD3
:1009200093959639C8F30895E894BB2766277727EF
:10093000CB0197F908954ADF08F48FEF08950BD0A3
:10094000A9CF9ADF28F09FDF18F0952309F062CF36
:1009500090CF1124EACFAFDFA0F3959FD1F3950F8D
:1009600050E0551F629FF001729FBB27F00DB11D33
:10097000639FAA27F00DB11DAA1F649F6627B00DC3
:10098000A11D661F829F2227B00DA11D621F739FAC
:10099000B00DA11D621F839FA00D611D221F749FBA
:1009A0003327A00D611D231F849F600D211D822F01
:1009B000762F6A2F11249F5750408AF0E1F0882348
:1009C0004AF0EE0FFF1FBB1F661F771F881F915055
:1009D0005040A9F79E3F510570F01CCFA6CF5F3F56
:1009E000ECF3983EDCF3869577956795B795F79588
:1009F000E7959F5FC1F7FE2B880F911D9695879510
:100A000097F908951F920F920FB60F9211242F930A
:100A10003F938F939F93AF93BF93809132029091B6
:100A20003302A0913402B09135023091310223E0BB
:100A3000230F2D3758F50196A11DB11D20933102CA
:100A40008093320290933302A0933402B093350224
:100A50008091360290913702A0913802B09139020C
:100A60000196A11DB11D8093360290933702A09389
:100A70003802B0933902BF91AF919F918F913F910E
:100A80002F910F900FBE0F901F90189526E8230FFF
:100A90000296A11DB11DD2CF3FB7F89480913602C6
:100AA00090913702A0913802B091390226B5A89BE7
:100AB00005C02F3F19F00196A11DB11D3FBFBA2FF0
:100AC000A92F982F8827BC01CD01620F711D811DB0
:100AD000911D42E0660F771F881F991F4A95D1F735
:100AE0000895789484B5826084BD84B5816084BDA6
:100AF00085B5826085BD85B5816085BDEEE6F0E097
:100B0000808181608083E1E8F0E0108280818260F2
:100B10008083808181608083E0E8F0E08081816073
:100B20008083E1EBF0E0808184608083E0EBF0E0A3
:100B3000808181608083E1E9F0E080818260808350
:100B4000808181608083E0E9F0E080818160808342
:100B5000E1EAF0E08081826080838081816080832F
:100B6000E0EAF0E0808181608083E1E2F1E0808171
:100B700082608083808181608083E0E2F1E0808117
:100B800081608083EAE7F0E08081846080838081F7
:100B9000826080838081816080838081806880839F
:100BA0001092C10008958150823108F059C0E82F99
:100BB000F0E08827E252FA4F8F4F6DC4FE0502061F
:100BC000F005F605FA05300605060B060F061506B4
:100BD00019061D062306270630062B0631063506A4
:100BE000809180008F7780938000089580918000AD
:100BF0008F7DF9CF80918000877FF5CF84B58F7787
:100C000084BD089584B58F7DFBCF8091B0008F7730
:100C10008093B00008958091B0008F7DF9CF8091CE
:100C200090008F77809390000895809190008F7D41
:100C3000F9CF80919000877FF5CF8091A0008F77CA
:100C40008093A00008958091A0008F7DF9CF8091BE
:100C5000A000877FF5CF809120018F7780932001BE
:100C60000895809120018F7DF9CF80912001877FA9
:100C7000F5CFCF93DF9390E0FC01E65DFE4F24912A
:100C800080599E4FFC0184918823C9F090E0880F21
:100C9000991FFC01E053FE4FA591B491FC01EA5469
:100CA000FE4FC591D49161110DC09FB7F8948C91FE
:100CB000209582238C938881282328839FBFDF91EE
:100CC000CF910895623051F49FB7F8943C91822FF0
:100CD000809583238C93E8812E2BEFCF8FB7F894E8
:100CE000EC912E2B2C938FBFEACF1F93CF93DF93E2
:100CF000282F30E0F901EC51FF4F8491F901E65DB6
:100D0000FE4FD491F901E059FE4FC491CC23A1F0DC
:100D1000162F811148DFEC2FF0E0EE0FFF1FEA5491
:100D2000FE4FA591B4918FB7F894EC91111108C0C2
:100D3000D095DE23DC938FBFDF91CF911F91089573
:100D4000DE2BF8CFFC01918D228D892F90E0805C05
:100D50009F4F821B91098F7399270895FC01918DF4
:100D6000828D981731F0828DE80FF11D858D90E00E
:100D700008958FEF9FEF0895FC01918D828D981754
:100D800061F0A28DAE0FBF2FB11D5D968C91928D3B
:100D90009F5F9F73928F90E008958FEF9FEF08956C
:100DA000FC01538D448D252F30E0842F90E0821B71
:100DB000930B541710F0CF96089501970895FC01F6
:100DC000A48DA80FB92FB11DA35ABF4F2C91848DAC
:100DD00090E001968F739927848FA689B7892C9309
:100DE000A089B1898C91837080648C93938D848D5C
:100DF000981306C00288F389E02D80818F7D80835F
:100E00000895CF93DF93EC01888D8823B1F0AA89F0
:100E1000BB89E889F9898C9185FD03C0808186FDB5
:100E20000CC00FB607FCF7CF8C9185FFF2CF808105
:100E300085FFEDCFCE01C3DFEACFDF91CF910895DB
:100E4000EF92FF920F931F93CF93DF93EC0181E01A
:100E5000888F9B8D8C8D98131AC0E889F9898081C1
:100E600085FF15C09FB7F894EE89FF896083E889F4
:100E7000F98980818370806480839FBF81E090E0E6
:100E8000DF91CF911F910F91FF90EF900895F62E73
:100E90000B8D10E00F5F1F4F0F731127E02E8C8D0D
:100EA0008E110BC00FB607FCFACFE889F989808153
:100EB00085FFF5CFCE0183DFF2CFEB8DEC0FFD2F59
:100EC000F11DE35AFF4FF0829FB7F8940B8FEA8928
:100ED000FB8980818062D0CFCF92DF92EF92FF9228
:100EE0001F93CF93DF93EC016A017B01122FE889F6
:100EF000F98982E08083C11481EED806E104F1040F
:100F000099F060E079E08DE390E0A7019601A1D22D
:100F10002150310941095109569547953795279533
:100F2000211580E1380790F0E889F989108260E89E
:100F300074E88EE190E0A70196018BD2215031092F
:100F4000410951095695479537952795EC85FD85BB
:100F50003083EE85FF852083188EEC89FD89108310
:100F6000EA89FB89808180618083EA89FB898081AD
:100F700088608083EA89FB89808180688083EA8930
:100F8000FB8980818F7D8083DF91CF911F91FF90BE
:100F9000EF90DF90CF9008951F920F920FB60F92AF
:100FA00011240BB60F922F938F939F93EF93FF9380
:100FB000E0914A02F0914B028081E0915002F09161
:100FC000510282FD1DC09081809153028F5F8F730B
:100FD00020915402821741F0E0915302F0E0E65C68
:100FE000FD4F958F80935302FF91EF919F918F91C9
:100FF0002F910F900BBE0F900FBE0F901F90189562
:101000008081F2CF1F920F920FB60F9211240BB670
:101010000F922F933F934F935F936F937F938F9391
:101020009F93AF93BF93EF93FF938AE392E0C7DE62
:10103000FF91EF91BF91AF919F918F917F916F91B0
:101040005F914F913F912F910F900BBE0F900FBE6C
:101050000F901F901895EAE3F2E01382128288EE57
:1010600093E0A0E0B0E084839583A683B78386E114
:1010700092E09183808385EC90E09587848784EC6F
:1010800090E09787868780EC90E0918B808B81EC55
:1010900090E0938B828B82EC90E0958B848B86EC36
:1010A00090E0978B868B118E128E138E148E08957E
:1010B0001F920F920FB60F9211240BB60F922F931F
:1010C0008F939F93EF93FF93E091E702F091E802F3
:1010D0008081E091ED02F091EE0282FD1DC09081D1
:1010E0008091F0028F5F8F732091F102821741F09F
:1010F000E091F002F0E0E952FD4F958F8093F0020D
:10110000FF91EF919F918F912F910F900BBE0F90B8
:101110000FBE0F901F9018958081F2CF1F920F92F3
:101120000FB60F9211240BB60F922F933F934F934C
:101130005F936F937F938F939F93AF93BF93EF933F
:10114000FF9387ED92E03BDEFF91EF91BF91AF916E
:101150009F918F917F916F915F914F913F912F91CF
:101160000F900BBE0F900FBE0F901F901895E7EDDC
:10117000F2E01382128288EE93E0A0E0B0E0848374
:101180009583A683B78386E192E0918380838DEC7B
:1011900090E0958784878CEC90E09787868788EC31
:1011A00090E0918B808B89EC90E0938B828B8AEC22
:1011B00090E0958B848B8EEC90E0978B868B118ED4
:1011C000128E138E148E08951F920F920FB60F92E7
:1011D00011240BB60F922F938F939F93EF93FF934E
:1011E000E0918403F09185038081E0918A03F0917E
:1011F0008B0382FD1DC0908180918D038F5F8F7363
:1012000020918E03821741F0E0918D03F0E0EC58BD
:10121000FC4F958F80938D03FF91EF919F918F915C
:101220002F910F900BBE0F900FBE0F901F9018952F
:101230008081F2CF1F920F920FB60F9211240BB63E
:101240000F922F933F934F935F936F937F938F935F
:101250009F93AF93BF93EF93FF9384E793E0AFDD4A
:10126000FF91EF91BF91AF919F918F917F916F917E
:101270005F914F913F912F910F900BBE0F900FBE3A
:101280000F901F901895E4E7F3E01382128288EE26
:1012900093E0A0E0B0E084839583A683B78386E1E2
:1012A00092E09183808385ED90E09587848784ED3B
:1012B00090E09787868780ED90E0918B808B81ED21
:1012C00090E0938B828B82ED90E0958B848B86ED02
:1012D00090E0978B868B118E128E138E148E08954C
:1012E0001F920F920FB60F9211240BB60F922F93ED
:1012F0008F939F93EF93FF93E0912104F091220449
:101300008081E0912704F091280482FD1DC0908126
:1013100080912A048F5F8F7320912B04821741F0F4
:10132000E0912A04F0E0EF5EFB4F958F80932A0452
:10133000FF91EF919F918F912F910F900BBE0F9086
:101340000FBE0F901F9018958081F2CF1F920F92C1
:101350000FB60F9211240BB60F922F933F934F931A
:101360005F936F937F938F939F93AF93BF93EF930D
:10137000FF9381E194E023DDFF91EF91BF91AF9165
:101380009F918F917F916F915F914F913F912F919D
:101390000F900BBE0F900FBE0F901F901895E1E1BC
:1013A000F4E01382128288EE93E0A0E0B0E0848340
:1013B0009583A683B78386E192E09183808385E35A
:1013C00091E09587848784E391E09787868780E31F
:1013D00091E0918B808B81E391E0938B828B82E310
:1013E00091E0958B848B86E391E0978B868B118EB1
:1013F000128E138E148E0895AF92BF92CF92DF9209
:10140000EF92FF920F931F93CF93DF936C017B01B9
:101410008B01040F151FEB015E01AE18BF08C0174A
:10142000D10759F06991D601ED91FC910190F081BD
:10143000E02DC6011995892B79F7C501DF91CF9170
:101440001F910F91FF90EF90DF90CF90BF90AF90E2
:101450000895A1E21A2EAA1BBB1BFD010DC0AA1FF5
:10146000BB1FEE1FFF1FA217B307E407F50720F00D
:10147000A21BB30BE40BF50B661F771F881F991F88
:101480001A9469F760957095809590959B01AC01D1
:10149000BD01CF010895EE0FFF1F881F8BBF07907E
:0A14A000F691E02D1994F894FFCFA7
:1014AA000000803F000020410000A0400000000032
:1014BA002402000000002007FC09D0060107A2064A
:0414CA00BC06AE06A8
:00000001FF
