:020000040800F2
:1000000000000320E94000083F23000845230008C2
:100010004B2300085123000857230008000000006C
:10002000000000000000000000000000E50D0008D6
:100030005D23000800000000A10D0008D10C00089D
:1000400039410008394100083941000839410008A8
:100050003941000839410008394100083941000898
:100060003941000839410008394100083941000888
:100070003941000839410008394100083941000878
:100080003941000839410008394100083941000868
:100090003941000839410008394100083941000858
:1000A0003941000839410008394100083941000848
:1000B0003941000839410008394100083941000838
:1000C0003941000839410008394100083941000828
:1000D0003941000839410008394100083941000818
:1000E0003941000839410008394100083941000808
:1000F00039410008394100083941000839410008F8
:1001000039410008394100086D23000839410008D1
:1001100039410008394100083941000839410008D7
:1001200081230008394100088F2300083941000865
:1001300039410008394100083941000839410008B7
:1001400039410008394100083941000839410008A7
:100150003941000839410008394100083941000897
:100160003941000839410008394100083941000887
:1001700039410008394100083941000800000000F9
:100180003941000839410008394100083941000867
:100190003941000839410008394100083941000857
:0C01A000394100083941000839410008CD
:1001AC0010B5054C237833B9044B13B10448AFF3A5
:1001BC0000800123237010BD2800002000000000E7
:1001CC009441000808B5034B1BB103490348AFF336
:1001DC00008008BD000000002C00002094410008A5
:1001EC0081F0004102E000BF83F0004330B54FEADC
:1001FC0041044FEA430594EA050F08BF90EA020F49
:10020C001FBF54EA000C55EA020C7FEA645C7FEADB
:10021C00655C00F0E2804FEA5454D4EB5555B8BFFE
:10022C006D420CDD2C4480EA020281EA030382EA6F
:10023C00000083EA010180EA020281EA0303362D01
:10024C0088BF30BD11F0004F4FEA01314FF4801CD4
:10025C004CEA113102D0404261EB410113F0004FE6
:10026C004FEA03334CEA133302D0524263EB43039D
:10027C0094EA050F00F0A780A4F10104D5F1200E3B
:10028C000DDB02FA0EFC22FA05F2801841F1000196
:10029C0003FA0EF2801843FA05F359410EE0A5F16A
:1002AC0020050EF1200E012A03FA0EFC28BF4CF09B
:1002BC00020C43FA05F3C01851EBE37101F0004551
:1002CC0007D54FF0000EDCF1000C7EEB00006EEB5E
:1002DC000101B1F5801F1BD3B1F5001F0CD34908E8
:1002EC005FEA30004FEA3C0C04F101044FEA44523F
:1002FC0012F5800F80F09A80BCF1004F08BF5FEAC6
:10030C00500C50F1000041EB045141EA050130BDA5
:10031C005FEA4C0C404141EB0101013C28BFB1F5B7
:10032C00801FE9D291F0000F04BF01460020B1FA02
:10033C0081F308BF2033A3F10B03B3F120020CDAD5
:10034C000C3208DD02F1140CC2F10C0201FA0CF0B3
:10035C0021FA02F10CE002F11402D8BFC2F1200C18
:10036C0001FA02F120FA0CFCDCBF41EA0C019040CE
:10037C00E41AA2BF01EB0451294330BD6FEA040417
:10038C001F3C1CDA0C340EDC04F11404C4F1200202
:10039C0020FA04F001FA02F340EA030021FA04F314
:1003AC0045EA030130BDC4F10C04C4F1200220FA6B
:1003BC0002F001FA04F340EA0300294630BD21FAA9
:1003CC0004F0294630BD94F0000F83F4801306BF6F
:1003DC0081F480110134013D4EE77FEA645C18BF63
:1003EC007FEA655C29D094EA050F08BF90EA020FFA
:1003FC0005D054EA000C04BF1946104630BD91EAF2
:10040C00030F1EBF0021002030BD5FEA545C05D1F4
:10041C004000494128BF41F0004130BD14F5800433
:10042C003CBF01F5801130BD01F0004545F0FE41A7
:10043C0041F470014FF0000030BD7FEA645C1ABFDC
:10044C00194610467FEA655C1CBF0B46024650EA13
:10045C00013406BF52EA033591EA030F41F400213F
:10046C0030BD00BF90F0000F04BF0021704730B5C5
:10047C004FF4806404F132044FF000054FF000019A
:10048C0050E700BF90F0000F04BF0021704730B55B
:10049C004FF4806404F1320410F0004548BF404230
:1004AC004FF000013EE700BF42004FEAE2014FEA85
:1004BC0031014FEA02701FBF12F07F4393F07F4F60
:1004CC0081F06051704732F07F4208BF704793F063
:1004DC007F4F04BF41F40021704730B54FF4607476
:1004EC0001F0004521F000411CE700BF50EA010279
:1004FC0008BF704730B54FF000050AE050EA010222
:10050C0008BF704730B511F0004502D5404261EB91
:10051C0041014FF4806404F132045FEA915C3FF4D2
:10052C00D8AE4FF003025FEADC0C18BF03325FEA6F
:10053C00DC0C18BF033202EBDC02C2F1200300FA20
:10054C0003FC20FA02F001FA03FE40EA0E0021FA45
:10055C0002F11444BDE600BF4FF0FF3C06E000BFC3
:10056C004FF0010C02E000BF4FF0010C4DF804CD30
:10057C004FEA410C7FEA6C5C4FEA430C18BF7FEAF0
:10058C006C5C1BD001B050EA410C0CBF52EA430C1E
:10059C0091EA030F02BF90EA020F0020704710F19E
:1005AC00000F91EA030F58BF994208BF90422CBF2D
:1005BC00D8176FEAE37040F0010070474FEA410C26
:1005CC007FEA6C5C02D150EA013C07D14FEA430C44
:1005DC007FEA6C5CD6D152EA033CD3D05DF8040BB5
:1005EC00704700BF8446104662468C4619466346E7
:1005FC0000E000BF01B5FFF7B7FF002848BF10F1BE
:10060C00000F01BD4DF808EDFFF7F4FF0CBF012002
:10061C0000205DF808FB00BF4DF808EDFFF7EAFF7E
:10062C0034BF012000205DF808FB00BF4DF808ED39
:10063C00FFF7E0FF94BF012000205DF808FB00BF2E
:10064C004DF808EDFFF7CEFF94BF012000205DF8B8
:10065C0008FB00BF4DF808EDFFF7C4FF34BF0120C5
:10066C0000205DF808FB00BF53B94AB9002908BF48
:10067C0000281CBF4FF0FF314FF0FF3000F06EB977
:10068C00ADF1080C6DE904CE00F006F8DDF804E0DD
:10069C00DDE9022304B070472DE9F047089D0446BC
:1006AC008C46002B40F083808A42174647D9B2FA19
:1006BC0082F242B1C2F1200024FA00F0914097403E
:1006CC0040EA010C94404FEA1748230CBCFBF8F6A7
:1006DC001FFA87FE08FB16C143EA014306FB0EF125
:1006EC00994209D9FB1806F1FF3080F01981994223
:1006FC0040F21681023E3B445B1AA4B2B3FBF8F005
:10070C0008FB103344EA034400FB0EFEA64509D94E
:10071C003C1900F1FF3380F00581A64540F20281BF
:10072C0002383C4440EA0640A4EB0E0400261DB1FE
:10073C00D4400023C5E900433146BDE8F08702B937
:10074C00FFDEB2FA82F2002A50D1CB1B4FEA174ED1
:10075C001FFA87F80126B3FBFEFC210C0EFB1C33A1
:10076C0041EA034108FB0CF38B4207D979180CF1D1
:10077C00FF3002D28B4200F2E9808446C91AA3B240
:10078C00B1FBFEF00EFB101143EA014408FB00F82C
:10079C00A04507D93C1900F1FF3302D2A04500F265
:1007AC00D9801846A4EB080440EA0C40BFE78B4202
:1007BC0009D9002D00F0B1800026C5E900013046B2
:1007CC003146BDE8F087B3FA83F6002E4AD18B424E
:1007DC0002D3824200F2B880841A61EB030101203B
:1007EC008C46002DA8D0C5E9004CA5E7C2F120032A
:1007FC0020FA03F6974001FA02F04FEA174ED9405F
:10080C003043030CB1FBFEF61FFA87F80EFB1611F2
:10081C0043EA014306FB08F1994204FA02F409D9B0
:10082C00FB1806F1FF3C80F08D80994240F28A80E3
:10083C00023E3B445B1A81B2B3FBFEF00EFB10335D
:10084C0041EA034100FB08F38B4207D9791800F108
:10085C00FF3C73D28B4271D902383944CB1A40EA2F
:10086C00064678E7C6F1200C03FA06F422FA0CF3DC
:10087C001C4320FA0CF701FA06F34FEA144E21FA46
:10088C000CF11F433B0CB1FBFEF91FFA84F80EFB75
:10089C00191143EA014109FB08FA8A4502FA06F2EA
:1008AC0000FA06F308D9611809F1FF3048D28A45DD
:1008BC0046D9A9F102092144A1EB0A01BFB2B1FB4F
:1008CC00FEF00EFB101147EA014700FB08F8B84593
:1008DC0007D9E71900F1FF312ED2B8452CD90238CF
:1008EC00274440EA0940A7EB0807A0FB02894F45C3
:1008FC00C64649461AD317D05DB1B3EB0E0267EB6F
:10090C00010707FA0CFCF2404CEA0202F740C5E979
:10091C00002700263146BDE8F0872E4628460BE717
:10092C000646E9E61846FDE64345E5D2B8EB020E6D
:10093C0069EB04010138DFE70846D2E760468DE732
:10094C008146B9E7664675E730464AE7ACF1020CDA
:10095C00394413E702383C4424E700BF704700BF1A
:10096C0080B500AF0F4B1B785A1CD1B20D4A1170D9
:10097C00002B09D00C4B01221A600A4B1B78013B4F
:10098C00DAB2084B1A700BE062B600BF00F09CF8AC
:10099C0072B600BF034B1B78013BDAB2014B1A70E5
:1009AC0080BD00BF480000204400002080B584B00A
:1009BC0000AF786039602F4BFB602F4BBB602F4B27
:1009CC0000221A702E4B00221A7001DF02F0A6FBD7
:1009DC0000F09CFF00F0FEF801F02EFA01F004FA92
:1009EC0001F08AF801F0FAF801F04CF901F07CF909
:1009FC0000F0DAFF234B1B6800221A6000F0CEF8DF
:100A0C0072B600BF97ED030A00F06CF91D4B1B6822
:100A1C001B68002B0CBF01230023DBB21A46184BBA
:100A2C001A7062B600BF62B600BF15E0154B1B68AA
:100A3C001B68002B14BF01230023DBB21A460F4B9B
:100A4C001A700E4B1B78DBB2002B05D00E4B1B68BB
:100A5C000D4A23F001031360094B1B78DBB2002B0A
:100A6C00E4D100F0AFF872B600BF0023184610377F
:100A7C00BD4680BDCDCCCC3D0000284351000020AC
:100A8C0050000020AC41000810E000E080B483B0BE
:100A9C0000AF786039607B683A689A6100BF0C37A8
:100AAC00BD465DF8047B704780B483B000AF7860BE
:100ABC0039603B681A047B689A6100BF0C37BD46ED
:100ACC005DF8047B70470000B0B586B000AF2F4BCB
:100ADC001B681846FFF7D6FC2D4BD3E90423FFF710
:100AEC009BFD0346002B07D0284B1B68002B03DB18
:100AFC00274BD3E9002303E04FF000024FF0000333
:100B0C00C7E90223214B1B681846FFF7BBFC0446C0
:100B1C000D461F4BD3E902014FF000021D4BFFF7AE
:100B2C0063FB02460B4620462946FFF789FD034628
:100B3C00002B03D0154B00221A6004E0134B1B68EA
:100B4C000133124A1360144B7B604FF000024FF0DC
:100B5C000003D7E90201FFF755FD0346002B02D134
:100B6C0010237B6101E000237B617B691946786867
:100B7C00FFF78CFF7B69DB4303F0100319467868A1
:100B8C00FFF792FF00BF1837BD46B0BD54000020E0
:100B9C00000000200000F03F0010024080B500AFC4
:100BAC00064B00221A6004220021054803F0E4FAE7
:100BBC00034B00221A6000BF80BD00BF4C00002018
:100BCC005400002080B400AF00BFBD465DF8047B2C
:100BDC007047000080B400AF00BFBD465DF8047BD9
:100BEC00704700BF80B483B000AF03463960FB711F
:100BFC0097F90730002B0ADB3B68DAB20C4997F9FE
:100C0C0007301201D2B20B4483F800230AE03B6890
:100C1C00DAB20849FB7903F00F03043B1201D2B29C
:100C2C000B441A7600BF0C37BD465DF8047B704749
:100C3C0000E100E000ED00E080B582B000AF78602C
:100C4C007B68013BB3F1807F01D301230FE00A4A9B
:100C5C007B68013B53600F214FF0FF30FFF7C2FF61
:100C6C00054B00229A60044B07221A600023184699
:100C7C000837BD4680BD00BF10E000E080B500AF76
:100C8C00BFF34F8F00BFBFF36F8F00BF0B4B1A68C2
:100C9C000B4B1B689A4202D3084B00221A60074B7D
:100CAC001B685A1C05490A60002B05D172B600BF9F
:100CBC00FFF756FE62B600BF00BF80BD5C0000208F
:100CCC005800002080B400AF054B5B68044A43F029
:100CDC008053536000BFBD465DF8047B704700BF76
:100CEC0000ED00E080B584B000AF87ED010A234B26
:100CFC001B6807EE903AB8EE677AD7ED017A67EE8B
:100D0C00277AFCEEE77A17EE903AFB60FB68B3F1BA
:100D1C00807F18D3FB6807EE903AB8EE677ADFED68
:100D2C00186AC7EE267AFCEEE77A17EE903A013392
:100D3C00144A1360134B1B68FA68B2FBF3F31846A2
:100D4C00FFF77AFF05E00F4B00221A60F868FFF7F7
:100D5C0073FF0D4B00221A600C4A0D4B1A600F21C9
:100D6C006FF00400FFF73EFF0F216FF00100FFF75B
:100D7C0039FF00BF1037BD4680BD00BF24000020E6
:100D8C00FFFF7F4B580000205C000020890C0008FE
:100D9C0060000020EFF3008001B5EFF3118003B485
:100DAC001EF0100F08BFB0EE400A0A48006803B4EA
:100DBC0088B004A006904FF0807007906FF006008A
:100DCC008646704703BC8047BFF36F8F00DFFEE79A
:100DDC0000BF0000600000201EF0100F08BFB0EE36
:100DEC00400A1EF0040F0CBFEFF30880EFF30980EC
:100DFC00816911F8020C10B101280DD00BE01EF026
:100E0C00100F0CBF1AB008B003BC80F3118803BCE0
:100E1C0080F300880847FEE74EF61451CEF200012D
:100E2C000A6842F001020A607047F4E700BF00BF95
:100E3C0080B400AF044BDB681B0A03F007031846B1
:100E4C00BD465DF8047B704700ED00E080B483B0D4
:100E5C0000AF0346FB7197F90730002B0BDBFB79D6
:100E6C0003F01F02074997F907305B09012000FACC
:100E7C0002F241F8232000BF0C37BD465DF8047B1D
:100E8C00704700BF00E100E080B483B000AF0346C0
:100E9C003960FB7197F90730002B0ADB3B68DAB23B
:100EAC000C4997F907301201D2B20B4483F8002396
:100EBC000AE03B68DAB20849FB7903F00F03043B04
:100ECC001201D2B20B441A7600BF0C37BD465DF846
:100EDC00047B704700E100E000ED00E080B489B0D5
:100EEC0000AFF860B9607A60FB6803F00703FB6140
:100EFC00FB69C3F10703042B28BF0423BB61FB6907
:100F0C000433062B02D9FB69033B00E000237B6111
:100F1C004FF0FF32BB6902FA03F3DA43BB681A40A5
:100F2C007B699A404FF0FF317B6901FA03F3D94397
:100F3C007B680B40134318462437BD465DF8047B91
:100F4C00704780B489B000AFF860B9607A60FB6814
:100F5C002C331946BB6803F440734FF440727A612A
:100F6C007A6992FAA2F23A613A69BA61BA69002ACC
:100F7C0001D1202203E0BA69B2FA82F2D2B2D34094
:100F8C009B000B44FB61FB691A68BB6803F01F03F1
:100F9C001F2101FA03F3DB431A407B6803F01F01A6
:100FAC00BB6803F01F0301FA03F31A43FB691A60D1
:100FBC0000BF2437BD465DF8047B704780B483B016
:100FCC0000AF786039607B689B6823F480623B6873
:100FDC001A437B689A6000BF0C37BD465DF8047BF2
:100FEC00704780B48FB000AFF860B9607A60FB686E
:100FFC000C331946BB6803F000734FF000727A6132
:10100C007A6992FAA2F23A613A69BA61BA69002A2B
:10101C0001D1202203E0BA69B2FA82F2D2B2D340F3
:10102C009B000B447B637B6B1A68BB6803F0F87303
:10103C004FF0F8713962396A91FAA1F1F961F969E5
:10104C007962796A002901D1202103E0796AB1FA29
:10105C0081F1C9B2CB40072101FA03F3DB431A40FB
:10106C00BB6803F0F8734FF0F871F962F96A91FA02
:10107C00A1F1B962B96A3963396B002901D1202118
:10108C0003E0396BB1FA81F1C9B2CB40796801FA4E
:10109C0003F31A437B6B1A6000BF3C37BD465DF807
:1010AC00047B704780B485B000AFF860B9607A609B
:1010BC000D4ABB6813441B781A46FB6813441B6823
:1010CC0023F0C0020849BB680B441B781946FB6827
:1010DC000B4419467B6813430B6000BF1437BD46A5
:1010EC005DF8047B704700BFB041000880B485B048
:1010FC0000AFF860B9607A600D4ABB6813441B7886
:10110C001A46FB6813441B6823F490720849BB68A9
:10111C000B441B781946FB680B4419467B68134338
:10112C000B6000BF1437BD465DF8047B704700BFF1
:10113C00B041000880B485B000AFF860B9607A6047
:10114C000D4ABB6813441B781A46FB6813441B6892
:10115C0023F400720849BB680B441B781946FB68E2
:10116C000B4419467B6813430B6000BF1437BD4614
:10117C005DF8047B704700BFB041000880B485B0B7
:10118C0000AFF860B9607A600D4ABB6813441B78F5
:10119C001A46FB6813441B6823F480620849BB6839
:1011AC000B441B781946FB680B4419467B681343A8
:1011BC000B6000BF1437BD465DF8047B704700BF61
:1011CC00B041000880B485B000AFF860B9607A60B7
:1011DC000D4ABB6813441B781A46FB6813441B6802
:1011EC0023F4C0520849BB680B441B781946FB68B2
:1011FC000B4419467B6813430B6000BF1437BD4684
:10120C005DF8047B704700BFB041000880B485B026
:10121C0000AFF860B9607A600D4ABB6813441B7864
:10122C001A46FB6813441B6823F4C0420849BB6888
:10123C000B441B781946FB680B4419467B68134317
:10124C000B6000BF1437BD465DF8047B704700BFD0
:10125C00B041000880B485B000AFF860B9607A6026
:10126C000D4ABB6813441B781A46FB6813441B6871
:10127C0023F440320849BB680B441B781946FB68C1
:10128C000B4419467B6813430B6000BF1437BD46F3
:10129C005DF8047B704700BFB041000880B485B096
:1012AC0000AFF860B9607A600D4ABB6813441B78D4
:1012BC001A46FB6813441B6823F060620849BB683C
:1012CC000B441B781946FB680B4419467B68134387
:1012DC000B6000BF1437BD465DF8047B704700BF40
:1012EC00B041000880B483B000AF786039600C4A1C
:1012FC003B6813441B781A467B6813445B690849A6
:10130C003A680A44127811467A680A4423F00403B6
:10131C00536100BF0C37BD465DF8047B704700BFBE
:10132C00B041000880B483B000AF78607B681B6864
:10133C0023F080027B681A6000BF0C37BD465DF855
:10134C00047B704780B483B000AF78607B681B6807
:10135C0023F040027B681A6000BF0C37BD465DF875
:10136C00047B704780B483B000AF786039607B68D1
:10137C00DB6823F0FE023B681A437B68DA6000BF2F
:10138C000C37BD465DF8047B704780B483B000AF6A
:10139C0078607B68DB6823F001027B68DA6000BF51
:1013AC000C37BD465DF8047B7047000080B400AF7D
:1013BC00054B1B68044A43F48033136000BFBD46E1
:1013CC005DF8047B704700BF0038024080B400AF6A
:1013DC00074B1B6803F40033B3F5003F0CBF01232C
:1013EC000023DBB21846BD465DF8047B704700BF96
:1013FC000038024080B483B000AF7860064B9B6825
:10140C0023F0030204497B6813438B6000BF0C3745
:10141C00BD465DF8047B70470038024080B400AFD5
:10142C00044B9B6803F00C031846BD465DF8047B27
:10143C00704700BF0038024080B483B000AF7860C2
:10144C00064B9B6823F0F00204497B6813438B60C6
:10145C0000BF0C37BD465DF8047B70470038024076
:10146C0080B483B000AF7860064B9B6823F4E052E5
:10147C0004497B6813438B6000BF0C37BD465DF895
:10148C00047B70470038024080B483B000AF7860B2
:10149C00064B9B6823F4604204497B6813438B60C2
:1014AC0000BF0C37BD465DF8047B70470038024026
:1014BC0080B483B000AF7860074BD3F88C3023F046
:1014CC00807205497B681343C1F88C3000BF0C3720
:1014DC00BD465DF8047B70470038024080B400AF15
:1014EC00054B1B68044A43F08073136000BFBD4674
:1014FC005DF8047B704700BF0038024080B400AF39
:10150C00074B1B6803F00073B3F1007F0CBF012382
:10151C000023DBB21846BD465DF8047B704700BF64
:10152C000038024080B485B000AFF860B9607A60D2
:10153C003B600D4B5A680D4B1340F968BA68114368
:10154C007A6892010A43084913434B60064B5B6867
:10155C0023F4403204493B6813434B6000BF1437FB
:10156C00BD465DF8047B7047003802400080BFFF29
:10157C0080B485B000AF7860084B1A6B07497B6864
:10158C0013430B63054B1A6B7B681340FB60FB68C2
:10159C0000BF1437BD465DF8047B7047003802402D
:1015AC0080B485B000AF7860084B1A6C07497B6833
:1015BC0013430B64054B1A6C7B681340FB60FB6890
:1015CC0000BF1437BD465DF8047B704700380240FD
:1015DC0080B485B000AF7860084B5A6C07497B68C3
:1015EC0013434B64054B5A6C7B681340FB60FB68E0
:1015FC0000BF1437BD465DF8047B704700380240CD
:10160C0080B487B000AF78603960174A3B68DBB2B2
:10161C00023352F823203B681B0CDB4302EA030124
:10162C003B681B0C3B613B6993FAA3F3FB60FB68C3
:10163C007B617B69002B01D1202303E07B69B3FA2A
:10164C0083F3DBB21A467B6803FA02F206483B6866
:10165C00DBB20A43023340F8232000BF1C37BD46DF
:10166C005DF8047B704700BF0038014080B483B044
:10167C0000AF7860064B1B6823F00F0204497B68AF
:10168C0013430B6000BF0C37BD465DF8047B7047FD
:10169C00003C024080B400AF044B1B6803F00F0306
:1016AC001846BD465DF8047B704700BF003C024005
:1016BC0080B400AF054B1B68044A23F480331360DD
:1016CC0000BFBD465DF8047B704700BF0070004052
:1016DC0080B483B000AF7860064B1B6823F44042A3
:1016EC0004497B6813430B6000BF0C37BD465DF8A3
:1016FC00047B70470070004080B483B000AF78600A
:10170C0039607B685B6823F010023B681A437B6886
:10171C005A6000BF0C37BD465DF8047B704780B43F
:10172C0083B000AF78607B681B6823F080027B6815
:10173C001A6000BF0C37BD465DF8047B704780B45F
:10174C0083B000AF786039607B689B6823F480437A
:10175C0023F007033A681A437B689A6000BF0C3782
:10176C00BD465DF8047B704780B483B000AF7860F1
:10177C0039607B685B6823F070023B681A437B68B6
:10178C005A6000BF0C37BD465DF8047B704780B4CF
:10179C0083B000AF78607B689B6823F080027B6825
:1017AC009A6000BF0C37BD465DF8047B704780B46F
:1017BC0083B000AF78607B68DB6843F400527B68D1
:1017CC00DA6000BF0C37BD465DF8047B704780B40F
:1017DC0083B000AF78607B681B6923F490427B6810
:1017EC001A617B685B6923F02A027B685A6100BF2F
:1017FC000C37BD465DF8047B704780B48BB000AFEE
:10180C00F860B9607A60FB681A68BB687B617B69B9
:10181C0093FAA3F33B613B69BB61BB69002B01D11C
:10182C00202303E0BB69B3FA83F3DBB25B00032133
:10183C0001FA03F3DB431A40BB683B623B6A93FA41
:10184C00A3F3FB61FB697B627B6A002B01D1202334
:10185C0003E07B6AB3FA83F3DBB25B00796801FACD
:10186C0003F31A43FB681A6000BF2C37BD465DF8C2
:10187C00047B704780B48BB000AFF860B9607A60BD
:10188C00FB68DA68BB687B617B6993FAA3F33B6105
:10189C003B69BB61BB69002B01D1202303E0BB6911
:1018AC00B3FA83F3DBB25B00032101FA03F3DB43EE
:1018BC001A40BB683B623B6A93FAA3F3FB61FB697A
:1018CC007B627B6A002B01D1202303E07B6AB3FA95
:1018DC0083F3DBB25B00796801FA03F31A43FB680C
:1018EC00DA6000BF2C37BD465DF8047B704780B4CE
:1018FC0083B000AF786039603B681A047B689A61EA
:10190C0000BF0C37BD465DF8047B704780B500AF57
:10191C000520FFF7ABFE00BFFFF7BCFE0346052B0F
:10192C00FAD14FF44040FFF7D3FEFFF7C1FEFFF7AB
:10193C003DFD00BFFFF74AFD0346012BFAD1002302
:10194C00A82204214FF48000FFF7ECFDFFF7C6FD41
:10195C0000BFFFF7D3FD0346012BFAD10020FFF7A0
:10196C006BFD4FF4A050FFF77BFD4FF40040FFF7E9
:10197C008BFD0220FFF73EFD00BFFFF74FFD034636
:10198C00082BFAD1074801F06BF9002000F02CFD70
:10199C000346002B01D000F0C7FC0020FFF788FDA8
:1019AC0000BF80BD007A030A80B592B000AF07F18A
:1019BC003C0300221A605A609A6007F12803002247
:1019CC001A605A609A60DA601A6107F118030022F3
:1019DC001A605A609A60DA603B4600221A605A60BC
:1019EC009A60DA601A615A614FF48060FFF7F0FD7B
:1019FC002020FFF7BDFD20233B6003237B600023E9
:101A0C003B613B461946374800F093FE4FF080622D
:101A1C0000213548FFF742FC002200213248FFF735
:101A2C0041FB002200213048FFF714FC4FF4807278
:101A3C0000212D48FFF75AFB002200212A48FFF70E
:101A4C0079FB4FF4806200212748FFF797FB4FF496
:101A5C00006200212448FFF7B5FB4FF4005200212F
:101A6C002148FFF7D3FB00211F48FFF73BFC002365
:101A7C00FB6300233B644FF480737B6407F13C03EE
:101A8C0019461A4800F044FF0023BB620023FB6296
:101A9C0000233B6300237B634FF48073BB6307F12C
:101AAC0028031946114800F05FFF4FF480610F487E
:101ABC00FFF784FA4FF44033BB6107F11803194662
:101ACC000B4800F0DDFE0B4A4FF400710748FFF79E
:101ADC0038FA002207490548FFF783FA00BF483758
:101AEC00BD4680BD0014024000640240002201404B
:101AFC00002301400F00F00080B58EB000AF07F15D
:101B0C00180320220021184602F036FB3B46002227
:101B1C001A605A609A60DA601A615A610420FFF701
:101B2C0027FD0120FFF724FD4FF400733B600223D7
:101B3C007B600023BB600123FB6001233B6104231A
:101B4C007B613B461946214800F0F3FD4FF480734E
:101B5C003B6002237B600023BB600123FB600123FD
:101B6C003B6104237B613B461946194800F0E1FDBB
:101B7C004FF40000FFF714FD1648FFF706FC15485C
:101B8C00FFF7E0FB1348FFF7CDFB0023BB61124BC3
:101B9C00FB6100233B6200237B620023BB620023BA
:101BAC00FB624FF480633B634FF480437B6307F12C
:101BBC0018031946074801F0F3FB00210548FFF70D
:101BCC00D1FB00BF3837BD4680BD00BF00080240C6
:101BDC0000000240005C0040A086010080B590B07F
:101BEC0000AF07F1180328220021184602F0C4FAAE
:101BFC003B4600221A605A609A60DA601A615A6198
:101C0C004FF48010FFF7E4FC2020FFF7B1FC4FF4F9
:101C1C0060733B6002237B600023BB600023FB608E
:101C2C0000233B6105237B613B461946134800F0BA
:101C3C0080FD0023BB614FF48273FB6100233B6288
:101C4C0000237B620023BB624FF40073FB621823FA
:101C5C003B6300237B630023BB630A23FB6307F115
:101C6C0018031946064801F0F7FB00210448FFF75A
:101C7C0043FD00BF4037BD4680BD00BF001402408D
:101C8C000050014080B586B000AF3B1D00221A60A9
:101C9C005A609A60DA601A610120FFF799FC002300
:101CAC00BB800023BB604FF6FF73FB6000233B61DE
:101CBC0000237B613B1D19460A4801F007FF0948C8
:101CCC00FFF72DFD00210748FFF739FD00210548DE
:101CDC00FFF74AFD0348FFF75AFD00BF1837BD4612
:101CEC0080BD00BF0000014080B58EB000AF07F191
:101CFC001C0300221A605A609A60DA601A615A61F9
:101D0C009A613B1D00221A605A609A60DA601A616F
:101D1C005A611020FFF75CFC0120FFF729FC4FF4FF
:101D2C00C0637B600223BB600323FB6000233B6129
:101D3C0000237B610723BB613B1D1946274800F03C
:101D4C00F8FC4FF0006202212548FFF7A7FA0022A9
:101D5C0002212348FFF7A6F9002202212048FFF7B1
:101D6C0079FA002202211E48FFF7C0F90022022155
:101D7C001B48FFF7DFF94FF4806202211848FFF788
:101D8C00FDF9002202211648FFF71CFA002202215D
:101D9C001348FFF73BFA02211148FFF7A3FA4FF45F
:101DAC00E133FB6100233B6200237B620023BB62B7
:101DBC000C23FB6200233B6300237B6307F11C03B2
:101DCC001946084802F0E6F80648FFF700FD0548FA
:101DDC00FFF7EDFC00BF3837BD4680BD0000024068
:101DEC00006402400010014080B500AF4FF4800049
:101DFC00FFF7BEFBFFF71CF8034600220021184634
:101E0C00FFF76CF8034619463820FFF73DF83820E9
:101E1C00FFF71CF8FFF70CF80346002200211846C8
:101E2C00FFF75CF8034619463A20FFF72DF83A20E5
:101E3C00FFF70CF800BF80BD80B588B000AF07F18C
:101E4C00180300221A605A603B4600221A605A603E
:101E5C009A60DA601A615A611020FFF789FB04203E
:101E6C00FFF786FB2020FFF783FB8020FFF780FB2A
:101E7C000120FFF77DFB0220FFF77AFB4020FFF7E4
:101E8C0077FB0820FFF774FB4FF45F71B848FFF73E
:101E9C002EFD1621B748FFF72AFD8021B648FFF723
:101EAC0026FD4FF45C51B548FFF721FD4FF4C041BE
:101EBC00B348FFF71CFD4FF45F733B6001237B605D
:101ECC000023BB600023FB6000233B613B461946AB
:101EDC00A74800F02EFC4FF61F033B6002237B60EB
:101EEC000323BB600023FB6000233B610C237B615D
:101EFC003B461946A34800F01CFC4FF480633B6042
:101F0C0002237B600023BB600023FB6000233B614A
:101F1C000E237B613B4619469A4800F00AFC0123CC
:101F2C003B6002237B600323BB600023FB60002328
:101F3C003B610C237B613B4619468E4800F0F9FB54
:101F4C0016233B6001237B600023BB600023FB60F6
:101F5C0000233B613B461946864800F0EAFB41F6FC
:101F6C0058033B6002237B600023BB600023FB60B3
:101F7C0000233B610E237B613B4619467E4800F0F3
:101F8C00D8FB80233B6001237B600023BB600023D4
:101F9C00FB6000233B613B461946774800F0C9FBC8
:101FAC0003233B6002237B600023BB600023FB60A8
:101FBC0000233B6109237B613B461946724800F0C4
:101FCC00B8FB04233B6000237B6000233B613B4652
:101FDC0019466D4800F0ADFB48F233133B60022309
:101FEC007B600323BB600023FB6000233B610C235D
:101FFC007B613B461946624800F09BFB4FF68343DE
:10200C003B6002237B600323BB600023FB60002347
:10201C003B610C237B613B461946554800F089FB1C
:10202C004FF470633B6002237B600023BB60002392
:10203C00FB6000233B610E237B613B4619465248F3
:10204C0000F077FB4FF450433B6002237B6000238E
:10205C00BB600023FB6000233B610C237B613B4690
:10206C001946494800F065FB4FF400533B600023D0
:10207C007B6000233B613B461946434800F059FB0B
:10208C004FF45C533B6001237B600023BB60002357
:10209C00FB6000233B613B461946384800F049FB86
:1020AC004FF400633B6000237B6000233B613B46A5
:1020BC001946324800F03DFB4CF203033B6002230F
:1020CC007B600323BB600023FB6000233B610C237C
:1020DC007B613B461946294800F02BFB4FF40C63FF
:1020EC003B6002237B600023BB600023FB6000236A
:1020FC003B610E237B613B461946214800F019FBDE
:10210C004FF498633B6002237B600023BB60002389
:10211C00FB6000233B610E237B613B46194615484F
:10212C0000F007FB48233B6002237B600023BB606D
:10213C000023FB6000233B610E237B613B46194669
:10214C000E4800F0F6FA4FF4A0533B6002237B607C
:10215C000023BB600023FB6000233B6109237B61F0
:10216C003B461946064800F0E4FA4FF4C0430DE034
:10217C00001002400008024000000240000C024027
:10218C000018024000140240000402403B6001238E
:10219C007B600023BB600023FB6000233B613B465C
:1021AC001946524800F0C5FA60233B6002237B605D
:1021BC000323BB600023FB6000233B610C237B618A
:1021CC003B4619464A4800F0B4FA4FF470210020FF
:1021DC00FFF716FA4FF470010020FFF711FA4FF0D9
:1021EC0070610020FFF70CFA42490220FFF708FA51
:1021FC0041490020FFF704FA0123BB6101233B771F
:10220C0001237B770123BB7707F11803184600F0F5
:10221C00CFFD0223BB6101233B7701237B77012395
:10222C00BB7707F11803184600F0C2FD0423BB610D
:10223C0001233B7701237B770123BB7707F118033D
:10224C00184600F0B5FD2023BB6101233B77012329
:10225C007B770123BB7707F11803184600F0A8FD24
:10226C004FF40043BB6101233B7701237B770123B0
:10227C00BB7707F11803184600F09AFD00220121E4
:10228C001E48FFF7F7FA002202211C48FFF7F2FA6A
:10229C00002204211948FFF7EDFA002220211848EA
:1022AC00FFF7E8FA00224FF400411448FFF7E2FA76
:1022BC00002201211148FFF7A0FA002202210F4849
:1022CC00FFF79BFA002204210C48FFF796FA002234
:1022DC0020210B48FFF791FA00224FF400410748E8
:1022EC00FFF78BFA00BF2037BD4680BD00180240B7
:1022FC00000402400100F000030000F00000024066
:10230C000008024080B582B000AF78607B681B6823
:10231C00044A934201D100F023FF00BF0837BD46A9
:10232C0080BD00BF000C004080B400AF72B600BF8F
:10233C00FEE780B400AFFEE780B400AFFEE780B4E8
:10234C0000AFFEE780B400AFFEE780B400AFFEE75D
:10235C0080B400AF00BFBD465DF8047B7047000041
:10236C0080B500AF024801F093F900BF80BD00BFFB
:10237C006400002080B400AF00BFBD465DF8047B54
:10238C00704780B400AF00BFBD465DF8047B70475A
:10239C0080B582B000AF00237B60124B5B6C114A9E
:1023AC0043F4804353640F4B5B6C03F480437B60BA
:1023BC007B6800233B600B4B1B6C0A4A43F0805339
:1023CC001364084B1B6C03F080533B603B6800228A
:1023DC000F216FF0010000F077FE00BF0837BD46FB
:1023EC0080BD00BF0038024080B58CB000AF786073
:1023FC000023FB620023BB6200227968322000F0CC
:10240C0063FE322000F07CFE0023FB601F4B1B6C34
:10241C001E4A43F0080313641C4B1B6C03F00803A7
:10242C00FB60FB6807F1100207F114031146184614
:10243C0000F060FD00F04AFD03465B00FB62FB6AA6
:10244C00134AA2FB03239B0C013BBB62114B124AA8
:10245C001A60104B40F2E732DA600E4ABB6A5360E6
:10246C000C4B00221A610B4B00229A60094801F0B8
:10247C0045F80346002B04D1064801F099F80346B1
:10248C0000E0012318463037BD4680BD00380240BD
:10249C0083DE1B4364000020000C004080B48BB032
:1024AC0000AFF860B9607A60FB681A68BB687B6142
:1024BC007B6993FAA3F33B613B69BB61BB69002B5E
:1024CC0001D1202303E0BB69B3FA83F3DBB25B00D9
:1024DC00032101FA03F3DB431A40BB683B623B6AFE
:1024EC0093FAA3F3FB61FB697B627B6A002B01D13E
:1024FC00202303E07B6AB3FA83F3DBB25B007968D9
:10250C0001FA03F31A43FB681A6000BF2C37BD466F
:10251C005DF8047B704780B485B000AFF860B9609B
:10252C007A60FB685A68BB68DB431A40BB68796801
:10253C0001FB03F31A43FB685A6000BF1437BD4616
:10254C005DF8047B704780B48BB000AFF860B96065
:10255C007A60FB689A68BB687B617B6993FAA3F32A
:10256C003B613B69BB61BB69002B01D1202303E0BC
:10257C00BB69B3FA83F3DBB25B00032101FA03F30B
:10258C00DB431A40BB683B623B6A93FAA3F3FB61E3
:10259C00FB697B627B6A002B01D1202303E07B6A01
:1025AC00B3FA83F3DBB25B00796801FA03F31A43E5
:1025BC00FB689A6000BF2C37BD465DF8047B704702
:1025CC0080B48BB000AFF860B9607A60FB68DA68F1
:1025DC00BB687B617B6993FAA3F33B613B69BB618D
:1025EC00BB69002B01D1202303E0BB69B3FA83F351
:1025FC00DBB25B00032101FA03F3DB431A40BB6837
:10260C003B623B6A93FAA3F3FB61FB697B627B6AD7
:10261C00002B01D1202303E07B6AB3FA83F3DBB2F6
:10262C005B00796801FA03F31A43FB68DA6000BFB8
:10263C002C37BD465DF8047B704780B48BB000AF7F
:10264C00F860B9607A60FB681A6ABB687B617B6969
:10265C0093FAA3F33B613B69BB61BB69002B01D1CE
:10266C00202303E0BB69B3FA83F3DBB29B000F2199
:10267C0001FA03F3DB431A40BB683B623B6A93FAF3
:10268C00A3F3FB61FB697B627B6A002B01D12023E6
:10269C0003E07B6AB3FA83F3DBB29B00796801FA3F
:1026AC0003F31A43FB681A6200BF2C37BD465DF872
:1026BC00047B704780B48BB000AFF860B9607A606F
:1026CC00FB685A6ABB681B0A7B617B6993FAA3F3AC
:1026DC003B613B69BB61BB69002B01D1202303E04B
:1026EC00BB69B3FA83F3DBB29B000F2101FA03F34E
:1026FC00DB431A40BB681B0A3B623B6A93FAA3F3A9
:10270C00FB61FB697B627B6A002B01D1202303E018
:10271C007B6AB3FA83F3DBB29B00796801FA03F3AB
:10272C001A43FB685A6200BF2C37BD465DF8047B28
:10273C00704780B58AB000AF7860396000237B6247
:10274C0000233B623B681B68BB61BB6993FAA3F334
:10275C007B617B69FB61FB69002B01D1202303E0CA
:10276C00FB69B3FA83F3DBB27B6257E03B681A6810
:10277C0001217B6A01FA03F313403B623B6A002B95
:10278C0049D03B685B68012B03D03B685B68022B2C
:10279C000DD13B689B681A46396A7868FFF7D3FEFF
:1027AC003B68DB681A46396A7868FFF7B4FE3B6809
:1027BC001B691A46396A7868FFF702FF3B685B6849
:1027CC00022B21D13B6AFB60FB6893FAA3F3BB603D
:1027DC00BB683B613B69002B01D1202303E03B69C3
:1027EC00B3FA83F3DBB2072B07D83B685B691A4655
:1027FC00396A7868FFF721FF06E03B685B691A4687
:10280C00396A7868FFF756FF3B685B681A46396A85
:10281C007868FFF743FE7B6A01337B623B681A687A
:10282C007B6A22FA03F3002BA0D100231846283729
:10283C00BD4680BD80B483B000AF786039607B68E2
:10284C00DB6A23F470023B681A437B68DA6200BFD0
:10285C000C37BD465DF8047B704780B483B000AF85
:10286C0078607B689B6803F00103012B0CBF01238C
:10287C000023DBB218460C37BD465DF8047B70476D
:10288C0090B585B000AF786039600023FB731C48AD
:10289C00FFF7E3FF04461B48FFF7DFFF03461C432B
:1028AC001948FFF7DAFF03462343002B20D13B687E
:1028BC005B68002B12D07B685A68144B13403A6843
:1028CC0011683A68526811433A68926811433A6841
:1028DC00D2680A431A437B685A600BE07B685A68DB
:1028EC000A4B13403A6812681A437B685A6001E03D
:1028FC000123FB73FB7B18461437BD4690BD00BF0C
:10290C00002001400021014000220140E010FCFFAA
:10291C0080B584B000AF786039600023FB737868B1
:10292C00FFF79BFF0346002B17D17B685B6823F0F6
:10293C00407323F480733A6811683A6892680A43CA
:10294C001A437B685A607B689B6823F400623B687F
:10295C005B681A437B689A6001E00123FB73FB7B85
:10296C0018461037BD4680BD80B584B000AF786086
:10297C0039600023FB737868FFF76FFF0346002B69
:10298C002BD13B685B68002B09D07B685B6823F418
:10299C0068423B689B681A437B685A6005E07B6819
:1029AC005B6823F468427B685A607B689A680E4BBC
:1029BC0013403A68126802F070613A68D2681143A9
:1029CC003A6812690A431A437B689A603B685B68F1
:1029DC0019467868FFF72EFF01E00123FB73FB7BA0
:1029EC0018461037BD4680BDFDFCFFC080B400AF5B
:1029FC00044B9B6803F00C031846BD465DF8047B42
:102A0C00704700BF0038024080B400AF044B9B6895
:102A1C0003F0F0031846BD465DF8047B704700BF19
:102A2C000038024080B400AF044B9B6803F4E053C1
:102A3C001846BD465DF8047B704700BF0038024065
:102A4C0080B400AF044B9B6803F460431846BD464A
:102A5C005DF8047B704700BF0038024080B400AFC3
:102A6C00044B5B6803F480031846BD465DF8047B99
:102A7C00704700BF0038024080B400AF044B5B6865
:102A8C009B09C3F308031846BD465DF8047B7047E9
:102A9C000038024080B400AF044B5B6803F4403351
:102AAC001846BD465DF8047B704700BF00380240F5
:102ABC0080B400AF044B5B6803F03F031846BD467F
:102ACC005DF8047B704700BF0038024080B582B0CF
:102ADC0000AF786000F020F802467B681A607B68D3
:102AEC001B68184600F040F802467B685A607B6809
:102AFC005B68184600F04EF802467B689A607B686B
:102B0C005B68184600F05AF802467B68DA6000BF32
:102B1C000837BD4680BD000080B582B000AF0023F1
:102B2C007B60FFF763FF0346082B0CD0082B0FD8F4
:102B3C00002B02D0042B03D00AE0094B7B600AE087
:102B4C00084B7B6007E0082000F04CF8786002E04E
:102B5C00034B7B6000BF7B6818460837BD4680BDC1
:102B6C000024F40000127A0080B582B000AF7860C7
:102B7C00FFF74AFF03461B0903F00F03044AD35C1B
:102B8C001A467B68D34018460837BD4680BD00BF47
:102B9C00B841000880B582B000AF7860FFF742FF03
:102BAC0003469B0A044AD35C1A467B68D3401846FA
:102BBC000837BD4680BD00BFC841000880B582B053
:102BCC0000AF7860FFF73CFF03465B0B044AD35C15
:102BDC001A467B68D34018460837BD4680BD00BFF7
:102BEC00C841000890B587B000AF786000237B61C6
:102BFC000023FB6000233B61FFF730FFF860FB68AC
:102C0C00002B04D0FB68B3F5800F03D005E0124B0A
:102C1C007B6105E0114B7B6102E00F4B7B6100BFD8
:102C2C007B68082B13D1FFF743FF02467B69B3FB8C
:102C3C00F2F4FFF721FF034603FB04F4FFF72AFF2E
:102C4C0003461B0C01335B00B4FBF3F33B613B69A4
:102C5C0018461C37BD4690BD0024F40000127A00C3
:102C6C0080B483B000AF7860044A7B68136000BF07
:102C7C000C37BD465DF8047B704700BF2400002074
:102C8C0080B483B000AF7860054B1A6804497B6848
:102C9C0013430B6000BF0C37BD465DF8047B7047D7
:102CAC00003C014080B483B000AF7860064B1A68DA
:102CBC007B68DB43044913400B6000BF0C37BD46F7
:102CCC005DF8047B704700BF003C014080B483B0CA
:102CDC0000AF7860054B5A6804497B6813434B601E
:102CEC0000BF0C37BD465DF8047B7047003C0140CB
:102CFC0080B483B000AF7860064B5A687B68DB43C6
:102D0C00044913404B6000BF0C37BD465DF8047B93
:102D1C00704700BF003C014080B483B000AF7860C6
:102D2C00054B9A6804497B6813438B6000BF0C37D2
:102D3C00BD465DF8047B7047003C014080B483B015
:102D4C0000AF7860064B9A687B68DB4304491340FC
:102D5C008B6000BF0C37BD465DF8047B704700BF2D
:102D6C00003C014080B483B000AF7860054BDA685A
:102D7C0004497B681343CB6000BF0C37BD465DF83C
:102D8C00047B7047003C014080B483B000AF786096
:102D9C00064BDA687B68DB4304491340CB6000BF09
:102DAC000C37BD465DF8047B704700BF003C01400A
:102DBC0080B584B000AF78600023FB737B681B790F
:102DCC00002B65D07B681B68002B6CD07B685B7913
:102DDC00022B1CD0022B25DC002B02D0012B0BD09C
:102DEC0020E07B681B681846FFF782FF7B681B6836
:102DFC001846FFF745FF18E07B681B681846FFF77D
:102E0C0051FF7B681B681846FFF760FF0DE07B687D
:102E1C001B681846FFF734FF7B681B681846FFF7E2
:102E2C0055FF02E00123FB7300BF7B689B79002BED
:102E3C0039D07B689B79032B1CD0032B25DC012B11
:102E4C0002D0022B0BD020E07B681B681846FFF7E2
:102E5C009BFF7B681B681846FFF75EFF24E07B68CE
:102E6C001B681846FFF76AFF7B681B681846FFF75C
:102E7C0079FF19E07B681B681846FFF74DFF7B68EC
:102E8C001B681846FFF76EFF0EE00123FB730BE087
:102E9C007B681B681846FFF705FF7B681B681846A4
:102EAC00FFF726FF00E000BFFB7B18461037BD463E
:102EBC0080BD000080B400AF034B1B681846BD46B4
:102ECC005DF8047B704700BF2400002080B500AF84
:102EDC00FFF7F0FF0246054B9B689B0A03F00703C4
:102EEC000349CB5C22FA03F3184680BD003802403C
:102EFC00C841000880B483B000AF786039607B684B
:102F0C000F221A60124B9B6803F003027B685A6015
:102F1C000F4B9B6803F0F0027B689A600C4B9B682C
:102F2C0003F4E0527B68DA60094B9B68DB0803F41E
:102F3C00E0527B681A61074B1B6803F00F023B6879
:102F4C001A6000BF0C37BD465DF8047B704700BFAC
:102F5C0000380240003C024080B485B000AF78607D
:102F6C007B6803F00703FB600C4BDB68BB60BA6843
:102F7C004FF6FF031340BB60FB681A02BB68134398
:102F8C0043F0BF6343F40033BB60044ABB68D360B7
:102F9C0000BF1437BD465DF8047B704700ED00E0C0
:102FAC0080B400AF044BDB681B0A03F00703184620
:102FBC00BD465DF8047B704700ED00E080B483B043
:102FCC0000AF0346FB7197F90730002B0BDBFB7945
:102FDC0003F01F02074997F907305B09012000FA3B
:102FEC0002F241F8232000BF0C37BD465DF8047B8C
:102FFC00704700BF00E100E080B483B000AF03462F
:10300C003960FB7197F90730002B0ADB3B68DAB2A9
:10301C000C4997F907301201D2B20B4483F8002304
:10302C000AE03B68DAB20849FB7903F00F03043B72
:10303C001201D2B20B441A7600BF0C37BD465DF8B4
:10304C00047B704700E100E000ED00E080B489B043
:10305C0000AFF860B9607A60FB6803F00703FB61AE
:10306C00FB69C3F10703042B28BF0423BB61FB6975
:10307C000433062B02D9FB69033B00E000237B6180
:10308C004FF0FF32BB6902FA03F3DA43BB681A4014
:10309C007B699A404FF0FF317B6901FA03F3D94306
:1030AC007B680B40134318462437BD465DF8047B00
:1030BC00704780B582B000AF78607868FFF74CFF3E
:1030CC0000BF0837BD4680BD80B586B000AF034653
:1030DC00B9607A60FB7300237B61FFF761FF786155
:1030EC007A68B9687869FFF7B1FF024697F90F3033
:1030FC0011461846FFF780FF00BF1837BD4680BD4C
:10310C0080B582B000AF0346FB7197F907301846C3
:10311C00FFF754FF00BF0837BD4680BD80B500AF38
:10312C000E4B1B680D4A43F4007313600B4B1B686A
:10313C000A4A43F480631360084B1B68074A43F444
:10314C00807313600320FFF7B4FF0020FFF74CF9E6
:10315C00FFF71EF90023184680BD00BF003C02405B
:10316C0080B400AF064B1B781A46064B1B68134401
:10317C00044A136000BFBD465DF8047B704700BF76
:10318C0020000020AC00002080B483B000AF786039
:10319C007B681B6843F001027B681A6000BF0C3728
:1031AC00BD465DF8047B704780B483B000AF786097
:1031BC007B681B6823F001027B681A6000BF0C3728
:1031CC00BD465DF8047B704780B485B000AFF860F5
:1031DC00B9607A60FB685B6A23F01F02B9687B6890
:1031EC000B431A43FB685A6200BF1437BD465DF8A7
:1031FC00047B704780B485B000AFF860B9607A602A
:10320C00FB689B6823F4034323F0FF03B9687A68D7
:10321C000A431A43FB689A6000BF1437BD465DF839
:10322C00047B704780B487B000AFF860B9607A60F7
:10323C003B6000233B6100237B61BB68424AA2FBDD
:10324C0003239B0C3B61FB685B6823F03F023B69EB
:10325C001A43FB685A60FB681B6A23F03F027B68C9
:10326C003A498B4202D83B69013309E03B694FF480
:10327C00967101FB03F33649A1FB03139B09013340
:10328C001A43FB681A627B68304A934239D93B680F
:10329C00002B17D17A6813465B001344BA68B2FB53
:1032AC00F3F3C3F30B03002B09D07A6813465B00CE
:1032BC001344BA68B2FBF3F343F400431DE048F245
:1032CC0001031AE07A6813469B0013449A001344D6
:1032DC00BA68B2FBF3F3C3F30B03002B0BD07A6881
:1032EC0013469B0013449A001344BA68B2FBF3F3E1
:1032FC0043F4004301E048F201033A6813437B6155
:10330C0011E07B685B00BA68B2FBF3F240F6FC7329
:10331C001340002B05D07B685B00BA68B2FBF3F35B
:10332C0000E004237B61FB68DB6923F44F4323F04B
:10333C00FF037A691A43FB68DA6100BF1C37BD468C
:10334C005DF8047B704700BF83DE1B43A086010041
:10335C00D34D621080B483B000AF786039607B6865
:10336C001B6823F01A023B681A437B681A6000BF83
:10337C000C37BD465DF8047B704780B483B000AF5A
:10338C00786039607B681B6823F480623B681A4361
:10339C007B681A6000BF0C37BD465DF8047B704734
:1033AC0080B586B000AF786039607868FFF7FCFEB6
:1033BC0007F108031846FFF789FB3B68D9683B689F
:1033CC001B691A467868FFF7FFFE39693B685A6833
:1033DC003B689B687868FFF725FF3B6859693B6839
:1033EC00DB691A467868FFF705FF3B681B681946CE
:1033FC007868FFF7AFFF7868FFF7C6FE3B689B69FC
:10340C0019467868FFF7B9FF002318461837BD46F0
:10341C0080BD80B483B000AF78607B681B6803F01C
:10342C004003402B01D1012300E0002318460C3748
:10343C00BD465DF8047B704780B483B000AF786004
:10344C0039603B689BB21A467B681A6100BF0C3727
:10345C00BD465DF8047B704780B584B000AF7860E2
:10346C0039600123FB737868FFF7D3FF0346002B09
:10347C0039D17B681B6823F47F4323F0BF033A6880
:10348C0011683A68526811433A68926811433A6875
:10349C00D26811433A68126911433A685269114370
:1034AC003A68926911433A68D26911433A68126AD0
:1034BC000A431A437B681A607B685B6823F004023A
:1034CC003B685B691B0C1A437B685A603B681B6A40
:1034DC00B3F5005F05D13B685B6A19467868FFF766
:1034EC00ABFF0023FB737B68DB6923F400627B6812
:1034FC00DA61FB7B18461037BD4680BD80B582B0C3
:10350C0000AF78607B68002B01D1012341E07B6820
:10351C0093F83D30DBB2002B06D17B68002283F898
:10352C003C20786800F039F87B68022283F83D2053
:10353C007B681A687B6804331946104600F0D8F98A
:10354C007B68012283F846207B68012283F83E20A9
:10355C007B68012283F83F207B68012283F840209E
:10356C007B68012283F841207B68012283F842208A
:10357C007B68012283F843207B68012283F8442076
:10358C007B68012283F845207B68012283F83D206B
:10359C00002318460837BD4680BD80B483B000AF09
:1035AC00786000BF0C37BD465DF8047B70470000A7
:1035BC0080B485B000AF78607B6893F83D30DBB2A7
:1035CC00012B01D001234EE07B68022283F83D20C1
:1035DC007B681B68DA687B681B6842F00102DA6062
:1035EC007B681B68234A934222D07B681B68B3F12B
:1035FC00804F1DD07B681B681F4A934218D07B6894
:10360C001B681E4A934213D07B681B681C4A93426A
:10361C000ED07B681B681B4A934209D07B681B68E1
:10362C00194A934204D07B681B68184A934211D103
:10363C007B681B689B6803F00703FB60FB68062B29
:10364C0010D07B681B681A687B681B6842F001020B
:10365C001A6007E07B681B681A687B681B6842F07D
:10366C0001021A60002318461437BD465DF8047B2E
:10367C00704700BF000001400004004000080040FB
:10368C00000C0040000401400040014000180040C4
:10369C0080B582B000AF78607B681B681B6903F053
:1036AC000203022B22D17B681B68DB6803F0020348
:1036BC00022B1BD17B681B686FF002021A617B68BE
:1036CC0001221A777B681B689B6903F00303002BAC
:1036DC0003D0786800F0EEF805E0786800F0E0F8C8
:1036EC00786800F0F1F87B6800221A777B681B6819
:1036FC001B6903F00403042B22D17B681B68DB6875
:10370C0003F00403042B1BD17B681B686FF00402CD
:10371C001A617B6802221A777B681B689B6903F429
:10372C004073002B03D0786800F0C4F805E078688B
:10373C0000F0B6F8786800F0C7F87B6800221A77BA
:10374C007B681B681B6903F00803082B22D17B687C
:10375C001B68DB6803F00803082B1BD17B681B6814
:10376C006FF008021A617B6804221A777B681B6869
:10377C00DB6903F00303002B03D0786800F09AF8A0
:10378C0005E0786800F08CF8786800F09DF87B68AC
:10379C0000221A777B681B681B6903F01003102B3F
:1037AC0022D17B681B68DB6803F01003102B1BD144
:1037BC007B681B686FF010021A617B6808221A770D
:1037CC007B681B68DB6903F44073002B03D07868BB
:1037DC0000F070F805E0786800F062F8786800F0A6
:1037EC0073F87B6800221A777B681B681B6903F0EF
:1037FC000103012B0ED17B681B68DB6803F001030E
:10380C00012B07D17B681B686FF001021A61786885
:10381C00FEF778FD7B681B681B6903F08003802B27
:10382C000ED17B681B68DB6803F08003802B07D10B
:10383C007B681B686FF080021A61786800F002F9EF
:10384C007B681B681B6903F04003402B0ED17B681F
:10385C001B68DB6803F04003402B07D17B681B68B7
:10386C006FF040021A61786800F038F87B681B68CA
:10387C001B6903F02003202B0ED17B681B68DB68CF
:10388C0003F02003202B07D17B681B686FF020020C
:10389C001A61786800F0CCF800BF0837BD4680BDCF
:1038AC0080B483B000AF786000BF0C37BD465DF8C4
:1038BC00047B704780B483B000AF786000BF0C37D6
:1038CC00BD465DF8047B704780B483B000AF786070
:1038DC0000BF0C37BD465DF8047B704780B483B0E5
:1038EC0000AF786000BF0C37BD465DF8047B7047B5
:1038FC0080B485B000AF786039607B681B68FB6072
:10390C007B68404A934213D07B68B3F1804F0FD051
:10391C007B683D4A93420BD07B683C4A934207D06C
:10392C007B683B4A934203D07B683A4A934208D166
:10393C00FB6823F07003FB603B685B68FA68134319
:10394C00FB607B682F4A93422BD07B68B3F1804F8E
:10395C0027D07B682C4A934223D07B682B4A934216
:10396C001FD07B682A4A93421BD07B68294A93421A
:10397C0017D07B68284A934213D07B68274A93421E
:10398C000FD07B68264A93420BD07B68254A934222
:10399C0007D07B68244A934203D07B68234A934226
:1039AC0008D1FB6823F44073FB603B68DB68FA6862
:1039BC001343FB60FB6823F080023B685B69134395
:1039CC00FB607B68FA681A603B689A687B68DA620D
:1039DC003B681A687B689A627B680A4A934203D0F8
:1039EC007B680C4A934203D13B681A697B681A6363
:1039FC007B6801225A6100BF1437BD465DF8047B19
:103A0C00704700BF00000140000400400008004067
:103A1C00000C004000040140004001400044014003
:103A2C000048014000180040001C004000200040ED
:103A3C0080B483B000AF786000BF0C37BD465DF832
:103A4C00047B704780B483B000AF786000BF0C3744
:103A5C00BD465DF8047B704780B483B000AF7860DE
:103A6C0039607B683A689A6200BF0C37BD465DF8D6
:103A7C00047B704780B483B000AF786039607B689A
:103A8C003A68DA6200BF0C37BD465DF8047B7047BC
:103A9C0080B483B000AF786039607B683A681A6391
:103AAC0000BF0C37BD465DF8047B704780B483B013
:103ABC0000AF78607B685B6943F001027B685A61F8
:103ACC0000BF0C37BD465DF8047B704780B584B0F1
:103ADC0000AF786039607B681B68FB607B683D4A8F
:103AEC00934213D07B68B3F1804F0FD07B683A4A76
:103AFC0093420BD07B68394A934207D07B68384A93
:103B0C00934203D07B68374A934206D1FB6823F07B
:103B1C0070023B685B681343FB607B682D4A9342E1
:103B2C002BD07B68B3F1804F27D07B682A4A934215
:103B3C0023D07B68294A93421FD07B68284A934242
:103B4C001BD07B68274A934217D07B68264A934246
:103B5C0013D07B68254A93420FD07B68244A93424A
:103B6C000BD07B68234A934207D07B68224A93424E
:103B7C0003D07B68214A934206D1FB6823F4407240
:103B8C003B68DB681343FB607B68FA681A603B6830
:103B9C009B6819467868FFF76DFF3B681B881946D0
:103BAC007868FFF759FF7B680A4A934203D07B6819
:103BBC000C4A934205D13B681B6919467868FFF79C
:103BCC0067FF7868FFF772FF002318461037BD4671
:103BDC0080BD00BF00000140000400400008004010
:103BEC00000C004000040140004001400044014032
:103BFC000048014000180040001C0040002000401C
:103C0C0080B483B000AF78607B68DB6803F400534A
:103C1C00B3F5005F0CBF01230023DBB218460C3751
:103C2C00BD465DF8047B704780B483B000AF78600C
:103C3C0039607B681B6923F440523B681A437B68EC
:103C4C001A6100BF0C37BD465DF8047B704780B429
:103C5C0083B000AF786039607B685B6923F4407295
:103C6C003B681A437B685A6100BF0C37BD465DF850
:103C7C00047B70472DE9F04F9FB000AF7867396730
:103C8C00FA66BB66FB6EB3F5004F40F0BC803B6F31
:103C9C001C464FF0000522462B4612EB020A43EB62
:103CAC00030B52465B46121945EB03034FF0000021
:103CBC004FF00001D90041EA5271D00002460B4688
:103CCC00111939666B417B66BB6E1A464FF00003C7
:103CDC00911839635B417B63D7E90C23D7E9180151
:103CEC00FCF7C2FC02460B46A94BA3FB02235B0963
:103CFC009BB21B019EB23B6F1C464FF00005224647
:103D0C002B469118B9625B41FB62D7E90A23121961
:103D1C0045EB03034FF000004FF00001D90041EADE
:103D2C005271D00002460B461119B9656B41FB6507
:103D3C00BB6E1A464FF00003911839625B417B62EF
:103D4C00D7E90823D7E91601FCF78EFC02460B468F
:103D5C008F4BA3FB02135B09642101FB03F3D31A02
:103D6C00DB0032338A4AA2FB03235B099BB25B0064
:103D7C009BB203F4F8739BB233449EB23B6F18466C
:103D8C004FF0000102460B469418BC615B41FB618D
:103D9C00D7E90623121841EB03034FF000044FF050
:103DAC000005DD0045EA5275D40022462B46141856
:103DBC003C654B417B65BB6E1A464FF00003911876
:103DCC0039615B417B61D7E90423D7E91401FCF726
:103DDC004BFC02460B466E4BA3FB02135B096421A2
:103DEC0001FB03F3D31ADB003233694AA2FB032332
:103DFC005B099BB203F007039BB233449BB21A4698
:103E0C007B6F9A60BEE03B6F1C464FF0000522466C
:103E1C002B4612EB020843EB030942464B461219A0
:103E2C0045EB03034FF000004FF00001D90041EACD
:103E3C005271D00002460B461119B9646B41FB64F8
:103E4C00BB6E18464FF000014FF000024FF000031C
:103E5C008B0043EA90738200D7E91201FCF704FC53
:103E6C0002460B464A4BA3FB02235B099BB21B0188
:103E7C009EB23B6F18464FF0000102460B46941859
:103E8C00BC605B41FB60D7E90223121841EB0303D2
:103E9C004FF000044FF00005DD0045EA5275D400E8
:103EAC0022462B4614183C644B417B64BB6E18466F
:103EBC004FF000014FF000024FF000038B0043EA7B
:103ECC0090738200D7E91001FCF7CEFB02460B463B
:103EDC002F4BA3FB02135B09642101FB03F3D31AE1
:103EEC001B0132332A4AA2FB03235B099BB203F06A
:103EFC00F0039BB233449EB23B6F18464FF0000167
:103F0C0002460B4694183C605B417B60D7E900236A
:103F1C00121841EB03034FF000044FF00005DD00D5
:103F2C0045EA5275D40022462B461418BC634B410B
:103F3C00FB63BB6E18464FF000014FF000024FF0D0
:103F4C0000038B0043EA90738200D7E90E01FCF763
:103F5C008BFB02460B460E4BA3FB02135B09642141
:103F6C0001FB03F3D31A1B013233094AA2FB0323CF
:103F7C005B099BB203F00F039BB233449BB21A460E
:103F8C007B6F9A6000BF7C37BD46BDE8F08F00BFE9
:103F9C001F85EB5180B588B000AF78603960012384
:103FAC00FB770023BB617868FFF72AFE0346002BE2
:103FBC006CD17B68DB6823F4164323F00C033A685E
:103FCC0051683A68D26811433A68126911433A68E9
:103FDC0092690A431A437B68DA603B689B6819460E
:103FEC007868FFF721FE3B685B6919467868FFF734
:103FFC002EFE07F108031846FEF768FD7B68264A7B
:10400C00934202D17B69BB612FE07B68234A9342C8
:10401C0002D13B69BB6128E07B68214A934202D103
:10402C003B69BB6121E07B681E4A934202D17B69EC
:10403C00BB611AE07B681C4A934202D13B69BB61AD
:10404C0013E07B68194A934202D13B69BB610CE0D7
:10405C007B68174A934202D13B69BB6105E07B68E0
:10406C00144A934201D13B69BB61BB69002B0DD053
:10407C003B681B68002B09D00023FB773B689A69CF
:10408C003B681B68B9697868FFF7F4FDFB7F18463D
:10409C002037BD4680BD00BF0010014000440040E9
:1040AC000048004000140140004C0040005000400B
:1040BC0000780040007C004080B400AF064BD3F881
:1040CC008830054A43F47003C2F8883000BFBD46FF
:1040DC005DF8047B704700BF00ED00E0DFF834D0E2
:1040EC000D480E490E4A002302E0D458C450043344
:1040FC00C4188C42F9D30B4A0B4C002301E013601B
:10410C000432A242FBD3FFF7D7FF00F011F8FCF703
:10411C004DFC704700000320000000202800002008
:10412C00E041000828000020B0000020FEE700005D
:10413C0070B50D4D0D4C641BA4100026A64209D180
:10414C000B4D0C4C00F020F8641BA4100026A6426A
:10415C0005D170BD55F8043B98470136EEE755F88C
:10416C00043B98470136F2E7D8410008D8410008D3
:10417C00D8410008DC41000802440346934200D1B8
:10418C00704703F8011BF9E7F8B500BFF8BC08BC91
:10419C009E467047F8B500BFF8BC08BC9E467047F9
:1041AC004C000020102840587088A0B80000000077
:1041BC0000000000010203040607080900000000CB
:0441CC0001020304E5
:0841D000D4C4FF7F01000000D0
:0441D800D101000809
:0441DC00AD01000829
:1041E000000000000000F03F00000000000024403C
:1041F000000000000000144000000000000000006B
:08420000010000000024F4009D
:04000005080040E9C6
:00000001FF
