:020000040800F2
:1000000000000320C9440008613800086538000872
:10001000693800086D3800087138000800000000D9
:10002000000000000000000000000000CD2C0008CF
:100030007538000800000000892C0008C12B00085A
:100040001945000819450008194500081945000818
:100050001945000819450008194500081945000808
:1000600019450008194500081945000819450008F8
:1000700019450008194500081945000819450008E8
:100080001945000819450008590E000819450008CF
:1000900019450008194500081945000819450008C8
:1000A00019450008194500081945000819450008B8
:1000B00019450008194500081945000819450008A8
:1000C0001945000819450008194500081945000898
:1000D0001945000819450008194500081945000888
:1000E0001945000819450008194500081945000878
:1000F0001945000819450008194500081945000868
:100100001945000819450008793800081945000804
:100110001945000819450008194500081945000847
:10012000010E000819450008853800081945000827
:100130001945000819450008194500081945000827
:100140001945000819450008194500081945000817
:100150001945000819450008194500081945000807
:1001600019450008194500081945000819450008F7
:10017000194500081945000819450008000000004D
:1001800019450008194500081945000819450008D7
:1001900019450008194500081945000819450008C7
:0C01A00019450008194500081945000821
:1001B00010B5054C237833B9044B13B10448AFF3A1
:1001C00000800123237010BDC80100200000000042
:1001D000E44A000808B5034B1BB103490348AFF3D9
:1001E000008008BD00000000CC010020E44A0008A7
:1001F00081F0004102E000BF83F0004330B54FEAD8
:1002000041044FEA430594EA050F08BF90EA020F44
:100210001FBF54EA000C55EA020C7FEA645C7FEAD7
:10022000655C00F0E2804FEA5454D4EB5555B8BFFA
:100230006D420CDD2C4480EA020281EA030382EA6B
:10024000000083EA010180EA020281EA0303362DFD
:1002500088BF30BD11F0004F4FEA01314FF4801CD0
:100260004CEA113102D0404261EB410113F0004FE2
:100270004FEA03334CEA133302D0524263EB430399
:1002800094EA050F00F0A780A4F10104D5F1200E37
:100290000DDB02FA0EFC22FA05F2801841F1000192
:1002A00003FA0EF2801843FA05F359410EE0A5F166
:1002B00020050EF1200E012A03FA0EFC28BF4CF097
:1002C000020C43FA05F3C01851EBE37101F000454D
:1002D00007D54FF0000EDCF1000C7EEB00006EEB5A
:1002E0000101B1F5801F1BD3B1F5001F0CD34908E4
:1002F0005FEA30004FEA3C0C04F101044FEA44523B
:1003000012F5800F80F09A80BCF1004F08BF5FEAC1
:10031000500C50F1000041EB045141EA050130BDA1
:100320005FEA4C0C404141EB0101013C28BFB1F5B3
:10033000801FE9D291F0000F04BF01460020B1FAFE
:1003400081F308BF2033A3F10B03B3F120020CDAD1
:100350000C3208DD02F1140CC2F10C0201FA0CF0AF
:1003600021FA02F10CE002F11402D8BFC2F1200C14
:1003700001FA02F120FA0CFCDCBF41EA0C019040CA
:10038000E41AA2BF01EB0451294330BD6FEA040413
:100390001F3C1CDA0C340EDC04F11404C4F12002FE
:1003A00020FA04F001FA02F340EA030021FA04F310
:1003B00045EA030130BDC4F10C04C4F1200220FA67
:1003C00002F001FA04F340EA0300294630BD21FAA5
:1003D00004F0294630BD94F0000F83F4801306BF6B
:1003E00081F480110134013D4EE77FEA645C18BF5F
:1003F0007FEA655C29D094EA050F08BF90EA020FF6
:1004000005D054EA000C04BF1946104630BD91EAED
:10041000030F1EBF0021002030BD5FEA545C05D1F0
:100420004000494128BF41F0004130BD14F580042F
:100430003CBF01F5801130BD01F0004545F0FE41A3
:1004400041F470014FF0000030BD7FEA645C1ABFD8
:10045000194610467FEA655C1CBF0B46024650EA0F
:10046000013406BF52EA033591EA030F41F400213B
:1004700030BD00BF90F0000F04BF0021704730B5C1
:100480004FF4806404F132044FF000054FF0000196
:1004900050E700BF90F0000F04BF0021704730B557
:1004A0004FF4806404F1320410F0004548BF40422C
:1004B0004FF000013EE700BF42004FEAE2014FEA81
:1004C00031014FEA02701FBF12F07F4393F07F4F5C
:1004D00081F06051704732F07F4208BF704793F05F
:1004E0007F4F04BF41F40021704730B54FF4607472
:1004F00001F0004521F000411CE700BF50EA010275
:1005000008BF704730B54FF000050AE050EA01021D
:1005100008BF704730B511F0004502D5404261EB8D
:1005200041014FF4806404F132045FEA915C3FF4CE
:10053000D8AE4FF003025FEADC0C18BF03325FEA6B
:10054000DC0C18BF033202EBDC02C2F1200300FA1C
:1005500003FC20FA02F001FA03FE40EA0E0021FA41
:1005600002F11444BDE600BF70B54FF0FF0C4CF42F
:10057000E06C1CEA11541DBF1CEA135594EA0C0FE1
:1005800095EA0C0F00F0DEF82C4481EA030621EA1C
:100590004C5123EA4C5350EA013518BF52EA033557
:1005A00041F4801143F4801338D0A0FB02CE4FF009
:1005B0000005E1FB02E506F00042E0FB03E54FF039
:1005C0000006E1FB03569CF0000F18BF4EF0010E31
:1005D000A4F1FF04B6F5007F64F5407404D25FEA2D
:1005E0004E0E6D4146EB060642EAC62141EA5551E0
:1005F0004FEAC52040EA5E504FEACE2EB4F1FD0C22
:1006000088BFBCF5E06F1ED8BEF1004F08BF5FEA9F
:10061000500E50F1000041EB045170BD06F0004651
:1006200046EA010140EA020081EA0301B4EB5C04FE
:10063000C2BFD4EB0C0541EA045170BD41F48011F6
:100640004FF0000E013C00F3AB8014F1360FDEBF1B
:10065000002001F0004170BDC4F10004203C35DAF7
:100660000C341BDC04F11404C4F1200500FA05F37A
:1006700020FA04F001FA05F240EA020001F000421B
:1006800021F0004110EBD37021FA04F642EB060191
:100690005EEA430E08BF20EAD37070BDC4F10C04BB
:1006A000C4F1200500FA04F320FA05F001FA04F27F
:1006B00040EA020001F0004110EBD37041F100016B
:1006C0005EEA430E08BF20EAD37070BDC4F1200576
:1006D00000FA05F24EEA020E20FA04F301FA05F2DE
:1006E00043EA020321FA04F001F0004121FA04F286
:1006F00020EA020000EBD3705EEA430E08BF20EA56
:10070000D37070BD94F0000F0FD101F0004640008F
:1007100041EB010111F4801F08BF013CF7D041EA11
:10072000060195F0000F18BF704703F00046520015
:1007300043EB030313F4801F08BF013DF7D043EAE6
:100740000603704794EA0C0F0CEA135518BF95EA9C
:100750000C0F0CD050EA410618BF52EA4306D1D123
:1007600081EA030101F000414FF0000070BD50EA42
:10077000410606BF1046194652EA430619D094EACC
:100780000C0F02D150EA013613D195EA0C0F05D1B6
:1007900052EA03361CBF104619460AD181EA03010A
:1007A00001F0004141F0FE4141F470014FF00000C2
:1007B00070BD41F0FE4141F4780170BD70B54FF05D
:1007C000FF0C4CF4E06C1CEA11541DBF1CEA1355DD
:1007D00094EA0C0F95EA0C0F00F0A7F8A4EB0504BF
:1007E00081EA030E52EA03354FEA013100F08880B6
:1007F0004FEA03334FF0805545EA131343EA12637F
:100800004FEA022245EA111545EA10654FEA002633
:100810000EF000419D4208BF964244F1FD0404F5EC
:10082000407402D25B084FEA3202B61A65EB030548
:100830005B084FEA32024FF480104FF4002CB6EB05
:10084000020E75EB030E22BFB61A754640EA0C0085
:100850005B084FEA3202B6EB020E75EB030E22BFC5
:10086000B61A754640EA5C005B084FEA3202B6EB06
:10087000020E75EB030E22BFB61A754640EA9C00C5
:100880005B084FEA3202B6EB020E75EB030E22BF95
:10089000B61A754640EADC0055EA060E18D04FEA53
:1008A000051545EA16754FEA06164FEAC30343EAF3
:1008B00052734FEAC2025FEA1C1CC0D111F4801FC0
:1008C0000BD141EA00014FF000004FF0004CB6E7B9
:1008D00011F4801F04BF01430020B4F1FD0C88BF58
:1008E000BCF5E06F3FF6AFAEB5EB030C04BFB6EB63
:1008F000020C5FEA500C50F1000041EB045170BD56
:100900000EF0004E4EEA113114EB5C04C2BFD4EB82
:100910000C0541EA045170BD41F480114FF0000E06
:10092000013C90E645EA060E8DE60CEA135594EA82
:100930000C0F08BF95EA0C0F3FF43BAF94EA0C0F85
:100940000AD150EA01347FF434AF95EA0C0F7FF4FA
:1009500025AF104619462CE795EA0C0F06D152EA4E
:1009600003353FF4FDAE1046194622E750EA410632
:1009700018BF52EA43067FF4C5AE50EA41047FF443
:100980000DAF52EA43057FF4EBAE12E74FF0FF3CA8
:1009900006E000BF4FF0010C02E000BF4FF0010C79
:1009A0004DF804CD4FEA410C7FEA6C5C4FEA430CF2
:1009B00018BF7FEA6C5C1BD001B050EA410C0CBF41
:1009C00052EA430C91EA030F02BF90EA020F0020A3
:1009D000704710F1000F91EA030F58BF994208BF0A
:1009E00090422CBFD8176FEAE37040F001007047C7
:1009F0004FEA410C7FEA6C5C02D150EA013C07D11E
:100A00004FEA430C7FEA6C5CD6D152EA033CD3D068
:100A10005DF8040B704700BF8446104662468C4662
:100A20001946634600E000BF01B5FFF7B7FF002895
:100A300048BF10F1000F01BD4DF808EDFFF7F4FFBE
:100A40000CBF012000205DF808FB00BF4DF808ED49
:100A5000FFF7EAFF34BF012000205DF808FB00BF6C
:100A60004DF808EDFFF7E0FF94BF012000205DF88E
:100A700008FB00BF4DF808EDFFF7CEFF94BF012043
:100A800000205DF808FB00BF4DF808EDFFF7C4FF3C
:100A900034BF012000205DF808FB00BF4FEA410C85
:100AA0007FEA6C5C02D150EA013C0AD14FEA430C68
:100AB0007FEA6C5C02D152EA033C02D14FF00000A5
:100AC00070474FF0010070474A0011D212F5001232
:100AD00011D20DD56FF47873B3EB62520ED44FEA96
:100AE000C12343F0004343EA505323FA02F0704716
:100AF0004FF00000704750EA013002D14FF0FF3054
:100B000070474FF00000704753B94AB9002908BF39
:100B100000281CBF4FF0FF314FF0FF3000F06EB9DE
:100B2000ADF1080C6DE904CE00F006F8DDF804E044
:100B3000DDE9022304B070472DE9F047089D044623
:100B40008C46002B40F083808A42174647D9B2FA80
:100B500082F242B1C2F1200024FA00F091409740A5
:100B600040EA010C94404FEA1748230CBCFBF8F60E
:100B70001FFA87FE08FB16C143EA014306FB0EF18C
:100B8000994209D9FB1806F1FF3080F0198199428A
:100B900040F21681023E3B445B1AA4B2B3FBF8F06C
:100BA00008FB103344EA034400FB0EFEA64509D9B6
:100BB0003C1900F1FF3380F00581A64540F2028127
:100BC00002383C4440EA0640A4EB0E0400261DB166
:100BD000D4400023C5E900433146BDE8F08702B99F
:100BE000FFDEB2FA82F2002A50D1CB1B4FEA174E39
:100BF0001FFA87F80126B3FBFEFC210C0EFB1C3309
:100C000041EA034108FB0CF38B4207D979180CF138
:100C1000FF3002D28B4200F2E9808446C91AA3B2A7
:100C2000B1FBFEF00EFB101143EA014408FB00F893
:100C3000A04507D93C1900F1FF3302D2A04500F2CC
:100C4000D9801846A4EB080440EA0C40BFE78B4269
:100C500009D9002D00F0B1800026C5E90001304619
:100C60003146BDE8F087B3FA83F6002E4AD18B42B5
:100C700002D3824200F2B880841A61EB03010120A2
:100C80008C46002DA8D0C5E9004CA5E7C2F1200391
:100C900020FA03F6974001FA02F04FEA174ED940C6
:100CA0003043030CB1FBFEF61FFA87F80EFB16115A
:100CB00043EA014306FB08F1994204FA02F409D918
:100CC000FB1806F1FF3C80F08D80994240F28A804B
:100CD000023E3B445B1A81B2B3FBFEF00EFB1033C5
:100CE00041EA034100FB08F38B4207D9791800F170
:100CF000FF3C73D28B4271D902383944CB1A40EA97
:100D0000064678E7C6F1200C03FA06F422FA0CF343
:100D10001C4320FA0CF701FA06F34FEA144E21FAAD
:100D20000CF11F433B0CB1FBFEF91FFA84F80EFBDC
:100D3000191143EA014109FB08FA8A4502FA06F251
:100D400000FA06F308D9611809F1FF3048D28A4544
:100D500046D9A9F102092144A1EB0A01BFB2B1FBB6
:100D6000FEF00EFB101147EA014700FB08F8B845FA
:100D700007D9E71900F1FF312ED2B8452CD9023836
:100D8000274440EA0940A7EB0807A0FB02894F452A
:100D9000C64649461AD317D05DB1B3EB0E0267EBD6
:100DA000010707FA0CFCF2404CEA0202F740C5E9E1
:100DB000002700263146BDE8F0872E4628460BE77F
:100DC0000646E9E61846FDE64345E5D2B8EB020ED5
:100DD00069EB04010138DFE70846D2E760468DE79A
:100DE0008146B9E7664675E730464AE7ACF1020C42
:100DF000394413E702383C4424E700BF704700BF82
:100E000030B4134913480A794B69825C9858C50677
:100E100003EB020402D51868800601D430BC704789
:100E200020200425CD719860985810F4907FF5D15A
:100E30009D58088825F001059D506168090C09043A
:100E400001436160995841F001019950E6E700BF04
:100E500030030020004B0008704700BF704700BF00
:100E6000F0B4364C0569A54229D1354C0026012B3A
:100E70002561667120D02AB3E379082B1CD0C7689E
:100E800042690688E760626190F804C084F804C093
:100E90008378A370EB6A0498268023F470030343DD
:100EA0000129EB6203D0042921D002291AD008239A
:100EB000E3712348F0BC70472046F0BC7047002027
:100EC000F0BC7047237A082BF6D0C378E370022970
:100ED00003D008231A482372EFE76B6843F08003BE
:100EE0006B60F6E76B6843F020036B60DFE7154B40
:100EF000A96813F80C30DFF850C0D01841F44071E5
:100F0000A960C0F808C007EB4601C7600569016128
:100F1000D15841F48021D1504168090C0904314372
:100F20004160D15841F01001D150D15841F0040135
:100F3000D150D15841F00101D150B8E70022014011
:100F400030030020004B00084C22014003699A68DE
:100F5000D20703D49A6842F001029A60704700BF3A
:100F600038B5036933B10129044643D0042903D0BD
:100F7000022922D0012038BD996811F0405FF9D1D3
:100F80000121C171996841F080419960E379042B96
:100F9000FCD123792D486169C35CCB58E16813F417
:100FA000002FA378104608BF01EB43015A0003F05D
:100FB00069FD0823E371002038BDC379202B05D0DB
:100FC000C379042B02D0C379102BD3D11F482379C6
:100FD0006169C35C0820E071CD58A378E16815F41D
:100FE000002510462DD101EB43015A0003F04AFDC4
:100FF000284638BD9A6812F0405FBBD1C279022AF8
:1010000008D0C279042A05D0C279082A02D01A6809
:101010009107AFD51A68920604D56FF0200110220F
:101020001960E271E279102AA4D0E279082A0CBF93
:1010300001222022E2719A6842F080429A600020E8
:1010400038BD5A0003F01EFD002038BD004B0008DB
:10105000036910B49C68E40703D59C6824F001047C
:101060009C605C68640603D55C6824F040045C60A6
:101070005C68640103D55C6824F080645C6092B1B4
:10108000002202718270DC6AC26024F470040129BB
:1010900002804261DC6203D0022924D004290CD0F2
:1010A0005DF8044B70470229C270F9D15A685DF8A7
:1010B000044B22F080025A6070471022116821F020
:1010C00001011160116821F004011160116821F023
:1010D000100111605168D140914051609A6822F42A
:1010E00040729A60DCE75A685DF8044B22F02002F7
:1010F0005A60704710B5094C23785A1C227023B1EE
:10110000074A23700123136010BD62B600F0E4F9B2
:1011100072B62378013B237010BD00BFE8010020A8
:10112000E4010020F8B5214C214D002727702F70D5
:1011300002F06EFE01F0F6FD01F024FD02F0AAF8C7
:1011400002F086F801F00AFF01F080FF01F0CEFF07
:1011500002F000F801F04EFE164B1E68376001F0F9
:10116000FFFB72B69FED140A01F032FD3368B3FA4B
:1011700083F35B092B7062B662B6104A06E03368EF
:10118000003B18BF0123237023784BB92B7803F061
:10119000FF07002BF3D101F0E3FC72B63846F8BD2F
:1011A000136823F001031360F0E700BF4903002038
:1011B000480300201C4B00086F12833A10E000E047
:1011C0009FED010B704700BF000000000000F07FA2
:1011D0009FED010A704700BF0000807F0000000003
:1011E0009FED010B704700BF000000000000F0FF02
:1011F0009FED010A704700BF000080FF0000000063
:101200009FED010B704700BF000000000000F8FFD9
:101210009FED010A704700BF0000C0FF08B5FFF74F
:10122000EFFF0E4B83ED000BFFF7F2FF0C4B83ED4E
:10123000000AFFF7C5FF0B4B83ED000BFFF7C8FF5C
:10124000094B83ED000AFFF7CBFF084B83ED000B42
:10125000FFF7CEFF064B83ED000A08BD60030020B8
:10126000500300205803002054030020680300208E
:101270007003002038B50C4B55EC104BD3E900013E
:1012800010EE102A2B46FFF7D7FB50B9074922462C
:10129000D1E900012B46FFF7CFFB003818BF012032
:1012A00038BD012038BD00BF58030020680300206E
:1012B00053EC102B0648984301D000207047C3F32D
:1012C000130151EA020314BF01200020704700BF40
:1012D0000000F07F2DE9F84F55EC114B2DED028BFE
:1012E00011EE100A29460022002357EC106BFFF77D
:1012F000A3FBC8B30022002330463946FFF79CFB0E
:1013000040B345EC184BB0EE480AF0EE680ABDEC6D
:10131000028BBDE8F88F45EC104BFFF7ABFF0028C0
:101320004FD00022002329462046FFF78FFB0022E2
:10133000B0F100084FF000033046394618BF4FF0B7
:101340000108FFF783FB00385FFA88F818BF012017
:101350008045D6D147EC186BB0EE480AF0EE680A2B
:10136000BDEC028BBDE8F88F47EC106BFFF7A0FFD8
:1013700050B1554B93ED008BB0EE480AF0EE680A81
:10138000BDEC028BBDE8F88F45EC104BFFF790FFEA
:101390000028EED147EC106BFFF76CFF0028E8D176
:1013A0000022002330463946FFF746FB0028B2D022
:1013B00022462B4600200021FFF700FA41EC180BD3
:1013C000A1E745EC114B47EC106B03F0ADF900229F
:1013D00051EC100BB0EE408AF0EE608A0023FFF76C
:1013E0002BFB8046B8F1000851EC180B4FF00002BF
:1013F0004FF0000318BF4FF00108FFF71DFBB0BB13
:1014000045EC104B03F00CF9204653EC102B294609
:10141000FFF73AFB58B322462B4630463946FFF7D2
:10142000CDF921F00049294B002249468046FEF7BC
:10143000E5FE41EC100B03F0F3F8404653EC102BA3
:101440004946FEF7D9FE0B46824623F0004B404644
:101450001F4B00224946FFF787F802460B465046CD
:101460005946FFF711FBB0FA80F84FEA5818B8F167
:10147000000F08D02046294600220023FFF774F809
:1014800041EC180B3FE73046394600220023FFF7B6
:10149000DDFA0022061E4FF000032046294618BF41
:1014A0000126FFF7D3FA0038F6B218BF01208642B2
:1014B0003FF429AF51EC180B22462B46FEF79EFE57
:1014C00041EC180B1FE700BF600300200000E03F65
:1014D0000000B03C000000002DE9F04F2DED028B24
:1014E000AF4B93F81E3195B0002B00F05285DFF81A
:1014F000BCB2AC4DAC49AD48A02200F1080401F5E6
:10150000C36903F0BFFADBE90067CBE9D867D5F818
:10151000588604F1980AF4E8022330463946FEF76B
:101520006DFE59F8043F544506460F469844F2D1E3
:10153000DFF89C92CBE9D867D5E9382309F54674E2
:1015400010461946F9E80223FEF758FEA145024667
:101550000B46F5D1964BDFF87CA20022FFF72EF95F
:1015600002460B46DAE92201FEF7FEFFB8F1000F52
:10157000CBE9D60180F2D6858E4B8F498F4A03FB8B
:101580000813B2EBB30F34BF4FF0FF3000208C4A8A
:101590004FEAE87382FB0828C3EBE8084044FEF7F3
:1015A00079FFDAE90089DAE92423FFF707F94246EF
:1015B0004B46FEF7D9FFB5F8B03640F2FE729342C3
:1015C000CDE90001CBE9CA0103D801339BB2A5F8EC
:1015D000B03695F8C726002A40F0C3844FF48173D3
:1015E000A5F8B026A5F8C63600220023DAE92601C0
:1015F000FFF72CFA002800F0B084DBE9CE67424602
:101600004B4665A1D1E90001FFF7D8F8DDE90023D9
:101610008046894630463946FEF7EEFD02460B46C7
:1016200040464946FEF7A0FFDAE9022306460F4688
:1016300000206449FFF7C2F802460B46304639469F
:10164000FEF792FFDAE92823FEF78EFF0022064616
:101650000F460023CDE90067FFF7F8F918B19AEDBE
:101660002A7B8DED007BD4E90067DDE90001564C53
:1016700032463B46FEF7C0FD2346F3E8048941ECC1
:10168000180B4246029330464B4639468BEDD88BB9
:10169000FEF7B2FD0B460299D1E900670246CBE99D
:1016A000DA23404632463B464946FEF7A5FDD4E9DB
:1016B0000A8902460B46CBE9DC23304639464246CE
:1016C0004B46FEF799FD0B462146F1E912670246AB
:1016D000CBE9DE230E9132463B4640464946FEF7B3
:1016E0008BFD02460B46CBE9E023F4E91C23304690
:1016F00039460F94FEF780FDB0EE480AF0EE680A16
:10170000CBE9E201FFF7D4FD002800F00C842F4B59
:10171000D3E90023CBE9D8239BEDDA0BFFF7C8FD13
:10172000002800F0E783294BD3E90023CBE9DA2333
:101730009BEDDC0BFFF7BCFD002800F0B983234BC9
:10174000D3E90023CBE9DC239BEDDE0BFFF7B0FDF3
:10175000002800F094831D4BD3E90023CBE9DE235E
:101760009BEDE00BFFF7A4FD002800F06F83174B03
:10177000D3E90023CBE9E0239BEDE20BFFF798FDD3
:10178000002800F03883114BD3E90089CBE9E289C6
:1017900022E000BFAFF30080182D4454FB21194014
:1017A000F0010020180700205807002078030020CF
:1017B00000005940CDCCCCCC98999919CCCCCC0C0C
:1017C000676666660000F03F200B00206003002083
:1017D0000008002000000020DBE9D823DAE92E0110
:1017E000FEF7C2FEDBE9DA2306460F46DAE93201EC
:1017F000FEF7BAFE02460B4630463946FEF7FEFCBF
:10180000DBE9DC23FEF7FAFCDBE9DE23FEF7F6FC7E
:10181000DBE9E023FEF7F2FC42464B46FEF7EEFC26
:1018200006460F46DAE90623CBE9D867FFF722F927
:1018300040B1DAE90423DBE9D601FFF71BF9002800
:1018400040F0F38395F8B22695F8B43613434FF081
:1018500000031A4614BF4FF001094FF0000910931E
:101860000A924B4685F8B4363046DAE90823394601
:10187000FFF7F6F840B1DAE90A23DBE9D601FFF712
:10188000EFF8002840F0998295F8B7360590814628
:1018900002900446002B00F09C829AED167B8DEDA1
:1018A000067BB34B0B93002C00F0668295F8B5369F
:1018B000002B40F0618295F8D336002B00F0618256
:1018C00095F8D236012B00F082869DED067B8BEDDC
:1018D000D87B012385F8D236029B002B40F05D8235
:1018E000D5F8BC3613F0FF1F00F05782012385F8AE
:1018F000BE3600230D9398469E4BD3F8202195F8D1
:10190000C936D2E90067CBE9D867002B40F08E8258
:101910009949002200230846E0E80C23CBE9D023B4
:10192000C0E90023C1E90423C1E90623C1E9082372
:10193000C1E90A2340F20314A5F8C84695F8C13658
:10194000002B40F043838D4B0C93D3E90067DDE916
:10195000002330463946FFF78DF8002800F09685C1
:101960009DED007B8DED087B95F8D136002B40F086
:10197000388300200021CBE9D8014FF48173A5F80A
:10198000D0360A9B002B40F04083059B002B40F093
:10199000BA870A9300231193DDE900670F9B784C07
:1019A000D3E9002330463946FEF726FC3B46CBE917
:1019B000CC013246DAE90C01FFF748F8002815BFE0
:1019C0004023002300214FF48001A36132463B46AF
:1019D000A161DAE90E01FFF739F8002815BF2023CD
:1019E000002300214FF40011A36132463B46A16160
:1019F000DAE91001FFF72AF8002815BF10230023A9
:101A000000214FF48011A36132463B46A161DAE91F
:101A10001201FFF71BF8002815BF0823002300213F
:101A20004FF40021A3613246A1613B46DAE914017B
:101A3000CBF82043FFF70AF84E4B002893F81E819D
:101A400015BF0422002200234FF48023A261A3616A
:101A5000B8F1000F00F06983D5F8A8462046FEF7DC
:101A600019FDDAE9462306460F46FEF7EFFF002888
:101A700000F00783002CC0F204839AED427B8DEDC9
:101A8000027B404B00228BEDD47BDAE94401FEF768
:101A9000B3FB02460B4630463946FEF7EBFF002803
:101AA00040F0F482013495F8CF66C5F8A8460E2EB2
:101AB00003D80136F6B285F8CF6695F8CE36002BFE
:101AC00040F0F382304800230022CBE9D223C0E962
:101AD00000230121032385F8CE1685F8CD36284B47
:101AE000CBF820334FF080720021254B99619A6129
:101AF000B8F1000F0BD19BF89E339BF89D139BF818
:101B00009C231B0403EB01231344CBF8903395F87B
:101B1000CC261E2A03D80132D2B285F8CC2695F8FD
:101B2000CB36002B40F0B4824FF48172DBF8901377
:101B3000A5F8CA26124ACBF89433C5F8AC16CBF8F0
:101B400020234FF000740E4AE868936104219461E9
:101B50000DF14E02ABF82413FFF702FA054BBDF866
:101B60004E6093F81E31CBF898631BBB0EE000BFAC
:101B7000200D0020F0010020300D0020280D002055
:101B8000001002400000F03F680D0020D5E9082356
:101B9000D5E90A01C5E90623D5E90C23C5E9080101
:101BA000C5E90A23D5E90E01DBE9D023C5E90C011B
:101BB000C5E90E23CB4C98222146A4F1080002F07F
:101BC0006FFF04F2146104F5C2604C2202F068FF5A
:101BD0009BEDCA7B04F1A00104F198004FF446721A
:101BE00085ED367BC5F8A46602F05AFF94EDF27BD2
:101BF00084EDF07B94EDF67B84EDF47B94EDF87B43
:101C000084EDF67B94EDFC7B84EDFA7B94EDFE7B1A
:101C100004F5806384EDFC7B93ED007B04F5826129
:101C200084EDFE7B91ED007B9DED006B0E9804F53D
:101C3000836280ED007B92ED007B83ED006BDBE93E
:101C4000CCAB04F5846604F5856381ED007BD6E9B1
:101C50000001C5E9FEABD3E900ABC2E9000104F520
:101C6000876104F586604FF4C47284EDEE6B84EDF9
:101C7000F26B84EDF86B83ED006BC6E900AB02F00C
:101C80000FFF9DED007B04F5B76A059C95F8B33610
:101C900085F8B3468AED007B109C95F8BD7685F8F3
:101CA000BD469DED067B0B9C95F8B6C695F8C066C3
:101CB00095F8B80695F8C21695F8B92695F8BAE6DB
:101CC00085F8B23684ED007B95F8C3360D9C95F807
:101CD000BB8685F8B82685F8B5C685F8B69695F81A
:101CE000C4C685F8BC7685F8BF6695F8C57685F8D4
:101CF000C04685F8B70685F8C11685F8C23685F85E
:101D0000B9E60A9B85F8BB369DED087B119B85F8EB
:101D1000C5360C9B85F8C3C683ED007B724B85F8F6
:101D2000BA86D3F8080185F8C4760130C3F80801F3
:101D30001D46D3F82041FEF79DFB02460B46D5E930
:101D40004401FEF711FCC4E9000195F81E31D5F8F5
:101D500018210133DBB2632B02F10102C5F818210F
:101D600089BF614A85F81E31002382F81E3115B003
:101D7000BDEC028BBDE8F08F95F8D336002B7FF4D5
:101D8000ABAD4FF48173A5F8D236029B0020002141
:101D9000CBE9D801002B3FF4A3AD002385F8BE3674
:101DA0000A9B002B3FF4A5AD95F8BF860123B8FA36
:101DB00088F84FEA58180D939EE50123A3EB090418
:101DC0000593029389EA030995F8B736002B7FF44F
:101DD00064AD464B0B93D3E90067DDE90023304641
:101DE0003946FEF73DFE002800F06D829DED007B38
:101DF0008DED067B57E5DBE9E267002200233046E4
:101E00003946FEF723FE002840F03381304639463C
:101E100000220023FEF738FE4FF00008002800F0F3
:101E20006982DFF8CC90CBE9E289D5E495F8C83631
:101E3000013B072B00F2F180DFE813F0E002EF0036
:101E40001003EF00B602EF00EF00EF00DBE9E06700
:101E50000022002330463946FEF7F8FD002840F006
:101E6000F0800022304639460023FEF70DFE0022A6
:101E7000002800F048821E4BCBE9E0237CE4DBE93C
:101E8000DE670022002330463946FEF7DFFD0028DA
:101E900040F0D1800022304639460023FEF7F4FDA1
:101EA0000022002800F02B82114BCBE9DE2357E4FF
:101EB000DBE9DC670022002330463946FEF7C6FD29
:101EC000002840F0CA800022304639460023FEF741
:101ED000DBFD0022002800F01482054BCBE9DC2357
:101EE00032E400BF60070020F0010020200D002038
:101EF0000000F03FDBE9DA67002200233046394674
:101F0000FEF7A4FD002840F0A280002230463946AA
:101F10000023FEF7B9FD0022002800F0E981A24B62
:101F2000CBE9DA2304E4DBE9D8670022002330465A
:101F30003946FEF78BFD002840F0958000223046A0
:101F400039460023FEF7A0FD0022002800F0D581CD
:101F5000954BCBE9D823FFF7DFBBDDE90067FFF73F
:101F60004EBB95F8C626012A00F0A581B3F5FA6F9D
:101F7000C0F0A581012385F8C63600228B4B304680
:101F80003946FEF71BFC884BCBE9CE010022FFF758
:101F90002DBB874DDFF82CB2D5E90823D5E9060122
:101FA000FEF72CF9D5E90A23FEF728F9D5E90C2329
:101FB000FEF724F9D5E90E23FEF720F97D4B002228
:101FC000FEF7FCFBCBE9D401FFF794BA7A4B0C93F4
:101FD0009AED187B95F8D1368DED087B002B3FF4F8
:101FE000C8AC95F8D036012B00F04682B8F1000F4E
:101FF0003FF4C7AC01239DED087B85F8D0360A9BE2
:102000008BEDD87B002B3FF4C0AC029B002B00F083
:102010004A8100230A931193BEE4B8F1000F7FF4C4
:102020008DAC052385F8C83688E401220023109280
:1020300099460A9216E4614B0022CBE9DE23FFF7B2
:102040008FBB5E4B0022CBE9E023FFF795BB5B4BD8
:102050000022CBE9DA23FFF76BBB584B0022CBE918
:10206000DC23FFF771BB554B0022CBE9D823FFF7E8
:1020700053BBDFF848914FF00008CBE9E289FFF746
:10208000ABBB9FED457B8DED027BFAE400240AE5B6
:1020900095F8CA36013B042B00F23D84DFE813F0CB
:1020A0006201530174014401350195F8CD36022BCC
:1020B00000F0FA81032B14D0012B00F00A82092EC4
:1020C0001ED9394B0022CBE9D22301213C4B85F8A4
:1020D000CD16002285F8CF26CBF820334FF480713F
:1020E00003E5DDE90201304B0022FEF7A5FC0028E4
:1020F00000F092820422002385F8CD2685F8CF36A1
:102100002F4BCBF82033DBE9D20100220023FEF76E
:1021100093FC00280BBF00224FF080724FF48071B7
:102120000021E2E40020FFF732BA9AED3E1B9BED5E
:10213000D40BFFF7CFF8DBE9D40153EC102B8BED78
:10214000D60BFEF759F816A3D3E90023FEF70CFAD5
:1021500041EC100B02F064FA8BEDD80BFFF7A8F8F6
:10216000002800F0F08100260027CBE9D867304630
:102170003946FEF7A9FC09282AD8DFE810F0140335
:1021800019030F031E03F102F602FB02000305030D
:10219000250000BFAFF30080000000000000000039
:1021A0007B14AE47E17A843F0000F03F00003440EA
:1021B0001807002000001440280D00200000F0BF88
:1021C00000100240780300209AF847318BF89C33C6
:1021D0009AED401B9BEDD60BFFF77CF8DBE9D601AF
:1021E00053EC102B8BEDD40BFEF706F80FF22043C7
:1021F000D3E90023FEF7B8F941EC100B02F010FA16
:102200008BEDD80BFFF754F8002800F07A810026F8
:10221000002730463946FEF757FC09280FD8DFE87B
:1022200010F0B80277027C02810286028B029002D3
:1022300095029A020A009AF83D318BF89D33DBE94A
:10224000D4670022002330463946FEF7FFFB47ECF7
:10225000106B002845D102F0E3F9B0EE407AF0EEC1
:10226000607AB0EE470AF0EE670A8BEDD87BFFF795
:102270001FF8002800F0898100260027CBE9D867E5
:1022800030463946FEF720FC092800F23C82DFE8A0
:1022900010F036022D0224021B0212020902000273
:1022A000F701EE01E5010A9B83F001030A93012384
:1022B0001193FFF771BBCE4B0022FFF797B90022B5
:1022C0000023FFF793B947EC106BFEF7F1FF0028EE
:1022D0007FF48CAD0B9B93ED007B8DED067BFFF7C0
:1022E000E2BA02F01DF9B0EE407AF0EE607AB8E79B
:1022F000002315E64FF0000995E5002329E60023A9
:10230000D3E50023EAE50023B6E5092A00F295812A
:10231000DBF89433B74ACBF82023002B00F05D8123
:1023200000244FF400730EE4132AF1D9D5F8AC362B
:10233000032103F001030022CBF8943385F8CA1679
:1023400085F8CC26E6E7DDE90201A94B0022FEF77D
:1023500073FB0028DCD00622002385F8CA2685F806
:10236000CC36D5E7D5F8AC36002B00F05E81092AD3
:10237000CED903F0010303210022CBF8943385F872
:10238000CA1685F8CC26C5E7092AC1D9D5F8AC26E6
:10239000DBF894335208C5F8AC26012285F8CA262A
:1023A000002285F8CC26B5E7B8F1000F40F0118285
:1023B000914C3046D4E900233946FDF71DFF8F4B81
:1023C0000022FEF761FB00283FF4B8AA083C8C49C4
:1023D00000220023084660E808230326C0E9002302
:1023E000C4E90023CBE9D02341E9062341E90423D2
:1023F00041E9022385F8C866FFF7A0BA814C0022A4
:10240000D4E900010023FEF717FB002840F0DA8131
:102410002346F3E90201002208930023FEF70CFB98
:10242000002840F01C822346F3E9040100220893AF
:102430000023FEF701FB002840F00082F4E90601CA
:1024400000220023FEF7F8FA002800F0F7810223AB
:10245000C4E9006785F8C836FFF770BAB8F1000F15
:102460003FF46CAA664B63E80A670922C3E9006778
:1024700085F8C826FFF762BAB8F1000F3FF481AAC9
:102480009DED087B8BEDD87BFFF77BBA47EC106B9B
:10249000FEF70EFF00287FF463AA0C9B93ED007BF0
:1024A0008DED087BFFF760BA574C584BD4E900011B
:1024B0000022FEF7C1FA00283FF401AE00220023FB
:1024C0000321C4E90023CBE9D22385F8CD16FFF719
:1024D00006BB092E7FF614AE4B4C002000210222D1
:1024E0000023CBE9D20185F8CD26D4E9000185F897
:1024F000CF3600223E4BFDF781FEC4E90001FFF715
:10250000EEBA9BEDD80BFEF7B5FE00287FF47FAE48
:102510009FED351B9BEDD80B02F006F957EC106BC5
:102520008BEDD80B10EE100A002200233946FEF77F
:102530008DFA00283FF46DAE304607F10041FEF7FA
:10254000C3FA404269E69BEDD80BFEF793FE0028E4
:102550007FF409AE9FED241B9BEDD80B02F0E4F84D
:1025600057EC106B8BEDD80B10EE100A00220023F5
:102570003946FEF76BFA00283FF4F9AD304607F113
:102580000041FEF7A1FA4042F5E59BEDD80BFEF7BE
:1025900071FE00287FF470AE9FED131B9BEDD80BEE
:1025A00002F0C2F857EC106B8BEDD80B10EE100A4E
:1025B000002200233946FEF749FA00283FF460AEB6
:1025C000304607F10041FEF77FFA40425CE69DEDA0
:1025D000067B8BEDD87BFFF77FB94FF00074FFF7D8
:1025E000B2BA00BFAFF30080000000000000F0416D
:1025F0000000F03F00100240380D002000001040A5
:10260000600D0020400D0020680D002000004240B9
:102610009A9999999999B93FC84900220023CBE921
:10262000D223C1E90023FFF75ABA052285F8CC3638
:1026300085F8CA26DBF894336CE60222DBF89013A7
:1026400085F8CA260023BE4ACBF89433C5F8AC16E9
:10265000CBF820234FF00074FFF775BAB94A9AF807
:10266000333192F81E818BF89E33FFF7F5B99AF853
:1026700034318BF89E33B34B93F81E81FFF7ECB9DE
:102680009AF835318BF89E33AE4B93F81E81FFF7E5
:10269000E3B99AF836318BF89E33AA4B93F81E8132
:1026A000FFF7DAB99AF837318BF89E33A54B93F8D8
:1026B0001E81FFF7D1B99AF838318BF89E33A14BC0
:1026C00093F81E81FFF7C8B99AF839318BF89E3319
:1026D0009C4B93F81E81FFF7BFB99AF83A318BF8FB
:1026E0009E33984B93F81E81FFF7B6B99AF83B31A9
:1026F0008BF89E33934B93F81E81FFF7ADB99AF890
:102700003C318BF89E338F4B93F81E81FFF7A4B9B1
:102710009AF845318BF89D3391E59AF844318BF85E
:102720009D338CE59AF843318BF89D3387E59AF811
:1027300042318BF89D3382E59AF841318BF89D3315
:102740007DE59AF840318BF89D3378E59AF83F3172
:102750008BF89D3373E59AF83E318BF89D336EE527
:102760009AF84C318BF89C3332E59AF84B318BF860
:102770009C332DE59AF84A318BF89C3328E59AF87A
:1027800049318BF89C3323E59AF848318BF89C3318
:102790001EE59AF846318BF89D3350E59AF84E3194
:1027A0008BF89C3314E59AF850318BF89C330FE585
:1027B0009AF84F318BF89C330AE59AF84D318BF833
:1027C0009C3305E50423C4E9006785F8C836FFF7A4
:1027D000B5B85D4C5D4B94ED007B002251EC170BBE
:1027E000B0EE478AF0EE678AFEF73AF900283ED04D
:1027F000012351EC180B85F8C8360022544BFDF725
:10280000FDFCA44602460B46ECE80223514BCCE902
:1028100000670022FDF7A8FED4E90C2341EC180B59
:1028200030463946FDF7E8FC02460B4651EC180BE2
:10283000FDF7C4FFCBE9D001FFF780B8089C002268
:10284000D4E900010023FEF7F7F800283FF476A84A
:102850000723C4E9006785F8C836FFF76FB8089A00
:102860000823C2E9006785F8C836FFF767B8214634
:10287000F1E9022330460C913946FDF7BDFC364B99
:102880000022FEF701F900287FF4A1AD2F4B51EC97
:10289000180B0022FEF7F8F800283FF44FA8062393
:1028A00051EC180B85F8C83600222A4BFDF75CFE68
:1028B00041EC180B2146F1E90C23304608913946CA
:1028C000FDF79AFC0B46024651EC180BFDF776FF1C
:1028D00094ED045BCBE9D0010C980899234694ED64
:1028E000066B94ED087BC0E9006781ED005BF3E9BE
:1028F0000A0184ED046B84ED067BC4E90801C3E999
:102900000067FFF71BB8029B002B3FF4CCAC059B84
:102910000A93FFF73FB8042A7FF6FAAC002304229B
:1029200085F8CC3603F1804385F8CA2603F50433D5
:102930000122CBF89423CBF82033F1E4680D00207A
:1029400000100240F0010020300D0020000008407F
:102950000000F03F00004E4000001040000000006A
:102960002DE9F04F724D734C082089B0FEF756FCEC
:102970006DA7D7E90067D5E91A016F4BDFF8DCC115
:10298000C3F8D03003F59072C4E90601C4E9080128
:10299000C4E90A01C4E90C01C4E90E01C3E94467B2
:1029A00003F21F1103F58870D5E91C67C3E90231F2
:1029B000C3F88420012103F594729862D5F8800051
:1029C00083F81F11C3F82021C3F814C004F2546225
:1029D00004F1400304F1E001E3E80267994242F8A0
:1029E000040FF9D1554BD5E91E0103F54872E3E810
:1029F00002019A42FBD15249D5E930670B46E3E820
:102A00000267D5E934ABD5E93689C3E90067D5E972
:102A10003867C1E904ABC1E906ABC1E908ABD5E948
:102A20002CABC1E91267C1E91467C1E91667C1E9B6
:102A30001867C1E91A67C1E90A89C1E90C89C1E9C6
:102A40000E89C1E91089D5E93A67C2E900AB01F105
:102A5000700301F50072E3E802679A42FBD1D5E901
:102A6000160195F8293195F82F6184F8B436C2E93A
:102A7000000195F8283195F82A2195F82C0195F850
:102A80002D1184F8B23684F8B33684F8B52695F85B
:102A90002E3184F8B62684F8BE1684F8BC0695F864
:102AA0002B1184F8BD060522264884F8BF3684F829
:102AB000C03602F00FF831460522234802F00AF82A
:102AC000D5E918892149224AB5F8303195F83261A3
:102AD000A1F89C330020009001250423C2E900895D
:102AE00081F89E63207020728DF80C00194E1A48F0
:102AF0000796A2F5C0621946059206902A464FF045
:102B0000011602A865600296FEF7AAF9E060FEF7DA
:102B10001DFAE0682946FEF7A1F9257209B0BDE863
:102B2000F08F00BFAFF30080FCA9F1D24D62503F9F
:102B30000000002018070020F0010020F807002006
:102B4000200B0020CF0D0020D90D0020780300209D
:102B5000280D00200064024000220140084B0008BC
:102B6000074B1A7822B95A6801218A42197000D09D
:102B70007047197A0029FBD0D8680421FEF768BA9B
:102B800018070020704700BF08B5BFF34F8FBFF391
:102B90006F8F094A0949136809688B4206D30123DC
:102BA000136072B6FEF7A6FA62B608BD591C116032
:102BB000002BF6D008BD00BFF40D0020F00D002062
:102BC000024A536843F080535360704700ED00E0C1
:102BD000254BD3ED007AF8EE677A10B427EE800A21
:102BE000FCEEC07A17EE903AB3F1807F2AD3F8EE6C
:102BF000676A9FED1E7A1E49C6EE877AFCEEE77A79
:102C000017EE902A0132B3FBF2F3013BB3F1807F60
:102C10000A6009D2174A18485360F024002107239C
:102C200080F8234091601360144A134B14481549EF
:102C30001060F02200200860DA7783F822205DF827
:102C4000044B70470A49013B0022B3F1807F0A60C0
:102C5000EAD2084908484B60F024072380F8234053
:102C60008A600B60E0E700BF5C010020FFFF7F4B44
:102C7000F00D002010E000E000ED00E0F80D002075
:102C8000892B0008F40D0020EFF3008001B5EFF36D
:102C9000118003B41EF0100F08BFB0EE400A0A48BE
:102CA000006803B488B004A006904FF080700790CD
:102CB0006FF006008646704703BC8047BFF36F8FF6
:102CC00000DFFEE700BF0000F80D00201EF0100F2F
:102CD00008BFB0EE400A1EF0040F0CBFEFF30880EF
:102CE000EFF30980816911F8020C10B101280DD0B1
:102CF0000BE01EF0100F0CBF1AB008B003BC80F33D
:102D0000118803BC80F300880847FEE74EF6145193
:102D1000CEF200010A6842F001020A607047F4E74F
:102D200000BF00BF2D4B1A6822F00F0242F00502CF
:102D300010B51A601A6802F00F02052AFAD1284A63
:102D4000284B116841F440411160116821F4803131
:102D500011601A6842F480321A601A689203FCD536
:102D60005C68214821491F4A204001435960596845
:102D700021F440315960196841F08071196013687D
:102D80009B01FCD59368174C23F0F0039360936884
:102D900023F4E05343F4A0539360936823F4604317
:102DA00043F400439360936823F0030343F002036A
:102DB0009360A36803F00C03082BFAD10C4800F0D1
:102DC00037FF002000F080FD08B172B6FEE7D4F8AE
:102DD0008C3023F08073C4F88C3010BD003C02406E
:102DE00000700040003802400080BFFF042A40000D
:102DF000007A030AF0B5002397B0CDE91333CDE98B
:102E00000233CDE90B33CDE90D33CDE907334D4A1C
:102E100004930A930693129309931593516C4A48AD
:102E20004A4C41F480615164516C01F4806101911C
:102E30000199116B41F020011163126B149302F0A0
:102E4000200200920323202210A9CDE91023009D27
:102E500000F07AFD3E4B1A6822F0606242F0806218
:102E60001A601A6822F0C0021A601A6822F440320E
:102E70001A601A6822F4907242F480721A601A681A
:102E800022F400721A601A6842F480621A601A68AA
:102E900022F4C05242F400621A601A6822F4C0425E
:102EA00042F400521A605A6922F004025A61002664
:102EB000002702A94FF480752046CDE902670495EA
:102EC00000F02AFE0AA92046CDE90A67CDE90C6781
:102ED0000E9500F03BFEA3681E4843F48063A36098
:102EE00006A94FF44033069300F0E6FD4FF440731B
:102EF000194A93FAA3F33BB1B3FA83F34FF4007189
:102F000021FA03F302EB83021368104923F01F0335
:102F100043F00F031360CA684FF0F87393FAA3F3FA
:102F200063B1B3FA83F34FF47001D94007238B40A8
:102F3000DB4306491340CB6017B0F0BD6FF00703C9
:102F4000F7E700BF003802400014024000220140B1
:102F500010640240002301402C2201402DE9F0437F
:102F6000354D364C93B00AA82022002101F0B2FD65
:102F70002B6B334843F004032B632B6B03F00403E8
:102F80000393039B2B6B43F001032B632B6B03F029
:102F900001030293029E04A94FF4007202234FF032
:102FA00000084FF0010901260427CDE90423CDE9EB
:102FB0000689CDE9086700F0C7FC04A94FF48072C8
:102FC00002232048CDE90689CDE90867CDE904232D
:102FD00000F0BAFC2B6CDFF8709043F400032B6414
:102FE0002B6C03F400030193019BE36823F00103BE
:102FF000E360236823F040032360236823F0800309
:103000002360002200230AA920464FF000084FF455
:1030100080664FF48047CDE90C23CDE90E23CDE93E
:103020000A89CDE9106700F019FFE36823F0FE0379
:10303000E36013B0BDE8F08300380240005C00405C
:103040000008024000000240A0860100D0B592B006
:1030500008A82822002101F03DFD214B21485A6C8F
:10306000214C42F480125A645A6C02F4801201928C
:10307000019A1A6B42F020021A631B6B03F02003C3
:1030800000934FF460720223CDE9022300990026D9
:1030900000270022052302A9CDE90623CDE9046714
:1030A00000F052FC00224FF48273CDE90823002285
:1030B0004FF40073CDE90C2318220023CDE90E2331
:1030C00008A900220A232046CDE91023CDE90A678A
:1030D00000F04AFF636823F01003636012B0D0BDB4
:1030E00000380240001402400050014030B587B063
:1030F0000023164AADF80630516C154C41F0010121
:103100005164526CADF8043002F001020092204686
:103110004FF6FF7201A9CDE904330293009D03929B
:1031200001F0DAF8236823F080032360A36823F416
:10313000804323F00703A360636823F07003636098
:10314000A36823F08003A36007B030BD00380240BD
:103150000000014030B5002491B0CDE90844CDE92C
:103160000A44CDE90C44364B0E945A6C3548364D22
:1031700042F010025A645A6C02F010020192019A55
:103180001A6B42F001021A631B6B03F001030093F8
:103190004FF4C0620223CDE9022303220023CDE9CC
:1031A000042300990022072302A9CDE9062300F099
:1031B000CBFB264B1A6822F0606242F000621A6074
:1031C0001A6822F0C0021A601A6822F440321A60AB
:1031D0001A6822F490721A601A6822F400721A6057
:1031E0001A6842F480621A601A6822F4C0521A60A7
:1031F0001A6822F4C0421A605A6922F004025A6125
:103200004FF4E1320023CDE9082300220023CDE969
:103210000A2308A90C2200232846CDE90C230E948A
:1032200001F0B6F82B6923F490432B616B6923F00E
:103230002A036B61EB6843F40053EB6011B030BDBF
:10324000003802400000024000100140406402408B
:103250000D4A0E48116B0E4B41F480011163126B45
:1032600082B002F48002019200220199C16883F8C1
:1032700038234FF080715960C16883F83A234FF0CA
:1032800080625A6002B070470038024000ED00E0F2
:1032900000E100E02DE9F04F2DED048B4FF0000927
:1032A00093B0CDE90A99D94BCDF844901A6B9FEDB4
:1032B000D89A9FEDD88AD84EDFEDD89ADFEDD88A1C
:1032C00042F010021A631A6B02F010020992099A76
:1032D0001A6B42F004021A631A6B02F0040208929D
:1032E000089A1A6B42F020021A631A6B02F020024D
:1032F0000792079A1A6B42F080021A631A6B02F067
:1033000080020692069A1A6B42F001021A631A6B47
:1033100002F001020592059A1A6B42F002021A634A
:103320001A6B02F002020492049A1A6B42F04002F5
:103330001A631A6B02F040020392039A1A6B42F06E
:1033400008021A631B6B03F008030293029819EE3C
:10335000100A4FF05F714FF4B012816118EE104AFD
:10336000B26119EE902A4FF05C5E4FF40003936156
:10337000C4F818E018EE904A4FF0C04CC4F818C0DA
:103380004FF45F72012300274FF000080CA9CDE92C
:103390000C23CDE90E78CDF8409000F0D5FA4FF629
:1033A0001F020223CDE90C23032400220C23002555
:1033B0000CA99C4892469B46CDE90E45CDE91023C9
:1033C00000F0C2FA4FF480620223CDE90C230CA96D
:1033D00000220E239348CDE90E78CDE9102317463D
:1033E000984600F0B1FACDE90E4501220223544679
:1033F0005D460CA93046CDE91045CDE90C230024EB
:1034000000F0A2FA0025162201230CA93046CDE9CE
:103410000E45CDE90C23CDF8409000F095FACDE9AA
:103420000E4541F6580202233C4645460CA919EECA
:10343000900ACDE91045CDE90C23002400F084FA70
:103440000025802201230CA919EE900ACDE90E4532
:10345000CDE90C23CDF8409000F076FA0322022348
:10346000CDE90E45CDE90C230CA9002309246E48B3
:10347000CDE91034002500F067FA0324042200236C
:103480000CA96948CDF84090CDE90C2300F05CFA16
:10349000CDE90E4548F23312022354465D460CA98D
:1034A00018EE900A5746D846CDE91045CDE90C23D1
:1034B000032400F049FA00254FF6834202230CA9A9
:1034C00019EE100A4FF0000A4FF00E0BCDE90E4531
:1034D000CDE90C2300240025CDE9107800F034FA62
:1034E0004FF4706202230CA94F48CDE90E45CDE997
:1034F00010ABCDE90C2300F027FA4FF45042022321
:103500000CA94948CDE90E45CDE90C23CDE9107849
:1035100000F01AFA4FF4005200230CA94248CDF8EB
:103520004090CDE90C2300F00FFA4FF45C520123D8
:103530000CA918EE100ACDE90E45CDE90C23CDF803
:10354000409000F001FA4FF4006200230CA918EE3D
:10355000100ACDE90C2303240025CDF8409000F09B
:10356000F3F94CF2030202230CA918EE100ACDE97C
:103570000045CDE90E45CDE90C2300240025CDE919
:10358000107800F0E1F94FF40C6202230CA918EE58
:10359000900ACDE910ABCDE90C23CDE90E4500F042
:1035A000D3F94FF4986202230CA93046CDE910AB51
:1035B000CDE90C23CDE90E4500F0C6F9CDE910ABFD
:1035C000482202230CA94FF0000A4FF0090B18EE15
:1035D000100ACDE90C23CDE90E4500F0B5F9CDE98F
:1035E00010AB4FF4A0520223A246AB460CA918EE32
:1035F000900ACDE90C23CDE90EAB00F0A5F94FF40C
:10360000C04201230CA918EE900A0FE000380240D6
:1036100000100240000C024000080240000002407E
:10362000001802400014024000040240CDE90C23BF
:10363000CDE90EABCDF8409000F086F9DDE900450C
:10364000602202237D480CA9CDE90C23CDE90E456B
:10365000CDE9107800F078F9794B9A6822F00F02E2
:103660009A609A6822F0F0029A609A6822F4706276
:103670009A60DA68F02322F0F00293FAA3F32BB1F8
:10368000B3FA83F3022101FA03F31A436C4BDA60B5
:103690005A6922F470425A61012440F201150AA8C5
:1036A0000A948DF82E40ADF82C5000F0C7FA022392
:1036B0000AA88DF82E400A93ADF82C5000F0BEFAFF
:1036C00004230AA88DF82E400A93ADF82C5000F080
:1036D000B5FA20230AA88DF82E400A93ADF82C5095
:1036E00000F0ACFA4FF400430AA88DF82E400A937C
:1036F000ADF82C5000F0A2FA94FAA4F4514BDB6818
:103700003CB1B4FA84F46400032202FA04F423EA1C
:1037100004034C4AD360D268022393FAA3F33BB16B
:10372000B3FA83F35B00032101FA03F322EA0302F5
:10373000444BDA60DA68042393FAA3F33BB1B3FA9B
:1037400083F35B00032101FA03F322EA03023D49FC
:103750003D4BCA60DA68202393FAA3F33BB1B3FA76
:1037600083F35B00032101FA03F322EA03023649E3
:10377000344BCA60DA684FF4004393FAA3F33BB1C9
:10378000B3FA83F35B00032101FA03F322EA030295
:103790002C4BDA601A68012393FAA3F33BB1B3FA16
:1037A00083F35B00032101FA03F322EA0302254BB2
:1037B0001A601A68022393FAA3F33BB1B3FA83F3B6
:1037C0005B00032101FA03F322EA03021D4B1A6096
:1037D0001A68042393FAA3F33BB1B3FA83F35B00B3
:1037E000032101FA03F322EA03021649164B0A6089
:1037F0001A68202393FAA3F33BB1B3FA83F35B0077
:10380000032101FA03F322EA03020F490D4B0A6078
:103810001A684FF4004393FAA3F33BB1B3FA83F36E
:103820005B00032101FA03F322EA0302054B1A604D
:1038300013B0BDEC048BBDE8F08F00BF0004024064
:10384000003801400000024000080240034B0268BB
:103850009A4200D0704700F0F5BA00BF000C00405B
:10386000FEE700BFFEE700BFFEE700BFFEE700BFC8
:10387000FEE700BF704700BF014800F07FBC00BFFB
:10388000FC0D0020704700BF82B00E4B002200925A
:10389000596C41F480415964596C01F480410091A4
:1038A00000990192196C41F0805119641B6C03F06E
:1038B00080530193019B0F216FF0010002B000F0D3
:1038C00061BA00BF0038024030B5014689B000221D
:1038D000322000F057FA322000F08CFA0025164B07
:1038E00002951A6C154C42F008021A641B6C03F026
:1038F000080301A9029303A8029B00F00DFA00F04F
:10390000FBF90F4A0F4925614300A2FB03239B0CDF
:10391000013B40F2E7322046C4E901352160E26014
:1039200000F05AFB10B1012009B030BD204600F074
:10393000E1FB09B030BD00BF00380240FC0D0020A3
:1039400083DE1B43000C00402DE9F0470D6895FA1B
:10395000A5F2B2FA82F235FA02F300F08480012671
:103960004FF0030C4FF00F0E38E0D1F81080D0F874
:103970000C9093FAA3F737B1B7FA87F77F000CFAE8
:1039800007F729EA070993FAA3F7002F6ED0B7FAD1
:1039900087F77F0008FA07F747EA0907022CC76094
:1039A00048D093FAA3F80768B8F1000F07D0B8FA27
:1039B00088F84FEA48080CFA08F827EA080793FA4B
:1039C000A3F3002B54D0B3FA83F35B0004FA03F3A0
:1039D0003B430360013235FA02F344D006FA02F3A6
:1039E0002B40F7D04C68671E012FBED893FAA3F77F
:1039F000D1F80880D0F8089037B1B7FA87F77F0080
:103A00000CFA07F729EA070993FAA3F7002F4FD01A
:103A1000B7FA87F77F0008FA07F747EA09078760D0
:103A2000476827EA0308CF6807FB03F748EA070758
:103A300047609AE793FAA3F7E7B1B7FA87F8B8F1C6
:103A4000070F17DCD0F820A04F694FEA88090EFA5B
:103A500009F94FEA88082AEA090A07FA08F747EA43
:103A60000A0707629DE70020BDE8F087402791E73D
:103A70004023ABE71F0AD1F81480D0F8249097FABE
:103A8000A7FABAF1000F07D0BAFA8AFA4FEA8A0AFF
:103A90000EFA0AFA29EA0A0997FAA7F757B1B7FA0C
:103AA00087F7BF0008FA07F747EA0907476278E790
:103AB0004027B0E78027F5E770B4134B134C144A46
:103AC000A4689B6892682343134313F0010310D149
:103AD0004A68054640687AB10E4C0E680440D1E948
:103AE00002012243324302430A4318466A6070BC13
:103AF0007047012070BC7047064B096803400B43B8
:103B000010466B6070BC70470021014000200140EE
:103B100000220140E010FCFF836813F0010313D181
:103B200070B40246446891E8610024F0407424F4C3
:103B30008074304320435060916821F40061294330
:103B4000184670BC91607047012070478368DB079E
:103B50001AD470B44C684368C4B923F46843436012
:103B600082680D4BCE680D6913400A6833432B43BE
:103B700002F0706213438360C36A23F4700323432B
:103B8000C36270BC00207047012070478A6823F42C
:103B9000684313434360E3E7FDFCFFC01F4A93689B
:103BA00003F00C03042BF0B436D0082B32D1576845
:103BB0005568536851681A4C1A4EC1F30141C3F35A
:103BC000881217F4800F01F101010CBF2346334620
:103BD00005F03F044900B3FBF4F302FB03F3B3FB2E
:103BE000F1F30E4A036091680F4D104CC1F30311BD
:103BF000695CCB4043609168C1F38221615C23FA28
:103C000001F181609268C2F34232A25CD340F0BC01
:103C1000C3607047024BE4E7024BE2E70038024022
:103C20000024F40000127A00204B0008304B0008FA
:103C3000014B1860704700BF5C01002010B40346C0
:103C40000079A0B1186878B15A79012A34D0022AD3
:103C50001AD042B301229B790BB3022B31D0032B34
:103C600043D0012B37D001205DF8044B7047214A27
:103C70001C68116821EA04011160536823EA0403F7
:103C800053605DF8044B70471A4A11680143116094
:103C90005168014351609B790022002BDDD1104611
:103CA0005DF8044B704713494C6824EA00044C60EB
:103CB0000C6804430C60CEE70E4A116821EA00014B
:103CC000E5E70C4B996821EA00019960D96808433F
:103CD000D8601046E4E7074BD96821EA0001D960B3
:103CE0009968084398601046BEE7024B9968014303
:103CF000EBE700BF003C0140044B054A9B680549C7
:103D0000C3F382230868D35CD84070470038024070
:103D1000304B00085C0100200E4B0F2202609A68B5
:103D200002F0030242609A6802F0F00282609A6830
:103D300002F4E052C2609B68DB0810B403F4E05365
:103D4000054C036123685DF8044B03F00F030B601F
:103D5000704700BF00380240003C02400849CA6872
:103D600010B400024FF6FF04224000F4E063134356
:103D700043F0BF6343F400335DF8044BCB607047FE
:103D800000ED00E0194BDB68C3F3022330B4C3F14C
:103D90000705042D03F1040428BF0425062C19D9B6
:103DA000033B4FF0FF349C4022EA04024FF0FF3403
:103DB000AC4021EA04019940002841EA02010CDBF1
:103DC00000F1604000F561400901C9B280F80013BC
:103DD00030BC704700221346E8E7054B00F00F00A7
:103DE00009010344C9B2197630BC704700ED00E008
:103DF000FCEC00E0002807DB044A00F01F0101236F
:103E000040098B4042F82030704700BF00E100E0DD
:103E100008B50B4B1A6842F400721A601A6842F433
:103E200080621A601A6842F480721A600320FFF7F9
:103E300095FF0020FFF748FDFFF726FD002008BD95
:103E4000003C0240034A044B11681B780B4413608A
:103E5000704700BF440E002058010020F0B50368F1
:103E6000044685B023F00103036068460D46FFF762
:103E700095FE676AE9680298384B27F01F0C2F6996
:103E8000394341EA0C01D5E9016261626168DFF8FA
:103E9000D0C0A3FB007321F03F0141EA9341616070
:103EA000276A66454FEA934327F03F072ED8013330
:103EB00040F6FC7172003B43B0FBF2F20A4223620F
:103EC00008BF0422E3696969EE6923F44F4323F0D4
:103ED000FF031343E361A0682B68AD6920F403403E
:103EE00020F0FF0031430143A160226822F01A0252
:103EF0001A432260226842F001022260236823F400
:103F000080632B430020236005B0F0BDDFF854C070
:103F10004FF4967101FB03F1ACFB013189090131CA
:103F20003943216252B906EB4603B0FBF3F3C3F306
:103F30000B0181B948F201031A43C3E706EB860679
:103F400006EB8606B0FBF6F6C6F30B03002BF1D0AA
:103F500046F40043F0E743F40043EDE783DE1B4300
:103F6000A0860100D34D62100246006810F04000A8
:103F700027D1F0B4D1E90037D1E902543B430E69AF
:103F80002B43D1E90575234333433B432B43D1E90D
:103F900007651468334324F47F442B4324F0BF04A3
:103FA00023431360536823F0040343EA1743B5F532
:103FB000005F53600BD0D36923F40063F0BCD3617E
:103FC0007047D36923F400630120D36170478B8C61
:103FD0001361F0E7704700BF002800F0878038B514
:103FE00090F83D30044603F0FF02002B79D02268A0
:103FF0003F49022384F83D308A4213685DD0B2F114
:10400000804F31D0A1F57C418A422DD001F58061ED
:104010008A4229D001F580618A4225D001F5784194
:104020008A424AD001F570518A4221D001F580615F
:104030008A421DD001F580618A4219D0A1F59831DC
:104040008A4215D001F580618A4211D001F5806164
:104050008A420DD0A569E068616823F080032B4394
:104060001360D062916210E0A16823F070030B43EB
:104070002569A169E06823F440732B4323F0800392
:104080000B4361681360D06291620123536184F82D
:10409000463084F83E3084F83F3084F8403084F86D
:1040A000413084F8423084F8433084F8443084F856
:1040B000453084F83D30002038BDA5682069A169ED
:1040C00023F070032B4323F44073034323F0800356
:1040D0000B431360E368D36263689362636913639D
:1040E000D3E780F83C20FFF775FF80E70120704799
:1040F0000000014090F83D30012B2FD10368194991
:10410000022280F83D20DA688B4242F00102DA6038
:1041100019D0B3F1804F16D0134A934213D002F551
:10412000806293420FD002F5806293420BD002F579
:104130007842934207D002F57052934203D0A2F521
:104140009432934204D19A6802F00702062A07D0FB
:104150001A6842F001021A6000207047012070477F
:10416000002070470000014000040040704700BF7D
:10417000704700BF704700BF704700BF03681A69EF
:10418000910710B5044602D5DA6892075FD41A6920
:10419000500702D5DA68510746D41A69120702D5CA
:1041A000DA6810072ED41A69D20602D5DA68D0066A
:1041B00018D41A69D10702D5DA68D2075DD41A6912
:1041C000100602D5DA6811065FD41A69520602D5C4
:1041D000DA68500661D41A69910602D5DA68920647
:1041E00043D410BD6FF01001082219612277DB69FA
:1041F00013F4407F204664D0FFF7BAFF0022236803
:104200002277D6E76FF00801042219612277DB6973
:104210009907204652D1FFF7A9FF2046FFF7AAFFD2
:10422000002223682277BEE76FF0040102221961A1
:1042300022779B6913F4407F20463CD1FFF796FF1D
:104240002046FFF797FF002223682277A5E76FF04B
:1042500002010122196102779B699B0725D0FFF7B4
:1042600087FF00222368227791E76FF02002204623
:104270001A61BDE8104000F02BB86FF001021A611E
:104280002046FFF7E3FA236899E76FF080021A618E
:10429000204600F01FF8236897E76FF040021A618C
:1042A0002046FFF769FF236895E7FFF75FFF204689
:1042B000FFF760FFD5E7FFF75BFFC4E7FFF758FFA5
:1042C000AEE7FFF753FF2046FFF754FF96E700BF26
:1042D000704700BF704700BF2C4A0368904230B45B
:1042E00044D0B0F1804F33D0A2F57C4290422FD021
:1042F00002F5806290422BD002F58062904227D076
:1043000002F57842904231D002F57052904223D0AB
:1043100002F5806290421FD002F5806290421BD06D
:10432000A2F59832904217D002F58062904213D0E5
:1043300002F5806290420FD08C680A880360C462E4
:104340008262436943F00103436130BC002070473F
:104350004A6823F070031343D1E9024523F4407304
:104360000A882B430360C4628262EAE74D68CC6826
:104370000A8823F070032B4323F440732343036024
:104380008B68C36282620B690363DAE70000014055
:10439000C3689B0401D50120704730B54B680446C3
:1043A0000D46D1E90310E2680B43A969034322F4E7
:1043B00016420B4322F00C021343E3602269AB6800
:1043C000696922F440521A432261636923F44073FD
:1043D0000B4385B063616846FFF7E0FB314B9C42BD
:1043E00020D0314B9C4216D0304B9C4213D003F569
:1043F0004C439C4216D0A3F548439C420BD003F596
:1044000080639C4207D003F520539C4203D003F500
:1044100080639C4203D1029909B12B6823B9012022
:1044200005B030BD0399F7E7AA69B2F5004F18D07F
:1044300019209A00A1FB00019B0FFCF765FB1C4DA6
:10444000A5FB00235B09642101FB13021201323238
:10445000A5FB02121B0103EB52139BB2A3600020C9
:10446000DEE7DA184FF019004FF000035B41A1FBC3
:104470000001FCF749FB0E4DA5FB003251096422F7
:1044800002FB1103DB003233A5FB0323C3F342120B
:104490001B0902EB011203F4F87313449BB2A360EF
:1044A0000020BDE7001001400044004000480040EB
:1044B0001F85EB51034AD2F8883043F47003C2F8E9
:1044C0008830704700ED00E0DFF834D00D480E4929
:1044D0000E4A002302E0D458C4500433C4188C425E
:1044E000F9D30B4A0B4C002301E013600432A242C3
:1044F000FBD3FFF7DFFF00F0A1FAFCF713FE7047D4
:104500000000032000000020C8010020584B0008D4
:10451000C8010020480E0020FEE700000000000057
:1045200051EC100BF8B5C1F30A53A3F2FF35132D6C
:1045300010EE106A0C4632DC002D1EDB364F2F4188
:1045400001EA070303432FD031A3D3E90023FBF78C
:1045500055FE00220023FCF797FA48B1002C04DD39
:104560004FF4801343FA05F52C4424EA070400268F
:104570002346324643EC102BF8BD25A3D3E9002394
:10458000FBF73CFE00220023FCF77EFA0028EFD068
:10459000002C39DB264333D0204C0026E8E7332DAE
:1045A00005DDB5F5806F23D041EC100BF8BDA3F20B
:1045B00013434FF0FF37DF400742F5D014A3D3E990
:1045C0000023FBF71BFE00220023FCF75DFA002806
:1045D000CED0002C09DD142D14D00123C5F13405F3
:1045E00003FA05F5AE1928BFE41826EA0706BFE767
:1045F00010EE102A0B46FBF701FE41EC100BF8BD44
:104600003446B5E70134F0E700264FF00044AFE749
:104610009C7500883CE4377EFFFF0F000000F03FF0
:1046200051EC100BF8B5C1F30A53A3F2FF35132D6B
:1046300010EE106A0C4620DC002D3DDB384F2F4178
:1046400001EA070303431DD033A3D3E90023FBF79B
:10465000D5FD00220023FCF717FA48B1002C04DA3C
:104660004FF4801343FA05F52C4424EA070400268E
:104670002346324643EC102BF8BD332D05DDB5F54E
:10468000806F29D041EC100BF8BDA3F213434FF01B
:10469000FF37DF400742F5D01FA3D3E90023FBF724
:1046A000ADFD00220023FCF7EFF90028E0D0002C3C
:1046B00023DB26EA0706DBE717A3D3E90023FBF792
:1046C0009DFD00220023FCF7DFF90028D0D0002C4C
:1046D0000ADB00263446CBE710EE102A0B46FBF728
:1046E0008DFD41EC100BF8BD24F000430D4A1E4334
:1046F000002E18BF14460026BAE7142D08D0012357
:10470000C5F1340503FA05F5AE1928BFE418D0E762
:104710000134CEE7AFF300809C7500883CE4377E1F
:10472000FFFF0F000000F0BFF8B52DED028B57EC36
:10473000106B55EC114B00F03BF81C4BB0EE408A6F
:10474000F0EE608A93F90030013314D022462B46F4
:1047500020462946FCF7A2F968B932463B46304666
:104760003946FCF79BF930B9204629460022002340
:10477000FCF762F930B9B0EE480AF0EE680ABDEC19
:10478000028BF8BD00F054F90022002321210160C2
:1047900010461946FCF712F841EC180BB0EE480A27
:1047A000F0EE680ABDEC028BF8BD00BF600100208E
:1047B00053EC112B2DE9F04723F0004555EA020692
:1047C00051EC100B34D0944E21F00049B14588468D
:1047D0002EDC5642DFF844C2164345EAD6766645DB
:1047E00011EE10EA24D8A94511EE107A10EE10AAA5
:1047F00010EE102A1C4601F0004606DCC0F2BE8016
:104800007045C0F0BB8000F0F080844B08EA0303E1
:10481000C3B9B9F1000F40F0D180BAF1000F80495F
:10482000534613DD5B00002B01F1FF31FADC0DE094
:10483000FBF79AFE02460B46FBF7C0FF41EC100B5C
:10484000BDE8F0874FEA2951A1F2FF31734B2340B5
:1048500073B9002D40F0A680BEF1000FDFF8C0C193
:10486000734609DD5B00002B0CF1FF3CFADC03E032
:104870004FEA255CACF2FF3C6A4B994270DBC8F30F
:10488000130343F480136748844558DBC4F31304CF
:1048900044F48014A2EB0E00B1EB0C010AD11BE032
:1048A00050EA050343D0EB0F013903EB40034FEA15
:1048B000450210D0181B974288BF00F1FF30002836
:1048C000A2EB07054FEAD27EEADA01390EEB430389
:1048D0004FEA4202EED1D01B1C1B974288BF04F165
:1048E000FF34002CA4BF0246234653EA020106D13E
:1048F0001DE0D10F01EB43030CF1FF3C5200B3F577
:10490000801FF6DB47498C4564DAA1EB0C011429C2
:1049100072DC0CF21E40CA4003FA00F043FA01F1C7
:1049200010430E433346024643EC102B88E73E4BC0
:10493000F60F03EBC60696ED000BBDE8F087A0EB83
:104940000C001F2823DD394CB1EB0C01A4EB0C0447
:104950000EFA04F418BF0027ACD11C1B1046C0E7A8
:104960005A1A1F2A0DDC01F21E4309FA02F92AFA2B
:1049700003F30AFA02F243EA090384E741EC100B5D
:104980005EE72A4B5B1A0AFA03F300227BE70CF27C
:104990001E4485400EFA00F72EFA04F040EA0504A2
:1049A000D01B79E7EB02002BDFF878C07FF764AF0C
:1049B0005B00002B0CF1FF3CFADC5DE74FEAC923FA
:1049C000002B18497FF742AF5B00002B01F1FF314C
:1049D000FADC3BE7A3F580131E430CF2FF3C46EAEA
:1049E0000C51104641EC100B2AE70F4BF60F03EB6E
:1049F000C60393ED000B23E71F2907DC0CF21E40D2
:104A0000834022FA01F143EA01008BE70749A1EB59
:104A10000C0143FA01F085E7FFFFEF7F0000F07F14
:104A2000EDFBFFFF02FCFFFF384B0008E2FBFFFF3E
:104A3000014B1868704700BF6401002070B50D4D30
:104A40000D4C641BA4100026A64209D10B4D0C4C42
:104A500000F048F8641BA4100026A64205D170BDE2
:104A600055F8043B98470136EEE755F8043B984764
:104A70000136F2E7504B0008504B0008504B00083D
:104A8000544B00080A44914200F1FF3300D17047B3
:104A900010B511F8014B03F8014F9142F9D110BD47
:104AA000884210B501EB020402D98442234607D89C
:104AB000431EA14208D011F8012B03F8012FF8E79B
:104AC000024401468A4200D110BD13F8014D02F89C
:104AD000014DF7E702440346934200D1704703F8C3
:104AE000011BF9E7F8B500BFF8BC08BC9E4670474B
:0C4AF000F8B500BFF8BC08BC9E4670473B
:104B0000102840587088A0B8466978656453746569
:104B1000704469736372657465000000F0010020E1
:104B2000000000000000000001020304060708095D
:104B3000000000000102030400000000000000006B
:084B40000000000000000080ED
:084B4800F0BFFF7F0100000037
:044B5000D501000883
:044B5400B1010008A3
:104B580000000000000008400000000000002440A1
:104B680000000000000008400000000000000000F5
:104B7800000000000000000000000000000008C065
:104B88000000000000004940000000000000444010
:104B98000000000000003E4000000000000034401B
:104BA8000000000000002440000000000000000099
:104BB8000000000000005940000000000000000054
:104BC80000000000000000000000000000000000DD
:104BD800000000000000000000000000000000408D
:104BE8000000000000FEAF400000000000000000D0
:104BF8000000000000005940000000000000000014
:104C0800000000000000000000000000000000405C
:104C1800000000000000000000000000000000404C
:104C2800000000000000000000000000000000007C
:104C3800000000000000000000000000000000006C
:104C480000000000000000000000000000005940C3
:104C58000000000000002440000000000000F03FB9
:104C68000000000000408F40000000000000F03FFE
:104C7800000000000000000000000100000001002A
:104C88000000006F7F077D6D664F5B063F6F7F07F3
:104C98007D6D664F5B063F6F7F077D6D664F5B06D8
:104CA8003F00000000000000010000000024F400A4
:104CB800FF00000068010020000000000000000064
:104CC80000000000000000000000000000000000DC
:104CD80000000000000000000000000000000000CC
:104CE80000000000000000000000000000000000BC
:104CF80000000000000000000000000000000000AC
:104D0800000000000000000000000000000000009B
:084D1800000000000000000093
:04000005080044C9E2
:00000001FF
