:1000000052C0000078C0000076C0000074C000003C
:1000100072C0000070C000006EC000006CC0000024
:100020006AC0000068C0000066C0000064C0000034
:1000300062C000000C94120C5EC000005CC00000A6
:100040000C94960E58C000000C949C100C94CE108A
:1000500052C0000050C000004EC000004CC0000064
:100060004AC0000048C0000001020408102040807F
:1000700001020408102001020408102004040404F2
:100080000404040402020202020203030303030342
:1000900000000000250028002B00000000002400C4
:1000A00027002A00F31011241FBECFEFD8E0DEBFD7
:1000B000CDBF11E0A0E0B1E0E6E2F3E202C00590BE
:1000C0000D92A639B107D9F724E0A6E9B1E001C045
:1000D0001D92AA3EB207E1F710E0C3E5D0E004C0EC
:1000E0002197FE010E948B11C235D107C9F70E94EA
:1000F000750C0C94911184CFCF93DF93882349F032
:10010000EB0181500E941B0F99838883DF91CF916F
:100110000895FB0111821082F9CF0F931F938B0179
:100120009C0183E036952795179507958A95D1F719
:100130000A561E4F462F477021E030E0F90102C0F9
:10014000EE0FFF1F4A95E2F7AF01F801208124234B
:10015000CB010196211102C090E080E01F910F9128
:1001600008950F931F938B019C0183E0369527958B
:10017000179507958A95D1F7677081E090E001C0E7
:10018000880F6A95EAF7F801EA56FE4F2081452B61
:1001900031F48095822380831F910F910895822BE3
:1001A000FACFCF92DF92EF92FF92CF93DF936B0162
:1001B0007C0160E08EE0C816D104E104F10490F403
:1001C0008EE08C0D0E94360FE6012196AE01C7012C
:1001D000B601C7DFCE01DF91CF91FF90EF90DF90A6
:1001E000CF9008958C2DEECF882341F08150682F59
:1001F00070E090E080E050E040E0B3CF089560E030
:1002000070E080E89FE7089560E070E080E89FE795
:10021000089560E070E080E89FEF089560E070E08E
:1002200080E89FEF089560E070E080EC9FEF089514
:1002300060E070E080EC9FEF0895F5DF6093F002DE
:100240007093F1028093F2029093F302F1DF6093D6
:10025000E4027093E5028093E6029093E702CFDF19
:100260006093EC027093ED028093EE029093EF02A4
:10027000CBDF6093E8027093E9028093EA029093E7
:10028000EB02C7DF6093F4027093F5028093F602ED
:100290009093F702C3DF6093F8027093F9028093A2
:1002A000FA029093FB0208950F931F938B019C0118
:1002B0000027112720783F770115110520483F4777
:1002C00049F4AB01BC016F77772781E0452B462BC2
:1002D000472B09F480E01F910F910895E5CF4F92CD
:1002E0005F926F927F928F929F92AF92BF92CF92C6
:1002F000DF92EF92FF922B013C0149015A01BC01B0
:10030000A201442777FD4395552766277727D50116
:10031000C4018827B7FD83959927AA27BB27C12C3D
:10032000D12C76014817C9F0C301B201A50194018F
:100330000E946F11C12CD12C7601C394672B682BBE
:10034000692B19F4C12CD12C7601F094E094D0944F
:10035000C094C11CD11CE11CF11CC301B201A50158
:1003600094010E946F11CA01B9016C0D7D1D8E1D93
:100370009F1DFF90EF90DF90CF90BF90AF909F9028
:100380008F907F906F905F904F9008950F931F9381
:10039000F801508151110CC081E0808382E081839B
:1003A000F90110821182128213821F910F91089518
:1003B0004423D9F341E04183F9016083718382834F
:1003C0009383F3CF2F923F924F925F926F927F92DF
:1003D0008F929F92AF92BF92CF92DF92EF92FF9255
:1003E0000F931F93CF93DF93CDB7DEB764970FB60C
:1003F000F894DEBF0FBECDBF60912E0370912F0326
:10040000809130039091310322E333E03E832D83CA
:10041000AD81BE812D913D914D915D91BE83AD83A6
:100420000E94AD0CED81FE81EE57F34089F72091DB
:10043000CA043091CB042F3F4FE1340730F42F5FD3
:100440003F4F3093CB042093CA042091E004211144
:100450000DC081E08093E00482E08093E10410927B
:10046000CB041092CA041A86198621C02091E10497
:10047000213009F462C12091CA043091CB0428389C
:10048000334188F321E02093E10420E030E040EAAA
:1004900051E40E94150D609304037093050380934B
:1004A000060390930703E1E0F0E0FA87E987009103
:1004B000A2041091A30460917E0370917F03809148
:1004C00080039091810334EAE32E34E0F32E42E876
:1004D000C42E43E0D42ED7012D913D917D01020F12
:1004E000131FF60121913191419151916F010E94A9
:1004F000AD0CFAECEF16F4E0FF0669F720E030E00F
:1005000040EA51E40E94150D6D837E838F839887A6
:1005100060930C0370930D0380930E0390930F036D
:10052000B801110F880B990B24E130E040E050E056
:10053000D6DE90E080E00E947D0D20912601309172
:10054000270140912801509129010E94150D209109
:100550002A0130912B0140912C0150912D010E94D4
:10056000330E6B017C01C092FC02D092FD02E0923E
:10057000FE02F092FF0229853A85B901330F880BFC
:10058000990B0E947F0D20912E0130912F014091F7
:100590003001509131010E942F0E18160CF0D2C07C
:1005A0008091040390910503A0910603B091070385
:1005B0008093080390930903A0930A03B0930B035D
:1005C000A7019601609108037091090380910A03C5
:1005D00090910B030E94AC0C2091320130913301B9
:1005E00040913401509135010E94330E2091360123
:1005F0003091370140913801509139010E94330EFA
:1006000020913A0130913B0140913C0150913D01D4
:100610000E94330E69837A838B839C8320E030E0D1
:10062000A9010E94110D87FF0CC030913E01398352
:1006300040913F014A83809140018B839091410119
:100640009C83C090CE03D090CF03E090D003F09075
:10065000D103A701960169817A818B819C810E94D7
:10066000AC0C2B013C018090D2039090D303A0905E
:10067000D403B090D503A5019401C701B6010E942F
:10068000AC0C69877A878B879C87C090DA03D090FF
:10069000DB03E090DC03F090DD03A7019601C501C8
:1006A000B4010E94AC0C6D877E878F87988B8090F9
:1006B000E6039090E703A090E803B090E903A5015A
:1006C0009401C701B6010E94AC0C698B7A8B8B8BAD
:1006D0009C8BC090F603D090F703E090F803F09065
:1006E000F903A7019601C501B4010E94AC0C4B01AE
:1006F0005C0120910A0430910B0440910C0450914C
:100700000D04C701B6010E94AC0C6B017C0120E016
:1007100030E0A901C301B2010E94110D87FF1BC087
:1007200080E090E0A0E8BFEB80930803909309037A
:10073000A0930A03B0930B032DC021E030E03A8769
:100740002987B5CEC0920803D0920903E0920A032C
:10075000F0920B0335CF20E030E0A901C301B201D4
:100760000E942F0E18162CF480E090E0A0E8BFE362
:10077000DBCF20E030E0A901C301B2010E94110DDE
:10078000811120C0109208031092090310920A03ED
:1007900010920B0320E030E0A90169857A858B85F2
:1007A0009C850E94110D87FF16C080E090E0A0E8B4
:1007B000BFEB8093100390931103A0931203B093A7
:1007C00013032CC08091F0029091F102A091F202EB
:1007D000B091F302A9CF20E030E0A90169857A85C4
:1007E0008B859C850E942F0E18162CF480E090E0DB
:1007F000A0E8BFE3DECF20E030E0A90169857A857B
:100800008B859C850E94110D811120C010921003D0
:1008100010921103109212031092130320E030E0A3
:10082000A9016D857E858F8598890E94110D87FFAE
:1008300016C080E090E0A0E8BFEB80931403909393
:100840001503A0931603B09317032CC08091F002F8
:100850009091F102A091F202B091F302AACF20E0B0
:1008600030E0A9016D857E858F8598890E942F0EC5
:1008700018162CF480E090E0A0E8BFE3DECF20E083
:1008800030E0A9016D857E858F8598890E94110DC4
:10089000811120C0109214031092150310921603B8
:1008A0001092170320E030E0A90169897A898B89C9
:1008B0009C890E94110D87FF16C080E090E0A0E89F
:1008C000BFEB8093180390931903A0931A03B0937E
:1008D0001B032CC08091F0029091F102A091F202D2
:1008E000B091F302AACF20E030E0A90169897A89AA
:1008F0008B899C890E942F0E18162CF480E090E0C2
:10090000A0E8BFE3DECF20E030E0A90169897A8961
:100910008B899C890E94110D81111EC010921803B1
:100920001092190310921A0310921B0320E030E07A
:10093000A901C501B4010E94110D87FF16C080E016
:1009400090E0A0E8BFEB80931C0390931D03A0935D
:100950001E03B0931F0328C08091F0029091F10212
:10096000A091F202B091F302ACCF20E030E0A901F7
:10097000C501B4010E942F0E18162CF480E090E0FF
:10098000A0E8BFE3E0CF20E030E0A901C501B40159
:100990000E94110D811149C110921C0310921D0378
:1009A00010921E0310921F0320E030E0A901C7013E
:1009B000B6010E94110D87FD41C120E030E0A90180
:1009C000C701B6010E942F0E18160CF43EC120E09C
:1009D00030E0A901C701B6010E94110DC12CD12C34
:1009E0007601882341F0C090F002D090F102E090AF
:1009F000F202F090F3022091080330910903409134
:100A00000A0350910B036091460170914701809158
:100A10004801909149010E94330E4B015C012091E5
:100A20001003309111034091120350911303609110
:100A30004E0170914F0180915001909151010E949F
:100A4000330E9B01AC01C501B40187D7209114037B
:100A50003091150340911603509117037ED72091D2
:100A600018033091190340911A0350911B0375D755
:100A700020911C0330911D0340911E0350911F03D0
:100A80006CD7A701960169D76B017C01C09208035E
:100A9000D0920903E0920A03F0920B032091040123
:100AA0003091050140910601509107010E942F0EDF
:100AB00087FDD2C0A1E0A9872091000130910101FA
:100AC00040910201509103016D817E818F81988553
:100AD0000E942F0E87FD1986B984B1100AC080913B
:100AE000CC048111BBC0B1E0BD878091CE048111DF
:100AF00001C01D86FD85F093CE0420910801309140
:100B0000090140910A0150910B01C701B60189D733
:100B100018168CF021E0298B20910C0130910D01E9
:100B200040910E0150910F016D817E818F819885DA
:100B300078D718160CF4198A39893987332309F4C0
:100B400090C081E04D85411180E08D838091D1047A
:100B5000882309F488C0A090100190901101809022
:100B60001201709013018989811109C08091D60406
:100B700081119DC081E09091D804911101C080E065
:100B80008093D804BB2009F494C091E0811190E0D7
:100B9000692E992309F48EC091E09D878091D90434
:100BA000811188C0E0913102F0913202C080D18081
:100BB000E280F380C0920C03D0920D03E0920E030A
:100BC000F0920F038091E204811176C081E080935E
:100BD000E20483E08093E30410928A0410928B0471
:100BE00010928C0410928D0410929204109293042F
:100BF0001092940410929504109296041092970407
:100C0000109298041092990410929A0410929B04E6
:100C100010929C0410929D0410929E0410929F04C6
:100C20001092A0041092A104A7C08091F0029091AC
:100C3000F102A091F202B091F30285CEC12CD12C29
:100C400020E8E22E2FEBF22ED6CEC12CD12C90E84C
:100C5000E92E9FE3F92ECFCEB12C41CFE1E0ED8715
:100C600049CF1D8273CFC0908204D0908304E0905E
:100C70008404F090850429813A814B815C81C7010D
:100C8000B601CFD6181674F4C701B60127DB81115F
:100C900009C0A09082049090830480908404709096
:100CA000850461CFA9809A808B807C805CCF81E0B5
:100CB00067CF612C1D8676CFE091E304E150E830E8
:100CC00008F036C1F0E0E959F94F0C948B116F062A
:100CD000B606EB06FA06FF0689078E07930720E0A3
:100CE00030E0A90160919204709193048091940482
:100CF0009091950496D6882309F480C320E030E0D3
:100D0000A901609196047091970480919804909144
:100D1000990487D6882309F481C320E030E0A90133
:100D200060919A0470919B0480919C0490919D0421
:100D300078D6882309F482C320E030E0A9016091CD
:100D40009E0470919F048091A0049091A10469D6A3
:100D5000811174C382E08093E304C0929E04D09218
:100D60009F04E092A004F092A10406C0AD85A111F9
:100D700003C085E08093E3048091DB04882309F4B9
:100D8000DCC0C0901401D0901501E0901601F090E5
:100D9000170104EE14E02CE033E04D85B601C701E5
:100DA000F5DAAD81AA2321F041E08091CF048111D1
:100DB00040E006EE14E02CE033E06A2D792D882D1A
:100DC000972DE4DABB2009F4DCC0B1E0B98B01E077
:100DD000F9850F27DAC0BD85BB2371F289E08093C6
:100DE000E304C0928E04D0928F04E0929004F092BB
:100DF0009104C2CFED85EE2309F4BBCFBDCFFD85B5
:100E0000FF2321F120908A0430908B0440908C04C1
:100E100050908D0420E030E040E450E4C201B10184
:100E200000D618169CF081E08093E30420E030E0C7
:100E300040E85FE3C201B10190D560938A047093EA
:100E40008B0480938C0490938D04CBCF20918E04DF
:100E500030918F044091900450919104C701B601E4
:100E60007BD520E030E040E050E4F9D618160CF4D1
:100E7000B0CE2D85222309F47FCF20E030E040E47E
:100E800050E460918A0470918B0480918C0490915D
:100E90008D04E5D618160CF06FCF86E08093E3043E
:100EA000C0928E04D0928F04E0929004F09291044C
:100EB0008091960490919704A0919804B091990420
:100EC0008093920490939304A0939404B093950418
:100ED00080919A0490919B04A0919C04B0919D04F0
:100EE0008093960490939704A0939804B0939904E8
:100EF00080919E0490919F04A091A004B091A104C0
:100F000080939A0490939B04A0939C04B0939D04B7
:100F100024CF3D85332309F42CCF2ECF4D85442398
:100F200009F427CF29CF8D85882309F422CF24CF38
:100F30009D85992309F41DCF1FCFC0908604D090C2
:100F40008704E0908804F090890429813A814B81DC
:100F50005C81C701B60183D687FF0EC0C701B60109
:100F6000BDD9811109C0C0908604D0908704E0905B
:100F70008804F09089040DCFC980DA80EB80FC8072
:100F800008CFE98900E0E11122CFB11004C011E0DF
:100F90002989211101C010E020910A0430910B042D
:100FA00040910C0450910D0469817A818B819C8160
:100FB000D3D4609300037093010380930203909352
:100FC000030320902201309023014090240150908F
:100FD0002501A201910160912A0370912B03809158
:100FE0002C0390912D031DD5882341F020922A03D4
:100FF00030922B0340922C0350922D0362E170E05B
:1010000080E090E08AD8909329038093280343E0FE
:1010100050E060E273E070D8EEE2F3E022EA34E000
:101020008EE7482E83E0582E448155816681778172
:101030004193519361937193D90112968D919C9133
:1010400013978D939D939D01D20114964D915D91BF
:101050006D917C9117974D935D936D937D932D01C9
:10106000B3E0EA37FB0701F78091FC029091FD02A3
:10107000A091FE02B091FF0280937A0390937B03CC
:10108000A0937C03B0937D03809120039091210372
:101090009093C9048093C804809100039091010348
:1010A000A0910203B09103038093CA039093CB03F2
:1010B000A093CC03B093CD0389819A81AB81BC818D
:1010C0008093CE039093CF03A093D003B093D1032A
:1010D0008091D6039091D703A091D803B091D90302
:1010E0008093D2039093D303A093D403B093D503FA
:1010F00089819A81AB81BC818093D6039093D70379
:10110000A093D803B093D9038091DE039091DF03BD
:10111000A091E003B091E1038093DA039093DB03A5
:10112000A093DC03B093DD038091E2039091E3038D
:10113000A091E403B091E5038093DE039093DF0375
:10114000A093E003B093E10389819A81AB81BC81D4
:101150008093E2039093E303A093E403B093E50349
:101160008091EA039091EB03A091EC03B091ED0321
:101170008093E6039093E703A093E803B093E90319
:101180008091EE039091EF03A091F003B091F103F1
:101190008093EA039093EB03A093EC03B093ED03E9
:1011A0008091F2039091F303A091F403B091F503C1
:1011B0008093EE039093EF03A093F003B093F103B9
:1011C00089819A81AB81BC818093F2039093F30370
:1011D000A093F403B093F5038091FA039091FB037D
:1011E000A091FC03B091FD038093F6039093F70365
:1011F000A093F803B093F9038091FE039091FF034D
:10120000A0910004B09101048093FA039093FB0332
:10121000A093FC03B093FD0380910204909103041A
:10122000A0910404B09105048093FE039093FF0302
:10123000A0930004B09301048091060490910704E8
:10124000A0910804B09109048093020490930304D0
:10125000A0930404B093050489819A81AB81BC8179
:101260008093060490930704A0930804B0930904A4
:10127000EAE0F4E084819581A681B781819391931E
:10128000A193B19324E0EE37F207A1F789819A8107
:10129000AB81BC8180937E0490937F04A0938004F3
:1012A000B09381048091CD048093CC043985309330
:1012B000CD048091D0048093CF044D814093D0041D
:1012C0008A2D992DA82DB72D8093820490938304A5
:1012D000A0938404B09385048091D7048093D604AE
:1012E000B092D7048091DA048093D9046092DA0432
:1012F0008091D2048093D1048091DC048093DB043C
:101300008091D3048093D2048091DD048093DC0427
:101310008091D4048093D3048091DE048093DD0413
:101320008091D5048093D4048091DF048093DE04FF
:101330001093D5040093DF04C601D701809386047F
:1013400090938704A0938804B0938904609123024A
:101350007091240280912502909126026F5F7F4F49
:101360008F4F9F4F60932302709324028093250236
:1013700090932602A0913102B0913202BE83AD83D8
:10138000BCD39B01AC01609127027091280280912F
:10139000290290912A0267D4ED81FE8160837183D6
:1013A0008283938380912B0290912C02A0912D0235
:1013B000B0912E020196A11DB11D80932B02909336
:1013C0002C02A0932D02B0932E0264960FB6F894CF
:1013D000DEBF0FBECDBFDF91CF911F910F91FF9068
:1013E000EF90DF90CF90BF90AF909F908F907F90C5
:1013F0006F905F904F903F902F900895FD85FF2351
:1014000009F4B7CC84E08093E304C0929204D092B4
:101410009304E0929404F0929504AECC2D8522239F
:1014200009F4A7CC88E08093E304C0929604D0929C
:101430009704E0929804F09299049ECC3D85332362
:1014400009F497CC20E030E0A90160919A047091F2
:101450009B0480919C0490919D04E3D281118CCCDB
:1014600087E08093E304C0929A04D0929B04E092B8
:101470009C04F0929D0480CC0F931F93CF93DF9335
:1014800084E090E00E941D018FE991E02FE232E0BC
:101490003093A4012093A30121E332E03093DE01D5
:1014A0002093DD0127E232E03093B2012093B101B5
:1014B00090930802809307029093A2018093A10168
:1014C00081E090E09093300280932F028FE691E0CC
:1014D0009093A8018093A70183E392E09093320256
:1014E000809331028FE692E1A3E8BAE3809327026A
:1014F00090932802A0932902B0932A020091180128
:101500001091190120911A0130911B018091200145
:101510009091210140911C0150911D0160911E018B
:1015200070911F01EEE2F3E0A2EAB4E0019311939F
:10153000219331938D939D93EF01C45BDF4F4883DB
:1015400059836A837B83C3E0EE37FC0779F7809188
:10155000420190914301A0914401B09145018093D3
:10156000CE039093CF03A093D003B093D103809187
:101570004A0190914B01A0914C01B0914D01809393
:10158000D2039093D303A093D403B093D503809355
:10159000D6039093D703A093D803B093D903809137
:1015A000520190915301A0915401B0915501809343
:1015B000DA039093DB03A093DC03B093DD03809305
:1015C000DE039093DF03A093E003B093E1038093E5
:1015D000E2039093E303A093E403B093E5038091C7
:1015E000560190915701A0915801B09159018093F3
:1015F000E6039093E703A093E803B093E903809395
:10160000EA039093EB03A093EC03B093ED03809374
:10161000EE039093EF03A093F003B093F103809354
:10162000F2039093F303A093F403B093F503809136
:101630005A0190915B01A0915C01B0915D01809392
:10164000F6039093F703A093F803B093F903809304
:10165000FA039093FB03A093FC03B093FD038093E4
:10166000FE039093FF03A0930004B09301048093C2
:10167000020490930304A0930404B09305048093A0
:10168000060490930704A0930804B0930904809182
:101690005E0190915F01A0916001B0916101EAE06B
:1016A000F4E081939193A193B19324E0E238F2079F
:1016B000C1F7809167018093CE0490916601909369
:1016C000CC04809168018093CF049093CD048093E3
:1016D000D0048091100190911101A0911201B0915C
:1016E00013018093820490938304A0938404B093A5
:1016F000850480916B018093D80490916A01909346
:10170000D60480916C018093D9049093D704809380
:10171000DA049091690180916D019093D1048093D6
:10172000DB049093D2048093DC049093D3048093E1
:10173000DD049093D4048093DE049093D5048093C9
:10174000DF048091140190911501A0911601B091D0
:1017500017018093860490938704A0938804B09324
:101760008904109222038091220190912301A0917B
:101770002401B091250180932A0390932B03A09319
:101780002C03B0932D031092270381E090E0A0E09A
:10179000B0E08093230390932403A0932503B09398
:1017A000260362E170E080E090E00E94D100909317
:1017B00029038093280381E080932703DF91CF9151
:1017C0001F910F9108958091220381111FC081E024
:1017D000809322038091230390912403A0912503F9
:1017E000B09126030197A105B10581F480912703EB
:1017F000882361F062E170E080E090E00E948D005B
:1018000090932903809328030C94F400089540E8F2
:1018100055E260E070E090E080E000C026E087E400
:1018200092E02AC41F920F920FB60F9211242F93A9
:101830003F934F935F936F937F938F939F93AF9358
:10184000BF93EF93FF9386E09FEF90938500809383
:10185000840032D0FF91EF91BF91AF919F918F9112
:101860007F916F915F914F913F912F910F900FBE9C
:101870000F901F90189586E09FEF909385008093BE
:101880008400AFE6B0E08C918E7F8C93E0E8F0E0CE
:1018900080818C7F8083E1E8F0E08081877E808397
:1018A00080818360808380818B7F80838C91816045
:1018B0008C93089581E0089580913B0291E0980F08
:1018C00090933B02882349F021E030E030933D02C1
:1018D00020933C0280933B02089578940E94E20199
:1018E000F89480913B028150F5CFCF93DF93109213
:1018F000E9041092E80464D28ADFC0918101D0919A
:10190000820119821882B8DDF894B5DF81E0288160
:101910003981232B09F080E08093E804789478944F
:101920008091E804811107C04EDFF89490E080E0D8
:10193000DF91CF91089581E028813981232B09F42B
:1019400080E08093E9049091E90481E0911180E0C6
:101950008093E804AFDFE4CF5058BB27AA270ED00E
:1019600044C135D130F03AD120F031F49F3F11F429
:101970001EF42AC10EF4E095E7FB20C1E92F46D101
:1019800080F3BA17620773078407950718F071F49C
:101990009EF55EC10EF4E0950B2EBA2FA02D0B0123
:1019A000B90190010C01CA01A0011124FF27591BA4
:1019B00099F0593F50F4503E68F11A16F040A22FAA
:1019C000232F342F4427585FF3CF4695379527951B
:1019D000A795F0405395C9F77EF41F16BA0B620B1A
:1019E000730B840BBAF09150A1F0FF0FBB1F661F61
:1019F000771F881FC2F70EC0BA0F621F731F841FA4
:101A000048F4879577956795B795F7959E3F08F0C9
:101A1000B3CF9395880F08F09927EE0F9795879588
:101A20000895A8D008F481E008950CD0DEC0D6D087
:101A300040F0CDD030F021F45F3F19F0BFC051111C
:101A400008C1C2C0E3D098F39923C9F35523B1F379
:101A5000951B550BBB27AA2762177307840738F01D
:101A60009F5F5F4F220F331F441FAA1FA9F333D07C
:101A70000E2E3AF0E0E830D091505040E695001C30
:101A8000CAF729D0FE2F27D0660F771F881FBB1FEC
:101A9000261737074807AB07B0E809F0BB0B802DC6
:101AA000BF01FF2793585F4F2AF09E3F510568F012
:101AB00085C0CFC05F3FECF3983EDCF38695779509
:101AC0006795B795F7959F5FC9F7880F911D969514
:101AD000879597F90895E1E0660F771F881FBB1F70
:101AE000621773078407BA0720F0621B730B840B1D
:101AF000BA0BEE1F88F7E0950895E89409C097FBAC
:101B00003EF490958095709561957F4F8F4F9F4FD4
:101B10009923A9F0F92F96E9BB279395F695879518
:101B200077956795B795F111F8CFFAF4BB0F11F4DB
:101B300060FF1BC06F5F7F4F8F4F9F4F16C0882382
:101B400011F096E911C0772321F09EE8872F762FB8
:101B500005C0662371F096E8862F70E060E02AF0F9
:101B60009A95660F771F881FDAF7880F96958795E5
:101B700097F90895990F0008550FAA0BE0E8FEEFBA
:101B800016161706E807F907C0F012161306E40741
:101B9000F50798F0621B730B840B950B39F40A263A
:101BA00061F0232B242B252B21F408950A2609F418
:101BB000A140A6958FEF811D811D089597F99F671C
:101BC00080E870E060E008959FEF80EC08950024C5
:101BD0000A941616170618060906089500240A9492
:101BE00012161306140605060895092E0394000C18
:101BF00011F4882352F0BB0F40F4BF2B11F460FFA7
:101C000004C06F5F7F4F8F4F9F4F089557FD9058CF
:101C1000440F551F59F05F3F71F04795880F97FBB0
:101C2000991F61F09F3F79F087950895121613066A
:101C30001406551FF2CF4695F1DF08C01616170699
:101C40001806991FF1CF86957105610508940895CE
:101C5000E894BB2766277727CB0197F908958ADF99
:101C600008F48FEF08950BD0C0CFB1DF28F0B6DFB6
:101C700018F0952309F0A2CFA7CF1124EACFC6DF31
:101C8000A0F3959FD1F3950F50E0551F629FF0018F
:101C9000729FBB27F00DB11D639FAA27F00DB11DE8
:101CA000AA1F649F6627B00DA11D661F829F222771
:101CB000B00DA11D621F739FB00DA11D621F839FF8
:101CC000A00D611D221F749F3327A00D611D231FCE
:101CD000849F600D211D822F762F6A2F11249F571C
:101CE00050408AF0E1F088234AF0EE0FFF1FBB1F3F
:101CF000661F771F881F91505040A9F79E3F5105DE
:101D000070F05CCFA6CF5F3FECF3983EDCF3869596
:101D100077956795B795F795E7959F5FC1F7FE2B88
:101D2000880F911D9695879597F908951F920F92A8
:101D30000FB60F9211242F933F938F939F93AF93DE
:101D4000BF9380913F0290914002A0914102B091D7
:101D5000420230913E0223E0230F2D3758F50196C1
:101D6000A11DB11D20933E0280933F02909340023B
:101D7000A0934102B09342028091430290914402A9
:101D8000A0914502B09146020196A11DB11D80931C
:101D9000430290934402A0934502B0934602BF9140
:101DA000AF919F918F913F912F910F900FBE0F9008
:101DB0001F90189526E8230F0296A11DB11DD2CFC2
:101DC000789484B5826084BD84B5816084BD85B516
:101DD000826085BD85B5816085BDEEE6F0E08081DD
:101DE00081608083E1E8F0E01082808182608083FE
:101DF000808181608083E0E8F0E080818160808381
:101E0000E1EBF0E0808184608083E0EBF0E08081B2
:101E100081608083EAE7F0E0808184608083808154
:101E200082608083808181608083808180688083FC
:101E30001092C10008958E3008F08E5020916E01EE
:101E400090E4299F900111248770822B80937C005D
:101E500080917A00806480937A0080917A0086FD78
:101E6000FCCF80917800909179000895CF93DF9313
:101E700090E0FC01E859FF4F249184589F4FFC01EA
:101E800084918823C9F090E0880F991FFC01E656E1
:101E9000FF4FA591B491FC01E057FF4FC591D4913C
:101EA00061110DC09FB7F8948C91209582238C937B
:101EB0008881282328839FBFDF91CF9108956230C6
:101EC00051F49FB7F8943C91822F809583238C9393
:101ED000E8812E2BEFCF8FB7F894EC912E2B2C931B
:101EE0008FBFEACFFC01918D228D892F90E0805C1D
:101EF0009F4F821B91098F7399270895FC01918D43
:101F0000828D981731F0828DE80FF11D858D90E05C
:101F100008958FEF9FEF0895FC01918D828D9817A2
:101F200061F0A28DAE0FBF2FB11D5D968C91928D89
:101F30009F5F9F73928F90E008958FEF9FEF0895BA
:101F4000FC01538D448D252F30E0842F90E0821BBF
:101F5000930B541710F0CF96089501970895FC0144
:101F6000A48DA80FB92FB11DA35ABF4F2C91848DFA
:101F700090E001968F739927848FA689B7892C9357
:101F8000A089B1898C91837080648C93938D848DAA
:101F9000981306C00288F389E02D80818F7D8083AD
:101FA0000895CF93DF93EC01888D8823B1F0AA893F
:101FB000BB89E889F9898C9185FD03C0808186FD04
:101FC0000CC00FB607FCF7CF8C9185FFF2CF808154
:101FD00085FFEDCFCE01C3DFEACFDF91CF9108952A
:101FE000EF92FF920F931F93CF93DF93EC0181E069
:101FF000888F9B8D8C8D98131AC0E889F989808110
:1020000085FF15C09FB7F894EE89FF896083E88942
:10201000F98980818370806480839FBF81E090E034
:10202000DF91CF911F910F91FF90EF900895F62EC1
:102030000B8D10E00F5F1F4F0F731127E02E8C8D5B
:102040008E110BC00FB607FCFACFE889F9898081A1
:1020500085FFF5CFCE0183DFF2CFEB8DEC0FFD2FA7
:10206000F11DE35AFF4FF0829FB7F8940B8FEA8976
:10207000FB8980818062D0CFCF92DF92EF92FF9276
:102080001F93CF93DF93EC016A017B01122FE88944
:10209000F98982E08083C11481EED806E104F1045D
:1020A00099F060E079E08DE390E0A7019601F5D02A
:1020B0002150310941095109569547953795279582
:1020C000211580E1380790F0E889F989108260E8ED
:1020D00074E88EE190E0A7019601DFD0215031092C
:1020E000410951095695479537952795EC85FD850A
:1020F0003083EE85FF852083188EEC89FD8910835F
:10210000EA89FB89808180618083EA89FB898081FB
:1021100088608083EA89FB89808180688083EA897E
:10212000FB8980818F7D8083DF91CF911F91FF900C
:10213000EF90DF90CF9008951F920F920FB60F92FD
:1021400011242F938F939F93EF93FF93E091570266
:10215000F09158028081E0915D02F0915E0282FD73
:102160001BC09081809160028F5F8F73209161020C
:10217000821741F0E0916002F0E0E95BFD4F958F3E
:1021800080936002FF91EF919F918F912F910F901B
:102190000FBE0F901F9018958081F4CF1F920F9261
:1021A0000FB60F9211242F933F934F935F936F932A
:1021B0007F938F939F93AF93BF93EF93FF9387E4A6
:1021C00092E0CDDEFF91EF91BF91AF919F918F9102
:1021D0007F916F915F914F913F912F910F900FBE23
:1021E0000F901F901895E7E4F2E01382128288EEB8
:1021F00093E0A0E0B0E084839583A683B78387E86B
:1022000091E09183808385EC90E09587848784ECCE
:1022100090E09787868780EC90E0918B808B81ECB3
:1022200090E0938B828B82EC90E0958B848B86EC94
:1022300090E0978B868B118E128E138E148E0895DC
:10224000AF92BF92CF92DF92EF92FF920F931F93C4
:10225000CF93DF936C017B018B01040F151FEB0102
:102260005E01AE18BF08C017D10759F06991D601B9
:10227000ED91FC910190F081E02DC6010995892B2B
:1022800079F7C501DF91CF911F910F91FF90EF90EA
:10229000DF90CF90BF90AF900895A1E21A2EAA1BB5
:1022A000BB1BFD010DC0AA1FBB1FEE1FFF1FA21706
:1022B000B307E407F50720F0A21BB30BE40BF50B03
:1022C000661F771F881F991F1A9469F7609570958C
:1022D000809590959B01AC01BD01CF010895052E1D
:1022E00097FB16F400940FD057FD05D0D6DF07FCFE
:1022F00002D046F408C050954095309521953F4F47
:102300004F4F5F4F089590958095709561957F4FE1
:102310008F4F9F4F0895EE0FFF1F0590F491E02D12
:062320000994F894FFCFC0
:10232600000040400000000000000000000040C027
:10233600000000000000C84200000000000000008D
:102346000000000080BF000080440000A0400000A4
:1023560000000000344435FA8E3C00007041000055
:102366000000000000000000004000000000000027
:102376000040000000000000000000000000000017
:1023860000000000000000000100000001000146FE
:1023960069786564537465704469736372657465BE
:1023A600009F0100000000F00F2011A00FD10F7256
:0623B6000F8C0F7E0F00EA
:00000001FF
