:1000000034C0000059C0000057C0000055C00000B7
:1000100053C0000051C000004FC000004DC00000A0
:100020004BC0000049C0000047C0000045C00000B0
:1000300043C00000D3C400003FC000003DC000002A
:100040000C94510839C000000C94000A0C94320A38
:1000500033C0000031C000002FC000002DC00000E0
:100060002BC0000029C00000570A11241FBECFEF8B
:10007000D8E0DEBFCDBF11E0A0E0B1E0E6EBF5E1F6
:1000800002C005900D92A235B107D9F722E0A2E592
:10009000B1E001C01D92AC32B207E1F710E0C5E358
:1000A000D0E004C02197FE010E94D30AC433D107D7
:1000B000C9F7F6D40C94D90AA3CF60E070E080E8C9
:1000C0009FE7089560E070E080E89FE7089560E0B2
:1000D00070E080E89FEF089560E070E080E89FEFB7
:1000E000089560E070E080EC9FEF089560E070E0BC
:1000F00080EC9FEF0895F5DF6093090270930A0288
:1001000080930B0290930C02F1DF6093FD017093DA
:10011000FE018093FF0190930002CFDF6093050200
:10012000709306028093070290930802CBDF6093DE
:100130000102709302028093030290930402C7DFCE
:1001400060930D0270930E0280930F029093100241
:10015000C3DF609311027093120280931302909395
:1001600014020895CF92DF92EF92FF92CF936B012A
:100170007C01AC019B0160910502709106028091A7
:100180000702909108023BD5C1E0882369F0A701DE
:10019000960160910D0270910E0280910F02909174
:1001A00010022DD58111C0E08C2FCF91FF90EF90E0
:1001B000DF90CF9008950F931F938B019C01002730
:1001C000112720783F770115110520483F4749F452
:1001D000AB01BC016F77772781E0452B462B472B7E
:1001E00009F480E01F910F910895E5CF2F923F927F
:1001F0006F927F928F929F92AF92BF92CF92DF9237
:10020000EF92FF920F931F93CF93DF9300D000D014
:1002100000D0CDB7DEB71B013C0189014E835D8361
:1002200020E030E0A901B8018E819D81E8D48111E0
:1002300024C020E030E0A901B101C301E0D488234B
:1002400009F463C061017301B601C70126960FB6B8
:10025000F894DEBF0FBECDBFDF91CF911F910F91FC
:10026000FF90EF90DF90CF90BF90AF909F908F90D6
:100270007F906F903F902F900895B101C301B5DF3B
:10028000882349F0C0900902D0900A02E0900B0246
:10029000F0900C02D9CFB8018E819D81A6DF81112B
:1002A000F1CFB101C3015EDF8111ECCF20E030E07E
:1002B000A901B101C301A3D481110AC098014E81E3
:1002C0005D8160E070E0CB019ED46B017C01BCCF0E
:1002D000B8018E819D8146DF8823D9F020E030E08F
:1002E000A901B8018E819D818AD4F82EFF1CFF24BC
:1002F000FF1C20E030E0A901B101C30180D4881FB8
:100300008827881FF81609F49DCF6801EE80FD80CC
:100310009BCF98014E815D81B101C3015FD56B0117
:100320007C01BB24B39420E030E0A90168D48111A2
:10033000B12C20E030E0A901B601C70160D48823C8
:1003400009F43FC0B8018E819D812ED59B01AC017F
:10035000B8018E819D813ED618169CF598014E817C
:100360005D81B101C3014FD44B015C01E894B7F842
:1003700020E030E040E05FE3C501B401C9D314D50B
:100380009B01AC01C501B401C2D39B01AC015F77F5
:1003900029833A834B835C8320E030E040E054E3E0
:1003A000C501B4011BD69B01AC01BB24B394698188
:1003B0007A818B819C810ED618160CF0B12C81E0CD
:1003C000B82620E030E0A901BB2029F0B8018E81D9
:1003D0009D8104D67ACFB101C30111D4B82EBB1CC4
:1003E000BB24BB1C20E030E0A901B8018E819D81B7
:1003F00006D4881F8827881FB81609F425CF9801CE
:100400004E815D81B601C70183D35FCF4F925F926A
:100410006F927F928F929F92AF92BF92CF92DF9214
:10042000EF92FF9220910401309105014091060165
:1004300050910701609100017091010180910201CA
:1004400090910301D3DE4B015C01AC019B016091F3
:10045000000170910101809102019091030157D335
:100460002AE037ED43E25CE3B9D59ED46B017C0111
:10047000BCDE811133C0C701B60174DE81112EC00C
:1004800020E030E040E85FE4C701B601A7D46B018B
:100490007C0120E030E0A901B2D387FF22C0C70170
:1004A000B601905818D490958095709561957F4FBE
:1004B0008F4F9F4F6A30710581059105D0F4FB0184
:1004C000EC59FD4F0C94D30A7502CA02CD02D0023A
:1004D000D302D602D902DC02DF02E202C12CD12C07
:1004E0007601C701B601F7D3E5CF80913C01809337
:1004F0001502209108013091090140910A015091A3
:100500000B01C501B40172DE6B017C01AC019B01E2
:10051000C501B401FCD22DEC3CEC4CEC5DE35ED5A6
:1005200043D44B015C0161DE81114FC0C501B401B0
:1005300019DE81114AC020E030E040E85FE4C501E7
:10054000B4014CD44B015C0120E030E0A90157D349
:1005500087FF3EC0C501B4019058BDD390958095EA
:10056000709561957F4F8F4F9F4F6A307105810560
:10057000910508F035C0FB01E054FD4F0C94D30AFF
:10058000EC023303360339033C033F0342034503C4
:1005900048034B0380913B01AACF80913A01A7CF3A
:1005A00080913901A4CF80913801A1CF809137018A
:1005B0009ECF809136019BCF8091350198CF80915D
:1005C000340195CF8091330192CF812C912C54012D
:1005D000C501B40180D3C9CF809132018093160246
:1005E00020E030E0A901C701B60109D387FF56C05A
:1005F000C701B601F1D26B017C01F7DD811152C058
:10060000C701B601AFDD81114DC020E030E040E808
:100610005FE4C701B601E2D36B017C0120E030E06A
:10062000A901EDD287FF41C0C701B601905853D34D
:1006300090958095709561957F4F8F4F9F4F6A3051
:1006400071058105910508F038C0FB01E75DFC4F9D
:10065000AAC75903B503B803BB03BE03C103C40350
:10066000C703CA03CD0380913101B8CF8091300117
:10067000B5CF80912F01B2CF80912E01AFCF809165
:100680002D01ACCF80912C01A9CF80912B01A6CF59
:1006900080912A01A3CF80912901A0CFC701B60183
:1006A00083D3A9CFC12CD12C7601C701B60113D3B6
:1006B000C6CF809128018093170280901C029090F1
:1006C0001D02A0901E02B0901F02C501B40131D3DB
:1006D0002B013C012091140130911501409116012C
:1006E000509117018CD287FF5BC0B7FC59C0C090F6
:1006F0000C01D0900D01E0900E01F0900F0120E070
:1007000030E040E85FE36091100170911101809149
:10071000120190911301FBD19B01AC01C301B20105
:1007200059D487FD41C010921C0210921D021092F4
:100730001E0210921F02809129028F3018F48F5FE1
:10074000809329028091270281113CC081E080932F
:10075000270283E080932802109218021092190257
:1007600010921A0210921B0256C080912701A3CF4B
:1007700080912601A0CF809125019DCF80912401F9
:100780009ACF8091230197CF8091220194CF8091BD
:10079000210191CF809120018ECF80911F018BCFBD
:1007A000C12CD12C7601ABCF8FEF881A980AA80AFA
:1007B000B80A80921C0290921D02A0921E02B09272
:1007C0001F02B9CF80912802823009F454C08330CF
:1007D00009F46CC090912902813009F072C09A30FE
:1007E000D0F082E0809328021092290220E030E0CD
:1007F00040E85FE3609118027091190280911A023B
:1008000090911B0285D16093180270931902809316
:100810001A0290931B028091150290E0B0E0A0E0D4
:10082000B82FAA27992788274091160250E070E038
:1008300060E0BA0155274427840F951FA61FB71FF4
:100840002091170230E0322F2227820F931FA11D23
:10085000B11D209126022F3118F42F5F209326021C
:1008600020912402211130C021E02093240222E0B3
:10087000209325027CC020E030E040E152E460910A
:1008800018027091190280911A0290911B02B7D13F
:10089000882309F45ECF809129028A3008F4BBCF07
:1008A00081E08093280210922902B5CF20E030E049
:1008B00040E85FE3C701B601A2D181114DCF84E0CA
:1008C000F0CF9A3068F7A7CF209125022330D1F1DD
:1008D00058F42130A1F0223051F180912602893163
:1008E00008F44DC084E018C030912602243009F489
:1008F00053C0253091F73A3008F441C0B8CF809109
:10090000200290912102A0912202B0912302892B12
:100910008A2B8B2B31F485E08093250210922602DE
:100920002EC0809126028A3050F183E0F5CF20E07E
:1009300030E040E85FE3C701B60161D181111FC01B
:1009400086E0EACF809126028A30C8F081E0809369
:100950002502109226028091200290912102A091FE
:100960002202B0912302880F991FAA1FBB1F8093F8
:10097000200290932102A0932202B0932302FF90C1
:10098000EF90DF90CF90BF90AF909F908F907F902F
:100990006F905F904F900895343138F6F0CF84E037
:1009A00090E0A9DBE5E1F2E0A0E0B1E05C968C919B
:1009B0005C9780835D968C915D9781835E968C9128
:1009C00082830895089540E855E260E070E090E089
:1009D00080E000C026E080E691E0B2C41F920F9252
:1009E0000FB60F9211242F933F934F935F936F9302
:1009F0007F938F939F93AF93BF93EF93FF9386E083
:100A00009FEF909385008093840032D0FF91EF9107
:100A1000BF91AF919F918F917F916F915F914F9116
:100A20003F912F910F900FBE0F901F90189586E069
:100A30009FEF9093850080938400AFE6B0E08C91A7
:100A40008E7F8C93E0E8F0E080818C7F8083E1E80A
:100A5000F0E08081877E80838081836080838081D5
:100A60008B7F80838C9181608C93089581E00895C1
:100A70008091540191E0980F90935401882349F09C
:100A800021E030E0309356012093550180935401CA
:100A900008957894BBDCF894809154018150F6CF8E
:100AA000CF93DF9310922B0210922A0244D38BDF54
:100AB000C0913D01D0913E011982188270DFF894F7
:100AC000B6DF2881398181E0232B09F080E0809313
:100AD0002A027894789480912A02811107C072DFEB
:100AE000F89490E080E0DF91CF91089528813981DA
:100AF00081E0232B09F480E080932B0290912B025C
:100B000081E0911180E080932A02B0DFE4CF505859
:100B1000BB27AA270ED00DC2FED130F003D220F0A1
:100B200031F49F3F11F41EF4F3C10EF4E095E7FB9E
:100B3000C0C1E92F0FD280F3BA1762077307840789
:100B4000950718F071F49EF53EC20EF4E0950B2E59
:100B5000BA2FA02D0B01B90190010C01CA01A0010F
:100B60001124FF27591B99F0593F50F4503E68F16A
:100B70001A16F040A22F232F342F4427585FF3CFAB
:100B8000469537952795A795F0405395C9F77EF47C
:100B90001F16BA0B620B730B840BBAF09150A1F0C5
:100BA000FF0FBB1F661F771F881FC2F70EC0BA0F4B
:100BB000621F731F841F48F4879577956795B795D3
:100BC000F7959E3F08F0B3CF9395880F08F09927CB
:100BD000EE0F979587950895DFD180F09F3740F409
:100BE00091110EF4F1C160E070E080E89FE3089598
:100BF00026F01B16611D711D811D61C17BC135D1A0
:100C000008F481E008950CD094C18CD140F083D1D8
:100C100030F021F45F3F19F04CC15111D5C178C1BA
:100C200099D198F39923C9F35523B1F3951B550B2B
:100C3000BB27AA2762177307840738F09F5F5F4FAF
:100C4000220F331F441FAA1FA9F333D00E2E3AF0F0
:100C5000E0E830D091505040E695001CCAF729D00A
:100C6000FE2F27D0660F771F881FBB1F2617370759
:100C70004807AB07B0E809F0BB0B802DBF01FF2789
:100C800093585F4F2AF09E3F510568F012C19CC1F6
:100C90005F3FECF3983EDCF3869577956795B795C3
:100CA000F7959F5FC9F7880F911D9695879597F9DE
:100CB0000895E1E0660F771F881FBB1F6217730757
:100CC0008407BA0720F0621B730B840BBA0BEE1F6C
:100CD00088F7E095089546D188F09F5790F0B92F96
:100CE0009927B751A0F0D1F0660F771F881F991F81
:100CF0001AF0BA95C9F712C0B13081F064D1B1E0F1
:100D0000089561C1672F782F8827B85F39F0B93F00
:100D1000CCF3869577956795B395D9F73EF4909582
:100D20008095709561957F4F8F4F9F4F0895E89400
:100D300009C097FB3EF490958095709561957F4F23
:100D40008F4F9F4F9923A9F0F92F96E9BB279395D1
:100D5000F695879577956795B795F111F8CFFAF4E1
:100D6000BB0F11F460FF1BC06F5F7F4F8F4F9F4F12
:100D700016C0882311F096E911C0772321F09EE870
:100D8000872F762F05C0662371F096E8862F70E0D6
:100D900060E02AF09A95660F771F881FDAF7880FB0
:100DA0009695879597F90895F7D080F09F3740F48E
:100DB00091110EF009C160E070E080E89FEB0895AA
:100DC00026F41B16611D711D811D79C093C0A3D02F
:100DD00018F011F0A7D038F49BC0F6C0E92FBAD0B4
:100DE000B0F35523C9F3E7FB621773078407950730
:100DF000A8F199F3E92FFF2788232AF03197660F8E
:100E0000771F881FDAF7952F5527442332F091502A
:100E10005040220F331F441FD2F7BB27E91BF50BAD
:100E2000621B730B840BB109C1F222F4620F731FB2
:100E3000841FB11D31972AF0660F771F881FBB1FD3
:100E4000EFCF915050405AF041F0882332F0660FB6
:100E5000771F881F91505040C1F793954BC08695DE
:100E6000779567959F5FD9F7F8CF990F0008550FD1
:100E7000AA0BE0E8FEEF16161706E807F907C0F020
:100E800012161306E407F50798F0621B730B840B28
:100E9000950B39F40A2661F0232B242B252B21F402
:100EA00008950A2609F4A140A6958FEF811D811DA2
:100EB000089597F99F6780E870E060E008958823BF
:100EC00071F4772321F09850872B762F07C0662383
:100ED00011F499270DC09051862B70E060E02AF044
:100EE0009A95660F771F881FDAF7880F9695879572
:100EF00097F908959F3F31F0915020F487957795A9
:100F00006795B795880F911D9695879597F90895E0
:100F10009FEF80EC089500240A9416161706180611
:100F20000906089500240A941216130614060506ED
:100F30000895092E0394000C11F4882352F0BB0F7E
:100F400040F4BF2B11F460FF04C06F5F7F4F8F4FE1
:100F50009F4F089557FD9058440F551F59F05F3F1C
:100F600071F04795880F97FB991F61F09F3F79F0CB
:100F700087950895121613061406551FF2CF46954D
:100F8000F1DF08C0161617061806991FF1CF8695CF
:100F90007105610508940895E5DFA0F0BEE7B91773
:100FA00088F4BB279F3860F41616B11D672F782F81
:100FB0008827985FF7CF869577956795B11D9395AC
:100FC0009639C8F30895E894BB2766277727CB01A5
:100FD00097F908954ADF08F48FEF08950BD0A9CF51
:100FE0009ADF28F09FDF18F0952309F062CF90CFA9
:100FF0001124EACFAFDFA0F3959FD1F3950F50E016
:10100000551F629FF001729FBB27F00DB11D639FBA
:10101000AA27F00DB11DAA1F649F6627B00DA11D60
:10102000661F829F2227B00DA11D621F739FB00D06
:10103000A11D621F839FA00D611D221F749F332776
:10104000A00D611D231F849F600D211D822F762F0F
:101050006A2F11249F5750408AF0E1F088234AF00C
:10106000EE0FFF1FBB1F661F771F881F9150504058
:10107000A9F79E3F510570F01CCFA6CF5F3FECF360
:10108000983EDCF3869577956795B795F795E79544
:101090009F5FC1F7FE2B880F911D9695879597F955
:1010A00008951F920F920FB60F9211242F933F9322
:1010B0008F939F93AF93BF93809158019091590163
:1010C000A0915A01B0915B013091570123E0230FA9
:1010D0002D3758F50196A11DB11D2093570180931E
:1010E000580190935901A0935A01B0935B018091EC
:1010F0005C0190915D01A0915E01B0915F0101964C
:10110000A11DB11D80935C0190935D01A0935E01D0
:10111000B0935F01BF91AF919F918F913F912F91BC
:101120000F900FBE0F901F90189526E8230F029680
:10113000A11DB11DD2CF789484B5826084BD84B5E1
:10114000816084BD85B5826085BD85B5816085BDC2
:10115000EEE6F0E0808181608083E1E8F0E01082DB
:10116000808182608083808181608083E0E8F0E01C
:10117000808181608083E1EBF0E080818460808306
:10118000E0EBF0E0808181608083EAE7F0E080813D
:10119000846080838081826080838081816080839D
:1011A0008081806880831092C1000895FC01918D38
:1011B000228D892F90E0805C9F4F821B91098F7355
:1011C00099270895FC01918D828D981731F0828DB9
:1011D000E80FF11D858D90E008958FEF9FEF089542
:1011E000FC01918D828D981761F0A28DAE0FBF2FFB
:1011F000B11D5D968C91928D9F5F9F73928F90E051
:1012000008958FEF9FEF0895FC01538D448D252F96
:1012100030E0842F90E0821B930B541710F0CF9690
:10122000089501970895FC01A48DA80FB92FB11D51
:10123000A35ABF4F2C91848D90E001968F7399270C
:10124000848FA689B7892C93A089B1898C918370EA
:1012500080648C93938D848D981306C00288F389E3
:10126000E02D80818F7D80830895CF93DF93EC0103
:10127000888D8823B1F0AA89BB89E889F9898C9186
:1012800085FD03C0808186FD0CC00FB607FCF7CF3B
:101290008C9185FFF2CF808185FFEDCFCE01C3DF3A
:1012A000EACFDF91CF910895EF92FF920F931F93B2
:1012B000CF93DF93EC0181E0888F9B8D8C8D981309
:1012C0001AC0E889F989808185FF15C09FB7F89415
:1012D000EE89FF896083E889F98980818370806461
:1012E00080839FBF81E090E0DF91CF911F910F91AC
:1012F000FF90EF900895F62E0B8D10E00F5F1F4FBB
:101300000F731127E02E8C8D8E110BC00FB607FCCA
:10131000FACFE889F989808185FFF5CFCE0183DF97
:10132000F2CFEB8DEC0FFD2FF11DE35AFF4FF08252
:101330009FB7F8940B8FEA89FB8980818062D0CFB8
:10134000CF92DF92EF92FF921F93CF93DF93EC0146
:101350006A017B01122FE889F98982E08083C11438
:1013600081EED806E104F10499F060E079E08DE3C4
:1013700090E0A7019601F5D02150310941095109AA
:101380005695479537952795211580E1380790F0B8
:10139000E889F989108260E874E88EE190E0A7019D
:1013A0009601DFD0215031094109510956954795E1
:1013B00037952795EC85FD853083EE85FF85208365
:1013C000188EEC89FD891083EA89FB898081806110
:1013D0008083EA89FB89808188608083EA89FB8930
:1013E000808180688083EA89FB8980818F7D80830A
:1013F000DF91CF911F91FF90EF90DF90CF900895F4
:101400001F920F920FB60F9211242F938F939F93D9
:10141000EF93FF93E0917001F09171018081E09171
:101420007601F091770182FD1BC090818091790156
:101430008F5F8F7320917A01821741F0E0917901DB
:10144000F0E0E05AFE4F958F80937901FF91EF9184
:101450009F918F912F910F900FBE0F901F90189515
:101460008081F4CF1F920F920FB60F9211242F9309
:101470003F934F935F936F937F938F939F93AF931C
:10148000BF93EF93FF9380E691E0CDDEFF91EF9164
:10149000BF91AF919F918F917F916F915F914F918C
:1014A0003F912F910F900FBE0F901F901895E0E67F
:1014B000F1E01382128288EE93E0A0E0B0E0848332
:1014C0009583A683B78383E491E09183808385EC41
:1014D00090E09587848784EC90E09787868780ECFE
:1014E00090E0918B808B81EC90E0938B828B82ECEF
:1014F00090E0958B848B86EC90E0978B868B118E99
:10150000128E138E148E0895AF92BF92CF92DF92F7
:10151000EF92FF920F931F93CF93DF936C017B01A8
:101520008B01040F151FEB015E01AE18BF08C01739
:10153000D10759F06991D601ED91FC910190F081AC
:10154000E02DC6010995892B79F7C501DF91CF916F
:101550001F910F91FF90EF90DF90CF90BF90AF90D1
:101560000895A1E21A2EAA1BBB1BFD010DC0AA1FE4
:10157000BB1FEE1FFF1FA217B307E407F50720F0FC
:10158000A21BB30BE40BF50B661F771F881F991F77
:101590001A9469F760957095809590959B01AC01C0
:1015A000BD01CF010895EE0FFF1F0590F491E02DCE
:0615B0000994F894FFCF3E
:1015B6000000F0420000C842000020410000803FC9
:1015C6000000FA4400000040000000000000006F28
:1015D6007F077D6D664F5B063F6F7F077D6D664FAC
:1015E6005B063F6F7F077D6D664F5B063F520100CE
:1015F6000000005409840A04093509D608F008E2F7
:021606000800DA
:00000001FF
