:1000000052C0000075C0000073C0000071C0000045
:100010006FC000006DC000006BC0000069C0000030
:1000200067C0000065C0000063C0000061C0000040
:100030005FC000008BC100005BC0000059C0000021
:1000400046C2000055C0000048C4000078C400004B
:100050004FC000004DC000004BC0000049C0000070
:1000600047C0000045C00000010204081020408085
:1000700001020408102001020408102004040404F2
:100080000404040402020202020203030303030342
:1000900000000000250028002B00000000002400C4
:1000A00027002A00C40411241FBECFEFD8E0DEBF12
:1000B000CDBF11E0A0E0B1E0E0E9FAE002C00590B8
:1000C0000D92A433B107D9F722E0A4E3B1E001C057
:1000D0001D92A032B207E1F710E0C3E5D0E003C003
:1000E0002197FE01CDD4C235D107D1F791D1CEC42D
:1000F00087CFCF93DF93882341F0EB0181506CD2FF
:1001000099838883DF91CF910895FB01118210823A
:10011000F9CF0F931F938B019C0183E036952795B0
:10012000179507958A95D1F70C5C1E4F462F47709F
:1001300021E030E0F90102C0EE0FFF1F4A95E2F71F
:10014000AF01F80120812423CB010196211102C0C7
:1001500090E080E01F910F9108950F931F938B0102
:100160009C0183E036952795179507958A95D1F7D9
:10017000677081E090E001C0880F6A95EAF7F801A6
:10018000EC5CFE4F2081452B31F4809582238083E7
:100190001F910F910895822BFACFCF92DF92EF92A9
:1001A000FF92CF93DF936B017C0160E08EE0C81675
:1001B000D104E104F10488F48EE08C0D28D2E6012C
:1001C0002196AE01C701B601C8DFCE01DF91CF9104
:1001D000FF90EF90DF90CF9008958C2DEFCF882384
:1001E00041F08150682F70E090E080E050E040E006
:1001F000B4CF0895CF92DF92EF92FF92C0900201A8
:10020000D0900301E0900401F0900501A701960150
:100210006091F2017091F3018091F4019091F501E8
:100220002ED1882341F0C092F201D092F301E092E6
:10023000F401F092F50162E170E080E090E069DFA6
:100240009093F1018093F00143E050E068EE71E09B
:1002500050DFE6EFF1E0828193818193919382E018
:10026000EC31F807C1F78091E8019091E901909392
:100270001D0280931C02FF90EF90DF90CF900895B5
:100280008091000190910101E6EFF1E0819391935B
:1002900022E0EE31F207D1F71092EA0180910201DB
:1002A00090910301A0910401B09105018093F201A6
:1002B0009093F301A093F401B093F5011092EF0134
:1002C00081E090E0A0E0B0E08093EB019093EC013E
:1002D000A093ED01B093EE0162E170E080E090E068
:1002E0005CDF9093F1018093F00181E08093EF0156
:1002F00008958091EA0181111DC081E08093EA0197
:100300008091EB019091EC01A091ED01B091EE0193
:100310000197A105B10571F48091EF01882351F097
:1003200062E170E080E090E0F4DE9093F101809370
:10033000F00155CF089540E855E260E070E090E0AC
:1003400080E000C026E08BE491E067C21F920F922C
:100350000FB60F9211242F933F934F935F936F9398
:100360007F938F939F93AF93BF93EF93FF9386E019
:100370009FEF909385008093840032D0FF91EF919E
:10038000BF91AF919F918F917F916F915F914F91AD
:100390003F912F910F900FBE0F901F90189586E000
:1003A0009FEF9093850080938400AFE6B0E08C913E
:1003B0008E7F8C93E0E8F0E080818C7F8083E1E8A1
:1003C000F0E08081877E808380818360808380816C
:1003D0008B7F80838C9181608C93089581E0089558
:1003E00080913F0191E0980F90933F01882349F05D
:1003F00021E030E0309341012093400180933F01A0
:1004000008957894F7DEF89480913F018150F6CFFB
:10041000CF93DF9310921F0210921E02A2D08BDFA7
:10042000C0911F01D09120011982188229DFF89410
:10043000B6DF2881398181E0232B09F080E08093A9
:100440001E027894789480911E02811107C051DFBA
:10045000F89490E080E0DF91CF9108952881398170
:1004600081E0232B09F480E080931F0290911F020A
:1004700081E0911180E080931E02B0DFE4CF03D0D1
:1004800008F481E00895990F0008550FAA0BE0E8E1
:10049000FEEF16161706E807F907C0F01216130646
:1004A000E407F50798F0621B730B840B950B39F486
:1004B0000A2661F0232B242B252B21F408950A26EC
:1004C00009F4A140A6958FEF811D811D08951F920B
:1004D0000F920FB60F9211242F933F938F939F93F8
:1004E000AF93BF938091430190914401A091450146
:1004F000B09146013091420123E0230F2D3758F58A
:100500000196A11DB11D2093420180934301909358
:100510004401A0934501B093460180914701909119
:100520004801A0914901B0914A010196A11DB11D58
:100530008093470190934801A0934901B0934A01E9
:10054000BF91AF919F918F913F912F910F900FBECF
:100550000F901F90189526E8230F0296A11DB11D3C
:10056000D2CF789484B5826084BD84B5816084BD27
:1005700085B5826085BD85B5816085BDEEE6F0E01C
:10058000808181608083E1E8F0E010828081826078
:100590008083808181608083E0E8F0E080818160F9
:1005A0008083E1EBF0E0808184608083E0EBF0E029
:1005B000808181608083EAE7F0E0808184608083CD
:1005C0008081826080838081816080838081806877
:1005D00080831092C10008958E3008F08E502091D3
:1005E0001E0190E4299F900111248770822B809333
:1005F0007C0080917A00806480937A0080917A00F8
:1006000086FDFCCF80917800909179000895CF937A
:10061000DF9390E0FC01E859FF4F249184589F4FED
:10062000FC0184918823C9F090E0880F991FFC0198
:10063000E656FF4FA591B491FC01E057FF4FC591DD
:10064000D49161110DC09FB7F8948C9120958223AD
:100650008C938881282328839FBFDF91CF910895B1
:10066000623051F49FB7F8943C91822F8095832398
:100670008C93E8812E2BEFCF8FB7F894EC912E2B33
:100680002C938FBFEACFFC01918D228D892F90E0B2
:10069000805C9F4F821B91098F7399270895FC01FD
:1006A000918D828D981731F0828DE80FF11D858D27
:1006B00090E008958FEF9FEF0895FC01918D828D5A
:1006C000981761F0A28DAE0FBF2FB11D5D968C9172
:1006D000928D9F5F9F73928F90E008958FEF9FEFB1
:1006E0000895FC01538D448D252F30E0842F90E038
:1006F000821B930B541710F0CF960895019708951D
:10070000FC01A48DA80FB92FB11DA35ABF4F2C9186
:10071000848D90E001968F739927848FA689B7897D
:100720002C93A089B1898C91837080648C93938D74
:10073000848D981306C00288F389E02D80818F7D17
:1007400080830895CF93DF93EC01888D8823B1F0E7
:10075000AA89BB89E889F9898C9185FD03C08081CC
:1007600086FD0CC00FB607FCF7CF8C9185FFF2CF4A
:10077000808185FFEDCFCE01C3DFEACFDF91CF913E
:100780000895EF92FF920F931F93CF93DF93EC01A5
:1007900081E0888F9B8D8C8D98131AC0E889F98928
:1007A000808185FF15C09FB7F894EE89FF8960832B
:1007B000E889F98980818370806480839FBF81E0AC
:1007C00090E0DF91CF911F910F91FF90EF900895EE
:1007D000F62E0B8D10E00F5F1F4F0F731127E02EC9
:1007E0008C8D8E110BC00FB607FCFACFE889F98902
:1007F000808185FFF5CFCE0183DFF2CFEB8DEC0F4B
:10080000FD2FF11DE35AFF4FF0829FB7F8940B8F35
:10081000EA89FB8980818062D0CFCF92DF92EF920C
:10082000FF921F93CF93DF93EC016A017B01122F9C
:10083000E889F98982E08083C11481EED806E10459
:10084000F10499F060E079E08DE390E0A701960172
:10085000F5D02150310941095109569547953795F1
:100860002795211580E1380790F0E889F9891082F1
:1008700060E874E88EE190E0A7019601DFD0215096
:100880003109410951095695479537952795EC85CA
:10089000FD853083EE85FF852083188EEC89FD89E8
:1008A0001083EA89FB89808180618083EA89FB89E2
:1008B000808188608083EA89FB8980818068808369
:1008C000EA89FB8980818F7D8083DF91CF911F91A1
:1008D000FF90EF90DF90CF9008951F920F920FB688
:1008E0000F9211242F938F939F93EF93FF93E09197
:1008F0005B01F0915C018081E0916101F091620106
:1009000082FD1BC09081809164018F5F8F73209165
:100910006501821741F0E0916401F0E0E55BFE4F74
:10092000958F80936401FF91EF919F918F912F910B
:100930000F900FBE0F901F9018958081F4CF1F92DB
:100940000F920FB60F9211242F933F934F935F9303
:100950006F937F938F939F93AF93BF93EF93FF9387
:100960008BE491E0CDDEFF91EF91BF91AF919F912C
:100970008F917F916F915F914F913F912F910F9048
:100980000FBE0F901F901895EBE4F1E013821282D6
:1009900088EE93E0A0E0B0E084839583A683B783DC
:1009A00085E291E09183808385EC90E09587848750
:1009B00084EC90E09787868780EC90E0918B808B29
:1009C00081EC90E0938B828B82EC90E0958B848B12
:1009D00086EC90E0978B868B118E128E138E148E80
:1009E0000895AF92BF92CF92DF92EF92FF920F9352
:1009F0001F93CF93DF936C017B018B01040F151FB5
:100A0000EB015E01AE18BF08C017D10759F069911C
:100A1000D601ED91FC910190F081E02DC601099580
:100A2000892B79F7C501DF91CF911F910F91FF902D
:100A3000EF90DF90CF90BF90AF900895A1E21A2E73
:100A4000AA1BBB1BFD010DC0AA1FBB1FEE1FFF1F72
:100A5000A217B307E407F50720F0A21BB30BE40BC2
:100A6000F50B661F771F881F991F1A9469F7609509
:100A70007095809590959B01AC01BD01CF010895C3
:100A8000EE0FFF1F0590F491E02D0994F894FFCF2D
:100A90000000000080BF000080440000A040000073
:100AA000344435FA8E3C0000704100000000013DE6
:100AB0000100000000C103F1047103A20343035DC0
:040AC000034F0300DD
:00000001FF
