:020000040800F2
:10000000000003202D430008C5360008C93600084B
:10001000CD360008D1360008D536000800000000B3
:10002000000000000000000000000000312B00086C
:10003000D936000800000000ED2A0008252A000833
:100040007D4300087D4300087D4300087D43000890
:100050007D4300087D4300087D4300087D43000880
:100060007D4300087D4300087D4300087D43000870
:100070007D4300087D4300087D4300087D43000860
:100080007D4300087D430008590E00087D430008A9
:100090007D4300087D4300087D4300087D43000840
:1000A0007D4300087D4300087D4300087D43000830
:1000B0007D4300087D4300087D4300087D43000820
:1000C0007D4300087D4300087D4300087D43000810
:1000D0007D4300087D4300087D4300087D43000800
:1000E0007D4300087D4300087D4300087D430008F0
:1000F0007D4300087D4300087D4300087D430008E0
:100100007D4300087D430008DD3600087D4300087C
:100110007D4300087D4300087D4300087D430008BF
:10012000010E00087D430008E93600087D43000801
:100130007D4300087D4300087D4300087D4300089F
:100140007D4300087D4300087D4300087D4300088F
:100150007D4300087D4300087D4300087D4300087F
:100160007D4300087D4300087D4300087D4300086F
:100170007D4300087D4300087D4300080000000027
:100180007D4300087D4300087D4300087D4300084F
:100190007D4300087D4300087D4300087D4300083F
:0C01A0007D4300087D4300087D430008FB
:1001B00010B5054C237833B9044B13B10448AFF3A1
:1001C00000800123237010BDF0010020000000001A
:1001D0004449000808B5034B1BB103490348AFF37A
:1001E000008008BD00000000F40100204449000820
:1001F00081F0004102E000BF83F0004330B54FEAD8
:1002000041044FEA430594EA050F08BF90EA020F44
:100210001FBF54EA000C55EA020C7FEA645C7FEAD7
:10022000655C00F0E2804FEA5454D4EB5555B8BFFA
:100230006D420CDD2C4480EA020281EA030382EA6B
:10024000000083EA010180EA020281EA0303362DFD
:1002500088BF30BD11F0004F4FEA01314FF4801CD0
:100260004CEA113102D0404261EB410113F0004FE2
:100270004FEA03334CEA133302D0524263EB430399
:1002800094EA050F00F0A780A4F10104D5F1200E37
:100290000DDB02FA0EFC22FA05F2801841F1000192
:1002A00003FA0EF2801843FA05F359410EE0A5F166
:1002B00020050EF1200E012A03FA0EFC28BF4CF097
:1002C000020C43FA05F3C01851EBE37101F000454D
:1002D00007D54FF0000EDCF1000C7EEB00006EEB5A
:1002E0000101B1F5801F1BD3B1F5001F0CD34908E4
:1002F0005FEA30004FEA3C0C04F101044FEA44523B
:1003000012F5800F80F09A80BCF1004F08BF5FEAC1
:10031000500C50F1000041EB045141EA050130BDA1
:100320005FEA4C0C404141EB0101013C28BFB1F5B3
:10033000801FE9D291F0000F04BF01460020B1FAFE
:1003400081F308BF2033A3F10B03B3F120020CDAD1
:100350000C3208DD02F1140CC2F10C0201FA0CF0AF
:1003600021FA02F10CE002F11402D8BFC2F1200C14
:1003700001FA02F120FA0CFCDCBF41EA0C019040CA
:10038000E41AA2BF01EB0451294330BD6FEA040413
:100390001F3C1CDA0C340EDC04F11404C4F12002FE
:1003A00020FA04F001FA02F340EA030021FA04F310
:1003B00045EA030130BDC4F10C04C4F1200220FA67
:1003C00002F001FA04F340EA0300294630BD21FAA5
:1003D00004F0294630BD94F0000F83F4801306BF6B
:1003E00081F480110134013D4EE77FEA645C18BF5F
:1003F0007FEA655C29D094EA050F08BF90EA020FF6
:1004000005D054EA000C04BF1946104630BD91EAED
:10041000030F1EBF0021002030BD5FEA545C05D1F0
:100420004000494128BF41F0004130BD14F580042F
:100430003CBF01F5801130BD01F0004545F0FE41A3
:1004400041F470014FF0000030BD7FEA645C1ABFD8
:10045000194610467FEA655C1CBF0B46024650EA0F
:10046000013406BF52EA033591EA030F41F400213B
:1004700030BD00BF90F0000F04BF0021704730B5C1
:100480004FF4806404F132044FF000054FF0000196
:1004900050E700BF90F0000F04BF0021704730B557
:1004A0004FF4806404F1320410F0004548BF40422C
:1004B0004FF000013EE700BF42004FEAE2014FEA81
:1004C00031014FEA02701FBF12F07F4393F07F4F5C
:1004D00081F06051704732F07F4208BF704793F05F
:1004E0007F4F04BF41F40021704730B54FF4607472
:1004F00001F0004521F000411CE700BF50EA010275
:1005000008BF704730B54FF000050AE050EA01021D
:1005100008BF704730B511F0004502D5404261EB8D
:1005200041014FF4806404F132045FEA915C3FF4CE
:10053000D8AE4FF003025FEADC0C18BF03325FEA6B
:10054000DC0C18BF033202EBDC02C2F1200300FA1C
:1005500003FC20FA02F001FA03FE40EA0E0021FA41
:1005600002F11444BDE600BF70B54FF0FF0C4CF42F
:10057000E06C1CEA11541DBF1CEA135594EA0C0FE1
:1005800095EA0C0F00F0DEF82C4481EA030621EA1C
:100590004C5123EA4C5350EA013518BF52EA033557
:1005A00041F4801143F4801338D0A0FB02CE4FF009
:1005B0000005E1FB02E506F00042E0FB03E54FF039
:1005C0000006E1FB03569CF0000F18BF4EF0010E31
:1005D000A4F1FF04B6F5007F64F5407404D25FEA2D
:1005E0004E0E6D4146EB060642EAC62141EA5551E0
:1005F0004FEAC52040EA5E504FEACE2EB4F1FD0C22
:1006000088BFBCF5E06F1ED8BEF1004F08BF5FEA9F
:10061000500E50F1000041EB045170BD06F0004651
:1006200046EA010140EA020081EA0301B4EB5C04FE
:10063000C2BFD4EB0C0541EA045170BD41F48011F6
:100640004FF0000E013C00F3AB8014F1360FDEBF1B
:10065000002001F0004170BDC4F10004203C35DAF7
:100660000C341BDC04F11404C4F1200500FA05F37A
:1006700020FA04F001FA05F240EA020001F000421B
:1006800021F0004110EBD37021FA04F642EB060191
:100690005EEA430E08BF20EAD37070BDC4F10C04BB
:1006A000C4F1200500FA04F320FA05F001FA04F27F
:1006B00040EA020001F0004110EBD37041F100016B
:1006C0005EEA430E08BF20EAD37070BDC4F1200576
:1006D00000FA05F24EEA020E20FA04F301FA05F2DE
:1006E00043EA020321FA04F001F0004121FA04F286
:1006F00020EA020000EBD3705EEA430E08BF20EA56
:10070000D37070BD94F0000F0FD101F0004640008F
:1007100041EB010111F4801F08BF013CF7D041EA11
:10072000060195F0000F18BF704703F00046520015
:1007300043EB030313F4801F08BF013DF7D043EAE6
:100740000603704794EA0C0F0CEA135518BF95EA9C
:100750000C0F0CD050EA410618BF52EA4306D1D123
:1007600081EA030101F000414FF0000070BD50EA42
:10077000410606BF1046194652EA430619D094EACC
:100780000C0F02D150EA013613D195EA0C0F05D1B6
:1007900052EA03361CBF104619460AD181EA03010A
:1007A00001F0004141F0FE4141F470014FF00000C2
:1007B00070BD41F0FE4141F4780170BD70B54FF05D
:1007C000FF0C4CF4E06C1CEA11541DBF1CEA1355DD
:1007D00094EA0C0F95EA0C0F00F0A7F8A4EB0504BF
:1007E00081EA030E52EA03354FEA013100F08880B6
:1007F0004FEA03334FF0805545EA131343EA12637F
:100800004FEA022245EA111545EA10654FEA002633
:100810000EF000419D4208BF964244F1FD0404F5EC
:10082000407402D25B084FEA3202B61A65EB030548
:100830005B084FEA32024FF480104FF4002CB6EB05
:10084000020E75EB030E22BFB61A754640EA0C0085
:100850005B084FEA3202B6EB020E75EB030E22BFC5
:10086000B61A754640EA5C005B084FEA3202B6EB06
:10087000020E75EB030E22BFB61A754640EA9C00C5
:100880005B084FEA3202B6EB020E75EB030E22BF95
:10089000B61A754640EADC0055EA060E18D04FEA53
:1008A000051545EA16754FEA06164FEAC30343EAF3
:1008B00052734FEAC2025FEA1C1CC0D111F4801FC0
:1008C0000BD141EA00014FF000004FF0004CB6E7B9
:1008D00011F4801F04BF01430020B4F1FD0C88BF58
:1008E000BCF5E06F3FF6AFAEB5EB030C04BFB6EB63
:1008F000020C5FEA500C50F1000041EB045170BD56
:100900000EF0004E4EEA113114EB5C04C2BFD4EB82
:100910000C0541EA045170BD41F480114FF0000E06
:10092000013C90E645EA060E8DE60CEA135594EA82
:100930000C0F08BF95EA0C0F3FF43BAF94EA0C0F85
:100940000AD150EA01347FF434AF95EA0C0F7FF4FA
:1009500025AF104619462CE795EA0C0F06D152EA4E
:1009600003353FF4FDAE1046194622E750EA410632
:1009700018BF52EA43067FF4C5AE50EA41047FF443
:100980000DAF52EA43057FF4EBAE12E74FF0FF3CA8
:1009900006E000BF4FF0010C02E000BF4FF0010C79
:1009A0004DF804CD4FEA410C7FEA6C5C4FEA430CF2
:1009B00018BF7FEA6C5C1BD001B050EA410C0CBF41
:1009C00052EA430C91EA030F02BF90EA020F0020A3
:1009D000704710F1000F91EA030F58BF994208BF0A
:1009E00090422CBFD8176FEAE37040F001007047C7
:1009F0004FEA410C7FEA6C5C02D150EA013C07D11E
:100A00004FEA430C7FEA6C5CD6D152EA033CD3D068
:100A10005DF8040B704700BF8446104662468C4662
:100A20001946634600E000BF01B5FFF7B7FF002895
:100A300048BF10F1000F01BD4DF808EDFFF7F4FFBE
:100A40000CBF012000205DF808FB00BF4DF808ED49
:100A5000FFF7EAFF34BF012000205DF808FB00BF6C
:100A60004DF808EDFFF7E0FF94BF012000205DF88E
:100A700008FB00BF4DF808EDFFF7CEFF94BF012043
:100A800000205DF808FB00BF4DF808EDFFF7C4FF3C
:100A900034BF012000205DF808FB00BF4FEA410C85
:100AA0007FEA6C5C02D150EA013C0AD14FEA430C68
:100AB0007FEA6C5C02D152EA033C02D14FF00000A5
:100AC00070474FF0010070474A0011D212F5001232
:100AD00011D20DD56FF47873B3EB62520ED44FEA96
:100AE000C12343F0004343EA505323FA02F0704716
:100AF0004FF00000704750EA013002D14FF0FF3054
:100B000070474FF00000704753B94AB9002908BF39
:100B100000281CBF4FF0FF314FF0FF3000F06EB9DE
:100B2000ADF1080C6DE904CE00F006F8DDF804E044
:100B3000DDE9022304B070472DE9F047089D044623
:100B40008C46002B40F083808A42174647D9B2FA80
:100B500082F242B1C2F1200024FA00F091409740A5
:100B600040EA010C94404FEA1748230CBCFBF8F60E
:100B70001FFA87FE08FB16C143EA014306FB0EF18C
:100B8000994209D9FB1806F1FF3080F0198199428A
:100B900040F21681023E3B445B1AA4B2B3FBF8F06C
:100BA00008FB103344EA034400FB0EFEA64509D9B6
:100BB0003C1900F1FF3380F00581A64540F2028127
:100BC00002383C4440EA0640A4EB0E0400261DB166
:100BD000D4400023C5E900433146BDE8F08702B99F
:100BE000FFDEB2FA82F2002A50D1CB1B4FEA174E39
:100BF0001FFA87F80126B3FBFEFC210C0EFB1C3309
:100C000041EA034108FB0CF38B4207D979180CF138
:100C1000FF3002D28B4200F2E9808446C91AA3B2A7
:100C2000B1FBFEF00EFB101143EA014408FB00F893
:100C3000A04507D93C1900F1FF3302D2A04500F2CC
:100C4000D9801846A4EB080440EA0C40BFE78B4269
:100C500009D9002D00F0B1800026C5E90001304619
:100C60003146BDE8F087B3FA83F6002E4AD18B42B5
:100C700002D3824200F2B880841A61EB03010120A2
:100C80008C46002DA8D0C5E9004CA5E7C2F1200391
:100C900020FA03F6974001FA02F04FEA174ED940C6
:100CA0003043030CB1FBFEF61FFA87F80EFB16115A
:100CB00043EA014306FB08F1994204FA02F409D918
:100CC000FB1806F1FF3C80F08D80994240F28A804B
:100CD000023E3B445B1A81B2B3FBFEF00EFB1033C5
:100CE00041EA034100FB08F38B4207D9791800F170
:100CF000FF3C73D28B4271D902383944CB1A40EA97
:100D0000064678E7C6F1200C03FA06F422FA0CF343
:100D10001C4320FA0CF701FA06F34FEA144E21FAAD
:100D20000CF11F433B0CB1FBFEF91FFA84F80EFBDC
:100D3000191143EA014109FB08FA8A4502FA06F251
:100D400000FA06F308D9611809F1FF3048D28A4544
:100D500046D9A9F102092144A1EB0A01BFB2B1FBB6
:100D6000FEF00EFB101147EA014700FB08F8B845FA
:100D700007D9E71900F1FF312ED2B8452CD9023836
:100D8000274440EA0940A7EB0807A0FB02894F452A
:100D9000C64649461AD317D05DB1B3EB0E0267EBD6
:100DA000010707FA0CFCF2404CEA0202F740C5E9E1
:100DB000002700263146BDE8F0872E4628460BE77F
:100DC0000646E9E61846FDE64345E5D2B8EB020ED5
:100DD00069EB04010138DFE70846D2E760468DE79A
:100DE0008146B9E7664675E730464AE7ACF1020C42
:100DF000394413E702383C4424E700BF704700BF82
:100E000030B4134913480A794B69825C9858C50677
:100E100003EB020402D51868800601D430BC704789
:100E200020200425CD719860985810F4907FF5D15A
:100E30009D58088825F001059D506168090C09043A
:100E400001436160995841F001019950E6E700BF04
:100E50006003002060490008704700BF704700BF72
:100E6000F0B4364C0569A54229D1354C0026012B3A
:100E70002561667120D02AB3E379082B1CD0C7689E
:100E800042690688E760626190F804C084F804C093
:100E90008378A370EB6A0498268023F470030343DD
:100EA0000129EB6203D0042921D002291AD008239A
:100EB000E3712348F0BC70472046F0BC7047002027
:100EC000F0BC7047237A082BF6D0C378E370022970
:100ED00003D008231A482372EFE76B6843F08003BE
:100EE0006B60F6E76B6843F020036B60DFE7154B40
:100EF000A96813F80C30DFF850C0D01841F44071E5
:100F0000A960C0F808C007EB4601C7600569016128
:100F1000D15841F48021D1504168090C0904314372
:100F20004160D15841F01001D150D15841F0040135
:100F3000D150D15841F00101D150B8E70022014011
:100F400060030020604900084C22014003699A6850
:100F5000D20703D49A6842F001029A60704700BF3A
:100F600038B5036933B10129044643D0042903D0BD
:100F7000022922D0012038BD996811F0405FF9D1D3
:100F80000121C171996841F080419960E379042B96
:100F9000FCD123792D486169C35CCB58E16813F417
:100FA000002FA378104608BF01EB43015A0003F05D
:100FB00099FC0823E371002038BDC379202B05D0AC
:100FC000C379042B02D0C379102BD3D11F482379C6
:100FD0006169C35C0820E071CD58A378E16815F41D
:100FE000002510462DD101EB43015A0003F07AFC95
:100FF000284638BD9A6812F0405FBBD1C279022AF8
:1010000008D0C279042A05D0C279082A02D01A6809
:101010009107AFD51A68920604D56FF0200110220F
:101020001960E271E279102AA4D0E279082A0CBF93
:1010300001222022E2719A6842F080429A600020E8
:1010400038BD5A0003F04EFC002038BD604900084E
:10105000036910B49C68E40703D59C6824F001047C
:101060009C605C68640603D55C6824F040045C60A6
:101070005C68640103D55C6824F080645C6092B1B4
:10108000002202718270DC6AC26024F470040129BB
:1010900002804261DC6203D0022924D004290CD0F2
:1010A0005DF8044B70470229C270F9D15A685DF8A7
:1010B000044B22F080025A6070471022116821F020
:1010C00001011160116821F004011160116821F023
:1010D000100111605168D140914051609A6822F42A
:1010E00040729A60DCE75A685DF8044B22F02002F7
:1010F0005A60704710B5094C23785A1C227023B1EE
:10110000074A23700123136010BD62B600F0E4F9B2
:1011100072B62378013B237010BD00BF100200207F
:101120000C020020F8B5214C214D002727702F70AC
:1011300002F0A0FD01F028FD01F056FC01F0DCFFFB
:1011400001F0B8FF01F03CFE01F0B2FE01F000FF3B
:1011500001F032FF01F080FD164B1E68376001F090
:101160000BFB72B69FED140A01F064FC3368B3FA0E
:1011700083F35B092B7062B662B6104A06E03368EF
:10118000003B18BF0123237023784BB92B7803F061
:10119000FF07002BF3D101F015FC72B63846F8BDFD
:1011A000136823F001031360F0E700BF7903002008
:1011B000780300207C4900086F12833A10E000E0B9
:1011C0009FED010B704700BF000000000000F07FA2
:1011D0009FED010A704700BF0000807F0000000003
:1011E0009FED010B704700BF000000000000F0FF02
:1011F0009FED010A704700BF000080FF0000000063
:101200009FED010B704700BF000000000000F8FFD9
:101210009FED010A704700BF0000C0FF08B5FFF74F
:10122000EFFF0E4B83ED000BFFF7F2FF0C4B83ED4E
:10123000000AFFF7C5FF0B4B83ED000BFFF7C8FF5C
:10124000094B83ED000AFFF7CBFF084B83ED000B42
:10125000FFF7CEFF064B83ED000A08BD9003002088
:1012600080030020880300208403002098030020CE
:10127000A003002038B50C4B55EC104BD3E900010E
:1012800010EE102A2B46FFF7D7FB50B9074922462C
:10129000D1E900012B46FFF7CFFB003818BF012032
:1012A00038BD012038BD00BF88030020980300200E
:1012B00053EC102B0648984301D000207047C3F32D
:1012C000130151EA020314BF01200020704700BF40
:1012D0000000F07F2DE9F84F55EC114B2DED028BFE
:1012E00011EE100A29460022002357EC106BFFF77D
:1012F000A3FBC8B30022002330463946FFF79CFB0E
:1013000040B345EC184BB0EE480AF0EE680ABDEC6D
:10131000028BBDE8F88F45EC104BFFF7ABFF0028C0
:101320004FD00022002329462046FFF78FFB0022E2
:10133000B0F100084FF000033046394618BF4FF0B7
:101340000108FFF783FB00385FFA88F818BF012017
:101350008045D6D147EC186BB0EE480AF0EE680A2B
:10136000BDEC028BBDE8F88F47EC106BFFF7A0FFD8
:1013700050B1554B93ED008BB0EE480AF0EE680A81
:10138000BDEC028BBDE8F88F45EC104BFFF790FFEA
:101390000028EED147EC106BFFF76CFF0028E8D176
:1013A0000022002330463946FFF746FB0028B2D022
:1013B00022462B4600200021FFF700FA41EC180BD3
:1013C000A1E745EC114B47EC106B03F0DDF8002270
:1013D00051EC100BB0EE408AF0EE608A0023FFF76C
:1013E0002BFB8046B8F1000851EC180B4FF00002BF
:1013F0004FF0000318BF4FF00108FFF71DFBB0BB13
:1014000045EC104B03F03CF8204653EC102B2946DA
:10141000FFF73AFB58B322462B4630463946FFF7D2
:10142000CDF921F00049294B002249468046FEF7BC
:10143000E5FE41EC100B03F023F8404653EC102B73
:101440004946FEF7D9FE0B46824623F0004B404644
:101450001F4B00224946FFF787F802460B465046CD
:101460005946FFF711FBB0FA80F84FEA5818B8F167
:10147000000F08D02046294600220023FFF774F809
:1014800041EC180B3FE73046394600220023FFF7B6
:10149000DDFA0022061E4FF000032046294618BF41
:1014A0000126FFF7D3FA0038F6B218BF01208642B2
:1014B0003FF429AF51EC180B22462B46FEF79EFE57
:1014C00041EC180B1FE700BF900300200000E03F35
:1014D0000000B03C000000002DE9F04F2DED048B22
:1014E000DFF8AC9291B099F81E314FF00008CDE9C9
:1014F0000888CDF80880CDF81480CDF82880002B1E
:1015000000F09484DFF868A2DFF888B2944CD4E944
:1015100008670022002339463046FFF78DFA05465A
:10152000003D18BF012500220023304639460B95A7
:10153000FFF782FA002800F06B8494F84832002B01
:1015400040F06184DBE92001CAE93801854B9FED59
:10155000868ACAF8A030012284F86823002200237A
:10156000FFF76AFADBED1F7A7E4B0028F4EEC87AAB
:101570000BBF4FF48071002100224FF08072F1EE1A
:1015800010FA99619A6100F23A84DAE92A2399F80B
:101590001F110491CAE92C23002940F02382734DC6
:1015A000D4E9106705F19808F5E80223304639467A
:1015B000FEF724FE454506460F46F5D1D4E98435AD
:1015C000D4E986011D44D4F8202205440D44154475
:1015D000D4E98C23D4E98A010093D4F824321D4441
:1015E0000544009B62480D441544624950221D4445
:1015F000CAE93C6703F076F9DAE90223DAE9000187
:10160000FEF7FCFDDAE90423FEF7F8FDDAE906232C
:10161000FEF7F4FDDAE90823FEF7F0FDDAE90A2324
:10162000FEF7ECFDDAE90C23FEF7E8FDDAE90E231C
:10163000FEF7E4FDDAE91023FEF7E0FDDAE9122314
:10164000FEF7DCFD4C4B0022FFF7B8F8DBE92A235C
:10165000FEF78AFF002DCAE93A0180F2AC86474BBB
:101660004749484A03FB0513B2EB730F94BF4FF091
:10167000FF300020444AEB1782FB0525C3EBA5058C
:101680002844FEF707FF9BED007BDBE92C23B0EE3F
:10169000478AF0EE678AFFF791F853EC182BFEF7B4
:1016A00063FFB4F84432B3F5FF7FCDE90001CAE926
:1016B0002E0103D801339BB2A4F8443294F880235E
:1016C000002A40F0238602230121A4F8442284F852
:1016D0007F3384F8801300220023DBE92E01FFF71B
:1016E000B5F9002800F030869AED327BB0EE479ACB
:1016F000F0EE679A53EC182B17A1D1E90001FFF720
:101700005DF8DDE9002306460F4651EC190BFEF7A4
:1017100073FD02460B4630463946FEF725FFDBE9EE
:10172000022306460F4600201849FFF747F80246F5
:101730000B4630463946FEF717FFDBE93023FEF74C
:1017400013FF0022002306460F46FFF77FF918B368
:10175000DBE9326720E000BF182D4454FB2119401B
:10176000D8040020001002400000000020050020E6
:10177000A8030020B805002000002440CDCCCCCC2C
:101780009899991999999919676666660000F03FCA
:101790001802002000000020DBE9342330463946DF
:1017A000FEF7E2FED4E94C6794ED6A7B32463B4695
:1017B0008AED3C7B8DED027BCDE90001FEF71CFD3F
:1017C00094ED4E7B41EC180BB0EE479AF0EE679A21
:1017D00053EC172B304639468AED388BFEF70CFD5B
:1017E000D4E95267CAE93E0132463B4651EC190B37
:1017F000FEF702FD94ED587BCAE94001B0EE479A2E
:10180000F0EE679A53EC172B30463946FEF7F4FC9E
:10181000D4E96067CAE9420132463B4651EC190BF4
:10182000FEF7EAFCDDE90223CAE944013046394605
:10183000FEF7E2FCB0EE480AF0EE680ACAE93601AB
:10184000FFF736FD002800F04785B14BD3E90023B0
:10185000CAE938239AED3E0BFFF72AFD002800F075
:101860002185AB4BD3E90023CAE93E239AED400B17
:10187000FFF71EFD002800F0FB84A54BD3E90023F1
:10188000CAE940239AED420BFFF712FD002800F051
:1018900086849F4BD3E90023CAE942239AED440B87
:1018A000FFF706FD002800F09984994BD3E9002347
:1018B000CAE944239AED360BFFF7FAFC002800F042
:1018C000AC84934BD3E90067CAE93667DAE9382379
:1018D000DBE93801FEF748FEDAE93E2341EC180B5C
:1018E000DBE93C01FEF740FE02460B4651EC180BCB
:1018F000FEF784FCDAE94023FEF780FCDAE94223B4
:10190000FEF77CFCDAE94423FEF778FC32463B46DE
:10191000FEF774FC06460F46DBE90623CAE9386782
:10192000FFF7A8F840B1DBE90423DAE93A01FFF751
:10193000A1F8002840F06185D4F8683313F0FF2F38
:1019400014BF012300234FF000081D46CDF8088086
:1019500084F86B333046DBE908233946FFF780F81B
:1019600040B1DBE90A23DAE93A01FFF779F8002808
:1019700040F08F8294F86E3305900546029006463B
:10198000002B00F092829BED167B8DED0C7B002DE1
:1019900000F05D8294F86C33002B40F0588294F88C
:1019A0008633002B00F0588294F88533012B00F029
:1019B000BB869DED0C7B8AED3A7B012384F8853351
:1019C000002E40F0568294F8732394F87533134335
:1019D00000F04F82012384F8753300230893049BA1
:1019E0008AF82B31D9F82421B4F84632D2E90067BD
:1019F00040F2FE729342CAE93A6703D801339BB2C0
:101A0000A4F8463294F88223002A40F0E0819FED4A
:101A10003A0B84ED820B8AED340B0122032384F808
:101A2000822384F881339BED461BFFF753FCDAE9F0
:101A3000340153EC102B8AED3A0BFEF7DDFB30A39B
:101A4000D3E90023FEF790FD41EC100B02F018FDE6
:101A50008AED380BFFF72CFC002800F05C83002691
:101A60000027CAE9386730463946FFF72DF80928BC
:101A70000FD8DFE810F06205320538053E05440551
:101A80004A05500556055C050A009BF871318AF835
:101A900028319BED481B9AED3A0BFFF71BFCDAE966
:101AA0003A0153EC102B8AED360BFEF7A5FB16A37B
:101AB000D3E90023FEF758FD41EC100B02F0E0FCE7
:101AC0008AED380BFFF7F4FB002800F04683002670
:101AD000002730463946FEF7F7FF09281ED8DFE811
:101AE00010F0BA04C004C604CC04D204D804DE0446
:101AF000E404EA04190000BF000000000000000038
:101B00007B14AE47E17A843F9A9999999999B93FA4
:101B1000900300209BF867318AF82931DAE93667AB
:101B20000022002330463946FEF790FF47EC106B49
:101B3000002840F0C78202F0A3FCB0EE407AF0EE3D
:101B4000607AB0EE470AF0EE670A8AED387BFFF75D
:101B5000AFFB002800F0BD8200260027CAE93867E5
:101B600030463946FEF7B0FF09280FD8DFE810F0FD
:101B7000A904AF04EB04F104F704FD04030509050F
:101B80000F050A009BF85D318AF82A3199F81F1178
:101B9000049100297AD194F87853002D00F0EC8359
:101BA000DBE91823CAE946230D4694F8841300297B
:101BB00040F0D28300200021CAE93A010122022329
:101BC00084F8842384F88333029BB8F1000F40F03B
:101BD000B583CDE90983DDE90067DAE93C233046C6
:101BE0003946FEF709FB3B463246CAE93001DBE9DC
:101BF0000C01CDE90067FEF729FFB94E002815BF9B
:101C00004023002300214FF48001B361DDE900236C
:101C1000B161DBE90E01FEF719FF002815BF202393
:101C2000002300214FF40011B361DDE90023B1610D
:101C3000DBE91001FEF70AFF002815BF102300237F
:101C400000214FF48011B361DDE90023B161DBE9CC
:101C50001201FEF7FBFE002815BF08230023002118
:101C60004FF40021B361DDE90023B161DBE9140128
:101C7000CAF8A060FEF7EAFE002815BF0422002281
:101C800000234FF480230495B261B361D4F8385235
:101C90002846FEF7FFFBDBE9502306460F46FEF71A
:101CA000D5FE30B1002D04DB9BED4C7B8DED067B2A
:101CB00003E09FED897B8DED067B8A4B0022DBE9FB
:101CC0004E01FEF799FA02460B4630463946FEF7BA
:101CD000D1FE002840F0B9806B1C9AF82A519AF87E
:101CE0002911D4F84022C4F838322D049AF828314A
:101CF00005EB01251D44531C94F87E331CBF0132B3
:101D0000C4F84022002B40F0CF810122032184F847
:101D10007E23734A84F87D13CAF82031C4F83C52FC
:101D2000CAF8A0204FF000716D4A9361049B916145
:101D3000002B00F0E18099F81E31002B00F0EE80BE
:101D4000D4E90A23D4E90C01C4E90823D4E90E2319
:101D5000C4E90A019DED067B6349C4E90C23481ED2
:101D600040F21F1284ED0E7B02F0CAFD0B9B84F83B
:101D70006733D9F80801D9F824410130C9F80801BE
:101D8000FEF778FB02460B46D9E94401FEF7ECFB6F
:101D9000C4E9000199F81E31D9F818210133DBB2EA
:101DA000032B88BF002389F81E3199F81F310133B6
:101DB000DBB2042B02F1010288BF0023C9F818210D
:101DC00089F81F3111B0BDEC048BBDE8F08F94F899
:101DD0008123012A00F0F282022A00F0DF829AF8C1
:101DE0002B31002B00F06B8402220023C4E98267B0
:101DF0009AED340B84F88123A4F8463213E6DBE92C
:101E00002223FFF7C4BB94F86833002B7FF49AAB0E
:101E1000DAE92A01324BCAF8A0300022CAE93801B7
:101E200084F86823B7EE008AFFF798BBDFF8C0B0EC
:101E30002E4CDFF8C0A0DBE92401D4E90623FEF72D
:101E4000DBF9CAE92A01FFF762BB002345E794F8F2
:101E50008633002B7FF4B4AD002000210122022341
:101E6000CAE93A0184F8862384F88533002E3FF4CA
:101E7000AAAD002384F875334346002B3FF4ADAD83
:101E800094F87633B3FA83F35B0904930123089340
:101E9000A5E501231E4602932B467340059394F853
:101EA0006E33751B002B7FF46EAD94ED7E7BDDE908
:101EB0000023B0EE478AF0EE678A51EC170BFEF76D
:101EC000CFFD002800F07E839DED007B8DED0C7B27
:101ED0005DE500BFAFF300800000000000000000DF
:101EE000001002400000F03F21070020D80400202D
:101EF00000000020A803002004210DF13E02E0684C
:101F0000AAF8A410FFF72CF8BDF83E2099F81E316E
:101F1000CAF8242199F81F2104921BB9DAE92C236D
:101F2000C4E90623D4E90A23D4E90C01C4E908234F
:101F3000D4E90E23C4E90A019DED067BC649C4E934
:101F40000C23481E40F21F1284ED0E7B02F0D8FCD9
:101F50000B9B84F86733049B002B7FF40AAFBF49C7
:101F60009822A1F1080002F0CBFCDAE92E23C4E9A3
:101F70003623D4E95423D4E95067C4E95223D4E981
:101F80005A23C4E94E67D4E95667C4E95823D4E913
:101F90005E23C4E95467D4E95C67C4E95C23D4E9EF
:101FA0006423C4E95A67D4E96267C4E96223D4E9C7
:101FB00068239DED007BAA49C4E96067D4E96667A0
:101FC000081FC4E96623242284ED4C7B84ED507BFA
:101FD00084ED567B84ED5E7B84ED687BC4E96467A9
:101FE00002F08EFC9F494822A1F1080002F088FC13
:101FF0009D494822A1F1080002F082FC9DED006B92
:1020000094F86A23DAF82431C4F834329AED307B3C
:1020100094F86D3384F8692384ED7C6B029A84F81C
:102020006A239DED0C6B94F8772384F86C3394F855
:102030006F3394F87413059894F8796384F87623D1
:1020400084F86E33089A94F8723394F8705384F8D5
:102050006D0384F8731394F87A0394F8711384F879
:10206000772384ED7E6B94F87B2384F8748384ED6E
:102070004A7B84F8786384F86F5384F8713394F85A
:102080007C3384F87A2384F87B33DAE94623C4E985
:1020900080230A9B84F87233099B84F8790384F8BF
:1020A000701384F87C3364E694F87D33013B052B90
:1020B00000F24483DFE813F0F302DC02CD02BD023C
:1020C000AE029E0202F05CF9B0EE407AF0EE607A69
:1020D00037E59AED380BFFF7CDF800287FF43CADDB
:1020E0009FED5B1B9AED380B02F04EFA57EC106B2C
:1020F0008AED380B10EE100A002200233946FEF755
:10210000A5FC00283FF42CAD304607F10041FEF756
:10211000DBFC404228E59AED380BFFF7ABF80028CE
:102120007FF49DAC9FED4A1B9AED380B02F02CFA20
:1021300057EC106B8AED380B10EE100A00220023CA
:102140003946FEF783FC00283FF48DAC304607F19A
:102150000041FEF7B9FC404289E49AED380BFFF7E5
:1021600089F800287FF4B3AC9FED391B9AED380B4A
:1021700002F00AFA57EC106B8AED380B10EE100AD9
:10218000002200233946FEF761FC00283FF4A1AC91
:10219000304607F10041FEF797FC40429DE4DAE942
:1021A00042670022002330463946FEF74FFC0028E4
:1021B00040F03F810022304639460023FEF764FCA0
:1021C0000022002800F09B82284B9AED440BCAE9BC
:1021D0004223FFF76DF800287FF467ABDAE9446724
:1021E0000022002330463946FEF730FC002840F03C
:1021F00012810022304639460023FEF745FC0022BA
:10220000002800F07482194B9AED360BCAE944237A
:10221000FFF74EF800287FF454ABDAE93667002266
:10222000002330463946FEF711FC002840F0F980C3
:102230003046394600220023FEF726FC00260028FF
:1022400000F05382094FCAE93667FFF73FBB00BF72
:10225000000000000000F0412107002020050020C0
:10226000EC060020C0050020880600200000F03F9A
:10227000DAE940670022002330463946FEF7E6FBE4
:10228000002840F0E2800022304639460023FEF765
:10229000FBFB0022002800F02C82D24BCAE940232D
:1022A000FFF7F0BADAE93E670022002330463946EC
:1022B000FEF7CCFB002840F0C280002230463946B1
:1022C0000023FEF7E1FB0022002800F01482C54B3A
:1022D000CAE93E23FFF7CABADAE9386700220023C9
:1022E00030463946FEF7B2FB002840F08E800022CF
:1022F000304639460023FEF7C7FB0022002800F0D5
:10230000FC81B84BCAE93823FFF7A4BA94F87F23BD
:10231000012A00F04281B3F5C87FC0F0E2810123B9
:1023200084F87F330022B04B30463946FEF746FA38
:10233000AC4BCAE932010022FFF7CFB983F00103A9
:10234000099300230A9346E49DED007BB0EE479A83
:10235000F0EE679AFFF7CEB994F883039AF82B1141
:10236000012800F0288100293FF42EACCAE93A2365
:10237000012384F8833327E4D4E98067DDE900236F
:1023800030463946FEF776FB002800F00A819DEDC5
:10239000007B8AED467B53EC172B06E4312B40F291
:1023A0008E819AF82B31002B00F0898101220023C5
:1023B00084F881230BE00020FFF75CB9092B40F281
:1023C0007E819AF82B21002A00F07D810023A4F859
:1023D00046323046D4E982233946FDF70DFF0246E6
:1023E0000B4600208149FEF7E9F9C4E98267CAE992
:1023F000340141EC100BFFF716BB00234FF001082E
:102400001D46CDF80880FFF7A3BA794B0022CAE930
:102410003823FFF71FBA764B0022CAE94423FFF79F
:1024200049BA734B0022CAE9362316461F46FFF706
:102430004DBA6F4B0022CAE94223FFF72FBA6C4B0B
:102440000022CAE93E23FFF711BA694B0022CAE90C
:102450004023FFF717BA9BF870318AF82931FFF74C
:102460005DBB9BF86F318AF82931FFF757BB9BF8AA
:102470006E318AF82931FFF751BB9BF86D318AF82C
:102480002931FFF74BBB9BF86C318AF82931FFF7F4
:1024900045BB9BF86B318AF82931FFF73FBB9BF8AE
:1024A0006A318AF82931FFF739BB9BF869318AF81C
:1024B0002931FFF733BB9BF868318AF82931FFF7E0
:1024C0002DBB9BF866318AF82A31FFF75FBB9BF87A
:1024D00065318AF82A31FFF759BB9BF879318AF8C0
:1024E0002831FFF7D6BA9BF878318AF82831FFF700
:1024F000D0BA9BF877318AF82831FFF7CABA9BF82F
:1025000076318AF82831FFF7C4BA9BF875318AF81A
:102510002831FFF7BEBA9BF874318AF82831FFF7EB
:10252000B8BA9BF873318AF82831FFF7B2BA9BF832
:1025300072318AF82831FFF7ACBA9BF87A318AF801
:102540002831FFF7A6BA9BF864318AF82A31FFF7E1
:102550001DBB9BF863318AF82A31FFF717BB9BF844
:1025600062318AF82A31FFF711BB9BF861318AF892
:102570002A31FFF70BBB9BF860318AF82A31FFF74D
:1025800005BB9BF85F318AF82A31FFF7FFBA9BF849
:102590005E318AF82A31FFF7F9BA124B0022FFF7B1
:1025A0009CB847EC106BFEF783FE002800F0B48067
:1025B00099F81F51EBE600293FF406ABCAE93A232C
:1025C000FFF702BBB0EE480AF0EE680AFEF770FEB5
:1025D00000287FF479AC94ED7E7B8DED0C7BFFF7CA
:1025E000D6B900BF0000F03F0000344000004E406C
:1025F0000000F0BF032A00F28C80DAF820315C4A38
:10260000CAF8A020002B00F0958000214FF4007341
:10261000FFF78ABB072AF0D9D4F83C32042103F033
:1026200001030022CAF8203184F87D13C4F8402247
:10263000E5E7032AE1D9D4F83C22DAF82031520840
:10264000C4F83C22012284F87D230022C4F84022F1
:10265000D5E7DDE90601474B0022FEF7EDF900283A
:10266000CBD00722002384F87D23C4F84032C4E78E
:10267000DDE9060100220023FEF7DEF90028BCD0C8
:1026800003210023C4F83C52394A84F87D13CAF868
:102690002031CAF8A0204FF00071FFF745BBD4F8F5
:1026A0003C3273B3032AA8D903F0010304210022AA
:1026B000CAF8203184F87D13C4F840229FE79AEDD0
:1026C000340BFFF7B0B9B3F5FA6FF8D39FED260BD3
:1026D000032384ED820B8AED340B84F88133FFF7FA
:1026E000A2B900220023FEF7F8BF0027ABE50023C4
:1026F0008AE50023D2E50023EAE5002302E6002371
:1027000063E50622C4F8403284F87D23DAF82031EC
:1027100075E702210023B7E7D4E9802399F81F5118
:10272000CAE94623FFF741BA9DED0C7B8AED3A7B5F
:10273000FFF746B94FF00071FFF7F6BA012A3FF4F0
:102740005CAF00230522C4F8403203F1804384F8D3
:102750007D2303F504330122CAF82021CAF8A030F2
:1027600053E700BFAFF3008000000000000000004E
:10277000001002400000F03F2DE9F043864D874CE9
:1027800089B00820FEF74AFDD5E92801844B854A27
:10279000C4F83822D5E9266703F59272C4E9080126
:1027A000C4E90A01C4E90C01C4E90E0103F5907102
:1027B000C3E90231C3F8842003F58871C4E90667D0
:1027C000012273A7D7E90067996283F8202176492F
:1027D000596103F59472C3F8242195F85011C3F898
:1027E000D0304FF4907204F51270C3E9446702F0E0
:1027F000A1F8D5E91A0195F8513184F8683304F14C
:10280000E00204F14003E3E802019A42FBD1D5E97A
:102810003667D5E91C23D5E93E01D5E93A89C4E9F3
:102820004C67D5E94067C4E93823C4E93A23C4E9D1
:102830003C23C4E93E23C4E94023C4E94223C4E95C
:102840004423C4E94623C4E94823C4E94A23AB6FBF
:10285000C4F81032C4E94E89C4E95089C4E9520170
:10286000C4E95401C4E95601C4E98533C4E9873396
:10287000C4E98933C4E98B33C4F83432C4E95867F6
:10288000D5E94201D5E94423C4E95A67C4E95C6744
:10289000C4E95E67D5E91667C4E96001C4E962016D
:1028A000C4E96401C4E96601C4E9680195F85311FB
:1028B00084F86B13C4E96A2395F8521184F86913FC
:1028C000C4E96C23C4E96E23C4E97023C4E972230C
:1028D000C4E97423C4E97623C4E97823C4E97A23DC
:1028E000C4E97C2395F8543195F8572184F86A138C
:1028F000C4E97E6784F86C3384F86D3384F87523FB
:1029000095F8562195F8596195F8583195F8551173
:1029100084F8732384F87423244884F876330522DA
:1029200084F8773302F006F8314605222048214E1C
:10293000214F01F0FFFF214AB5F85A3195F85C119B
:10294000A2F82831D5E91889002001250423009038
:10295000207020728DF80C00194882F82A11059613
:1029600019462A4606904FF0011602A8C4E980894C
:10297000656007970296FEF773FAE060FEF7E6FAE5
:10298000E0682946FEF76AFA257209B0BDE8F083CF
:10299000FCA9F1D24D62503F00000020D804002075
:1029A0001802002030F8FFFF6849000846080020A0
:1029B00050080020E804002000640240A803002022
:1029C00000220140074B1A7822B95A6801218A4235
:1029D000197000D07047197A0029FBD0D8680421FB
:1029E000FEF736BBD8040020704700BF08B5BFF320
:1029F0004F8FBFF36F8F094A0949136809688B42EB
:102A000006D30123136072B6FEF774FB62B608BDED
:102A1000591C1160002BF6D008BD00BF64080020CF
:102A200060080020024A536843F0805353607047A7
:102A300000ED00E0254BD3ED007AF8EE677A10B494
:102A400027EE800AFCEEC07A17EE903AB3F1807F51
:102A50002AD3F8EE676A9FED1E7A1E49C6EE877A82
:102A6000FCEEE77A17EE902A0132B3FBF2F3013B5A
:102A7000B3F1807F0A6009D2174A18485360F024E6
:102A80000021072380F8234091601360144A134B00
:102A9000144815491060F02200200860DA7783F8A6
:102AA00022205DF8044B70470A49013B0022B3F134
:102AB000807F0A60EAD2084908484B60F024072367
:102AC00080F823408A600B60E0E700BF84010020AB
:102AD000FFFF7F4B6008002010E000E000ED00E009
:102AE00068080020ED29000864080020EFF300804A
:102AF00001B5EFF3118003B41EF0100F08BFB0EE64
:102B0000400A0A48006803B488B004A006904FF059
:102B1000807007906FF006008646704703BC8047C0
:102B2000BFF36F8F00DFFEE700BF000068080020E2
:102B30001EF0100F08BFB0EE400A1EF0040F0CBFCD
:102B4000EFF30880EFF30980816911F8020C10B1EE
:102B500001280DD00BE01EF0100F0CBF1AB008B00A
:102B600003BC80F3118803BC80F300880847FEE7AC
:102B70004EF61451CEF200010A6842F001020A60DA
:102B80007047F4E700BF00BF2D4B1A6822F00F0218
:102B900042F0050210B51A601A6802F00F02052A09
:102BA000FAD1284A284B116841F44041116011685C
:102BB00021F4803111601A6842F480321A601A6878
:102BC0009203FCD55C68214821491F4A20400143FB
:102BD0005960596821F440315960196841F0807199
:102BE000196013689B01FCD59368174C23F0F00320
:102BF0009360936823F4E05343F4A0539360936885
:102C000023F4604343F400439360936823F0030389
:102C100043F002039360A36803F00C03082BFAD17E
:102C20000C4800F037FF002000F080FD08B172B6BC
:102C3000FEE7D4F88C3023F08073C4F88C3010BDDC
:102C4000003C024000700040003802400080BFFF9E
:102C5000042A4000007A030AF0B5002397B0CDE9BA
:102C60001333CDE90233CDE90B33CDE90D33CDE993
:102C700007334D4A04930A930693129309931593CD
:102C8000516C4A484A4C41F480615164516C01F4E2
:102C9000806101910199116B41F020011163126B68
:102CA000149302F0200200920323202210A9CDE900
:102CB0001023009D00F07AFD3E4B1A6822F06062FE
:102CC00042F080621A601A6822F0C0021A601A6824
:102CD00022F440321A601A6822F4907242F4807230
:102CE0001A601A6822F400721A601A6842F480624C
:102CF0001A601A6822F4C05242F400621A601A681C
:102D000022F4C04242F400521A605A6922F00402CE
:102D10005A610026002702A94FF480752046CDE9AC
:102D20000267049500F02AFE0AA92046CDE90A6749
:102D3000CDE90C670E9500F03BFEA3681E4843F4F6
:102D40008063A36006A94FF44033069300F0E6FDCC
:102D50004FF44073194A93FAA3F33BB1B3FA83F3E8
:102D60004FF4007121FA03F302EB83021368104958
:102D700023F01F0343F00F031360CA684FF0F8738A
:102D800093FAA3F363B1B3FA83F34FF47001D9401C
:102D900007238B40DB4306491340CB6017B0F0BDDF
:102DA0006FF00703F7E700BF00380240001402404D
:102DB0000022014010640240002301402C22014007
:102DC0002DE9F043354D364C93B00AA8202200215E
:102DD00001F0B0FD2B6B334843F004032B632B6BE6
:102DE00003F004030393039B2B6B43F001032B635A
:102DF0002B6B03F001030293029E04A94FF40072AF
:102E000002234FF000084FF0010901260427CDE905
:102E10000423CDE90689CDE9086700F0C7FC04A9C1
:102E20004FF4807202232048CDE90689CDE9086776
:102E3000CDE9042300F0BAFC2B6CDFF8709043F46A
:102E400000032B642B6C03F400030193019BE368E4
:102E500023F00103E360236823F040032360236829
:102E600023F080032360002200230AA920464FF0AC
:102E700000084FF480664FF48047CDE90C23CDE97C
:102E80000E23CDE90A89CDE9106700F019FFE36848
:102E900023F0FE03E36013B0BDE8F0830038024086
:102EA000005C00400008024000000240A0860100D3
:102EB000D0B592B008A82822002101F03BFD214B9B
:102EC00021485A6C214C42F480125A645A6C02F424
:102ED00080120192019A1A6B42F020021A631B6B56
:102EE00003F0200300934FF460720223CDE9022324
:102EF0000099002600270022052302A9CDE9062318
:102F0000CDE9046700F052FC00224FF48273CDE952
:102F1000082300224FF40073CDE90C23182200236C
:102F2000CDE90E2308A900220A232046CDE910236B
:102F3000CDE90A6700F04AFF636823F0100363607D
:102F400012B0D0BD003802400014024000500140D1
:102F500030B587B00023164AADF80630516C154CD9
:102F600041F001015164526CADF8043002F00102ED
:102F7000009220464FF6FF7201A9CDE90433029377
:102F8000009D039201F0DAF8236823F080032360A8
:102F9000A36823F4804323F00703A360636823F04E
:102FA00070036360A36823F08003A36007B030BDA3
:102FB000003802400000014030B5002491B0CDE956
:102FC0000844CDE90A44CDE90C44364B0E945A6CC2
:102FD0003548364D42F010025A645A6C02F0100225
:102FE0000192019A1A6B42F001021A631B6B03F003
:102FF000010300934FF4C0620223CDE902230322B0
:103000000023CDE9042300990022072302A9CDE97A
:10301000062300F0CBFB264B1A6822F0606242F0D8
:1030200000621A601A6822F0C0021A601A6822F45C
:1030300040321A601A6822F490721A601A6822F4F8
:1030400000721A601A6842F480621A601A6822F4E8
:10305000C0521A601A6822F4C0421A605A6922F0FB
:1030600004025A614FF4E1320023CDE90823002223
:103070000023CDE90A2308A90C2200232846CDE924
:103080000C230E9401F0B6F82B6923F490432B61C6
:103090006B6923F02A036B61EB6843F40053EB6028
:1030A00011B030BD00380240000002400010014065
:1030B000406402400D4A0E48116B0E4B41F48001F2
:1030C0001163126B82B002F4800201920022019916
:1030D000C16883F838234FF080715960C16883F864
:1030E0003A234FF080625A6002B0704700380240C5
:1030F00000ED00E000E100E02DE9F04F2DED048B44
:103100004FF0000993B0CDE90A99D94BCDF844901E
:103110001A6B9FEDD89A9FEDD88AD84EDFEDD89ADA
:10312000DFEDD88A42F010021A631A6B02F0100227
:103130000992099A1A6B42F004021A631A6B02F0A0
:1031400004020892089A1A6B42F020021A631A6B62
:1031500002F020020792079A1A6B42F080021A636B
:103160001A6B02F080020692069A1A6B42F0010274
:103170001A631A6B02F001020592059A1A6B42F06B
:1031800002021A631A6B02F002020492049A1A6B8A
:1031900042F040021A631A6B02F040020392039A53
:1031A0001A6B42F008021A631B6B03F008030293C8
:1031B000029819EE100A4FF05F714FF4B01281615E
:1031C00018EE104AB26119EE902A4FF05C5E4FF48F
:1031D00000039361C4F818E018EE904A4FF0C04C19
:1031E000C4F818C04FF45F72012300274FF00008A5
:1031F0000CA9CDE90C23CDE90E78CDF8409000F074
:10320000D5FA4FF61F020223CDE90C230324002236
:103210000C2300250CA99C4892469B46CDE90E45FF
:10322000CDE9102300F0C2FA4FF480620223CDE909
:103230000C230CA900220E239348CDE90E78CDE98A
:1032400010231746984600F0B1FACDE90E45012249
:10325000022354465D460CA93046CDE91045CDE920
:103260000C23002400F0A2FA0025162201230CA949
:103270003046CDE90E45CDE90C23CDF8409000F065
:1032800095FACDE90E4541F6580202233C464546E3
:103290000CA919EE900ACDE91045CDE90C230024C4
:1032A00000F084FA0025802201230CA919EE900A6F
:1032B000CDE90E45CDE90C23CDF8409000F076FA2B
:1032C00003220223CDE90E45CDE90C230CA90023EE
:1032D00009246E48CDE91034002500F067FA032474
:1032E000042200230CA96948CDF84090CDE90C23B5
:1032F00000F05CFACDE90E4548F233120223544641
:103300005D460CA918EE900A5746D846CDE91045FF
:10331000CDE90C23032400F049FA00254FF683423F
:1033200002230CA919EE100A4FF0000A4FF00E0B01
:10333000CDE90E45CDE90C2300240025CDE9107818
:1033400000F034FA4FF4706202230CA94F48CDE923
:103350000E45CDE910ABCDE90C2300F027FA4FF470
:10336000504202230CA94948CDE90E45CDE90C2372
:10337000CDE9107800F01AFA4FF4005200230CA99E
:103380004248CDF84090CDE90C2300F00FFA4FF4FD
:103390005C5201230CA918EE100ACDE90E45CDE9C7
:1033A0000C23CDF8409000F001FA4FF400620023A6
:1033B0000CA918EE100ACDE90C2303240025CDF842
:1033C000409000F0F3F94CF2030202230CA918EE2E
:1033D000100ACDE90045CDE90E45CDE90C230024C6
:1033E0000025CDE9107800F0E1F94FF40C620223DA
:1033F0000CA918EE900ACDE910ABCDE90C23CDE96C
:103400000E4500F0D3F94FF4986202230CA9304620
:10341000CDE910ABCDE90C23CDE90E4500F0C6F99E
:10342000CDE910AB482202230CA94FF0000A4FF05F
:10343000090B18EE100ACDE90C23CDE90E4500F07A
:10344000B5F9CDE910AB4FF4A0520223A246AB462A
:103450000CA918EE900ACDE90C23CDE90EAB00F0D3
:10346000A5F94FF4C04201230CA918EE900A0FE011
:103470000038024000100240000C024000080240E8
:103480000000024000180240001402400004024004
:10349000CDE90C23CDE90EABCDF8409000F086F9D4
:1034A000DDE90045602202237D480CA9CDE90C230B
:1034B000CDE90E45CDE9107800F078F9794B9A689E
:1034C00022F00F029A609A6822F0F0029A609A68DD
:1034D00022F470629A60DA68F02322F0F00293FA24
:1034E000A3F32BB1B3FA83F3022101FA03F31A43D6
:1034F0006C4BDA605A6922F470425A61012440F23E
:1035000001150AA80A948DF82E40ADF82C5000F051
:10351000C7FA02230AA88DF82E400A93ADF82C5062
:1035200000F0BEFA04230AA88DF82E400A93ADF8E5
:103530002C5000F0B5FA20230AA88DF82E400A93EB
:10354000ADF82C5000F0ACFA4FF400430AA88DF807
:103550002E400A93ADF82C5000F0A2FA94FAA4F48D
:10356000514BDB683CB1B4FA84F46400032202FAE4
:1035700004F423EA04034C4AD360D268022393FA8A
:10358000A3F33BB1B3FA83F35B00032101FA03F326
:1035900022EA0302444BDA60DA68042393FAA3F3C5
:1035A0003BB1B3FA83F35B00032101FA03F322EA90
:1035B00003023D493D4BCA60DA68202393FAA3F326
:1035C0003BB1B3FA83F35B00032101FA03F322EA70
:1035D00003023649344BCA60DA684FF4004393FA69
:1035E000A3F33BB1B3FA83F35B00032101FA03F3C6
:1035F00022EA03022C4BDA601A68012393FAA3F340
:103600003BB1B3FA83F35B00032101FA03F322EA2F
:103610000302254B1A601A68022393FAA3F33BB105
:10362000B3FA83F35B00032101FA03F322EA0302F6
:103630001D4B1A601A68042393FAA3F33BB1B3FA43
:1036400083F35B00032101FA03F322EA0302164924
:10365000164B0A601A68202393FAA3F33BB1B3FA1E
:1036600083F35B00032101FA03F322EA03020F490B
:103670000D4B0A601A684FF4004393FAA3F33BB171
:10368000B3FA83F35B00032101FA03F322EA030296
:10369000054B1A6013B0BDEC048BBDE8F08F00BF82
:1036A00000040240003801400000024000080240CF
:1036B000034B02689A4200D0704700F0F5BA00BF91
:1036C000000C0040FEE700BFFEE700BFFEE700BFC2
:1036D000FEE700BFFEE700BF704700BF014800F0F3
:1036E0007FBC00BF6C080020704700BF82B00E4B4B
:1036F00000220092596C41F480415964596C01F4E4
:103700008041009100990192196C41F08051196437
:103710001B6C03F080530193019B0F216FF001009C
:1037200002B000F061BA00BF0038024030B5014677
:1037300089B00022322000F057FA322000F08CFAD3
:103740000025164B02951A6C154C42F008021A64BB
:103750001B6C03F0080301A9029303A8029B00F06D
:103760000DFA00F0FBF90F4A0F4925614300A2FB57
:1037700003239B0C013B40F2E7322046C4E90135AC
:103780002160E26000F05AFB10B1012009B030BDA9
:10379000204600F0E1FB09B030BD00BF0038024018
:1037A0006C08002083DE1B43000C00402DE9F0472D
:1037B0000D6895FAA5F2B2FA82F235FA02F300F03A
:1037C000848001264FF0030C4FF00F0E38E0D1F843
:1037D0001080D0F80C9093FAA3F737B1B7FA87F7B7
:1037E0007F000CFA07F729EA070993FAA3F7002FDD
:1037F0006ED0B7FA87F77F0008FA07F747EA09079C
:10380000022CC76048D093FAA3F80768B8F1000FFC
:1038100007D0B8FA88F84FEA48080CFA08F827EAFF
:10382000080793FAA3F3002B54D0B3FA83F35B0099
:1038300004FA03F33B430360013235FA02F344D048
:1038400006FA02F32B40F7D04C68671E012FBED852
:1038500093FAA3F7D1F80880D0F8089037B1B7FAF7
:1038600087F77F000CFA07F729EA070993FAA3F70D
:10387000002F4FD0B7FA87F77F0008FA07F747EA1B
:1038800009078760476827EA0308CF6807FB03F743
:1038900048EA070747609AE793FAA3F7E7B1B7FA50
:1038A00087F8B8F1070F17DCD0F820A04F694FEA6E
:1038B00088090EFA09F94FEA88082AEA090A07FA7C
:1038C00008F747EA0A0707629DE70020BDE8F0878E
:1038D000402791E74023ABE71F0AD1F81480D0F8C6
:1038E000249097FAA7FABAF1000F07D0BAFA8AFA29
:1038F0004FEA8A0A0EFA0AFA29EA0A0997FAA7F79A
:1039000057B1B7FA87F7BF0008FA07F747EA090780
:10391000476278E74027B0E78027F5E770B4134B9C
:10392000134C144AA4689B6892682343134313F012
:10393000010310D14A68054640687AB10E4C0E6802
:103940000440D1E902012243324302430A431846AC
:103950006A6070BC7047012070BC7047064B0968F4
:1039600003400B4310466B6070BC70470021014060
:103970000020014000220140E010FCFF836813F0AA
:10398000010313D170B40246446891E8610024F049
:10399000407424F48074304320435060916821F4D3
:1039A00000612943184670BC916070470120704740
:1039B0008368DB071AD470B44C684368C4B923F435
:1039C0006843436082680D4BCE680D6913400A68F6
:1039D00033432B4302F0706213438360C36A23F4C2
:1039E00070032343C36270BC0020704701207047FE
:1039F0008A6823F4684313434360E3E7FDFCFFC098
:103A00001F4A936803F00C03042BF0B436D0082B44
:103A100032D157685568536851681A4C1A4EC1F331
:103A20000141C3F3881217F4800F01F101010CBFAB
:103A30002346334605F03F044900B3FBF4F302FB91
:103A400003F3B3FBF1F30E4A036091680F4D104C82
:103A5000C1F30311695CCB4043609168C1F38221DB
:103A6000615C23FA01F181609268C2F34232A25C88
:103A7000D340F0BCC3607047024BE4E7024BE2E77F
:103A8000003802400024F40000127A008049000847
:103A900090490008014B1860704700BF8401002066
:103AA00010B403460079A0B1186878B15A79012A98
:103AB00034D0022A1AD042B301229B790BB3022BD5
:103AC00031D0032B43D0012B37D001205DF8044BBC
:103AD0007047214A1C68116821EA0401116053688B
:103AE00023EA040353605DF8044B70471A4A1168D7
:103AF000014311605168014351609B790022002B02
:103B0000DDD110465DF8044B704713494C6824EA38
:103B100000044C600C6804430C60CEE70E4A116848
:103B200021EA0001E5E70C4B996821EA0001996060
:103B3000D9680843D8601046E4E7074BD96821EA02
:103B40000001D9609968084398601046BEE7024BAF
:103B500099680143EBE700BF003C0140044B054A74
:103B60009B680549C3F382230868D35CD84070473B
:103B70000038024090490008840100200E4B0F22BB
:103B800002609A6802F0030242609A6802F0F00252
:103B900082609A6802F4E052C2609B68DB0810B44D
:103BA00003F4E053054C036123685DF8044B03F014
:103BB0000F030B60704700BF00380240003C02401A
:103BC0000849CA6810B400024FF6FF04224000F40E
:103BD000E063134343F0BF6343F400335DF8044BE9
:103BE000CB60704700ED00E0194BDB68C3F30223A4
:103BF00030B4C3F10705042D03F1040428BF0425E4
:103C0000062C19D9033B4FF0FF349C4022EA0402F2
:103C10004FF0FF34AC4021EA04019940002841EA0A
:103C200002010CDB00F1604000F561400901C9B2FE
:103C300080F8001330BC704700221346E8E7054BBC
:103C400000F00F0009010344C9B2197630BC704777
:103C500000ED00E0FCEC00E0002807DB044A00F087
:103C60001F01012340098B4042F82030704700BFFC
:103C700000E100E008B50B4B1A6842F400721A60CC
:103C80001A6842F480621A601A6842F480721A60FC
:103C90000320FFF795FF0020FFF748FDFFF726FD03
:103CA000002008BD003C0240034A044B11681B7809
:103CB0000B441360704700BFB4080020800100204F
:103CC000F0B50368044685B023F00103036068463D
:103CD0000D46FFF795FE676AE9680298384B27F0B2
:103CE0001F0C2F69394341EA0C01D5E90162616279
:103CF0006168DFF8D0C0A3FB007321F03F0141EA07
:103D000093416160276A66454FEA934327F03F0776
:103D10002ED8013340F6FC7172003B43B0FBF2F247
:103D20000A42236208BF0422E3696969EE6923F449
:103D30004F4323F0FF031343E361A0682B68AD6991
:103D400020F4034020F0FF0031430143A1602268CA
:103D500022F01A021A432260226842F00102226015
:103D6000236823F480632B430020236005B0F0BD5B
:103D7000DFF854C04FF4967101FB03F1ACFB013145
:103D8000890901313943216252B906EB4603B0FB80
:103D9000F3F3C3F30B0181B948F201031A43C3E7FC
:103DA00006EB860606EB8606B0FBF6F6C6F30B03BB
:103DB000002BF1D046F40043F0E743F40043EDE775
:103DC00083DE1B43A0860100D34D621002460068CB
:103DD00010F0400027D1F0B4D1E90037D1E9025406
:103DE0003B430E692B43D1E90575234333433B43E2
:103DF0002B43D1E907651468334324F47F442B43F4
:103E000024F0BF0423431360536823F0040343EA00
:103E10001743B5F5005F53600BD0D36923F40063FB
:103E2000F0BCD3617047D36923F400630120D361F0
:103E300070478B8C1361F0E7704700BF002800F0DB
:103E4000878038B590F83D30044603F0FF02002B20
:103E500079D022683F49022384F83D308A421368B2
:103E60005DD0B2F1804F31D0A1F57C418A422DD096
:103E700001F580618A4229D001F580618A4225D00E
:103E800001F578418A424AD001F570518A4221D029
:103E900001F580618A421DD001F580618A4219D006
:103EA000A1F598318A4215D001F580618A4211D07E
:103EB00001F580618A420DD0A569E068616823F050
:103EC00080032B431360D062916210E0A16823F05D
:103ED00070030B432569A169E06823F440732B4309
:103EE00023F080030B4361681360D0629162012369
:103EF000536184F8463084F83E3084F83F3084F8CB
:103F0000403084F8413084F8423084F8433084F8FB
:103F1000443084F8453084F83D30002038BDA56831
:103F20002069A16923F070032B4323F440730343FA
:103F300023F080030B431360E368D36263689362EA
:103F400063691363D3E780F83C20FFF775FF80E7D0
:103F5000012070470000014090F83D30012B2FD127
:103F600003681949022280F83D20DA688B4242F04A
:103F70000102DA6019D0B3F1804F16D0134A934290
:103F800013D002F5806293420FD002F58062934213
:103F90000BD002F57842934207D002F5705293425B
:103FA00003D0A2F59432934204D19A6802F007023A
:103FB000062A07D01A6842F001021A6000207047F2
:103FC00001207047002070470000014000040040BD
:103FD000704700BF704700BF704700BF704700BF09
:103FE00003681A69910710B5044602D5DA6892078A
:103FF0005FD41A69500702D5DA68510746D41A69A6
:10400000120702D5DA6810072ED41A69D20602D533
:10401000DA68D00618D41A69D10702D5DA68D2074F
:104020005DD41A69100602D5DA6811065FD41A69E0
:10403000520602D5DA68500661D41A69910602D593
:10404000DA68920643D410BD6FF01001082219619E
:104050002277DB6913F4407F204664D0FFF7BAFF74
:10406000002223682277D6E76FF008010422196145
:104070002277DB699907204652D1FFF7A9FF204636
:10408000FFF7AAFF002223682277BEE76FF0040142
:104090000222196122779B6913F4407F20463CD1AC
:1040A000FFF796FF2046FFF797FF0022236822774D
:1040B000A5E76FF002010122196102779B699B0756
:1040C00025D0FFF787FF00222368227791E76FF062
:1040D000200220461A61BDE8104000F02BB86FF0B6
:1040E00001021A612046FFF7E3FA236899E76FF0AF
:1040F00080021A61204600F01FF8236897E76FF0EE
:1041000040021A612046FFF769FF236895E7FFF731
:104110005FFF2046FFF760FFD5E7FFF75BFFC4E7CF
:10412000FFF758FFAEE7FFF753FF2046FFF754FFB6
:1041300096E700BF704700BF704700BF2C4A036876
:10414000904230B444D0B0F1804F33D0A2F57C42DD
:1041500090422FD002F5806290422BD002F580620F
:10416000904227D002F57842904231D002F5705249
:10417000904223D002F5806290421FD002F5806207
:1041800090421BD0A2F59832904217D002F580627F
:10419000904213D002F5806290420FD08C680A885A
:1041A0000360C4628262436943F00103436130BC2F
:1041B000002070474A6823F070031343D1E9024599
:1041C00023F440730A882B430360C4628262EAE7E7
:1041D0004D68CC680A8823F070032B4323F44073A6
:1041E000234303608B68C36282620B690363DAE76F
:1041F00000000140C3689B0401D50120704730B521
:104200004B6804460D46D1E90310E2680B43A969E7
:10421000034322F416420B4322F00C021343E360E3
:104220002269AB68696922F440521A4322616369CA
:1042300023F440730B4385B063616846FFF7E0FBEE
:10424000314B9C4220D0314B9C4216D0304B9C428B
:1042500013D003F54C439C4216D0A3F548439C422F
:104260000BD003F580639C4207D003F520539C429A
:1042700003D003F580639C4203D1029909B12B68F6
:1042800023B9012005B030BD0399F7E7AA69B2F55B
:10429000004F18D019209A00A1FB00019B0FFCF7DA
:1042A00033FC1C4DA5FB00235B09642101FB1302B9
:1042B00012013232A5FB02121B0103EB52139BB217
:1042C000A3600020DEE7DA184FF019004FF000037A
:1042D0005B41A1FB0001FCF717FC0E4DA5FB003272
:1042E0005109642202FB1103DB003233A5FB0323D7
:1042F000C3F342121B0902EB011203F4F8731344D7
:104300009BB2A3600020BDE70010014000440040C4
:10431000004800401F85EB51034AD2F8883043F42F
:104320007003C2F88830704700ED00E0DFF834D049
:104330000D480E490E4A002302E0D458C4500433FD
:10434000C4188C42F9D30B4A0B4C002301E01360D4
:104350000432A242FBD3FFF7DFFF00F09FFAFCF725
:10436000E1FE70470000032000000020F001002063
:10437000B8490008F0010020B8080020FEE700005E
:1043800051EC100BF8B5C1F30A53A3F2FF35132D0E
:1043900010EE106A0C4632DC002D1EDB364F2F412A
:1043A00001EA070303432FD031A3D3E90023FBF72E
:1043B00025FF00220023FCF767FB48B1002C04DD39
:1043C0004FF4801343FA05F52C4424EA0704002631
:1043D0002346324643EC102BF8BD25A3D3E9002336
:1043E000FBF70CFF00220023FCF74EFB0028EFD068
:1043F000002C39DB264333D0204C0026E8E7332D50
:1044000005DDB5F5806F23D041EC100BF8BDA3F2AC
:1044100013434FF0FF37DF400742F5D014A3D3E931
:104420000023FBF7EBFE00220023FCF72DFB002806
:10443000CED0002C09DD142D14D00123C5F1340594
:1044400003FA05F5AE1928BFE41826EA0706BFE708
:1044500010EE102A0B46FBF7D1FE41EC100BF8BD15
:104460003446B5E70134F0E700264FF00044AFE7EB
:104470009C7500883CE4377EFFFF0F000000F03F92
:1044800051EC100BF8B5C1F30A53A3F2FF35132D0D
:1044900010EE106A0C4620DC002D3DDB384F2F411A
:1044A00001EA070303431DD033A3D3E90023FBF73D
:1044B000A5FE00220023FCF7E7FA48B1002C04DA3D
:1044C0004FF4801343FA05F52C4424EA0704002630
:1044D0002346324643EC102BF8BD332D05DDB5F5F0
:1044E000806F29D041EC100BF8BDA3F213434FF0BD
:1044F000FF37DF400742F5D01FA3D3E90023FBF7C6
:104500007DFE00220023FCF7BFFA0028E0D0002C3B
:1045100023DB26EA0706DBE717A3D3E90023FBF733
:104520006DFE00220023FCF7AFFA0028D0D0002C4B
:104530000ADB00263446CBE710EE102A0B46FBF7C9
:104540005DFE41EC100BF8BD24F000430D4A1E4304
:10455000002E18BF14460026BAE7142D08D00123F8
:10456000C5F1340503FA05F5AE1928BFE418D0E704
:104570000134CEE7AFF300809C7500883CE4377EC1
:10458000FFFF0F000000F0BFF8B52DED028B57ECD8
:10459000106B55EC114B00F03BF81C4BB0EE408A11
:1045A000F0EE608A93F90030013314D022462B4696
:1045B00020462946FCF772FA68B932463B46304637
:1045C0003946FCF76BFA30B9204629460022002311
:1045D000FCF732FA30B9B0EE480AF0EE680ABDECEA
:1045E000028BF8BD00F054F9002200232121016064
:1045F00010461946FCF7E2F841EC180BB0EE480AF9
:10460000F0EE680ABDEC028BF8BD00BF8801002007
:1046100053EC112B2DE9F04723F0004555EA020633
:1046200051EC100B34D0944E21F00049B14588462E
:104630002EDC5642DFF844C2164345EAD67666457C
:1046400011EE10EA24D8A94511EE107A10EE10AA46
:1046500010EE102A1C4601F0004606DCC0F2BE80B7
:104660007045C0F0BB8000F0F080844B08EA030383
:10467000C3B9B9F1000F40F0D180BAF1000F804901
:10468000534613DD5B00002B01F1FF31FADC0DE036
:10469000FBF76AFF02460B46FCF790F841EC100B63
:1046A000BDE8F0874FEA2951A1F2FF31734B234057
:1046B00073B9002D40F0A680BEF1000FDFF8C0C135
:1046C000734609DD5B00002B0CF1FF3CFADC03E0D4
:1046D0004FEA255CACF2FF3C6A4B994270DBC8F3B1
:1046E000130343F480136748844558DBC4F3130471
:1046F00044F48014A2EB0E00B1EB0C010AD11BE0D4
:1047000050EA050343D0EB0F013903EB40034FEAB6
:10471000450210D0181B974288BF00F1FF300028D7
:10472000A2EB07054FEAD27EEADA01390EEB43032A
:104730004FEA4202EED1D01B1C1B974288BF04F106
:10474000FF34002CA4BF0246234653EA020106D1DF
:104750001DE0D10F01EB43030CF1FF3C5200B3F518
:10476000801FF6DB47498C4564DAA1EB0C01142964
:1047700072DC0CF21E40CA4003FA00F043FA01F169
:1047800010430E433346024643EC102B88E73E4B62
:10479000F60F03EBC60696ED000BBDE8F087A0EB25
:1047A0000C001F2823DD394CB1EB0C01A4EB0C04E9
:1047B0000EFA04F418BF0027ACD11C1B1046C0E74A
:1047C0005A1A1F2A0DDC01F21E4309FA02F92AFACD
:1047D00003F30AFA02F243EA090384E741EC100BFF
:1047E0005EE72A4B5B1A0AFA03F300227BE70CF21E
:1047F0001E4485400EFA00F72EFA04F040EA050444
:10480000D01B79E7EB02002BDFF878C07FF764AFAD
:104810005B00002B0CF1FF3CFADC5DE74FEAC9239B
:10482000002B18497FF742AF5B00002B01F1FF31ED
:10483000FADC3BE7A3F580131E430CF2FF3C46EA8B
:104840000C51104641EC100B2AE70F4BF60F03EB0F
:10485000C60393ED000B23E71F2907DC0CF21E4073
:10486000834022FA01F143EA01008BE70749A1EBFB
:104870000C0143FA01F085E7FFFFEF7F0000F07FB6
:10488000EDFBFFFF02FCFFFF98490008E2FBFFFF82
:10489000014B1868704700BF8C01002070B50D4DAA
:1048A0000D4C641BA4100026A64209D10B4D0C4CE4
:1048B00000F048F8641BA4100026A64205D170BD84
:1048C00055F8043B98470136EEE755F8043B984706
:1048D0000136F2E7B0490008B0490008B0490008C5
:1048E000B44900080A44914200F1FF3300D17047F7
:1048F00010B511F8014B03F8014F9142F9D110BDE9
:10490000884210B501EB020402D98442234607D83D
:10491000431EA14208D011F8012B03F8012FF8E73C
:10492000024401468A4200D110BD13F8014D02F83D
:10493000014DF7E702440346934200D1704703F864
:10494000011BF9E7F8B500BFF8BC08BC9E467047EC
:0C495000F8B500BFF8BC08BC9E467047DC
:10496000102840587088A0B846697865645374650B
:10497000704469736372657465000000180200205A
:1049800000000000000000000102030406070809FF
:10499000000000000102030400000000000000000D
:0849A00000000000000000808F
:0849A80090C1FF7F0100000037
:0449B000D501000825
:0449B400B101000845
:1049B8000000000000000840000000000000244043
:1049C8000000000000000840000000000000000097
:1049D800000000000000000000000000000008C007
:1049E80000000000000049400000000000004440B2
:1049F8000000000000003E400000000000003440BD
:104A0800000000000000244000000000000000003A
:104A180000000000000059400000000000000000F5
:104A28000000000000000000000000000000803FBF
:104A3800000000000000000000000000000000006E
:104A4800000000000000F03F00000000000000002F
:104A58000000000000000000000000000000E03F2F
:104A68000000000000FEAF40000000000000000051
:104A78000000000000005940000000000000000095
:104A880000000000000000400000000000000000DE
:104A980000000000000000400000000000000000CE
:104AA80000000000000000400000000000000000BE
:104AB80000000000000000000000000000000000EE
:104AC8000000000000000000000000000000594045
:104AD800000000000000244000000000000000006A
:104AE800000000000000F03F0000000000C072401D
:104AF800000000000000244000000000000000400A
:104B0800000000000100000001000000006F7F07A6
:104B18007D6D664F5B063F6F7F077D6D664F5B0659
:104B28003F6F7F077D6D664F5B063F00000000000A
:104B3800010000000024F400FF00000090010020A4
:104B4800000000000000000000000000000000005D
:104B5800000000000000000000000000000000004D
:104B6800000000000000000000000000000000003D
:104B7800000000000000000000000000000000002D
:104B8800000000000000000000000000000000001D
:104B9800000000000000000000000000000000000D
:040000050800432D7F
:00000001FF
