:020000040800F2
:10000000000003203D460008D5390008D939000812
:10001000DD390008E1390008E5390008000000007A
:10002000000000000000000000000000412E000859
:10003000E939000800000000FD2D0008352D0008FA
:100040008D4600088D4600088D4600088D46000844
:100050008D4600088D4600088D4600088D46000834
:100060008D4600088D4600088D4600088D46000824
:100070008D4600088D4600088D4600088D46000814
:100080008D4600088D460008F10E00088D460008D8
:100090008D4600088D4600088D4600088D460008F4
:1000A0008D4600088D4600088D4600088D460008E4
:1000B0008D4600088D4600088D4600088D460008D4
:1000C0008D4600088D4600088D4600088D460008C4
:1000D0008D4600088D4600088D4600088D460008B4
:1000E0008D4600088D4600088D4600088D460008A4
:1000F0008D4600088D4600088D4600088D46000894
:100100008D4600088D460008ED3900088D46000830
:100110008D4600088D4600088D4600088D46000873
:10012000010E00088D460008F93900088D460008C8
:100130008D4600088D4600088D4600088D46000853
:100140008D4600088D4600088D4600088D46000843
:100150008D4600088D4600088D4600088D46000833
:100160008D4600088D4600088D4600088D46000823
:100170008D4600088D4600088D46000800000000EE
:100180008D4600088D4600088D4600088D46000803
:100190008D4600088D4600088D4600088D460008F3
:0C01A0008D4600088D4600088D460008C2
:1001B00010B5054C237833B9044B13B10448AFF3A1
:1001C00000800123237010BDC80100200000000042
:1001D000544C000808B5034B1BB103490348AFF367
:1001E000008008BD00000000CC010020544C000835
:1001F00081F0004102E000BF83F0004330B54FEAD8
:1002000041044FEA430594EA050F08BF90EA020F44
:100210001FBF54EA000C55EA020C7FEA645C7FEAD7
:10022000655C00F0E2804FEA5454D4EB5555B8BFFA
:100230006D420CDD2C4480EA020281EA030382EA6B
:10024000000083EA010180EA020281EA0303362DFD
:1002500088BF30BD11F0004F4FEA01314FF4801CD0
:100260004CEA113102D0404261EB410113F0004FE2
:100270004FEA03334CEA133302D0524263EB430399
:1002800094EA050F00F0A780A4F10104D5F1200E37
:100290000DDB02FA0EFC22FA05F2801841F1000192
:1002A00003FA0EF2801843FA05F359410EE0A5F166
:1002B00020050EF1200E012A03FA0EFC28BF4CF097
:1002C000020C43FA05F3C01851EBE37101F000454D
:1002D00007D54FF0000EDCF1000C7EEB00006EEB5A
:1002E0000101B1F5801F1BD3B1F5001F0CD34908E4
:1002F0005FEA30004FEA3C0C04F101044FEA44523B
:1003000012F5800F80F09A80BCF1004F08BF5FEAC1
:10031000500C50F1000041EB045141EA050130BDA1
:100320005FEA4C0C404141EB0101013C28BFB1F5B3
:10033000801FE9D291F0000F04BF01460020B1FAFE
:1003400081F308BF2033A3F10B03B3F120020CDAD1
:100350000C3208DD02F1140CC2F10C0201FA0CF0AF
:1003600021FA02F10CE002F11402D8BFC2F1200C14
:1003700001FA02F120FA0CFCDCBF41EA0C019040CA
:10038000E41AA2BF01EB0451294330BD6FEA040413
:100390001F3C1CDA0C340EDC04F11404C4F12002FE
:1003A00020FA04F001FA02F340EA030021FA04F310
:1003B00045EA030130BDC4F10C04C4F1200220FA67
:1003C00002F001FA04F340EA0300294630BD21FAA5
:1003D00004F0294630BD94F0000F83F4801306BF6B
:1003E00081F480110134013D4EE77FEA645C18BF5F
:1003F0007FEA655C29D094EA050F08BF90EA020FF6
:1004000005D054EA000C04BF1946104630BD91EAED
:10041000030F1EBF0021002030BD5FEA545C05D1F0
:100420004000494128BF41F0004130BD14F580042F
:100430003CBF01F5801130BD01F0004545F0FE41A3
:1004400041F470014FF0000030BD7FEA645C1ABFD8
:10045000194610467FEA655C1CBF0B46024650EA0F
:10046000013406BF52EA033591EA030F41F400213B
:1004700030BD00BF90F0000F04BF0021704730B5C1
:100480004FF4806404F132044FF000054FF0000196
:1004900050E700BF90F0000F04BF0021704730B557
:1004A0004FF4806404F1320410F0004548BF40422C
:1004B0004FF000013EE700BF42004FEAE2014FEA81
:1004C00031014FEA02701FBF12F07F4393F07F4F5C
:1004D00081F06051704732F07F4208BF704793F05F
:1004E0007F4F04BF41F40021704730B54FF4607472
:1004F00001F0004521F000411CE700BF50EA010275
:1005000008BF704730B54FF000050AE050EA01021D
:1005100008BF704730B511F0004502D5404261EB8D
:1005200041014FF4806404F132045FEA915C3FF4CE
:10053000D8AE4FF003025FEADC0C18BF03325FEA6B
:10054000DC0C18BF033202EBDC02C2F1200300FA1C
:1005500003FC20FA02F001FA03FE40EA0E0021FA41
:1005600002F11444BDE600BF70B54FF0FF0C4CF42F
:10057000E06C1CEA11541DBF1CEA135594EA0C0FE1
:1005800095EA0C0F00F0DEF82C4481EA030621EA1C
:100590004C5123EA4C5350EA013518BF52EA033557
:1005A00041F4801143F4801338D0A0FB02CE4FF009
:1005B0000005E1FB02E506F00042E0FB03E54FF039
:1005C0000006E1FB03569CF0000F18BF4EF0010E31
:1005D000A4F1FF04B6F5007F64F5407404D25FEA2D
:1005E0004E0E6D4146EB060642EAC62141EA5551E0
:1005F0004FEAC52040EA5E504FEACE2EB4F1FD0C22
:1006000088BFBCF5E06F1ED8BEF1004F08BF5FEA9F
:10061000500E50F1000041EB045170BD06F0004651
:1006200046EA010140EA020081EA0301B4EB5C04FE
:10063000C2BFD4EB0C0541EA045170BD41F48011F6
:100640004FF0000E013C00F3AB8014F1360FDEBF1B
:10065000002001F0004170BDC4F10004203C35DAF7
:100660000C341BDC04F11404C4F1200500FA05F37A
:1006700020FA04F001FA05F240EA020001F000421B
:1006800021F0004110EBD37021FA04F642EB060191
:100690005EEA430E08BF20EAD37070BDC4F10C04BB
:1006A000C4F1200500FA04F320FA05F001FA04F27F
:1006B00040EA020001F0004110EBD37041F100016B
:1006C0005EEA430E08BF20EAD37070BDC4F1200576
:1006D00000FA05F24EEA020E20FA04F301FA05F2DE
:1006E00043EA020321FA04F001F0004121FA04F286
:1006F00020EA020000EBD3705EEA430E08BF20EA56
:10070000D37070BD94F0000F0FD101F0004640008F
:1007100041EB010111F4801F08BF013CF7D041EA11
:10072000060195F0000F18BF704703F00046520015
:1007300043EB030313F4801F08BF013DF7D043EAE6
:100740000603704794EA0C0F0CEA135518BF95EA9C
:100750000C0F0CD050EA410618BF52EA4306D1D123
:1007600081EA030101F000414FF0000070BD50EA42
:10077000410606BF1046194652EA430619D094EACC
:100780000C0F02D150EA013613D195EA0C0F05D1B6
:1007900052EA03361CBF104619460AD181EA03010A
:1007A00001F0004141F0FE4141F470014FF00000C2
:1007B00070BD41F0FE4141F4780170BD70B54FF05D
:1007C000FF0C4CF4E06C1CEA11541DBF1CEA1355DD
:1007D00094EA0C0F95EA0C0F00F0A7F8A4EB0504BF
:1007E00081EA030E52EA03354FEA013100F08880B6
:1007F0004FEA03334FF0805545EA131343EA12637F
:100800004FEA022245EA111545EA10654FEA002633
:100810000EF000419D4208BF964244F1FD0404F5EC
:10082000407402D25B084FEA3202B61A65EB030548
:100830005B084FEA32024FF480104FF4002CB6EB05
:10084000020E75EB030E22BFB61A754640EA0C0085
:100850005B084FEA3202B6EB020E75EB030E22BFC5
:10086000B61A754640EA5C005B084FEA3202B6EB06
:10087000020E75EB030E22BFB61A754640EA9C00C5
:100880005B084FEA3202B6EB020E75EB030E22BF95
:10089000B61A754640EADC0055EA060E18D04FEA53
:1008A000051545EA16754FEA06164FEAC30343EAF3
:1008B00052734FEAC2025FEA1C1CC0D111F4801FC0
:1008C0000BD141EA00014FF000004FF0004CB6E7B9
:1008D00011F4801F04BF01430020B4F1FD0C88BF58
:1008E000BCF5E06F3FF6AFAEB5EB030C04BFB6EB63
:1008F000020C5FEA500C50F1000041EB045170BD56
:100900000EF0004E4EEA113114EB5C04C2BFD4EB82
:100910000C0541EA045170BD41F480114FF0000E06
:10092000013C90E645EA060E8DE60CEA135594EA82
:100930000C0F08BF95EA0C0F3FF43BAF94EA0C0F85
:100940000AD150EA01347FF434AF95EA0C0F7FF4FA
:1009500025AF104619462CE795EA0C0F06D152EA4E
:1009600003353FF4FDAE1046194622E750EA410632
:1009700018BF52EA43067FF4C5AE50EA41047FF443
:100980000DAF52EA43057FF4EBAE12E74FF0FF3CA8
:1009900006E000BF4FF0010C02E000BF4FF0010C79
:1009A0004DF804CD4FEA410C7FEA6C5C4FEA430CF2
:1009B00018BF7FEA6C5C1BD001B050EA410C0CBF41
:1009C00052EA430C91EA030F02BF90EA020F0020A3
:1009D000704710F1000F91EA030F58BF994208BF0A
:1009E00090422CBFD8176FEAE37040F001007047C7
:1009F0004FEA410C7FEA6C5C02D150EA013C07D11E
:100A00004FEA430C7FEA6C5CD6D152EA033CD3D068
:100A10005DF8040B704700BF8446104662468C4662
:100A20001946634600E000BF01B5FFF7B7FF002895
:100A300048BF10F1000F01BD4DF808EDFFF7F4FFBE
:100A40000CBF012000205DF808FB00BF4DF808ED49
:100A5000FFF7EAFF34BF012000205DF808FB00BF6C
:100A60004DF808EDFFF7E0FF94BF012000205DF88E
:100A700008FB00BF4DF808EDFFF7CEFF94BF012043
:100A800000205DF808FB00BF4DF808EDFFF7C4FF3C
:100A900034BF012000205DF808FB00BF4FEA410C85
:100AA0007FEA6C5C02D150EA013C0AD14FEA430C68
:100AB0007FEA6C5C02D152EA033C02D14FF00000A5
:100AC00070474FF0010070474A0011D212F5001232
:100AD00011D20DD56FF47873B3EB62520ED44FEA96
:100AE000C12343F0004343EA505323FA02F0704716
:100AF0004FF00000704750EA013002D14FF0FF3054
:100B000070474FF00000704753B94AB9002908BF39
:100B100000281CBF4FF0FF314FF0FF3000F06EB9DE
:100B2000ADF1080C6DE904CE00F006F8DDF804E044
:100B3000DDE9022304B070472DE9F047089D044623
:100B40008C46002B40F083808A42174647D9B2FA80
:100B500082F242B1C2F1200024FA00F091409740A5
:100B600040EA010C94404FEA1748230CBCFBF8F60E
:100B70001FFA87FE08FB16C143EA014306FB0EF18C
:100B8000994209D9FB1806F1FF3080F0198199428A
:100B900040F21681023E3B445B1AA4B2B3FBF8F06C
:100BA00008FB103344EA034400FB0EFEA64509D9B6
:100BB0003C1900F1FF3380F00581A64540F2028127
:100BC00002383C4440EA0640A4EB0E0400261DB166
:100BD000D4400023C5E900433146BDE8F08702B99F
:100BE000FFDEB2FA82F2002A50D1CB1B4FEA174E39
:100BF0001FFA87F80126B3FBFEFC210C0EFB1C3309
:100C000041EA034108FB0CF38B4207D979180CF138
:100C1000FF3002D28B4200F2E9808446C91AA3B2A7
:100C2000B1FBFEF00EFB101143EA014408FB00F893
:100C3000A04507D93C1900F1FF3302D2A04500F2CC
:100C4000D9801846A4EB080440EA0C40BFE78B4269
:100C500009D9002D00F0B1800026C5E90001304619
:100C60003146BDE8F087B3FA83F6002E4AD18B42B5
:100C700002D3824200F2B880841A61EB03010120A2
:100C80008C46002DA8D0C5E9004CA5E7C2F1200391
:100C900020FA03F6974001FA02F04FEA174ED940C6
:100CA0003043030CB1FBFEF61FFA87F80EFB16115A
:100CB00043EA014306FB08F1994204FA02F409D918
:100CC000FB1806F1FF3C80F08D80994240F28A804B
:100CD000023E3B445B1A81B2B3FBFEF00EFB1033C5
:100CE00041EA034100FB08F38B4207D9791800F170
:100CF000FF3C73D28B4271D902383944CB1A40EA97
:100D0000064678E7C6F1200C03FA06F422FA0CF343
:100D10001C4320FA0CF701FA06F34FEA144E21FAAD
:100D20000CF11F433B0CB1FBFEF91FFA84F80EFBDC
:100D3000191143EA014109FB08FA8A4502FA06F251
:100D400000FA06F308D9611809F1FF3048D28A4544
:100D500046D9A9F102092144A1EB0A01BFB2B1FBB6
:100D6000FEF00EFB101147EA014700FB08F8B845FA
:100D700007D9E71900F1FF312ED2B8452CD9023836
:100D8000274440EA0940A7EB0807A0FB02894F452A
:100D9000C64649461AD317D05DB1B3EB0E0267EBD6
:100DA000010707FA0CFCF2404CEA0202F740C5E9E1
:100DB000002700263146BDE8F0872E4628460BE77F
:100DC0000646E9E61846FDE64345E5D2B8EB020ED5
:100DD00069EB04010138DFE70846D2E760468DE79A
:100DE0008146B9E7664675E730464AE7ACF1020C42
:100DF000394413E702383C4424E700BF704700BF82
:100E000030B4394A394C13791169E05C4558ED0624
:100E100000EB010310D54358108813F4002F93689A
:100E20001ED0042523F8105013790420907103BBC1
:100E300020238B6001F11003196811F4907F0DD10C
:100E40001868118820F0010018605A68120C12040A
:100E50000A435A601A6842F001021A6030BC7047B7
:100E600003EB800304205880137904209071002B39
:100E7000DED0012B0ED0022B12D0032B1BD0042B63
:100E800014D0052B1DD0062B21D0072B25D0E35CD9
:100E90000B44D1E74FF400638B6001F12803CBE7EB
:100EA0004FF400138B6001F14003C5E72023CB60B2
:100EB00001F17003C0E74FF000638B6001F158034C
:100EC000BAE74FF40063CB6001F18803B4E74FF455
:100ED0000013CB6001F1A003AEE74FF00063CB60DD
:100EE00001F1B803A8E700BF30030020704C0008F0
:100EF000704700BFF0B43B4CC568A5426ED13A4C78
:100F0000012BE56025D03AB3A379082B19D0866868
:100F100002690788A660226190F804C084F804C0C2
:100F20008378A370EB6A0498278023F4700303434B
:100F30000129EB6203D0042921D002291AD0082309
:100F4000A371284B9A68D20703D49A6842F0010231
:100F50009A602548F0BC7047E379082BF1D0C3783C
:100F6000E370022903D16B6843F080036B600823B0
:100F7000E371E6E76B6843F020036B60DFE71B4B30
:100F8000A96813F80C30DFF868C0D01841F440713C
:100F9000A96006EB4701C0F808C00231C660082509
:100FA000D0F810C026F817500161D15806EB87061B
:100FB00041F480217580D1504168090C09040F4328
:100FC0004760D15841F01001D150D15841F004018F
:100FD000D150D15841F00101D150B0E70023DD607C
:100FE000FFDE00BF0022014030030020704C0008EB
:100FF0004C220140F8B5C36833B1012904464FD0F3
:10100000042903D0022926D00120F8BD996811F0E7
:10101000405FF9D101218171996841F08041996067
:10102000A379042BDDB2FBD13E4823792169C35C4F
:10103000CB58A16813F4002FA37858D010465A005B
:1010400003F0D8FDA278A368082123F81210082322
:10105000A3710020F8BD8379202B05D08379042B60
:1010600002D08379102BCFD12E4823792169C35C1C
:101070000826A671CD58A378A16815F4002546D19D
:1010800001335F0001EB43011046BA1E03F0B2FDCD
:10109000A178A268022303EB81032846D652F8BD4B
:1010A0009A6812F0405FAFD18279022A08D0827923
:1010B000042A05D08279082A02D01A689107A3D59C
:1010C0001A68920604D56FF0200110221960A271EF
:1010D000A279102A98D0A279082A0CBF01222022D6
:1010E000A2719A6842F080429A600020F8BD0133F4
:1010F0005E0001EB43011046B21E03F07BFDA178B8
:10110000A268022315FB01330821D1529FE7104644
:101110005A0003F06FFDA278A368002023F8126044
:10112000F8BD00BF704C0008C36810B49C68E407A9
:1011300003D59C6824F001049C605C68640603D5B8
:101140005C6824F040045C605C68640103D55C6802
:1011500024F080645C6092B1002202718270DC6ACB
:10116000826024F47004012902800261DC6203D0F1
:10117000022924D004290CD05DF8044B70470229C1
:10118000C270F9D15A685DF8044B22F080025A60AF
:1011900070471022116821F001011160116821F0DF
:1011A00004011160116821F0100111605168D140F3
:1011B000914051609A6822F440729A60DCE75A6864
:1011C0005DF8044B22F020025A60704710B5094CBC
:1011D00023785A1C227023B1074A2370012313601D
:1011E00010BD62B600F0E4F972B62378013B2370BB
:1011F00010BD00BFE8010020E4010020F8B5204C3C
:10120000204D002727702F7002F0BCFE01F044FE35
:1012100002F0FAF802F0D6F801F05AFF01F0D0FF20
:1012200002F01EF802F050F801F09EFE164B1E6808
:10123000376001F059FC72B69FED140A01F082FD8F
:101240003368B3FA83F35B092B7062B662B6104A57
:1012500006E03368003B18BF0123237023784BB9A5
:101260002B7803F0FF07002BF3D101F035FD72B6A8
:101270003846F8BD136823F001031360F0E700BFA0
:1012800045030020440300208C4C00086F12833A71
:1012900010E000E0000000009FED010B704700BF70
:1012A000000000000000F07F9FED010A704700BFC2
:1012B0000000807F000000009FED010B704700BF21
:1012C000000000000000F0FF9FED010A704700BF22
:1012D000000080FF000000009FED010B704700BF81
:1012E000000000000000F8FF9FED010A704700BFFA
:1012F0000000C0FF08B5FFF7EFFF0E4B83ED000BBA
:10130000FFF7F2FF0C4B83ED000AFFF7C5FF0B4B15
:1013100083ED000BFFF7C8FF094B83ED000AFFF7D1
:10132000CBFF084B83ED000BFFF7CEFF064B83EDA1
:10133000000A08BD58030020480300205003002085
:101340004C030020600300206803002038B50C4BDC
:1013500055EC104BD3E9000110EE102A2B46FFF795
:101360006BFB50B907492246D1E900012B46FFF734
:1013700063FB003818BF012038BD012038BD00BF15
:10138000500300206003002053EC102B06489843C4
:1013900001D000207047C3F3130151EA020314BFC8
:1013A00001200020704700BF0000F07F2DE9F84FBA
:1013B00055EC114B2DED028B11EE100A294600223F
:1013C000002357EC106BFFF737FBC8B30022002354
:1013D00030463946FFF730FB40B345EC184BB0EED2
:1013E000480AF0EE680ABDEC028BBDE8F88F45ECC8
:1013F000104BFFF7ABFF00284FD0002200232946F7
:101400002046FFF723FB0022B0F100084FF0000355
:101410003046394618BF4FF00108FFF717FB003878
:101420005FFA88F818BF01208045D6D147EC186BC9
:10143000B0EE480AF0EE680ABDEC028BBDE8F88F0A
:1014400047EC106BFFF7A0FF50B1554B93ED008BAD
:10145000B0EE480AF0EE680ABDEC028BBDE8F88FEA
:1014600045EC104BFFF790FF0028EED147EC106BD6
:10147000FFF76CFF0028E8D10022002330463946F0
:10148000FFF7DAFA0028B2D022462B4600200021CE
:10149000FFF794F941EC180BA1E745EC114B47EC31
:1014A000106B03F0F9F9002251EC100BB0EE408AFA
:1014B000F0EE608A0023FFF7BFFA8046B8F100081B
:1014C00051EC180B4FF000024FF0000318BF4FF023
:1014D0000108FFF7B1FAB0BB45EC104B03F058F927
:1014E000204653EC102B2946FFF7CEFA58B322467C
:1014F0002B4630463946FFF761F921F00049294B68
:10150000002249468046FEF779FE41EC100B03F0BD
:101510003FF9404653EC102B4946FEF76DFE0B4653
:10152000824623F0004B40461F4B00224946FFF7FE
:101530001BF802460B4650465946FFF7A5FAB0FA8B
:1015400080F84FEA5818B8F1000F08D02046294615
:1015500000220023FFF708F841EC180B3FE7304664
:10156000394600220023FFF771FA0022061E4FF0D1
:1015700000032046294618BF0126FFF767FA003806
:10158000F6B218BF012086423FF429AF51EC180B88
:1015900022462B46FEF732FE41EC180B1FE700BF38
:1015A000580300200000E03F0000B03C00000000B5
:1015B0002DE9F04FDFF830A00A4EDAF8A8862DEDBD
:1015C000088B404691B0FEF765FFD6E92623044616
:1015D0000D46FFF73BFA48B1B8F1000F06DBD6E93C
:1015E000226705E0000000201007002000260027E9
:1015F000DFF82CB3C649C74B0022D1E92401CBE95F
:10160000D467FEF7F9FD02460B4620462946FFF750
:1016100031FA002840F09C8208F101039AF8CF4685
:10162000CAF8A8360E2C03D80134E4B28AF8CF46A3
:101630009AF8CD36002B40F09D82B7480023002257
:10164000CBE9D223C0E90023012103238AF8CD1678
:101650008AF8CE36B14B93F81E31002B00F07F850F
:101660009AF8CC361E2B03D80133DBB28AF8CC367D
:101670009AF8CA26002A40F06D82DBF89033CBF846
:10168000942340F20121AAF8CA16CAF8AC36A4483D
:10169000A449A02200F1080403F0ACFADBE9000140
:1016A000CBE9D40104F19805F4E80223FEF7A6FD86
:1016B000AC42F9D1BAF8B03640F2FE729342CBE9AF
:1016C000D40103D801339BB2AAF8B0369AF8C626E3
:1016D000002A40F0F6849FED887B40F20123AAF8AF
:1016E000B026AAF8C636B0EE478AF0EE678A8E4B6F
:1016F000DAF8588603F14C0153F8042F8B429044DA
:10170000FAD19AED387B894F8DED027B55EC174B62
:1017100007F54676F7E8022320462946FEF76EFDD8
:10172000B74204460D46F5D145EC174B7B4B8BED8C
:10173000D67BD3F8203193ED007BB8F1000FCDE9D3
:1017400002458DED047B8BEDD47B80F20585784BD3
:101750007849794A03FB0813B2EBB30F34BF4FF05B
:10176000FF300020754A6A4F4FEAE87382FB082871
:10177000C3EBE8084044FEF78DFED7E90089D7E9BE
:101780002E23FFF71BF842464B46FEF7EDFE0446BC
:101790000D4645EC174BD7E930018BEDCA7B53EC76
:1017A000182BFFF753F9002800F0A5849BEDCE7BA2
:1017B000B0EE478AF0EE678A42464B4650A1D1E927
:1017C0000001FEF7FBFF2246804689462B4651EC7E
:1017D000180BFEF711FD02460B4640464946FEF740
:1017E000C3FE4B4F8046D7E9022389460020494972
:1017F000FEF7E4FF02460B4640464946FEF7B4FEBC
:10180000D7E93223FEF7B0FE002280468946002346
:10181000CDE90089FFF71AF918B197ED347B8DED0A
:10182000007BD6E90067DFF8188132463B46DDE9E8
:101830000001FEF7E1FCF8E80434254641EC180B02
:101840001C461A4630462B463946FEF7D5FCD8E9E9
:10185000008906460F4642464B4620462946FEF77B
:10186000CBFC374B364C93ED0A7B47EC1A6BB0EE52
:10187000479AF0EE679A53EC172B06460F46404600
:101880004946FEF7B9FCF4E9128947EC1B6B424666
:1018900006460F464B4651EC190B0994284CFEF7AF
:1018A000ABFCF4E91C2347EC196B06460F46404697
:1018B00049460A94FEF7A0FCB046B94606460F46D4
:1018C000002251EC180B002334463D46FFF7BEF8CA
:1018D000002840F0398451EC180B00220023FFF758
:1018E000D3F8002800F02D859FED077BB0EE478AE6
:1018F000F0EE678A26E000BF000000000000000054
:10190000182D4454FB211940000000000000F03F56
:10191000000000200000F03F600D0020F0010020DA
:101920007003002050070020680D0020F8070020F9
:10193000CDCCCCCC98999919CCCCCC0C676666668A
:10194000180B00200026002751EC1A0B32463B46AC
:10195000FFF77CF8002840F0F08351EC1A0B324678
:101960003B46FFF791F8002800F0DC848C4F0026FE
:10197000CBE9DA6747EC1A6B0026002751EC1B0B0A
:1019800032463B46FFF762F8002840F0CF8351EC27
:101990001B0B32463B46FFF777F8002800F0EF8438
:1019A0007F4F0026CBE9DC6747EC1B6B0026002746
:1019B00051EC190B32463B46FFF748F8002840F03F
:1019C000AE8351EC190B32463B46FFF75DF8002819
:1019D00000F0C784724F0026CBE9DE6747EC196B35
:1019E000002600274046494632463B46FFF72EF880
:1019F000002840F08F8332463B4640464946FFF779
:101A000043F8002800F0D484654F0026CBE9E06756
:101A10004FF000084FF000092046294642464B4649
:101A2000FFF714F8002840F06E8342464B462046EC
:101A30002946FFF729F8002800F0AF84DFF860910D
:101A40004FF00008CBE9E289564B51EC180B1C46CD
:101A5000D3E93823FEF788FDD4E93C230D4604463C
:101A600051EC1A0BFEF780FD02460B462046294634
:101A7000FEF7C4FB53EC1B2BFEF7C0FB53EC192BFA
:101A8000FEF7BCFB32463B46FEF7B8FB42464B46F0
:101A9000FEF7B4FB06460F46434B0022DDE9020188
:101AA000CBE9D867FEF78AFE3E4BD3E94623FEF723
:101AB0005BFD3C4B04460D46D3E90423CBE9D645F8
:101AC00030463946FEF7D6FF002850D0354B204629
:101AD000D3E906232946FEF7CDFF002847D001238E
:101AE0000B93984630462F4E3946D6E90823FEF729
:101AF000B7FF00285AD0D6E90A2320462946FEF728
:101B0000AFFF002852D000238AF8B436B8F1000F96
:101B100000F0688447464FF0010901239AF8B56642
:101B200008939AF8C836B6FA86F67609002B50D094
:101B30009AF8C936013B072B00F29682DFE813F0D2
:101B40002D0594021E059402F2049402940294025C
:101B5000002363E59AF8CB26013A042A00F2A9870C
:101B6000DFE812F07D04C104B104A00491040B90DD
:101B70008046B7E79AF8CE36022B00F08E85032B0D
:101B800000F07D85012B00F06585092C7FF662ADA4
:101B9000034900200123CBE9D201AAF8CE3659E54A
:101BA0000000F03F00000020000059409AF8B29673
:101BB000B9F1000F00F0758201234FF000098AF897
:101BC000B4364F46002308931E469AF8C836002BB9
:101BD000AED1AB49002200230846E0E80C23CBE954
:101BE000D023C0E90023C1E90423C1E90623C1E9E8
:101BF0000823C1E90A2340F20134AAF8C8469AF83A
:101C0000B736002B00F03B829E4B93ED187B8DED99
:101C1000027B9D4B06939AF8D036002B40F014823D
:101C200000200021CBE9D40140F20123AAF8D036EC
:101C3000B8F1000F40F0E781DAF8BC3613F0FF1F6F
:101C400000F0E18101238AF8BE369AF8C136CDF85A
:101C500030804646002B00F0E1818A4B93ED167BE5
:101C60008DED047B894B0793002E00F0B3819AF829
:101C7000BF36002B40F0AE819AF8D236002B00F030
:101C8000AE819AF8D336012B00F080859DED047B60
:101C90008BEDD47B01238AF8D336B8F1000F40F0E6
:101CA000AA81B9F1000F40F035830023C8460D9397
:101CB000DDE900670A9B3046D3E900233946FEF789
:101CC0009BFACDE9006732466E4E04460D463B4610
:101CD000D6E90C01CBE9CC45FEF7B8FE6C4C0028E8
:101CE00015BF4023002300214FF48001A361DDE9EB
:101CF0000023A161D6E90E01FEF7A8FE3546DDE915
:101D00000067002815BF2023002300214FF4001195
:101D1000A36132463B46A161D5E91001FEF796FE6C
:101D2000002815BF1023002300214FF48011A36168
:101D300032463B46A161D5E91201FEF787FE002835
:101D400015BF0823002300214FF400213246A36170
:101D50003B46A161D5E91401FEF778FEDBF8943328
:101D6000002815BF0421002100224FF48022A16128
:101D7000A261002B40F064814FF00071444CCBF81D
:101D800020430022A3610023A161DBE9D201FEF719
:101D900053FE00280BBF4FF48072002200234FF047
:101DA0008073A2610421A361DAF81400ABF8241354
:101DB0000DF13E02FFF71EF9364BBDF83E5093F889
:101DC0001E31CBF898539BB9DAE90823DAE90A0106
:101DD000CAE90623DAE90C23CAE90801CAE90A2399
:101DE000DAE90E01DBE9D023CAE90C01CAE90E23C6
:101DF000294C98222146A4F1080002F009FF04F2C0
:101E0000146104F5C2604C2202F002FFDBE9CA67EC
:101E100004F1A00104F198004FF44672CAE9366754
:101E2000CAF8A45602F0F4FED4E9F267C4E9F067F8
:101E3000D4E9F667C4E9F467D4E9F867C4E9F6675A
:101E4000D4E9FC67C4E9FA67D4E9FE6704F5806366
:101E5000C4E9FC67D3E900679DED007B04F582616E
:101E6000C4E9FE67D1E90067099804F5836283ED50
:101E7000007B84EDEE7B84EDF27B84EDF87B0DE05E
:101E8000280D002000000020180D0020200D00204B
:101E900000100240F00100205807002092ED007B66
:101EA000C0E90067DBE9CC6704F5846504F5856368
:101EB00081ED007BD5E900019DED007BCAE9FE675D
:101EC000D3E90067C2E9000104F5876104F5866083
:101ED0004FF4C472C5E9006783ED007B02F098FE01
:101EE0009DED007B04F5B76383ED007B9DED027BE8
:101EF000069B9AF8B3069AF8B6169AF8C0E69AF8CE
:101F0000B8C69AF8BD269AF8C2769AF8C3569AF8D7
:101F1000B9669AF8BA468AF8B20683ED007B0B9848
:101F20000C9B8AF8B51608998AF8BFE68AF8B7C6F6
:101F30008AF8B3068AF8B6169AF8C4069AF8BB1659
:101F40008AF8BC268AF8C0369AF8C5268AF8C2569E
:101F50008AF8BD968AF8C1768AF8B8668AF8B946D2
:101F60009DED047B0D9B8AF8BB36079B8AF8C30660
:101F700083ED007BA64B8AF8C426D3F808018AF8C3
:101F8000BA1601308AF8C586C3F808011D46D3F891
:101F90002041FEF76FFA02460B46D5E94401FEF7F1
:101FA000E3FAC4E9000195F81E31D5F81821013390
:101FB000DBB2632B02F10102C5F8182189BF944AF4
:101FC00085F81E31002382F81E3111B0BDEC088B5C
:101FD000BDE8F08F9AF8D236002B7FF45EAE002079
:101FE000002140F20123CBE9D401AAF8D236B8F19E
:101FF000000F3FF456AE002F00F08F814FF0000825
:10200000CDF8348054E600238AF8BE36FBB20C9338
:102010009AF8C1363E46002B7FF41FAE7D4B0793E6
:10202000D3E90045DDE9002320462946FEF718FDE7
:10203000002800F0F3829DED007B8DED047B13E61C
:1020400000214FF4007399E69AF8D136012B00F085
:10205000DC82002E3FF4ECAD9DED027B01238BED85
:10206000D47B8AF8D136E3E5002E7FF4C8AD052392
:102070008AF8C9369AF8B736002B7FF4C5AD664B9F
:102080000693D3E90045DDE9002320462946FEF703
:10209000F1FC002800F0D0829DED007B8DED027BED
:1020A000B9E59AF8B4361A1E18BF01228AF8B42688
:1020B000B8F1000F00F02C814F46002B7FF482AD69
:1020C0002BE59AF8C726012A00F09782B3F5FA6F3C
:1020D000C0F079810124514B8AF8C7460022FEF7EF
:1020E0006DFB9FED457BCBE9CE01B0EE478AF0EE6C
:1020F000678AFFF7FCBA45EC174BB0EE478AF0EE63
:10210000678AFFF759BBDFF818914FF00008CBE959
:10211000E28999E4424F0026CBE9E06778E4404F3A
:102120000026CBE9DE6747EC196B59E43C4F0026EB
:10213000CBE9DC6747EC1B6B38E4394F0026CBE971
:10214000DA6747EC1A6B17E49FED2D7BB0EE478AF8
:10215000F0EE678AFFF7F6BB0020FFF703BBDAE972
:102160000823DAE90601FEF749F8DAE90A23FEF75F
:1021700045F8DAE90C23FEF741F8DAE90E23FEF719
:102180003DF80022274BFEF719FB274B41EC100BC3
:1021900093ED2A1BCBE9D801FFF708F9DBE9D80159
:1021A00053EC102B8BEDD60BFEF726F816A3D3E9D4
:1021B0000023FEF7D9F941EC100B02F0E9FA8BEDA0
:1021C000D80BFFF7E1F8002800F09C8200240025DE
:1021D000CBE9D84520462946FEF776FC09282AD8BF
:1021E000DFE810F0700376037C0382034C03520394
:1021F00058035E0364032400000000000000F03F69
:10220000000000000000F0BF7B14AE47E17A843F7D
:10221000F0010020200D0020180D002000003440A7
:102220000000F0BF0000144000000020BA4B93F8FB
:1022300047318BF89C33B84B9BEDD60B93ED2C1BA1
:10224000FFF7B4F8DBE9D60153EC102B8BEDDA0B7A
:10225000FDF7D2FFACA3D3E90023FEF785F941ECEB
:10226000100B02F095FA8BEDD80BFFF78DF80028D4
:1022700000F028820024002520462946FEF724FC91
:10228000092810D8DFE810F0180336033C03420396
:1022900048034E0354035A0360030A009E4B93F80D
:1022A0003D318BF89D33DBE9DA45002200232046DF
:1022B0002946FEF7CBFB45EC104B002840F08B8005
:1022C00002F066FAB0EE407AF0EE607AB0EE470ABD
:1022D000F0EE670A8BEDD87BFFF756F8002800F088
:1022E000338200240025CBE9D84520462946FEF755
:1022F000EBFB092800F2DA83DFE810F0BA0299025A
:1023000093028D02870281027B0275026F025E02D8
:10231000474657E4002F7FF4C8AC012388F001083A
:102320000D93C5E451EC1A0B32463B46FEF784FB95
:10233000002800F08980CBE9DA6747EC1A6BFFF7D9
:102340001BBB51EC180B00220023FEF775FB002885
:1023500071D09FED6F7BB0EE478AF0EE678AFFF792
:10236000F1BA51EC190B32463B46FEF765FB0028EB
:1023700056D0CBE9DE6747EC196BFFF731BB51EC68
:102380001B0B32463B46FEF757FB00283DD0CBE9FE
:10239000DC6747EC1B6BFFF709BB2046294642462A
:1023A0004B46FEF749FB48B3CBE9E289FFF74CBB4C
:1023B0004046494632463B46FEF73EFBB8B1CBE9C4
:1023C000E067FFF725BB9FED527BB0EE478AF0EE4A
:1023D000678AFFF78CB902F05BF9B0EE407AF0EE55
:1023E000607A73E74FF001094F46FFF7EBBB4B4BA9
:1023F000D3E90067CBE9E067FFF70ABB474BD3E9B6
:102400000089CBE9E289FFF71FBB444B93ED007BCA
:102410008BEDDC7BB0EE47BAF0EE67BAFFF7C6BAD9
:102420003E4B93ED007B8BEDDE7BB0EE479AF0EEFA
:10243000679AFFF7D5BA394B93ED007BB0EE478A28
:10244000F0EE678AFFF77EBA344B93ED007B8BED9D
:10245000DA7BB0EE47AAF0EE67AAFFF78DBADAF89A
:10246000AC26002A00F0A181092B7FF610A902F00A
:10247000010203210023CBF894238AF8CB168AF8B3
:10248000CC36FFF704B9092B7FF601A902230022FD
:102490008AF8CB36DBF89033CBF89423CAF8AC3605
:1024A000FFF7F5B8132B7FF6F2A8DAF8AC3603F095
:1024B00001030322CBF8943300238AF8CB268AF851
:1024C000CC36FFF7E4B8092B7FF6E1A8DAF8AC3692
:1024D0005B080122CAF8AC3600238AF8CB268AF8BA
:1024E000CC36FFF7D4B8DBE9D4010D4B0022FEF760
:1024F000A3FA00283FF4CBA8062200238AF8CB26B3
:102500008AF8CC36FFF7C3B89A9999999999B93F47
:102510000000000000000000000000205803002020
:102520000000F03F002E40F01E82C94CDDE904019E
:10253000D4E90023FDF760FEC64B0022FEF7A4FAA3
:1025400000283FF45CABA4F108030293C2490022C7
:102550000023084660E80823C0E90023029803240A
:10256000C0E90023CBE9D02341E9062341E9042354
:1025700041E902238AF8C946FFF741BB002E3FF428
:102580003EABDDE90401B44B63E80A010922C3E96B
:1025900000018AF8C926FFF732BBB04C0022D4E90B
:1025A00000010023FEF748FA002840F0D3812546B9
:1025B000F5E9020100220023FEF73EFA002840F070
:1025C00019822546F5E9040100220023FEF734FABA
:1025D000002840F0FD81F4E9060100220023FEF707
:1025E0002BFA002800F0F4819DED047B022384ED9A
:1025F000007B8AF8C936FFF702BB9FED917BB0EEF6
:10260000478AF0EE678AFFF772B8002E3FF410ABEE
:102610009DED027B8BEDD47BFFF70ABB45EC104BA5
:10262000FEF7B2FE00287FF406AD079B93ED007B1A
:102630008DED047BFFF718BB45EC104BFEF7A4FEB5
:1026400000287FF429AD069B93ED007B8DED027B86
:10265000FFF7E1BA092C7EF6FDAF814C0022002382
:102660000225CBE9D223D4E900017E4BAAF8CE564D
:102670000022FDF7C3FDC4E90001FEF7EBBF794B73
:10268000304639460022FEF7D7F9002800F0848052
:102690000423AAF8CE36FEF7DDBF714D724BD5E9A3
:1026A00000010022FEF7C8F900283FF46EAA0022BC
:1026B00000230321C5E90023CBE9D2238AF8CE16F3
:1026C000FEF7C8BF9BEDD80BFEF740FE00287FF455
:1026D000D1AD9FED5D1B9BEDD80B02F0DDF855EC05
:1026E000104B10EE100A002200232946FEF7AEF927
:1026F00000283FF4C1AD204605F10041FEF7E4F9A2
:102700004042BDE59BEDD80BFEF720FE00287FF48C
:102710005DAD9FED4D1B9BEDD80B02F0BDF855EC68
:10272000104B8BEDD80B10EE100A00220023294627
:10273000FEF78CF900283FF44DAD204605F100412D
:10274000FEF7C2F9404249E59BEDD80BFEF7FEFDCE
:1027500000287FF4C6AD9FED3C1B9BEDD80B02F02B
:102760009BF855EC104B8BEDD80B10EE100A0022A5
:1027700000232946FEF76AF900283FF4B6AD20464B
:1027800005F10041FEF7A0F94042B2E59DED047B62
:102790008BEDD47BFFF781BA314900220023CBE9CE
:1027A000D223C1E90023FEF755BF05238AF8CC26C2
:1027B0008AF8CB36FEF76BBF2C4B93F833318BF88E
:1027C0009E339BF89D139BF89C2302EB012202EBA6
:1027D0000343CBF89033FEF743BF244B93F83431D7
:1027E0008BF89E33EDE7214B93F835318BF89E3310
:1027F000E7E71E4B93F836318BF89E33E1E71B4B2E
:1028000093F837318BF89E33DBE7184B93F8383168
:102810008BF89E33D5E7154B93F839318BF89E33FF
:10282000CFE7124B93F83A318BF89E33C9E70F4B41
:1028300093F83B318BF89E33C3E700BFAFF30080C2
:10284000000000000000F03F000000000000F04128
:10285000300D002000001040580D0020380D0020E1
:10286000600D00200000F03F00004240000000200A
:10287000974B93F83C318BF89E33A2E7944B93F837
:102880004C318BF89C33D6E4914B93F84B318BF859
:102890009C33D0E48E4B93F84A318BF89C33CAE4D6
:1028A0008B4B93F849318BF89C33C4E4884B93F8F5
:1028B00048318BF89C33BEE4854B93F846318BF856
:1028C0009D33F0E4824B93F850318BF89C33B2E4A3
:1028D0007F4B93F84F318BF89C33ACE47C4B93F8EF
:1028E0004E318BF89C33A6E4794B93F84D318BF83D
:1028F0009C33A0E4764B93F845318BF89D33D2E4BA
:10290000734B93F844318BF89D33CCE4704B93F8C0
:1029100043318BF89D33C6E46D4B93F842318BF80D
:102920009D33C0E46A4B93F841318BF89D33BAE490
:10293000674B93F840318BF89D33B4E4644B93F8C4
:102940003F318BF89D33AEE4614B93F83E318BF809
:102950009D33A8E49DED047B042384ED007B8AF87D
:10296000C936FFF74CB95B4B0293D3E9004500220F
:10297000594B20462946FEF773F8002843D02046DD
:102980000124564B8AF8C94629460022FDF736FC39
:10299000029D02462C460B46E4E802239DED047B93
:1029A0004F4B84ED007B0022FDF7DEFDD5E90C23C3
:1029B00004460D46DDE90401FDF71EFC02460B4608
:1029C00020462946FDF7FAFECBE9D001FFF717B9FB
:1029D000D5E9000100220023FEF72EF800283FF47D
:1029E0000EA99DED047B072385ED007B8AF8C9368F
:1029F000FFF705B99DED047B082385ED007B8AF880
:102A0000C936FFF7FCB8029B1946F1E9022307918A
:102A1000DDE90401FDF7F0FB324B0022FEF734F84C
:102A200000287FF493AD2C4B002220462946FEF768
:102A30002BF800283FF4E3A820460624284B8AF808
:102A4000C94629460022FDF78FFD029B0D46194617
:102A5000F1E90C2304460691DDE90401FDF7CCFB06
:102A60000B46024629462046FDF7A8FE9DED047B55
:102A7000029CCBE9D001079994ED045B81ED007BCA
:102A800094ED087B0699234694ED066B81ED005B7F
:102A900084ED067BF3E90A019DED047B84ED046B74
:102AA000C4E9080183ED007BFFF7A9B89BF89E33CA
:102AB00087E6042B7EF6EBAD042300228AF8CB36A2
:102AC00001238AF8CC26CBF89433FEF7E0BD00BF93
:102AD00000000020280D0020000008400000F03F0A
:102AE00000004E40000010402DE9F04F6E4D6F4C3D
:102AF000082089B0FEF7FEFB69A7D7E90067D5E992
:102B00001A016B4BDFF8CCC1C3F8D03003F59072DB
:102B1000C4E90601C4E90801C4E90A01C4E90C01D9
:102B2000C4E90E01C3E9446703F21F1103F588707D
:102B3000D5E91C67C3E90231C3F88420012103F5FC
:102B400094729862D5F8800083F81F11C3F8202191
:102B5000C3F814C004F2546204F1400304F1E0012C
:102B6000E3E80267994242F8040FF9D1514BD5E9E5
:102B70001E0103F54872E3E802019A42FBD14E4977
:102B8000D5E93A670B46E3E80267D5E93EABD5E9FC
:102B90004089C3E90067D5E94267C1E904ABC1E9EF
:102BA00006ABC1E908ABD5E936ABC1E91267C1E9AB
:102BB0001467C1E91667C1E91867C1E91A67C1E975
:102BC0000A89C1E90C89C1E90E89C1E91089D5E9F1
:102BD0004467C2E900AB01F1700301F50072E3E85C
:102BE00002679A42FBD1D5E9180195F8293195F889
:102BF0002F6184F8B436C2E9000195F8283195F8C0
:102C00002A2195F82C0195F82D1184F8B23684F814
:102C1000B33684F8B52695F82E3184F8B62684F8B4
:102C2000BE1684F8BC0695F82B1184F8BD06052263
:102C3000224884F8BF3684F8C03602F003F83146E3
:102C400005221F4E1F4801F0FDFFB5F83031A6F8F0
:102C50009C33D5E916231C4995F832710020009069
:102C60000125C1E9002386F89E7304232070207299
:102C70008DF81000154E16480796A1F206610591D1
:102C800006902A4619464FF0011603A86560039680
:102C9000FEF730F92572606109B0BDE8F08F00BF22
:102CA000FCA9F1D24D62503F000000201007002027
:102CB000F0010020F0070020180B0020C70D0020B5
:102CC00070030020D10D0020200D00200064024080
:102CD00000220140784C0008074B1A7822B95A6844
:102CE00001218A42197000D07047197A0029FBD05F
:102CF00058690421FEF718BA1007002008B5BFF381
:102D00004F8FBFF36F8F094A0949136809688B42D7
:102D100006D30123136072B6FEF758FA62B608BDF7
:102D2000591C1160002BF6D008BD00BFEC0D00202F
:102D3000E80D0020024A536843F080535360704707
:102D400000ED00E0254BD3ED007AF8EE677A10B481
:102D500027EE800AFCEEC07A17EE903AB3F1807F3E
:102D60002AD3F8EE676A9FED1E7A1E49C6EE877A6F
:102D7000FCEEE77A17EE902A0132B3FBF2F3013B47
:102D8000B3F1807F0A6009D2174A18485360F024D3
:102D90000021072380F8234091601360144A134BED
:102DA000144815491060F02200200860DA7783F893
:102DB00022205DF8044B70470A49013B0022B3F121
:102DC000807F0A60EAD2084908484B60F024072354
:102DD00080F823408A600B60E0E700BF5C010020C0
:102DE000FFFF7F4BE80D002010E000E000ED00E069
:102DF000F00D0020FD2C0008EC0D0020EFF300800A
:102E000001B5EFF3118003B41EF0100F08BFB0EE50
:102E1000400A0A48006803B488B004A006904FF046
:102E2000807007906FF006008646704703BC8047AD
:102E3000BFF36F8F00DFFEE700BF0000F00D002042
:102E40001EF0100F08BFB0EE400A1EF0040F0CBFBA
:102E5000EFF30880EFF30980816911F8020C10B1DB
:102E600001280DD00BE01EF0100F0CBF1AB008B0F7
:102E700003BC80F3118803BC80F300880847FEE799
:102E80004EF61451CEF200010A6842F001020A60C7
:102E90007047F4E700BF00BF2D4B1A6822F00F0205
:102EA00042F0050210B51A601A6802F00F02052AF6
:102EB000FAD1284A284B116841F440411160116849
:102EC00021F4803111601A6842F480321A601A6865
:102ED0009203FCD55C68214821491F4A20400143E8
:102EE0005960596821F440315960196841F0807186
:102EF000196013689B01FCD59368174C23F0F0030D
:102F00009360936823F4E05343F4A0539360936871
:102F100023F4604343F400439360936823F0030376
:102F200043F002039360A36803F00C03082BFAD16B
:102F30000C4800F037FF002000F080FD08B172B6A9
:102F4000FEE7D4F88C3023F08073C4F88C3010BDC9
:102F5000003C024000700040003802400080BFFF8B
:102F6000042A4000007A030AF0B5002397B0CDE9A7
:102F70001333CDE90233CDE90B33CDE90D33CDE980
:102F800007334D4A04930A930693129309931593BA
:102F9000516C4A484A4C41F480615164516C01F4CF
:102FA000806101910199116B41F020011163126B55
:102FB000149302F0200200920323202210A9CDE9ED
:102FC0001023009D00F07AFD3E4B1A6822F06062EB
:102FD00042F080621A601A6822F0C0021A601A6811
:102FE00022F440321A601A6822F4907242F480721D
:102FF0001A601A6822F400721A601A6842F4806239
:103000001A601A6822F4C05242F400621A601A6808
:1030100022F4C04242F400521A605A6922F00402BB
:103020005A610026002702A94FF480752046CDE999
:103030000267049500F02AFE0AA92046CDE90A6736
:10304000CDE90C670E9500F03BFEA3681E4843F4E3
:103050008063A36006A94FF44033069300F0E6FDB9
:103060004FF44073194A93FAA3F33BB1B3FA83F3D5
:103070004FF4007121FA03F302EB83021368104945
:1030800023F01F0343F00F031360CA684FF0F87377
:1030900093FAA3F363B1B3FA83F34FF47001D94009
:1030A00007238B40DB4306491340CB6017B0F0BDCC
:1030B0006FF00703F7E700BF00380240001402403A
:1030C0000022014010640240002301402C220140F4
:1030D0002DE9F043354D364C93B00AA8202200214B
:1030E00001F0B0FD2B6B334843F004032B632B6BD3
:1030F00003F004030393039B2B6B43F001032B6347
:103100002B6B03F001030293029E04A94FF400729B
:1031100002234FF000084FF0010901260427CDE9F2
:103120000423CDE90689CDE9086700F0C7FC04A9AE
:103130004FF4807202232048CDE90689CDE9086763
:10314000CDE9042300F0BAFC2B6CDFF8709043F457
:1031500000032B642B6C03F400030193019BE368D1
:1031600023F00103E360236823F040032360236816
:1031700023F080032360002200230AA920464FF099
:1031800000084FF480664FF48047CDE90C23CDE969
:103190000E23CDE90A89CDE9106700F019FFE36835
:1031A00023F0FE03E36013B0BDE8F0830038024073
:1031B000005C00400008024000000240A0860100C0
:1031C000D0B592B008A82822002101F03BFD214B88
:1031D00021485A6C214C42F480125A645A6C02F411
:1031E00080120192019A1A6B42F020021A631B6B43
:1031F00003F0200300934FF460720223CDE9022311
:103200000099002600270022052302A9CDE9062304
:10321000CDE9046700F052FC00224FF48273CDE93F
:10322000082300224FF40073CDE90C231822002359
:10323000CDE90E2308A900220A232046CDE9102358
:10324000CDE90A6700F04AFF636823F0100363606A
:1032500012B0D0BD003802400014024000500140BE
:1032600030B587B00023164AADF80630516C154CC6
:1032700041F001015164526CADF8043002F00102DA
:10328000009220464FF6FF7201A9CDE90433029364
:10329000009D039201F0DAF8236823F08003236095
:1032A000A36823F4804323F00703A360636823F03B
:1032B00070036360A36823F08003A36007B030BD90
:1032C000003802400000014030B5002491B0CDE943
:1032D0000844CDE90A44CDE90C44364B0E945A6CAF
:1032E0003548364D42F010025A645A6C02F0100212
:1032F0000192019A1A6B42F001021A631B6B03F0F0
:10330000010300934FF4C0620223CDE9022303229C
:103310000023CDE9042300990022072302A9CDE967
:10332000062300F0CBFB264B1A6822F0606242F0C5
:1033300000621A601A6822F0C0021A601A6822F449
:1033400040321A601A6822F490721A601A6822F4E5
:1033500000721A601A6842F480621A601A6822F4D5
:10336000C0521A601A6822F4C0421A605A6922F0E8
:1033700004025A614FF4E1320023CDE90823002210
:103380000023CDE90A2308A90C2200232846CDE911
:103390000C230E9401F0B6F82B6923F490432B61B3
:1033A0006B6923F02A036B61EB6843F40053EB6015
:1033B00011B030BD00380240000002400010014052
:1033C000406402400D4A0E48116B0E4B41F48001DF
:1033D0001163126B82B002F4800201920022019903
:1033E000C16883F838234FF080715960C16883F851
:1033F0003A234FF080625A6002B0704700380240B2
:1034000000ED00E000E100E02DE9F04F2DED048B30
:103410004FF0000993B0CDE90A99D94BCDF844900B
:103420001A6B9FEDD89A9FEDD88AD84EDFEDD89AC7
:10343000DFEDD88A42F010021A631A6B02F0100214
:103440000992099A1A6B42F004021A631A6B02F08D
:1034500004020892089A1A6B42F020021A631A6B4F
:1034600002F020020792079A1A6B42F080021A6358
:103470001A6B02F080020692069A1A6B42F0010261
:103480001A631A6B02F001020592059A1A6B42F058
:1034900002021A631A6B02F002020492049A1A6B77
:1034A00042F040021A631A6B02F040020392039A40
:1034B0001A6B42F008021A631B6B03F008030293B5
:1034C000029819EE100A4FF05F714FF4B01281614B
:1034D00018EE104AB26119EE902A4FF05C5E4FF47C
:1034E00000039361C4F818E018EE904A4FF0C04C06
:1034F000C4F818C04FF45F72012300274FF0000892
:103500000CA9CDE90C23CDE90E78CDF8409000F060
:10351000D5FA4FF61F020223CDE90C230324002223
:103520000C2300250CA99C4892469B46CDE90E45EC
:10353000CDE9102300F0C2FA4FF480620223CDE9F6
:103540000C230CA900220E239348CDE90E78CDE977
:1035500010231746984600F0B1FACDE90E45012236
:10356000022354465D460CA93046CDE91045CDE90D
:103570000C23002400F0A2FA0025162201230CA936
:103580003046CDE90E45CDE90C23CDF8409000F052
:1035900095FACDE90E4541F6580202233C464546D0
:1035A0000CA919EE900ACDE91045CDE90C230024B1
:1035B00000F084FA0025802201230CA919EE900A5C
:1035C000CDE90E45CDE90C23CDF8409000F076FA18
:1035D00003220223CDE90E45CDE90C230CA90023DB
:1035E00009246E48CDE91034002500F067FA032461
:1035F000042200230CA96948CDF84090CDE90C23A2
:1036000000F05CFACDE90E4548F23312022354462D
:103610005D460CA918EE900A5746D846CDE91045EC
:10362000CDE90C23032400F049FA00254FF683422C
:1036300002230CA919EE100A4FF0000A4FF00E0BEE
:10364000CDE90E45CDE90C2300240025CDE9107805
:1036500000F034FA4FF4706202230CA94F48CDE910
:103660000E45CDE910ABCDE90C2300F027FA4FF45D
:10367000504202230CA94948CDE90E45CDE90C235F
:10368000CDE9107800F01AFA4FF4005200230CA98B
:103690004248CDF84090CDE90C2300F00FFA4FF4EA
:1036A0005C5201230CA918EE100ACDE90E45CDE9B4
:1036B0000C23CDF8409000F001FA4FF40062002393
:1036C0000CA918EE100ACDE90C2303240025CDF82F
:1036D000409000F0F3F94CF2030202230CA918EE1B
:1036E000100ACDE90045CDE90E45CDE90C230024B3
:1036F0000025CDE9107800F0E1F94FF40C620223C7
:103700000CA918EE900ACDE910ABCDE90C23CDE958
:103710000E4500F0D3F94FF4986202230CA930460D
:10372000CDE910ABCDE90C23CDE90E4500F0C6F98B
:10373000CDE910AB482202230CA94FF0000A4FF04C
:10374000090B18EE100ACDE90C23CDE90E4500F067
:10375000B5F9CDE910AB4FF4A0520223A246AB4617
:103760000CA918EE900ACDE90C23CDE90EAB00F0C0
:10377000A5F94FF4C04201230CA918EE900A0FE0FE
:103780000038024000100240000C024000080240D5
:1037900000000240001802400014024000040240F1
:1037A000CDE90C23CDE90EABCDF8409000F086F9C1
:1037B000DDE90045602202237D480CA9CDE90C23F8
:1037C000CDE90E45CDE9107800F078F9794B9A688B
:1037D00022F00F029A609A6822F0F0029A609A68CA
:1037E00022F470629A60DA68F02322F0F00293FA11
:1037F000A3F32BB1B3FA83F3022101FA03F31A43C3
:103800006C4BDA605A6922F470425A61012440F22A
:1038100001150AA80A948DF82E40ADF82C5000F03E
:10382000C7FA02230AA88DF82E400A93ADF82C504F
:1038300000F0BEFA04230AA88DF82E400A93ADF8D2
:103840002C5000F0B5FA20230AA88DF82E400A93D8
:10385000ADF82C5000F0ACFA4FF400430AA88DF8F4
:103860002E400A93ADF82C5000F0A2FA94FAA4F47A
:10387000514BDB683CB1B4FA84F46400032202FAD1
:1038800004F423EA04034C4AD360D268022393FA77
:10389000A3F33BB1B3FA83F35B00032101FA03F313
:1038A00022EA0302444BDA60DA68042393FAA3F3B2
:1038B0003BB1B3FA83F35B00032101FA03F322EA7D
:1038C00003023D493D4BCA60DA68202393FAA3F313
:1038D0003BB1B3FA83F35B00032101FA03F322EA5D
:1038E00003023649344BCA60DA684FF4004393FA56
:1038F000A3F33BB1B3FA83F35B00032101FA03F3B3
:1039000022EA03022C4BDA601A68012393FAA3F32C
:103910003BB1B3FA83F35B00032101FA03F322EA1C
:103920000302254B1A601A68022393FAA3F33BB1F2
:10393000B3FA83F35B00032101FA03F322EA0302E3
:103940001D4B1A601A68042393FAA3F33BB1B3FA30
:1039500083F35B00032101FA03F322EA0302164911
:10396000164B0A601A68202393FAA3F33BB1B3FA0B
:1039700083F35B00032101FA03F322EA03020F49F8
:103980000D4B0A601A684FF4004393FAA3F33BB15E
:10399000B3FA83F35B00032101FA03F322EA030283
:1039A000054B1A6013B0BDEC048BBDE8F08F00BF6F
:1039B00000040240003801400000024000080240BC
:1039C000034B02689A4200D0704700F0F5BA00BF7E
:1039D000000C0040FEE700BFFEE700BFFEE700BFAF
:1039E000FEE700BFFEE700BF704700BF014800F0E0
:1039F0007FBC00BFF40D0020704700BF82B00E4BAB
:103A000000220092596C41F480415964596C01F4D0
:103A10008041009100990192196C41F08051196424
:103A20001B6C03F080530193019B0F216FF0010089
:103A300002B000F061BA00BF0038024030B5014664
:103A400089B00022322000F057FA322000F08CFAC0
:103A50000025164B02951A6C154C42F008021A64A8
:103A60001B6C03F0080301A9029303A8029B00F05A
:103A70000DFA00F0FBF90F4A0F4925614300A2FB44
:103A800003239B0C013B40F2E7322046C4E9013599
:103A90002160E26000F05AFB10B1012009B030BD96
:103AA000204600F0E1FB09B030BD00BF0038024005
:103AB000F40D002083DE1B43000C00402DE9F0478D
:103AC0000D6895FAA5F2B2FA82F235FA02F300F027
:103AD000848001264FF0030C4FF00F0E38E0D1F830
:103AE0001080D0F80C9093FAA3F737B1B7FA87F7A4
:103AF0007F000CFA07F729EA070993FAA3F7002FCA
:103B00006ED0B7FA87F77F0008FA07F747EA090788
:103B1000022CC76048D093FAA3F80768B8F1000FE9
:103B200007D0B8FA88F84FEA48080CFA08F827EAEC
:103B3000080793FAA3F3002B54D0B3FA83F35B0086
:103B400004FA03F33B430360013235FA02F344D035
:103B500006FA02F32B40F7D04C68671E012FBED83F
:103B600093FAA3F7D1F80880D0F8089037B1B7FAE4
:103B700087F77F000CFA07F729EA070993FAA3F7FA
:103B8000002F4FD0B7FA87F77F0008FA07F747EA08
:103B900009078760476827EA0308CF6807FB03F730
:103BA00048EA070747609AE793FAA3F7E7B1B7FA3D
:103BB00087F8B8F1070F17DCD0F820A04F694FEA5B
:103BC00088090EFA09F94FEA88082AEA090A07FA69
:103BD00008F747EA0A0707629DE70020BDE8F0877B
:103BE000402791E74023ABE71F0AD1F81480D0F8B3
:103BF000249097FAA7FABAF1000F07D0BAFA8AFA16
:103C00004FEA8A0A0EFA0AFA29EA0A0997FAA7F786
:103C100057B1B7FA87F7BF0008FA07F747EA09076D
:103C2000476278E74027B0E78027F5E770B4134B89
:103C3000134C144AA4689B6892682343134313F0FF
:103C4000010310D14A68054640687AB10E4C0E68EF
:103C50000440D1E902012243324302430A43184699
:103C60006A6070BC7047012070BC7047064B0968E1
:103C700003400B4310466B6070BC7047002101404D
:103C80000020014000220140E010FCFF836813F097
:103C9000010313D170B40246446891E8610024F036
:103CA000407424F48074304320435060916821F4C0
:103CB00000612943184670BC91607047012070472D
:103CC0008368DB071AD470B44C684368C4B923F422
:103CD0006843436082680D4BCE680D6913400A68E3
:103CE00033432B4302F0706213438360C36A23F4AF
:103CF00070032343C36270BC0020704701207047EB
:103D00008A6823F4684313434360E3E7FDFCFFC084
:103D10001F4A936803F00C03042BF0B436D0082B31
:103D200032D157685568536851681A4C1A4EC1F31E
:103D30000141C3F3881217F4800F01F101010CBF98
:103D40002346334605F03F044900B3FBF4F302FB7E
:103D500003F3B3FBF1F30E4A036091680F4D104C6F
:103D6000C1F30311695CCB4043609168C1F38221C8
:103D7000615C23FA01F181609268C2F34232A25C75
:103D8000D340F0BCC3607047024BE4E7024BE2E76C
:103D9000003802400024F40000127A00904C000821
:103DA000A04C0008014B1860704700BF5C01002068
:103DB00010B403460079A0B1186878B15A79012A85
:103DC00034D0022A1AD042B301229B790BB3022BC2
:103DD00031D0032B43D0012B37D001205DF8044BA9
:103DE0007047214A1C68116821EA04011160536878
:103DF00023EA040353605DF8044B70471A4A1168C4
:103E0000014311605168014351609B790022002BEE
:103E1000DDD110465DF8044B704713494C6824EA25
:103E200000044C600C6804430C60CEE70E4A116835
:103E300021EA0001E5E70C4B996821EA000199604D
:103E4000D9680843D8601046E4E7074BD96821EAEF
:103E50000001D9609968084398601046BEE7024B9C
:103E600099680143EBE700BF003C0140044B054A61
:103E70009B680549C3F382230868D35CD840704728
:103E800000380240A04C00085C0100200E4B0F22BD
:103E900002609A6802F0030242609A6802F0F0023F
:103EA00082609A6802F4E052C2609B68DB0810B43A
:103EB00003F4E053054C036123685DF8044B03F001
:103EC0000F030B60704700BF00380240003C024007
:103ED0000849CA6810B400024FF6FF04224000F4FB
:103EE000E063134343F0BF6343F400335DF8044BD6
:103EF000CB60704700ED00E0194BDB68C3F3022391
:103F000030B4C3F10705042D03F1040428BF0425D0
:103F1000062C19D9033B4FF0FF349C4022EA0402DF
:103F20004FF0FF34AC4021EA04019940002841EAF7
:103F300002010CDB00F1604000F561400901C9B2EB
:103F400080F8001330BC704700221346E8E7054BA9
:103F500000F00F0009010344C9B2197630BC704764
:103F600000ED00E0FCEC00E0002807DB044A00F074
:103F70001F01012340098B4042F82030704700BFE9
:103F800000E100E008B50B4B1A6842F400721A60B9
:103F90001A6842F480621A601A6842F480721A60E9
:103FA0000320FFF795FF0020FFF748FDFFF726FDF0
:103FB000002008BD003C0240034A044B11681B78F6
:103FC0000B441360704700BF3C0E002058010020D6
:103FD000F0B50368044685B023F00103036068462A
:103FE0000D46FFF795FE676AE9680298384B27F09F
:103FF0001F0C2F69394341EA0C01D5E90162616266
:104000006168DFF8D0C0A3FB007321F03F0141EAF3
:1040100093416160276A66454FEA934327F03F0763
:104020002ED8013340F6FC7172003B43B0FBF2F234
:104030000A42236208BF0422E3696969EE6923F436
:104040004F4323F0FF031343E361A0682B68AD697E
:1040500020F4034020F0FF0031430143A1602268B7
:1040600022F01A021A432260226842F00102226002
:10407000236823F480632B430020236005B0F0BD48
:10408000DFF854C04FF4967101FB03F1ACFB013132
:10409000890901313943216252B906EB4603B0FB6D
:1040A000F3F3C3F30B0181B948F201031A43C3E7E9
:1040B00006EB860606EB8606B0FBF6F6C6F30B03A8
:1040C000002BF1D046F40043F0E743F40043EDE762
:1040D00083DE1B43A0860100D34D621002460068B8
:1040E00010F0400027D1F0B4D1E90037D1E90254F3
:1040F0003B430E692B43D1E90575234333433B43CF
:104100002B43D1E907651468334324F47F442B43E0
:1041100024F0BF0423431360536823F0040343EAED
:104120001743B5F5005F53600BD0D36923F40063E8
:10413000F0BCD3617047D36923F400630120D361DD
:1041400070478B8C1361F0E7704700BF002800F0C8
:10415000878038B590F83D30044603F0FF02002B0D
:1041600079D022683F49022384F83D308A4213689F
:104170005DD0B2F1804F31D0A1F57C418A422DD083
:1041800001F580618A4229D001F580618A4225D0FB
:1041900001F578418A424AD001F570518A4221D016
:1041A00001F580618A421DD001F580618A4219D0F3
:1041B000A1F598318A4215D001F580618A4211D06B
:1041C00001F580618A420DD0A569E068616823F03D
:1041D00080032B431360D062916210E0A16823F04A
:1041E00070030B432569A169E06823F440732B43F6
:1041F00023F080030B4361681360D0629162012356
:10420000536184F8463084F83E3084F83F3084F8B7
:10421000403084F8413084F8423084F8433084F8E8
:10422000443084F8453084F83D30002038BDA5681E
:104230002069A16923F070032B4323F440730343E7
:1042400023F080030B431360E368D36263689362D7
:1042500063691363D3E780F83C20FFF775FF80E7BD
:10426000012070470000014090F83D30012B2FD114
:1042700003681949022280F83D20DA688B4242F037
:104280000102DA6019D0B3F1804F16D0134A93427D
:1042900013D002F5806293420FD002F58062934200
:1042A0000BD002F57842934207D002F57052934248
:1042B00003D0A2F59432934204D19A6802F0070227
:1042C000062A07D01A6842F001021A6000207047DF
:1042D00001207047002070470000014000040040AA
:1042E000704700BF704700BF704700BF704700BFF6
:1042F00003681A69910710B5044602D5DA68920777
:104300005FD41A69500702D5DA68510746D41A6992
:10431000120702D5DA6810072ED41A69D20602D520
:10432000DA68D00618D41A69D10702D5DA68D2073C
:104330005DD41A69100602D5DA6811065FD41A69CD
:10434000520602D5DA68500661D41A69910602D580
:10435000DA68920643D410BD6FF01001082219618B
:104360002277DB6913F4407F204664D0FFF7BAFF61
:10437000002223682277D6E76FF008010422196132
:104380002277DB699907204652D1FFF7A9FF204623
:10439000FFF7AAFF002223682277BEE76FF004012F
:1043A0000222196122779B6913F4407F20463CD199
:1043B000FFF796FF2046FFF797FF0022236822773A
:1043C000A5E76FF002010122196102779B699B0743
:1043D00025D0FFF787FF00222368227791E76FF04F
:1043E000200220461A61BDE8104000F02BB86FF0A3
:1043F00001021A612046FFF7E3FA236899E76FF09C
:1044000080021A61204600F01FF8236897E76FF0DA
:1044100040021A612046FFF769FF236895E7FFF71E
:104420005FFF2046FFF760FFD5E7FFF75BFFC4E7BC
:10443000FFF758FFAEE7FFF753FF2046FFF754FFA3
:1044400096E700BF704700BF704700BF2C4A036863
:10445000904230B444D0B0F1804F33D0A2F57C42CA
:1044600090422FD002F5806290422BD002F58062FC
:10447000904227D002F57842904231D002F5705236
:10448000904223D002F5806290421FD002F58062F4
:1044900090421BD0A2F59832904217D002F580626C
:1044A000904213D002F5806290420FD08C680A8847
:1044B0000360C4628262436943F00103436130BC1C
:1044C000002070474A6823F070031343D1E9024586
:1044D00023F440730A882B430360C4628262EAE7D4
:1044E0004D68CC680A8823F070032B4323F4407393
:1044F000234303608B68C36282620B690363DAE75C
:1045000000000140C3689B0401D50120704730B50D
:104510004B6804460D46D1E90310E2680B43A969D4
:10452000034322F416420B4322F00C021343E360D0
:104530002269AB68696922F440521A4322616369B7
:1045400023F440730B4385B063616846FFF7E0FBDB
:10455000314B9C4220D0314B9C4216D0304B9C4278
:1045600013D003F54C439C4216D0A3F548439C421C
:104570000BD003F580639C4207D003F520539C4287
:1045800003D003F580639C4203D1029909B12B68E3
:1045900023B9012005B030BD0399F7E7AA69B2F548
:1045A000004F18D019209A00A1FB00019B0FFCF7C7
:1045B000ABFA1C4DA5FB00235B09642101FB130230
:1045C00012013232A5FB02121B0103EB52139BB204
:1045D000A3600020DEE7DA184FF019004FF0000367
:1045E0005B41A1FB0001FCF78FFA0E4DA5FB0032E9
:1045F0005109642202FB1103DB003233A5FB0323C4
:10460000C3F342121B0902EB011203F4F8731344C3
:104610009BB2A3600020BDE70010014000440040B1
:10462000004800401F85EB51034AD2F8883043F41C
:104630007003C2F88830704700ED00E0DFF834D036
:104640000D480E490E4A002302E0D458C4500433EA
:10465000C4188C42F9D30B4A0B4C002301E01360C1
:104660000432A242FBD3FFF7DFFF00F09FFAFCF712
:10467000C5FD70470000032000000020C801002095
:10468000C84C0008C8010020400E0020FEE70000D2
:1046900051EC100BF8B5C1F30A53A3F2FF35132DFB
:1046A00010EE106A0C4632DC002D1EDB364F2F4117
:1046B00001EA070303432FD031A3D3E90023FBF71B
:1046C0009DFD00220023FCF7DFF948B1002C04DD3A
:1046D0004FF4801343FA05F52C4424EA070400261E
:1046E0002346324643EC102BF8BD25A3D3E9002323
:1046F000FBF784FD00220023FCF7C6F90028EFD069
:10470000002C39DB264333D0204C0026E8E7332D3C
:1047100005DDB5F5806F23D041EC100BF8BDA3F299
:1047200013434FF0FF37DF400742F5D014A3D3E91E
:104730000023FBF763FD00220023FCF7A5F9002806
:10474000CED0002C09DD142D14D00123C5F1340581
:1047500003FA05F5AE1928BFE41826EA0706BFE7F5
:1047600010EE102A0B46FBF749FD41EC100BF8BD8B
:104770003446B5E70134F0E700264FF00044AFE7D8
:104780009C7500883CE4377EFFFF0F000000F03F7F
:1047900051EC100BF8B5C1F30A53A3F2FF35132DFA
:1047A00010EE106A0C4620DC002D3DDB384F2F4107
:1047B00001EA070303431DD033A3D3E90023FBF72A
:1047C0001DFD00220023FCF75FF948B1002C04DA3C
:1047D0004FF4801343FA05F52C4424EA070400261D
:1047E0002346324643EC102BF8BD332D05DDB5F5DD
:1047F000806F29D041EC100BF8BDA3F213434FF0AA
:10480000FF37DF400742F5D01FA3D3E90023FBF7B2
:10481000F5FC00220023FCF737F90028E0D0002C3B
:1048200023DB26EA0706DBE717A3D3E90023FBF720
:10483000E5FC00220023FCF727F90028D0D0002C4B
:104840000ADB00263446CBE710EE102A0B46FBF7B6
:10485000D5FC41EC100BF8BD24F000430D4A1E437B
:10486000002E18BF14460026BAE7142D08D00123E5
:10487000C5F1340503FA05F5AE1928BFE418D0E7F1
:104880000134CEE7AFF300809C7500883CE4377EAE
:10489000FFFF0F000000F0BFF8B52DED028B57ECC5
:1048A000106B55EC114B00F03BF81C4BB0EE408AFE
:1048B000F0EE608A93F90030013314D022462B4683
:1048C00020462946FCF7EAF868B932463B463046AE
:1048D0003946FCF7E3F830B9204629460022002388
:1048E000FCF7AAF830B9B0EE480AF0EE680ABDEC61
:1048F000028BF8BD00F054F9002200232121016051
:1049000010461946FBF75AFF41EC180BB0EE480A67
:10491000F0EE680ABDEC028BF8BD00BF600100201C
:1049200053EC112B2DE9F04723F0004555EA020620
:1049300051EC100B34D0944E21F00049B14588461B
:104940002EDC5642DFF844C2164345EAD676664569
:1049500011EE10EA24D8A94511EE107A10EE10AA33
:1049600010EE102A1C4601F0004606DCC0F2BE80A4
:104970007045C0F0BB8000F0F080844B08EA030370
:10498000C3B9B9F1000F40F0D180BAF1000F8049EE
:10499000534613DD5B00002B01F1FF31FADC0DE023
:1049A000FBF7E2FD02460B46FBF708FF41EC100B5C
:1049B000BDE8F0874FEA2951A1F2FF31734B234044
:1049C00073B9002D40F0A680BEF1000FDFF8C0C122
:1049D000734609DD5B00002B0CF1FF3CFADC03E0C1
:1049E0004FEA255CACF2FF3C6A4B994270DBC8F39E
:1049F000130343F480136748844558DBC4F313045E
:104A000044F48014A2EB0E00B1EB0C010AD11BE0C0
:104A100050EA050343D0EB0F013903EB40034FEAA3
:104A2000450210D0181B974288BF00F1FF300028C4
:104A3000A2EB07054FEAD27EEADA01390EEB430317
:104A40004FEA4202EED1D01B1C1B974288BF04F1F3
:104A5000FF34002CA4BF0246234653EA020106D1CC
:104A60001DE0D10F01EB43030CF1FF3C5200B3F505
:104A7000801FF6DB47498C4564DAA1EB0C01142951
:104A800072DC0CF21E40CA4003FA00F043FA01F156
:104A900010430E433346024643EC102B88E73E4B4F
:104AA000F60F03EBC60696ED000BBDE8F087A0EB12
:104AB0000C001F2823DD394CB1EB0C01A4EB0C04D6
:104AC0000EFA04F418BF0027ACD11C1B1046C0E737
:104AD0005A1A1F2A0DDC01F21E4309FA02F92AFABA
:104AE00003F30AFA02F243EA090384E741EC100BEC
:104AF0005EE72A4B5B1A0AFA03F300227BE70CF20B
:104B00001E4485400EFA00F72EFA04F040EA050430
:104B1000D01B79E7EB02002BDFF878C07FF764AF9A
:104B20005B00002B0CF1FF3CFADC5DE74FEAC92388
:104B3000002B18497FF742AF5B00002B01F1FF31DA
:104B4000FADC3BE7A3F580131E430CF2FF3C46EA78
:104B50000C51104641EC100B2AE70F4BF60F03EBFC
:104B6000C60393ED000B23E71F2907DC0CF21E4060
:104B7000834022FA01F143EA01008BE70749A1EBE8
:104B80000C0143FA01F085E7FFFFEF7F0000F07FA3
:104B9000EDFBFFFF02FCFFFFA84C0008E2FBFFFF5C
:104BA000014B1868704700BF6401002070B50D4DBF
:104BB0000D4C641BA4100026A64209D10B4D0C4CD1
:104BC00000F048F8641BA4100026A64205D170BD71
:104BD00055F8043B98470136EEE755F8043B9847F3
:104BE0000136F2E7C04C0008C04C0008C04C000879
:104BF000C44C00080A44914200F1FF3300D17047D1
:104C000010B511F8014B03F8014F9142F9D110BDD5
:104C1000884210B501EB020402D98442234607D82A
:104C2000431EA14208D011F8012B03F8012FF8E729
:104C3000024401468A4200D110BD13F8014D02F82A
:104C4000014DF7E702440346934200D1704703F851
:104C5000011BF9E7F8B500BFF8BC08BC9E467047D9
:0C4C6000F8B500BFF8BC08BC9E467047C9
:104C7000102840587088A0B84669786564537465F8
:104C8000704469736372657465000000F001002070
:104C900000000000000000000102030406070809EC
:104CA00000000000010203040000000000000000FA
:084CB00000000000000000807C
:084CB80080BEFF7F0100000037
:044CC000D501000812
:044CC400B101000832
:104CC8000000000000000840000000000000244030
:104CD8000000000000000000000000000000084084
:104CE800000000000000000000000000000008C0F4
:104CF800000000000000494000000000000044409F
:104D08000000000000003E400000000000003440A9
:104D18000000000000002440000000000000000027
:104D280000000000000059400000000000000000E2
:104D3800000000000000000000000000000000006B
:104D48000000000000000000000000000000F03F2C
:104D58000000000000408F40000000000000F03F0D
:104D680000000000000000000000000000005940A2
:104D780000000000000024400000000000FEAF40DA
:104D88000000000000000000000000000000594082
:104D9800000000000000000000000000000000000B
:104DA80000000000000000400000000000000000BB
:104DB80000000000000000400000000000000000AB
:104DC80000000000000000000000000000000000DB
:104DD800000000000000000000000000000000408B
:104DE80000000000000000000000010000000100B9
:104DF8000000006F7F077D6D664F5B063F6F7F0782
:104E08007D6D664F5B063F6F7F077D6D664F5B0666
:104E18003F00000000000000010000000024F40032
:104E2800FF000000680100200000000000000000F2
:104E3800000000000000000000000000000000006A
:104E4800000000000000000000000000000000005A
:104E5800000000000000000000000000000000004A
:104E6800000000000000000000000000000000003A
:104E7800000000000000000000000000000000002A
:084E8800000000000000000022
:040000050800463D6C
:00000001FF
