:020000040800F2
:1000000000000320FD4400089538000899380008D6
:100010009D380008A1380008A5380008000000003D
:10002000000000000000000000000000012D00089A
:10003000A938000800000000BD2C0008F52B0008BE
:100040004D4500084D4500084D4500084D45000848
:100050004D4500084D4500084D4500084D45000838
:100060004D4500084D4500084D4500084D45000828
:100070004D4500084D4500084D4500084D45000818
:100080004D4500084D450008F10E00084D4500089B
:100090004D4500084D4500084D4500084D450008F8
:1000A0004D4500084D4500084D4500084D450008E8
:1000B0004D4500084D4500084D4500084D450008D8
:1000C0004D4500084D4500084D4500084D450008C8
:1000D0004D4500084D4500084D4500084D450008B8
:1000E0004D4500084D4500084D4500084D450008A8
:1000F0004D4500084D4500084D4500084D45000898
:100100004D4500084D450008AD3800084D45000834
:100110004D4500084D4500084D4500084D45000877
:10012000010E00084D450008B93800084D4500088B
:100130004D4500084D4500084D4500084D45000857
:100140004D4500084D4500084D4500084D45000847
:100150004D4500084D4500084D4500084D45000837
:100160004D4500084D4500084D4500084D45000827
:100170004D4500084D4500084D45000800000000B1
:100180004D4500084D4500084D4500084D45000807
:100190004D4500084D4500084D4500084D450008F7
:0C01A0004D4500084D4500084D45000885
:1001B00010B5054C237833B9044B13B10448AFF3A1
:1001C00000800123237010BDB0010020000000005A
:1001D000144B000808B5034B1BB103490348AFF3A8
:1001E000008008BD00000000B4010020144B00088E
:1001F00081F0004102E000BF83F0004330B54FEAD8
:1002000041044FEA430594EA050F08BF90EA020F44
:100210001FBF54EA000C55EA020C7FEA645C7FEAD7
:10022000655C00F0E2804FEA5454D4EB5555B8BFFA
:100230006D420CDD2C4480EA020281EA030382EA6B
:10024000000083EA010180EA020281EA0303362DFD
:1002500088BF30BD11F0004F4FEA01314FF4801CD0
:100260004CEA113102D0404261EB410113F0004FE2
:100270004FEA03334CEA133302D0524263EB430399
:1002800094EA050F00F0A780A4F10104D5F1200E37
:100290000DDB02FA0EFC22FA05F2801841F1000192
:1002A00003FA0EF2801843FA05F359410EE0A5F166
:1002B00020050EF1200E012A03FA0EFC28BF4CF097
:1002C000020C43FA05F3C01851EBE37101F000454D
:1002D00007D54FF0000EDCF1000C7EEB00006EEB5A
:1002E0000101B1F5801F1BD3B1F5001F0CD34908E4
:1002F0005FEA30004FEA3C0C04F101044FEA44523B
:1003000012F5800F80F09A80BCF1004F08BF5FEAC1
:10031000500C50F1000041EB045141EA050130BDA1
:100320005FEA4C0C404141EB0101013C28BFB1F5B3
:10033000801FE9D291F0000F04BF01460020B1FAFE
:1003400081F308BF2033A3F10B03B3F120020CDAD1
:100350000C3208DD02F1140CC2F10C0201FA0CF0AF
:1003600021FA02F10CE002F11402D8BFC2F1200C14
:1003700001FA02F120FA0CFCDCBF41EA0C019040CA
:10038000E41AA2BF01EB0451294330BD6FEA040413
:100390001F3C1CDA0C340EDC04F11404C4F12002FE
:1003A00020FA04F001FA02F340EA030021FA04F310
:1003B00045EA030130BDC4F10C04C4F1200220FA67
:1003C00002F001FA04F340EA0300294630BD21FAA5
:1003D00004F0294630BD94F0000F83F4801306BF6B
:1003E00081F480110134013D4EE77FEA645C18BF5F
:1003F0007FEA655C29D094EA050F08BF90EA020FF6
:1004000005D054EA000C04BF1946104630BD91EAED
:10041000030F1EBF0021002030BD5FEA545C05D1F0
:100420004000494128BF41F0004130BD14F580042F
:100430003CBF01F5801130BD01F0004545F0FE41A3
:1004400041F470014FF0000030BD7FEA645C1ABFD8
:10045000194610467FEA655C1CBF0B46024650EA0F
:10046000013406BF52EA033591EA030F41F400213B
:1004700030BD00BF90F0000F04BF0021704730B5C1
:100480004FF4806404F132044FF000054FF0000196
:1004900050E700BF90F0000F04BF0021704730B557
:1004A0004FF4806404F1320410F0004548BF40422C
:1004B0004FF000013EE700BF42004FEAE2014FEA81
:1004C00031014FEA02701FBF12F07F4393F07F4F5C
:1004D00081F06051704732F07F4208BF704793F05F
:1004E0007F4F04BF41F40021704730B54FF4607472
:1004F00001F0004521F000411CE700BF50EA010275
:1005000008BF704730B54FF000050AE050EA01021D
:1005100008BF704730B511F0004502D5404261EB8D
:1005200041014FF4806404F132045FEA915C3FF4CE
:10053000D8AE4FF003025FEADC0C18BF03325FEA6B
:10054000DC0C18BF033202EBDC02C2F1200300FA1C
:1005500003FC20FA02F001FA03FE40EA0E0021FA41
:1005600002F11444BDE600BF70B54FF0FF0C4CF42F
:10057000E06C1CEA11541DBF1CEA135594EA0C0FE1
:1005800095EA0C0F00F0DEF82C4481EA030621EA1C
:100590004C5123EA4C5350EA013518BF52EA033557
:1005A00041F4801143F4801338D0A0FB02CE4FF009
:1005B0000005E1FB02E506F00042E0FB03E54FF039
:1005C0000006E1FB03569CF0000F18BF4EF0010E31
:1005D000A4F1FF04B6F5007F64F5407404D25FEA2D
:1005E0004E0E6D4146EB060642EAC62141EA5551E0
:1005F0004FEAC52040EA5E504FEACE2EB4F1FD0C22
:1006000088BFBCF5E06F1ED8BEF1004F08BF5FEA9F
:10061000500E50F1000041EB045170BD06F0004651
:1006200046EA010140EA020081EA0301B4EB5C04FE
:10063000C2BFD4EB0C0541EA045170BD41F48011F6
:100640004FF0000E013C00F3AB8014F1360FDEBF1B
:10065000002001F0004170BDC4F10004203C35DAF7
:100660000C341BDC04F11404C4F1200500FA05F37A
:1006700020FA04F001FA05F240EA020001F000421B
:1006800021F0004110EBD37021FA04F642EB060191
:100690005EEA430E08BF20EAD37070BDC4F10C04BB
:1006A000C4F1200500FA04F320FA05F001FA04F27F
:1006B00040EA020001F0004110EBD37041F100016B
:1006C0005EEA430E08BF20EAD37070BDC4F1200576
:1006D00000FA05F24EEA020E20FA04F301FA05F2DE
:1006E00043EA020321FA04F001F0004121FA04F286
:1006F00020EA020000EBD3705EEA430E08BF20EA56
:10070000D37070BD94F0000F0FD101F0004640008F
:1007100041EB010111F4801F08BF013CF7D041EA11
:10072000060195F0000F18BF704703F00046520015
:1007300043EB030313F4801F08BF013DF7D043EAE6
:100740000603704794EA0C0F0CEA135518BF95EA9C
:100750000C0F0CD050EA410618BF52EA4306D1D123
:1007600081EA030101F000414FF0000070BD50EA42
:10077000410606BF1046194652EA430619D094EACC
:100780000C0F02D150EA013613D195EA0C0F05D1B6
:1007900052EA03361CBF104619460AD181EA03010A
:1007A00001F0004141F0FE4141F470014FF00000C2
:1007B00070BD41F0FE4141F4780170BD70B54FF05D
:1007C000FF0C4CF4E06C1CEA11541DBF1CEA1355DD
:1007D00094EA0C0F95EA0C0F00F0A7F8A4EB0504BF
:1007E00081EA030E52EA03354FEA013100F08880B6
:1007F0004FEA03334FF0805545EA131343EA12637F
:100800004FEA022245EA111545EA10654FEA002633
:100810000EF000419D4208BF964244F1FD0404F5EC
:10082000407402D25B084FEA3202B61A65EB030548
:100830005B084FEA32024FF480104FF4002CB6EB05
:10084000020E75EB030E22BFB61A754640EA0C0085
:100850005B084FEA3202B6EB020E75EB030E22BFC5
:10086000B61A754640EA5C005B084FEA3202B6EB06
:10087000020E75EB030E22BFB61A754640EA9C00C5
:100880005B084FEA3202B6EB020E75EB030E22BF95
:10089000B61A754640EADC0055EA060E18D04FEA53
:1008A000051545EA16754FEA06164FEAC30343EAF3
:1008B00052734FEAC2025FEA1C1CC0D111F4801FC0
:1008C0000BD141EA00014FF000004FF0004CB6E7B9
:1008D00011F4801F04BF01430020B4F1FD0C88BF58
:1008E000BCF5E06F3FF6AFAEB5EB030C04BFB6EB63
:1008F000020C5FEA500C50F1000041EB045170BD56
:100900000EF0004E4EEA113114EB5C04C2BFD4EB82
:100910000C0541EA045170BD41F480114FF0000E06
:10092000013C90E645EA060E8DE60CEA135594EA82
:100930000C0F08BF95EA0C0F3FF43BAF94EA0C0F85
:100940000AD150EA01347FF434AF95EA0C0F7FF4FA
:1009500025AF104619462CE795EA0C0F06D152EA4E
:1009600003353FF4FDAE1046194622E750EA410632
:1009700018BF52EA43067FF4C5AE50EA41047FF443
:100980000DAF52EA43057FF4EBAE12E74FF0FF3CA8
:1009900006E000BF4FF0010C02E000BF4FF0010C79
:1009A0004DF804CD4FEA410C7FEA6C5C4FEA430CF2
:1009B00018BF7FEA6C5C1BD001B050EA410C0CBF41
:1009C00052EA430C91EA030F02BF90EA020F0020A3
:1009D000704710F1000F91EA030F58BF994208BF0A
:1009E00090422CBFD8176FEAE37040F001007047C7
:1009F0004FEA410C7FEA6C5C02D150EA013C07D11E
:100A00004FEA430C7FEA6C5CD6D152EA033CD3D068
:100A10005DF8040B704700BF8446104662468C4662
:100A20001946634600E000BF01B5FFF7B7FF002895
:100A300048BF10F1000F01BD4DF808EDFFF7F4FFBE
:100A40000CBF012000205DF808FB00BF4DF808ED49
:100A5000FFF7EAFF34BF012000205DF808FB00BF6C
:100A60004DF808EDFFF7E0FF94BF012000205DF88E
:100A700008FB00BF4DF808EDFFF7CEFF94BF012043
:100A800000205DF808FB00BF4DF808EDFFF7C4FF3C
:100A900034BF012000205DF808FB00BF4FEA410C85
:100AA0007FEA6C5C02D150EA013C0AD14FEA430C68
:100AB0007FEA6C5C02D152EA033C02D14FF00000A5
:100AC00070474FF0010070474A0011D212F5001232
:100AD00011D20DD56FF47873B3EB62520ED44FEA96
:100AE000C12343F0004343EA505323FA02F0704716
:100AF0004FF00000704750EA013002D14FF0FF3054
:100B000070474FF00000704753B94AB9002908BF39
:100B100000281CBF4FF0FF314FF0FF3000F06EB9DE
:100B2000ADF1080C6DE904CE00F006F8DDF804E044
:100B3000DDE9022304B070472DE9F047089D044623
:100B40008C46002B40F083808A42174647D9B2FA80
:100B500082F242B1C2F1200024FA00F091409740A5
:100B600040EA010C94404FEA1748230CBCFBF8F60E
:100B70001FFA87FE08FB16C143EA014306FB0EF18C
:100B8000994209D9FB1806F1FF3080F0198199428A
:100B900040F21681023E3B445B1AA4B2B3FBF8F06C
:100BA00008FB103344EA034400FB0EFEA64509D9B6
:100BB0003C1900F1FF3380F00581A64540F2028127
:100BC00002383C4440EA0640A4EB0E0400261DB166
:100BD000D4400023C5E900433146BDE8F08702B99F
:100BE000FFDEB2FA82F2002A50D1CB1B4FEA174E39
:100BF0001FFA87F80126B3FBFEFC210C0EFB1C3309
:100C000041EA034108FB0CF38B4207D979180CF138
:100C1000FF3002D28B4200F2E9808446C91AA3B2A7
:100C2000B1FBFEF00EFB101143EA014408FB00F893
:100C3000A04507D93C1900F1FF3302D2A04500F2CC
:100C4000D9801846A4EB080440EA0C40BFE78B4269
:100C500009D9002D00F0B1800026C5E90001304619
:100C60003146BDE8F087B3FA83F6002E4AD18B42B5
:100C700002D3824200F2B880841A61EB03010120A2
:100C80008C46002DA8D0C5E9004CA5E7C2F1200391
:100C900020FA03F6974001FA02F04FEA174ED940C6
:100CA0003043030CB1FBFEF61FFA87F80EFB16115A
:100CB00043EA014306FB08F1994204FA02F409D918
:100CC000FB1806F1FF3C80F08D80994240F28A804B
:100CD000023E3B445B1A81B2B3FBFEF00EFB1033C5
:100CE00041EA034100FB08F38B4207D9791800F170
:100CF000FF3C73D28B4271D902383944CB1A40EA97
:100D0000064678E7C6F1200C03FA06F422FA0CF343
:100D10001C4320FA0CF701FA06F34FEA144E21FAAD
:100D20000CF11F433B0CB1FBFEF91FFA84F80EFBDC
:100D3000191143EA014109FB08FA8A4502FA06F251
:100D400000FA06F308D9611809F1FF3048D28A4544
:100D500046D9A9F102092144A1EB0A01BFB2B1FBB6
:100D6000FEF00EFB101147EA014700FB08F8B845FA
:100D700007D9E71900F1FF312ED2B8452CD9023836
:100D8000274440EA0940A7EB0807A0FB02894F452A
:100D9000C64649461AD317D05DB1B3EB0E0267EBD6
:100DA000010707FA0CFCF2404CEA0202F740C5E9E1
:100DB000002700263146BDE8F0872E4628460BE77F
:100DC0000646E9E61846FDE64345E5D2B8EB020ED5
:100DD00069EB04010138DFE70846D2E760468DE79A
:100DE0008146B9E7664675E730464AE7ACF1020C42
:100DF000394413E702383C4424E700BF704700BF82
:100E000030B4394A394C13791169E05C4558ED0624
:100E100000EB010310D54358108813F4002F93689A
:100E20001ED0042523F8105013790420907103BBC1
:100E300020238B6001F11003196811F4907F0DD10C
:100E40001868118820F0010018605A68120C12040A
:100E50000A435A601A6842F001021A6030BC7047B7
:100E600003EB800304205880137904209071002B39
:100E7000DED0012B0ED0022B12D0032B1BD0042B63
:100E800014D0052B1DD0062B21D0072B25D0E35CD9
:100E90000B44D1E74FF400638B6001F12803CBE7EB
:100EA0004FF400138B6001F14003C5E72023CB60B2
:100EB00001F17003C0E74FF000638B6001F158034C
:100EC000BAE74FF40063CB6001F18803B4E74FF455
:100ED0000013CB6001F1A003AEE74FF00063CB60DD
:100EE00001F1B803A8E700BF10030020304B000851
:100EF000704700BFF0B43B4CC568A5426ED13A4C78
:100F0000012BE56025D03AB3A379082B19D0866868
:100F100002690788A660226190F804C084F804C0C2
:100F20008378A370EB6A0498278023F4700303434B
:100F30000129EB6203D0042921D002291AD0082309
:100F4000A371284B9A68D20703D49A6842F0010231
:100F50009A602548F0BC7047E379082BF1D0C3783C
:100F6000E370022903D16B6843F080036B600823B0
:100F7000E371E6E76B6843F020036B60DFE71B4B30
:100F8000A96813F80C30DFF868C0D01841F440713C
:100F9000A96006EB4701C0F808C00231C660082509
:100FA000D0F810C026F817500161D15806EB87061B
:100FB00041F480217580D1504168090C09040F4328
:100FC0004760D15841F01001D150D15841F004018F
:100FD000D150D15841F00101D150B0E70023DD607C
:100FE000FFDE00BF0022014010030020304B00084C
:100FF0004C220140F8B5C36833B1012904464FD0F3
:10100000042903D0022926D00120F8BD996811F0E7
:10101000405FF9D101218171996841F08041996067
:10102000A379042BDDB2FBD13E4823792169C35C4F
:10103000CB58A16813F4002FA37858D010465A005B
:1010400003F038FDA278A368082123F812100823C2
:10105000A3710020F8BD8379202B05D08379042B60
:1010600002D08379102BCFD12E4823792169C35C1C
:101070000826A671CD58A378A16815F4002546D19D
:1010800001335F0001EB43011046BA1E03F012FD6D
:10109000A178A268022303EB81032846D652F8BD4B
:1010A0009A6812F0405FAFD18279022A08D0827923
:1010B000042A05D08279082A02D01A689107A3D59C
:1010C0001A68920604D56FF0200110221960A271EF
:1010D000A279102A98D0A279082A0CBF01222022D6
:1010E000A2719A6842F080429A600020F8BD0133F4
:1010F0005E0001EB43011046B21E03F0DBFCA17859
:10110000A268022315FB01330821D1529FE7104644
:101110005A0003F0CFFCA278A368002023F81260E5
:10112000F8BD00BF304B0008C36810B49C68E407EA
:1011300003D59C6824F001049C605C68640603D5B8
:101140005C6824F040045C605C68640103D55C6802
:1011500024F080645C6092B1002202718270DC6ACB
:10116000826024F47004012902800261DC6203D0F1
:10117000022924D004290CD05DF8044B70470229C1
:10118000C270F9D15A685DF8044B22F080025A60AF
:1011900070471022116821F001011160116821F0DF
:1011A00004011160116821F0100111605168D140F3
:1011B000914051609A6822F440729A60DCE75A6864
:1011C0005DF8044B22F020025A60704710B5094CBC
:1011D00023785A1C227023B1074A2370012313601D
:1011E00010BD62B600F0E4F972B62378013B2370BB
:1011F00010BD00BFD0010020CC010020F8B5204C6C
:10120000204D002727702F7001DF02F01BFE01F038
:10121000A3FD02F059F802F035F801F0B9FE01F033
:101220002FFF01F07DFF01F0AFFF01F0FDFD164B38
:101230001E68376001F0C8FB72B69FED140A01F01A
:10124000E1FC3368B3FA83F35B092B7062B662B6D4
:101250000F4A06E03368003B18BF01232370237850
:101260004BB92B7803F0FF07002BF3D101F094FC6E
:1012700072B63846F8BD136823F001031360F0E737
:1012800025030020240300204C4B00086F12833AF2
:1012900010E000E0000000009FED010B704700BF70
:1012A000000000000000F07F9FED010A704700BFC2
:1012B0000000807F000000009FED010B704700BF21
:1012C000000000000000F0FF9FED010A704700BF22
:1012D000000080FF000000009FED010B704700BF81
:1012E000000000000000F8FF9FED010A704700BFFA
:1012F0000000C0FF08B5FFF7EFFF0E4B83ED000BBA
:10130000FFF7F2FF0C4B83ED000AFFF7C5FF0B4B15
:1013100083ED000BFFF7C8FF094B83ED000AFFF7D1
:10132000CBFF084B83ED000BFFF7CEFF064B83EDA1
:10133000000A08BD380300202803002030030020E5
:101340002C030020400300204803002038B50C4B3C
:1013500055EC104BD3E9000110EE102A2B46FFF795
:101360006BFB50B907492246D1E900012B46FFF734
:1013700063FB003818BF012038BD012038BD00BF15
:10138000300300204003002053EC102B0648984304
:1013900001D000207047C3F3130151EA020314BFC8
:1013A00001200020704700BF0000F07F2DE9F84FBA
:1013B00055EC114B2DED028B11EE100A294600223F
:1013C000002357EC106BFFF737FBC8B30022002354
:1013D00030463946FFF730FB40B345EC184BB0EED2
:1013E000480AF0EE680ABDEC028BBDE8F88F45ECC8
:1013F000104BFFF7ABFF00284FD0002200232946F7
:101400002046FFF723FB0022B0F100084FF0000355
:101410003046394618BF4FF00108FFF717FB003878
:101420005FFA88F818BF01208045D6D147EC186BC9
:10143000B0EE480AF0EE680ABDEC028BBDE8F88F0A
:1014400047EC106BFFF7A0FF50B1554B93ED008BAD
:10145000B0EE480AF0EE680ABDEC028BBDE8F88FEA
:1014600045EC104BFFF790FF0028EED147EC106BD6
:10147000FFF76CFF0028E8D10022002330463946F0
:10148000FFF7DAFA0028B2D022462B4600200021CE
:10149000FFF794F941EC180BA1E745EC114B47EC31
:1014A000106B03F059F9002251EC100BB0EE408A9A
:1014B000F0EE608A0023FFF7BFFA8046B8F100081B
:1014C00051EC180B4FF000024FF0000318BF4FF023
:1014D0000108FFF7B1FAB0BB45EC104B03F0B8F8C8
:1014E000204653EC102B2946FFF7CEFA58B322467C
:1014F0002B4630463946FFF761F921F00049294B68
:10150000002249468046FEF779FE41EC100B03F0BD
:101510009FF8404653EC102B4946FEF76DFE0B46F4
:10152000824623F0004B40461F4B00224946FFF7FE
:101530001BF802460B4650465946FFF7A5FAB0FA8B
:1015400080F84FEA5818B8F1000F08D02046294615
:1015500000220023FFF708F841EC180B3FE7304664
:10156000394600220023FFF771FA0022061E4FF0D1
:1015700000032046294618BF0126FFF767FA003806
:10158000F6B218BF012086423FF429AF51EC180B88
:1015900022462B46FEF732FE41EC180B1FE700BF38
:1015A000380300200000E03F0000B03C00000000D5
:1015B0002DE9F04FDFF830B0DFF83080DBF880A69F
:1015C0002DED0C8B504695B0FEF764FFD8E9202333
:1015D00004460D46FFF73AFA50B1BAF1000F07DBA7
:1015E000D8E91C6706E000BFF806002000000020D4
:1015F00000260027DFF85893D34B0022D8E91E01BC
:10160000C9E9D467FEF7F8FD02460B462046294695
:10161000FFF730FA002840F0B4820AF101039BF88A
:10162000A346CBF880360E2C03D80134E4B28BF8F5
:10163000A3469BF8A136002B40F08D82C3480023BF
:101640000022C9E9CE23C0E90023012103238BF83E
:10165000A1168BF8A236BE48BE49A02200F10804AC
:1016600003F028FAD9E90001C9E9DA0104F1980583
:10167000F4E80223FEF7C2FDAC42F9D1BBF888368C
:1016800040F2FE729342C9E9DA0103D801339BB2FA
:10169000ABF888369BF8A426002A40F043829FEDE1
:1016A000A47B40F20123ABF88826ABF8A436B0EE59
:1016B000478AF0EE678AA84BDBF830A603F14C01AD
:1016C00053F8042F8B429244FAD19BED2E7BA34E0C
:1016D0008DED027B55EC174B06F54677F6E80223B5
:1016E00020462946FEF78AFDB74204460D46F5D14D
:1016F00045EC174B9A4B89EDD87BD3F8203193ED0D
:10170000007BBAF1000FCDE902458DED047B89ED38
:10171000DA7B80F27F83934B9349944A03FB0A134D
:10172000B2EBB30F34BF4FF0FF300020904A4FEAC6
:10173000EA7382FB0A2AC3EBEA0A5044FEF7AAFEC8
:10174000D8E90067D8E92423FFF738F832463B464A
:10175000FEF70AFF04460D4645EC174BD8E9260173
:1017600089EDCA7B53EC182BFFF770F9002800F0C5
:10177000D28199EDD07BB0EE478AF0EE678A32468F
:101780003B466DA1D1E90001FFF718F82246064655
:101790000F462B4651EC180BFEF72EFD02460B466A
:1017A00030463946FEF7E0FED8E9022306460F46EA
:1017B00000206549FFF702F802460B4630463946DD
:1017C000FEF7D2FED8E92823FEF7CEFE0022064619
:1017D0000F460023CDE90067FFF738F918B198EDFF
:1017E0002A7B8DED007BDBE9F667DDE900013246FF
:1017F0003B46FEF701FD9BEDF87B55EC174B41ECAA
:10180000180B17EE102AB0EE48DAF0EE68DA2B4625
:1018100030463946FEF7F0FC9BEDFC6B06460F4662
:101820002046294655EC164BDFF848A116EE102A43
:101830002B46FEF7E1FC9AED007B47EC1A6BB0EE0D
:10184000479AF0EE679A53EC172B06460F46204650
:101850002946FEF7D1FC5346F3E9084547EC1B6BDC
:10186000224606460F460D9351EC190B2B46FEF708
:10187000C3FC45EC194B5446F4E9122347EC1C6BAE
:1018800006460F4651EC190B0E94FEF7B5FC344694
:101890003D4606460F46002251EC180B002347EC4C
:1018A000186BFFF7D3F8002840F09F8251EC1D0B16
:1018B00000220023FFF7E8F8002800F064819FED84
:1018C000207BB0EE479AF0EE679A0026002751EC95
:1018D0001A0B32463B46FFF7B9F8002840F07E82EB
:1018E00051EC1A0B32463B46FFF7CEF8002800F0C9
:1018F0000583154F0026C9E9DC6747EC1A6B002603
:10190000002751EC1B0B32463B46FFF79FF800289F
:1019100040F05D8251EC1B0B32463B46FFF7B4F8BA
:10192000002800F01083084F0026C9E9DE6723E095
:101930000000000000000000182D4454FB21194055
:10194000000000000000F03F0000F03FE80C002025
:101950005003002010070020280D0020B8070020A9
:10196000D8010020CDCCCCCC98999919CCCCCC0CFA
:1019700067666666000B002047EC1B6B002600279D
:1019800051EC1C0B32463B46FFF760F8002840F054
:10199000178251EC1C0B32463B46FFF775F80028C6
:1019A00000F0C482B44F0026C9E9E06747EC1C6B25
:1019B000002600272046294632463B46FFF746F8D8
:1019C000002840F0F68132463B4620462946FFF784
:1019D0005BF8002800F08582A74F0026C9E9E2677E
:1019E00047EC1D6B0026002751EC180B32463B4696
:1019F000FFF72CF8002840F0FF8151EC180B32461D
:101A00003B46FFF741F8002800F085829A4B002200
:101A1000C9E9E42316461F46D8E92E2351EC190BD9
:101A2000FEF7A2FDD8E9322304460D4651EC1A0B0D
:101A3000FEF79AFD02460B4620462946FEF7DEFBDE
:101A400053EC1B2BFEF7DAFB53EC1C2BFEF7D6FBFB
:101A500053EC1D2BFEF7D2FB32463B46FEF7CEFB86
:101A600006460F46854B0022DDE90201C9E9D6672B
:101A7000FEF7A4FED8E93C23FEF776FD04460D46AA
:101A8000D8E90423C9E9D84530463946FEF7F2FFC4
:101A9000002800F08880D8E9062320462946FEF772
:101AA000E9FF00287FD001230F930293D8E9082390
:101AB00030463946FEF7D4FF002877D0D8E90A230C
:101AC00020462946FEF7CCFF00286FD000238BF874
:101AD0008C36029B002B00F0A2821F460123079345
:101AE00001239BF88D660C939BF8A636B6FA86F612
:101AF0007609002B6DD09BF8A736013B072B00F22F
:101B00003081DFE813F052052E0141052E01160544
:101B10002E012E012E0145EC174BB0EE478AF0EE58
:101B2000678A2CE69BF8A526012A00F01982B3F5F6
:101B3000FA6FC0F040820124514B8BF8A546002279
:101B4000FEF73CFE9FED467BC9E9D001B0EE478A27
:101B5000F0EE678AAFE59BF8A236022B00F06D82AB
:101B6000032B00F00582012B00F01082092C7FF678
:101B700072AD414900200123C9E9CE01ABF8A2367C
:101B800069E500234BE551EC1D0B00220023FEF715
:101B900053FF002800F017829FED337BB0EE479A89
:101BA000F0EE679A91E60F9002907FE79BF88A36F5
:101BB0000793002B00F0ED800022012307928BF8A1
:101BC0008C36174600230C931E469BF8A636002B36
:101BD00091D19FED250B2B4B89EDD20B83ED000BA3
:101BE00083ED0C0B83ED040B83ED060B83ED080BEB
:101BF00083ED0A0B40F20131ABF8A61698ED3E1BBF
:101C0000FFF7D4FBD9E9D20153EC102B89EDD60BA9
:101C1000FEF7F2FA16A3D3E90023FEF7A5FC41EC88
:101C2000100B02F015FD89EDDA0BFFF7ADFB002874
:101C300000F0338100240025C9E9DA452046294611
:101C4000FEF742FF092823D8DFE810F011020C024A
:101C50005E04580452044C04460440043A041E0036
:101C6000000000000000F03F000000000000000045
:101C70007B14AE47E17A843F0000F03F00005940FA
:101C800000003440F00C002098F82F3189F8A03380
:101C900098ED401B99EDD60BFFF788FBD9E9D601EB
:101CA00053EC102B89EDD80BFEF7A6FAFFA3D3E96E
:101CB0000023FEF759FC41EC100B02F0C9FC89ED42
:101CC000DA0BFFF761FB002800F0C7800024002535
:101CD00020462946FEF7F8FE09280FD8DFE810F065
:101CE000EB03E603E103DC03D703D203CD03C80310
:101CF000C3030A0098F8253189F8A133D9E9D845FA
:101D00000022002320462946FEF7A0FE45EC104B9A
:101D1000002878D102F09CFCB0EE407AF0EE607AB8
:101D2000B0EE470AF0EE670A89EDDA7BFFF72CFB8D
:101D3000002871D000240025C9E9DA45204629464B
:101D4000FEF7C2FE092800F23186DFE810F08703B3
:101D500082037D0378037303E803E303ED036E035B
:101D6000B3019EB9052399EDD20B8BF8A73645E751
:101D7000D5E9000100220023FEF75EFE30B19DEDA3
:101D8000047B072385ED007B8BF8A73699EDD20BFA
:101D900034E79BF88C361A1E18BF01228BF88C266C
:101DA000029A002A00F09B80079F002B7FF40AAF65
:101DB00096E6B94F0026C9E9E26747EC1D6B11E6CC
:101DC000B54F0026C9E9E06747EC1C6BF0E5B24F60
:101DD0000026C9E9DE6747EC1B6BCFE5AE4F002656
:101DE000C9E9DC6747EC1A6B89E59FEDA37BB0EE90
:101DF000479AF0EE679A68E5A74B0022C9E9E42309
:101E000016461F4608E602F0A3FBB0EE407AF0EE5D
:101E1000607A85E7002089E499EDDA0BFFF796FAFE
:101E2000002887D19FED961B99EDDA0B02F094FC08
:101E300055EC104B89EDDA0B10EE100A002200234E
:101E40002946FEF703FE00283FF478AF204605F14F
:101E50000041FEF739FE404274E799EDDA0BFFF7D7
:101E600075FA00287FF432AF9FED851B99EDDA0BF0
:101E700002F072FC55EC104B10EE100A0022002309
:101E80002946FEF7E3FD00283FF422AF204605F186
:101E90000041FEF719FE40421EE799EDDA0BFFF70D
:101EA00055FA00287FF4C6AE9FED751B99EDDA0B4D
:101EB00002F052FC55EC104B89EDDA0B10EE100AD3
:101EC000002200232946FEF7C1FD00283FF4B6AEEC
:101ED000204605F10041FEF7F7FD4042B2E6174605
:101EE00070E62046294632463B46FEF7A5FD00280F
:101EF00071D0C9E9E26747EC1D6B73E551EC1A0B31
:101F000032463B46FEF798FD00287ED0C9E9DC67E3
:101F100047EC1A6BF3E451EC180B32463B46FEF7E4
:101F20008BFD00286BD0C9E9E46775E551EC1C0B0B
:101F300032463B46FEF780FD002856D0C9E9E067EF
:101F400047EC1C6B34E551EC1B0B32463B46FEF76D
:101F500073FD002867D0C9E9DE6747EC1B6B0DE510
:101F60009FED497BB0EE478AF0EE678AFFF7A3BB8F
:101F70004A4B304639460022FEF75EFD002800F04D
:101F800020840423ABF8A236FFF765BB092C7FF64B
:101F900062AB434C002200230225C9E9CE23D4E9D9
:101FA00000013E4BABF8A2560022FEF727F9C4E928
:101FB0000001FFF750BB9FED367BB0EE478AF0EE95
:101FC000678AFFF778BB374B93ED007BB0EE479AFB
:101FD000F0EE679A79E4334B93ED007B89EDE27B79
:101FE000B0EE47DAF0EE67DAFCE42E4B93ED007BBF
:101FF00089EDE07BB0EE47CAF0EE67CAD8E4294B22
:10200000D3E90067C9E9E46706E5264B93ED007B59
:1020100089EDDC7BB0EE47AAF0EE67AA6FE40123FE
:1020200007931F46CEE51F4B93ED007B89EDDE7BCA
:10203000B0EE47BAF0EE67BAA0E4194D1A4BD5E9F5
:1020400000010022FEF7F8FC00283FF48FAD0022CB
:1020500000230321C5E90023C9E9CE238BF8A2168A
:10206000FFF7F9BA98F8373189F8A03310E698F8F5
:10207000383189F8A0330BE6000000000000F0BF03
:10208000000000000000F041000000000000F03FF0
:1020900000000000000000000000F0BF0000F03F62
:1020A000E80C002038030020000042409A999999DA
:1020B0009999B93F98F81B2189F8A22399F8A103AF
:1020C00099F8A0339BF8A01603EB00231E2903EB1D
:1020D000024203D80131C9B28BF8A0169BF89E3694
:1020E000002B40F0E98240F20121CBF88426C54A5A
:1020F000ABF89E16C9F89833C9F820234FF0007149
:10210000C04A9BF88F0693619161002800F0C3825A
:1021100098ED147B8DED047BBB4B0A939BF8A8369E
:10212000002B40F0A98200200021C9E9D40140F22F
:102130000123ABF8A836029B002B40F08082DBF82D
:10214000943613F0FF1F00F07A8201238BF8963645
:10215000029B10931E469BF89936002B00F07A8262
:1021600098ED127B8DED087BA84B0B93002E00F0B1
:102170004E829BF89736002B40F049829BF8AA3696
:10218000002B00F049829BF8AB36012B00F0148342
:102190009DED087B89EDD47B01238BF8AB36029B48
:1021A000002B40F04582079B002B40F0E683029312
:1021B00000231193DDE900670E9B3046D3E900232D
:1021C0003946FEF719F804460D463B46D8E90C019E
:1021D000C9E9CC453246FEF739FC8A4D8C4C0028C3
:1021E00015BF1023002300214FF48011AB6132464C
:1021F0003B46A961D8E90E01FEF728FC002815BF6F
:102200000823002300214FF40021AB6132463B46F6
:10221000CDE90067A961D8E91001FEF717FC002895
:1022200015BF0423002300214FF48021AB6100225D
:102230000023A961D9E9CE01C9F82053FEF7FCFBC0
:1022400000280BBF4FF48072002200234FF08073F0
:10225000AA610421AB610DF14E02DBF81400A9F86C
:102260002413FEF7C7FEA4F57871BDF84E50C9F8E7
:102270009C53A1F10800982202F02AFC04F50D718C
:102280004C22081F02F024FCD9E9CA67A4F550715A
:10229000A1F108004FF44672CBE92C67CBF87C56CD
:1022A00002F016FC94ED047B2046F0E90C670D9DCE
:1022B00021468AED007B94ED067B9DED006BC5E920
:1022C0000067F1E90E679DED004B234684ED047B2A
:1022D00094ED087B8BEDF66B84ED086BC0E900672D
:1022E00094ED106BF3E9126784ED067B99EDCC7BDE
:1022F00059EC148B94ED005B14EE102A81ED006B09
:10230000C4E910679BEDFE6BDBE9FA6783ED004BD8
:1023100021464B46E1E8162304F150004FF4C47205
:102320008BEDFE5B8BEDFC6BCBE9F8678BEDFA4B2D
:102330008BEDF47B02F0CCFB9DED007B9BF88E36A1
:102340008BF88D3684ED767B0C9B8BF88E369DED6D
:10235000047B0A9B9BF88B268BF88A2683ED007BF7
:102360000F9A079B9BF898E69BF890C69BF895867A
:102370009BF89A769BF891669BF89B568BF88B2678
:102380008BF895369BF89326109B9BF892069BF84A
:102390009C168BF897E68BF88FC69BF89D968BF86A
:1023A00098368BF894868BF899768BF890668BF834
:1023B0009A568BF89226174A119B8BF891069DED41
:1023C000087BD2F808018BF89336029B8BF89D3678
:1023D0000B9B8BF89B16013083ED007B8BF89C9652
:1023E000C2F808011546D2F82041FEF743F802462C
:1023F0000B46D5E94401FEF7B7F8D5F8183101339B
:102400000AE000BF00100240D80C0020E00C0020C1
:10241000F80A0020D8010020C4E90001C5F81831ED
:1024200015B0BDEC0C8BBDE8F08F98F81C2189F835
:10243000A22343E698F8202189F8A2233EE698F8E3
:10244000212189F8A22339E698F8222189F8A223CC
:1024500034E698F8232189F8A2232FE698F824215E
:1024600089F8A2232AE698F8263189F8A13345E4B1
:1024700098F8273189F8A13340E498F8283189F891
:10248000A1333BE498F8293189F8A13336E498F870
:102490002A3189F8A13331E498F82B3189F8A13336
:1024A0002CE498F82C3189F8A13327E498F82D31E1
:1024B00089F8A13322E498F82E3189F8A1331DE47C
:1024C00098F8303189F8A033FFF7E2BB98F8313142
:1024D00089F8A033FFF7DCBB98F8323189F8A033D4
:1024E000FFF7D6BB98F8333189F8A033FFF7D0BB9C
:1024F00098F8343189F8A033FFF7CABB98F8353122
:1025000089F8A033FFF7C4BB98F8363189F8A033B7
:10251000FFF7BEBB98F81E2189F8A223CEE598F8F4
:102520001F2189F8A223C9E598F81D2189F8A22363
:10253000C4E5002E40F08A81BB4CDDE90401D4E9FA
:102540000023FDF759FEB94B0022FEF79DFA002843
:102550003FF41CACA4F1080308939FEDB10BB44BFE
:10256000089A032183ED000B03ED080B82ED000BAD
:1025700089EDD20B03ED060B03ED040B03ED020B0B
:102580008BF8A716FFF73ABB002E3FF4FFABDDE94F
:102590000401A74B63E80A010922C3E9000199ED90
:1025A000D20B8BF8A726FFF729BBA24C0022D4E957
:1025B00000010023FEF740FA002840F02481254660
:1025C000F5E9020100220023FEF736FA002840F068
:1025D00074812546F5E9040100220023FEF72CFA58
:1025E00000287FF4C5ABF4E9060100220023FEF7C2
:1025F00023FA00283FF4BCAB9DED047B84ED007B07
:10260000022399EDD20B8BF8A736FFF7F7BA9BF8A8
:10261000AA36002B7FF4C3AD40F20123ABF8AA36F3
:10262000029B00200021C9E9D401002B3FF4BBAD7F
:10263000002F00F09980002302931193BAE5002344
:102640008BF89636FBB210939BF899363E46002BDA
:102650007FF486AD784B0B93D3E90045DDE9002389
:1026600020462946FEF7FCF9002800F08C809DEDFD
:10267000007B8DED087B79E59BF8A936012B7AD09C
:10268000002E3FF458AD9DED047B012389EDD47BF2
:102690008BF8A9364FE5694B0A93D3E90045DDE98C
:1026A000002320462946FEF7E5F9002878D09DED65
:1026B000007B8DED047B31E59BF89F36013B042BBD
:1026C00000F26181DFE803F02F20401103000929A7
:1026D00000F28B80D9F89833594AC9F82023002B8F
:1026E00078D000214FF400730AE51329F2D9DBF802
:1026F0008436032103F001030022C9F898338BF8D4
:102700009F168BF8A026E7E7D9E9D4014D4B0022AC
:10271000FEF792F90028DDD0062200238BF89F26D1
:102720008BF8A036D6E7DBF88436002B55D0092984
:10273000D0D903F0010303210022C9F898338BF8A4
:102740009F168BF8A026C7E70929C3D9DBF8842692
:10275000D9F898335208CBF8842601228BF89F26AB
:1027600000228BF8A026B7E7029B83F001030293B7
:10277000012311931EE5002E3FF4DDAC9DED047B9B
:1027800089EDD47BD7E445EC104BFEF7FDFD002826
:102790007FF46DAF0B9B93ED007B8DED087BE5E443
:1027A00045EC104BFEF7F0FD002880D10A9B93ED1D
:1027B000007B8DED047BB1E49DED087B89EDD47B3E
:1027C000EDE4214900220023C9E9CE23C1E9002319
:1027D000FEF741BF4FF0007192E405228BF8A0365E
:1027E0008BF89F26D9F8983376E702210023CBF89F
:1027F0008426134A8BF89F16C9F89833C9F820230A
:102800004FF000717CE49DED047B84ED007B04239C
:1028100099EDD20B8BF8A736FFF7F0B9AFF3008034
:102820000000000000000000F80C00200000104034
:10283000200D0020000D0020E00C0020D80C00200E
:10284000001002400000F03FE80C0020594B0893B4
:10285000D3E900450022584B20462946FEF700F9EF
:10286000002835D020460124544B8BF8A746294632
:102870000022FDF7C3FC089D02462C460B46E4E807
:1028800002239DED047B4E4B84ED007B0022FDF77F
:102890006BFED5E90C2304460D46DDE90401FDF786
:1028A000ABFC02460B4620462946FDF787FFC9E9E7
:1028B000D20141EC100BFFF7A1B99DED047B85ED32
:1028C000007B082399EDD20B8BF8A736FFF796B95A
:1028D000089B1946F1E902230B91DDE90401FDF79C
:1028E0008BFC384B0022FEF7CFF800287FF435AE82
:1028F000314B002220462946FEF7C6F800283FF457
:1029000045AA204606242E4B8BF8A74629460022CE
:10291000FDF72AFE089B0D461946F1E90C230446F3
:102920000A91DDE90401FDF767FC0B4602462946E2
:102930002046FDF743FF9DED047B089C41EC100B06
:102940000B9994ED045B81ED007B94ED087B0A9973
:10295000234694ED066B81ED005B84ED067BF3E985
:102960000A019DED047B84ED046BC4E9080183ED4D
:10297000007B89EDD20BFFF741B9002F3FF4F4AE95
:10298000079B029314E404297FF6A4AE00230422DB
:102990008BF8A03603F180438BF89F2603F50433B0
:1029A0000122C9F89823C9F820339AE699F8A2239E
:1029B000FFF784BBF00C0020000008400000F03F4F
:1029C00000004E40000010402DE9F043082089B07F
:1029D000FEF790FC6DA7D7E90067634A634D644B2F
:1029E000644CA86E546102F58E7102F5907CC2E9C8
:1029F0004467C2E90221D5E9166702F58871C2F879
:102A000084C091624FF0010C02F59471C2F820115C
:102A1000C2F8D02082F81CC1A3F1180403F214629A
:102A200003F1A001E3E802678B4242F8040FF9D1F9
:102A3000D5E91801504B04F57672E3E802019342A0
:102A4000FBD14E4BD5E934011A46E2E80201C4E954
:102A5000FC01C4E9FE01D5E93801D5E92C89C3E9B7
:102A60000A01C3E90C01C3E90E01C3E91001C3E97E
:102A70001201D5E93001D5E93667C4E9F801C4E9A6
:102A8000FA01C4E9F689D5E93A01C2E90067C3E968
:102A90000467C3E90667C3E9086704F5BC625033FD
:102AA000E3E802019A42FBD1354E95F8113195F8D1
:102AB000102195F8141195F8177184F88C36D5E922
:102AC000148995F8123195F815C184F88A2684F88E
:102AD0008B2684F88D3684F88E3684F8941695F813
:102AE000163184F8951606F1AF0095F8131184F8A5
:102AF00096C6052284F8973684F89836C6E9008988
:102B000002F000F8394606F1B900052201F0FAFF9B
:102B1000D5E912231B49B5F81801A1F8A00300203C
:102B200095F81A7100900125C6E902230423A6F244
:102B3000D656DFF860C0059681F8A2732070207227
:102B40008DF81000104F65602A4619464FF00116A7
:102B500003A8CDF81CC006970396FEF7CBF92572A3
:102B6000606109B0BDE8F083D801002000000020BA
:102B700010070020384B0008B0070020F80A00209A
:102B8000D80C00205003002000220140FCA9F1D203
:102B90004D62503F00640240074B1A7822B95A68D0
:102BA00001218A42197000D07047197A0029FBD0A0
:102BB00058690421FEF7B8BAF806002008B5BFF33B
:102BC0004F8FBFF36F8F094A0949136809688B4219
:102BD00006D30123136072B6FEF7F8FA62B608BD99
:102BE000591C1160002BF6D008BD00BFAC0D0020B1
:102BF000A80D0020024A536843F080535360704789
:102C000000ED00E0254BD3ED007AF8EE677A10B4C2
:102C100027EE800AFCEEC07A17EE903AB3F1807F7F
:102C20002AD3F8EE676A9FED1E7A1E49C6EE877AB0
:102C3000FCEEE77A17EE902A0132B3FBF2F3013B88
:102C4000B3F1807F0A6009D2174A18485360F02414
:102C50000021072380F8234091601360144A134B2E
:102C6000144815491060F02200200860DA7783F8D4
:102C700022205DF8044B70470A49013B0022B3F162
:102C8000807F0A60EAD2084908484B60F024072395
:102C900080F823408A600B60E0E700BF4401002019
:102CA000FFFF7F4BA80D002010E000E000ED00E0EA
:102CB000B00D0020BD2B0008AC0D0020EFF300800C
:102CC00001B5EFF3118003B41EF0100F08BFB0EE92
:102CD000400A0A48006803B488B004A006904FF088
:102CE000807007906FF006008646704703BC8047EF
:102CF000BFF36F8F00DFFEE700BF0000B00D0020C4
:102D00001EF0100F08BFB0EE400A1EF0040F0CBFFB
:102D1000EFF30880EFF30980816911F8020C10B11C
:102D200001280DD00BE01EF0100F0CBF1AB008B038
:102D300003BC80F3118803BC80F300880847FEE7DA
:102D40004EF61451CEF200010A6842F001020A6008
:102D50007047F4E700BF00BF2D4B1A6822F00F0246
:102D600042F0050210B51A601A6802F00F02052A37
:102D7000FAD1284A284B116841F44041116011688A
:102D800021F4803111601A6842F480321A601A68A6
:102D90009203FCD55C68214821491F4A2040014329
:102DA0005960596821F440315960196841F08071C7
:102DB000196013689B01FCD59368174C23F0F0034E
:102DC0009360936823F4E05343F4A05393609368B3
:102DD00023F4604343F400439360936823F00303B8
:102DE00043F002039360A36803F00C03082BFAD1AD
:102DF0000C4800F037FF002000F080FD08B172B6EB
:102E0000FEE7D4F88C3023F08073C4F88C3010BD0A
:102E1000003C024000700040003802400080BFFFCC
:102E2000042A4000007A030AF0B5002397B0CDE9E8
:102E30001333CDE90233CDE90B33CDE90D33CDE9C1
:102E400007334D4A04930A930693129309931593FB
:102E5000516C4A484A4C41F480615164516C01F410
:102E6000806101910199116B41F020011163126B96
:102E7000149302F0200200920323202210A9CDE92E
:102E80001023009D00F07AFD3E4B1A6822F060622C
:102E900042F080621A601A6822F0C0021A601A6852
:102EA00022F440321A601A6822F4907242F480725E
:102EB0001A601A6822F400721A601A6842F480627A
:102EC0001A601A6822F4C05242F400621A601A684A
:102ED00022F4C04242F400521A605A6922F00402FD
:102EE0005A610026002702A94FF480752046CDE9DB
:102EF0000267049500F02AFE0AA92046CDE90A6778
:102F0000CDE90C670E9500F03BFEA3681E4843F424
:102F10008063A36006A94FF44033069300F0E6FDFA
:102F20004FF44073194A93FAA3F33BB1B3FA83F316
:102F30004FF4007121FA03F302EB83021368104986
:102F400023F01F0343F00F031360CA684FF0F873B8
:102F500093FAA3F363B1B3FA83F34FF47001D9404A
:102F600007238B40DB4306491340CB6017B0F0BD0D
:102F70006FF00703F7E700BF00380240001402407B
:102F80000022014010640240002301402C22014035
:102F90002DE9F043354D364C93B00AA8202200218C
:102FA00001F0B0FD2B6B334843F004032B632B6B14
:102FB00003F004030393039B2B6B43F001032B6388
:102FC0002B6B03F001030293029E04A94FF40072DD
:102FD00002234FF000084FF0010901260427CDE934
:102FE0000423CDE90689CDE9086700F0C7FC04A9F0
:102FF0004FF4807202232048CDE90689CDE90867A5
:10300000CDE9042300F0BAFC2B6CDFF8709043F498
:1030100000032B642B6C03F400030193019BE36812
:1030200023F00103E360236823F040032360236857
:1030300023F080032360002200230AA920464FF0DA
:1030400000084FF480664FF48047CDE90C23CDE9AA
:103050000E23CDE90A89CDE9106700F019FFE36876
:1030600023F0FE03E36013B0BDE8F08300380240B4
:10307000005C00400008024000000240A086010001
:10308000D0B592B008A82822002101F03BFD214BC9
:1030900021485A6C214C42F480125A645A6C02F452
:1030A00080120192019A1A6B42F020021A631B6B84
:1030B00003F0200300934FF460720223CDE9022352
:1030C0000099002600270022052302A9CDE9062346
:1030D000CDE9046700F052FC00224FF48273CDE981
:1030E000082300224FF40073CDE90C23182200239B
:1030F000CDE90E2308A900220A232046CDE910239A
:10310000CDE90A6700F04AFF636823F010036360AB
:1031100012B0D0BD003802400014024000500140FF
:1031200030B587B00023164AADF80630516C154C07
:1031300041F001015164526CADF8043002F001021B
:10314000009220464FF6FF7201A9CDE904330293A5
:10315000009D039201F0DAF8236823F080032360D6
:10316000A36823F4804323F00703A360636823F07C
:1031700070036360A36823F08003A36007B030BDD1
:10318000003802400000014030B5002491B0CDE984
:103190000844CDE90A44CDE90C44364B0E945A6CF0
:1031A0003548364D42F010025A645A6C02F0100253
:1031B0000192019A1A6B42F001021A631B6B03F031
:1031C000010300934FF4C0620223CDE902230322DE
:1031D0000023CDE9042300990022072302A9CDE9A9
:1031E000062300F0CBFB264B1A6822F0606242F007
:1031F00000621A601A6822F0C0021A601A6822F48B
:1032000040321A601A6822F490721A601A6822F426
:1032100000721A601A6842F480621A601A6822F416
:10322000C0521A601A6822F4C0421A605A6922F029
:1032300004025A614FF4E1320023CDE90823002251
:103240000023CDE90A2308A90C2200232846CDE952
:103250000C230E9401F0B6F82B6923F490432B61F4
:103260006B6923F02A036B61EB6843F40053EB6056
:1032700011B030BD00380240000002400010014093
:10328000406402400D4A0E48116B0E4B41F4800120
:103290001163126B82B002F4800201920022019944
:1032A000C16883F838234FF080715960C16883F892
:1032B0003A234FF080625A6002B0704700380240F3
:1032C00000ED00E000E100E02DE9F04F2DED048B72
:1032D0004FF0000993B0CDE90A99D94BCDF844904D
:1032E0001A6B9FEDD89A9FEDD88AD84EDFEDD89A09
:1032F000DFEDD88A42F010021A631A6B02F0100256
:103300000992099A1A6B42F004021A631A6B02F0CE
:1033100004020892089A1A6B42F020021A631A6B90
:1033200002F020020792079A1A6B42F080021A6399
:103330001A6B02F080020692069A1A6B42F00102A2
:103340001A631A6B02F001020592059A1A6B42F099
:1033500002021A631A6B02F002020492049A1A6BB8
:1033600042F040021A631A6B02F040020392039A81
:103370001A6B42F008021A631B6B03F008030293F6
:10338000029819EE100A4FF05F714FF4B01281618C
:1033900018EE104AB26119EE902A4FF05C5E4FF4BD
:1033A00000039361C4F818E018EE904A4FF0C04C47
:1033B000C4F818C04FF45F72012300274FF00008D3
:1033C0000CA9CDE90C23CDE90E78CDF8409000F0A2
:1033D000D5FA4FF61F020223CDE90C230324002265
:1033E0000C2300250CA99C4892469B46CDE90E452E
:1033F000CDE9102300F0C2FA4FF480620223CDE938
:103400000C230CA900220E239348CDE90E78CDE9B8
:1034100010231746984600F0B1FACDE90E45012277
:10342000022354465D460CA93046CDE91045CDE94E
:103430000C23002400F0A2FA0025162201230CA977
:103440003046CDE90E45CDE90C23CDF8409000F093
:1034500095FACDE90E4541F6580202233C46454611
:103460000CA919EE900ACDE91045CDE90C230024F2
:1034700000F084FA0025802201230CA919EE900A9D
:10348000CDE90E45CDE90C23CDF8409000F076FA59
:1034900003220223CDE90E45CDE90C230CA900231C
:1034A00009246E48CDE91034002500F067FA0324A2
:1034B000042200230CA96948CDF84090CDE90C23E3
:1034C00000F05CFACDE90E4548F23312022354466F
:1034D0005D460CA918EE900A5746D846CDE910452E
:1034E000CDE90C23032400F049FA00254FF683426E
:1034F00002230CA919EE100A4FF0000A4FF00E0B30
:10350000CDE90E45CDE90C2300240025CDE9107846
:1035100000F034FA4FF4706202230CA94F48CDE951
:103520000E45CDE910ABCDE90C2300F027FA4FF49E
:10353000504202230CA94948CDE90E45CDE90C23A0
:10354000CDE9107800F01AFA4FF4005200230CA9CC
:103550004248CDF84090CDE90C2300F00FFA4FF42B
:103560005C5201230CA918EE100ACDE90E45CDE9F5
:103570000C23CDF8409000F001FA4FF400620023D4
:103580000CA918EE100ACDE90C2303240025CDF870
:10359000409000F0F3F94CF2030202230CA918EE5C
:1035A000100ACDE90045CDE90E45CDE90C230024F4
:1035B0000025CDE9107800F0E1F94FF40C62022308
:1035C0000CA918EE900ACDE910ABCDE90C23CDE99A
:1035D0000E4500F0D3F94FF4986202230CA930464F
:1035E000CDE910ABCDE90C23CDE90E4500F0C6F9CD
:1035F000CDE910AB482202230CA94FF0000A4FF08E
:10360000090B18EE100ACDE90C23CDE90E4500F0A8
:10361000B5F9CDE910AB4FF4A0520223A246AB4658
:103620000CA918EE900ACDE90C23CDE90EAB00F001
:10363000A5F94FF4C04201230CA918EE900A0FE03F
:103640000038024000100240000C02400008024016
:103650000000024000180240001402400004024032
:10366000CDE90C23CDE90EABCDF8409000F086F902
:10367000DDE90045602202237D480CA9CDE90C2339
:10368000CDE90E45CDE9107800F078F9794B9A68CC
:1036900022F00F029A609A6822F0F0029A609A680B
:1036A00022F470629A60DA68F02322F0F00293FA52
:1036B000A3F32BB1B3FA83F3022101FA03F31A4304
:1036C0006C4BDA605A6922F470425A61012440F26C
:1036D00001150AA80A948DF82E40ADF82C5000F080
:1036E000C7FA02230AA88DF82E400A93ADF82C5091
:1036F00000F0BEFA04230AA88DF82E400A93ADF814
:103700002C5000F0B5FA20230AA88DF82E400A9319
:10371000ADF82C5000F0ACFA4FF400430AA88DF835
:103720002E400A93ADF82C5000F0A2FA94FAA4F4BB
:10373000514BDB683CB1B4FA84F46400032202FA12
:1037400004F423EA04034C4AD360D268022393FAB8
:10375000A3F33BB1B3FA83F35B00032101FA03F354
:1037600022EA0302444BDA60DA68042393FAA3F3F3
:103770003BB1B3FA83F35B00032101FA03F322EABE
:1037800003023D493D4BCA60DA68202393FAA3F354
:103790003BB1B3FA83F35B00032101FA03F322EA9E
:1037A00003023649344BCA60DA684FF4004393FA97
:1037B000A3F33BB1B3FA83F35B00032101FA03F3F4
:1037C00022EA03022C4BDA601A68012393FAA3F36E
:1037D0003BB1B3FA83F35B00032101FA03F322EA5E
:1037E0000302254B1A601A68022393FAA3F33BB134
:1037F000B3FA83F35B00032101FA03F322EA030225
:103800001D4B1A601A68042393FAA3F33BB1B3FA71
:1038100083F35B00032101FA03F322EA0302164952
:10382000164B0A601A68202393FAA3F33BB1B3FA4C
:1038300083F35B00032101FA03F322EA03020F4939
:103840000D4B0A601A684FF4004393FAA3F33BB19F
:10385000B3FA83F35B00032101FA03F322EA0302C4
:10386000054B1A6013B0BDEC048BBDE8F08F00BFB0
:1038700000040240003801400000024000080240FD
:10388000034B02689A4200D0704700F0F5BA00BFBF
:10389000000C0040FEE700BFFEE700BFFEE700BFF0
:1038A000FEE700BFFEE700BF704700BF014800F021
:1038B0007FBC00BFB40D0020704700BF82B00E4B2C
:1038C00000220092596C41F480415964596C01F412
:1038D0008041009100990192196C41F08051196466
:1038E0001B6C03F080530193019B0F216FF00100CB
:1038F00002B000F061BA00BF0038024030B50146A6
:1039000089B00022322000F057FA322000F08CFA01
:103910000025164B02951A6C154C42F008021A64E9
:103920001B6C03F0080301A9029303A8029B00F09B
:103930000DFA00F0FBF90F4A0F4925614300A2FB85
:1039400003239B0C013B40F2E7322046C4E90135DA
:103950002160E26000F05AFB10B1012009B030BDD7
:10396000204600F0E1FB09B030BD00BF0038024046
:10397000B40D002083DE1B43000C00402DE9F0470E
:103980000D6895FAA5F2B2FA82F235FA02F300F068
:10399000848001264FF0030C4FF00F0E38E0D1F871
:1039A0001080D0F80C9093FAA3F737B1B7FA87F7E5
:1039B0007F000CFA07F729EA070993FAA3F7002F0B
:1039C0006ED0B7FA87F77F0008FA07F747EA0907CA
:1039D000022CC76048D093FAA3F80768B8F1000F2B
:1039E00007D0B8FA88F84FEA48080CFA08F827EA2E
:1039F000080793FAA3F3002B54D0B3FA83F35B00C8
:103A000004FA03F33B430360013235FA02F344D076
:103A100006FA02F32B40F7D04C68671E012FBED880
:103A200093FAA3F7D1F80880D0F8089037B1B7FA25
:103A300087F77F000CFA07F729EA070993FAA3F73B
:103A4000002F4FD0B7FA87F77F0008FA07F747EA49
:103A500009078760476827EA0308CF6807FB03F771
:103A600048EA070747609AE793FAA3F7E7B1B7FA7E
:103A700087F8B8F1070F17DCD0F820A04F694FEA9C
:103A800088090EFA09F94FEA88082AEA090A07FAAA
:103A900008F747EA0A0707629DE70020BDE8F087BC
:103AA000402791E74023ABE71F0AD1F81480D0F8F4
:103AB000249097FAA7FABAF1000F07D0BAFA8AFA57
:103AC0004FEA8A0A0EFA0AFA29EA0A0997FAA7F7C8
:103AD00057B1B7FA87F7BF0008FA07F747EA0907AF
:103AE000476278E74027B0E78027F5E770B4134BCB
:103AF000134C144AA4689B6892682343134313F041
:103B0000010310D14A68054640687AB10E4C0E6830
:103B10000440D1E902012243324302430A431846DA
:103B20006A6070BC7047012070BC7047064B096822
:103B300003400B4310466B6070BC7047002101408E
:103B40000020014000220140E010FCFF836813F0D8
:103B5000010313D170B40246446891E8610024F077
:103B6000407424F48074304320435060916821F401
:103B700000612943184670BC91607047012070476E
:103B80008368DB071AD470B44C684368C4B923F463
:103B90006843436082680D4BCE680D6913400A6824
:103BA00033432B4302F0706213438360C36A23F4F0
:103BB00070032343C36270BC00207047012070472C
:103BC0008A6823F4684313434360E3E7FDFCFFC0C6
:103BD0001F4A936803F00C03042BF0B436D0082B73
:103BE00032D157685568536851681A4C1A4EC1F360
:103BF0000141C3F3881217F4800F01F101010CBFDA
:103C00002346334605F03F044900B3FBF4F302FBBF
:103C100003F3B3FBF1F30E4A036091680F4D104CB0
:103C2000C1F30311695CCB4043609168C1F3822109
:103C3000615C23FA01F181609268C2F34232A25CB6
:103C4000D340F0BCC3607047024BE4E7024BE2E7AD
:103C5000003802400024F40000127A00504B0008A3
:103C6000604B0008014B1860704700BF4401002002
:103C700010B403460079A0B1186878B15A79012AC6
:103C800034D0022A1AD042B301229B790BB3022B03
:103C900031D0032B43D0012B37D001205DF8044BEA
:103CA0007047214A1C68116821EA040111605368B9
:103CB00023EA040353605DF8044B70471A4A116805
:103CC000014311605168014351609B790022002B30
:103CD000DDD110465DF8044B704713494C6824EA67
:103CE00000044C600C6804430C60CEE70E4A116877
:103CF00021EA0001E5E70C4B996821EA000199608F
:103D0000D9680843D8601046E4E7074BD96821EA30
:103D10000001D9609968084398601046BEE7024BDD
:103D200099680143EBE700BF003C0140044B054AA2
:103D30009B680549C3F382230868D35CD840704769
:103D400000380240604B0008440100200E4B0F2257
:103D500002609A6802F0030242609A6802F0F00280
:103D600082609A6802F4E052C2609B68DB0810B47B
:103D700003F4E053054C036123685DF8044B03F042
:103D80000F030B60704700BF00380240003C024048
:103D90000849CA6810B400024FF6FF04224000F43C
:103DA000E063134343F0BF6343F400335DF8044B17
:103DB000CB60704700ED00E0194BDB68C3F30223D2
:103DC00030B4C3F10705042D03F1040428BF042512
:103DD000062C19D9033B4FF0FF349C4022EA040221
:103DE0004FF0FF34AC4021EA04019940002841EA39
:103DF00002010CDB00F1604000F561400901C9B22D
:103E000080F8001330BC704700221346E8E7054BEA
:103E100000F00F0009010344C9B2197630BC7047A5
:103E200000ED00E0FCEC00E0002807DB044A00F0B5
:103E30001F01012340098B4042F82030704700BF2A
:103E400000E100E008B50B4B1A6842F400721A60FA
:103E50001A6842F480621A601A6842F480721A602A
:103E60000320FFF795FF0020FFF748FDFFF726FD31
:103E7000002008BD003C0240034A044B11681B7837
:103E80000B441360704700BFFC0D00204001002070
:103E9000F0B50368044685B023F00103036068466B
:103EA0000D46FFF795FE676AE9680298384B27F0E0
:103EB0001F0C2F69394341EA0C01D5E901626162A7
:103EC0006168DFF8D0C0A3FB007321F03F0141EA35
:103ED00093416160276A66454FEA934327F03F07A5
:103EE0002ED8013340F6FC7172003B43B0FBF2F276
:103EF0000A42236208BF0422E3696969EE6923F478
:103F00004F4323F0FF031343E361A0682B68AD69BF
:103F100020F4034020F0FF0031430143A1602268F8
:103F200022F01A021A432260226842F00102226043
:103F3000236823F480632B430020236005B0F0BD89
:103F4000DFF854C04FF4967101FB03F1ACFB013173
:103F5000890901313943216252B906EB4603B0FBAE
:103F6000F3F3C3F30B0181B948F201031A43C3E72A
:103F700006EB860606EB8606B0FBF6F6C6F30B03E9
:103F8000002BF1D046F40043F0E743F40043EDE7A3
:103F900083DE1B43A0860100D34D621002460068F9
:103FA00010F0400027D1F0B4D1E90037D1E9025434
:103FB0003B430E692B43D1E90575234333433B4310
:103FC0002B43D1E907651468334324F47F442B4322
:103FD00024F0BF0423431360536823F0040343EA2F
:103FE0001743B5F5005F53600BD0D36923F400632A
:103FF000F0BCD3617047D36923F400630120D3611F
:1040000070478B8C1361F0E7704700BF002800F009
:10401000878038B590F83D30044603F0FF02002B4E
:1040200079D022683F49022384F83D308A421368E0
:104030005DD0B2F1804F31D0A1F57C418A422DD0C4
:1040400001F580618A4229D001F580618A4225D03C
:1040500001F578418A424AD001F570518A4221D057
:1040600001F580618A421DD001F580618A4219D034
:10407000A1F598318A4215D001F580618A4211D0AC
:1040800001F580618A420DD0A569E068616823F07E
:1040900080032B431360D062916210E0A16823F08B
:1040A00070030B432569A169E06823F440732B4337
:1040B00023F080030B4361681360D0629162012397
:1040C000536184F8463084F83E3084F83F3084F8F9
:1040D000403084F8413084F8423084F8433084F82A
:1040E000443084F8453084F83D30002038BDA56860
:1040F0002069A16923F070032B4323F44073034329
:1041000023F080030B431360E368D3626368936218
:1041100063691363D3E780F83C20FFF775FF80E7FE
:10412000012070470000014090F83D30012B2FD155
:1041300003681949022280F83D20DA688B4242F078
:104140000102DA6019D0B3F1804F16D0134A9342BE
:1041500013D002F5806293420FD002F58062934241
:104160000BD002F57842934207D002F57052934289
:1041700003D0A2F59432934204D19A6802F0070268
:10418000062A07D01A6842F001021A600020704720
:1041900001207047002070470000014000040040EB
:1041A000704700BF704700BF704700BF704700BF37
:1041B00003681A69910710B5044602D5DA689207B8
:1041C0005FD41A69500702D5DA68510746D41A69D4
:1041D000120702D5DA6810072ED41A69D20602D562
:1041E000DA68D00618D41A69D10702D5DA68D2077E
:1041F0005DD41A69100602D5DA6811065FD41A690F
:10420000520602D5DA68500661D41A69910602D5C1
:10421000DA68920643D410BD6FF0100108221961CC
:104220002277DB6913F4407F204664D0FFF7BAFFA2
:10423000002223682277D6E76FF008010422196173
:104240002277DB699907204652D1FFF7A9FF204664
:10425000FFF7AAFF002223682277BEE76FF0040170
:104260000222196122779B6913F4407F20463CD1DA
:10427000FFF796FF2046FFF797FF0022236822777B
:10428000A5E76FF002010122196102779B699B0784
:1042900025D0FFF787FF00222368227791E76FF090
:1042A000200220461A61BDE8104000F02BB86FF0E4
:1042B00001021A612046FFF7E3FA236899E76FF0DD
:1042C00080021A61204600F01FF8236897E76FF01C
:1042D00040021A612046FFF769FF236895E7FFF760
:1042E0005FFF2046FFF760FFD5E7FFF75BFFC4E7FE
:1042F000FFF758FFAEE7FFF753FF2046FFF754FFE5
:1043000096E700BF704700BF704700BF2C4A0368A4
:10431000904230B444D0B0F1804F33D0A2F57C420B
:1043200090422FD002F5806290422BD002F580623D
:10433000904227D002F57842904231D002F5705277
:10434000904223D002F5806290421FD002F5806235
:1043500090421BD0A2F59832904217D002F58062AD
:10436000904213D002F5806290420FD08C680A8888
:104370000360C4628262436943F00103436130BC5D
:10438000002070474A6823F070031343D1E90245C7
:1043900023F440730A882B430360C4628262EAE715
:1043A0004D68CC680A8823F070032B4323F44073D4
:1043B000234303608B68C36282620B690363DAE79D
:1043C00000000140C3689B0401D50120704730B54F
:1043D0004B6804460D46D1E90310E2680B43A96916
:1043E000034322F416420B4322F00C021343E36012
:1043F0002269AB68696922F440521A4322616369F9
:1044000023F440730B4385B063616846FFF7E0FB1C
:10441000314B9C4220D0314B9C4216D0304B9C42B9
:1044200013D003F54C439C4216D0A3F548439C425D
:104430000BD003F580639C4207D003F520539C42C8
:1044400003D003F580639C4203D1029909B12B6824
:1044500023B9012005B030BD0399F7E7AA69B2F589
:10446000004F18D019209A00A1FB00019B0FFCF708
:104470004BFB1C4DA5FB00235B09642101FB1302D0
:1044800012013232A5FB02121B0103EB52139BB245
:10449000A3600020DEE7DA184FF019004FF00003A8
:1044A0005B41A1FB0001FCF72FFB0E4DA5FB003289
:1044B0005109642202FB1103DB003233A5FB032305
:1044C000C3F342121B0902EB011203F4F873134405
:1044D0009BB2A3600020BDE70010014000440040F3
:1044E000004800401F85EB51034AD2F8883043F45E
:1044F0007003C2F88830704700ED00E0DFF834D078
:104500000D480E490E4A002302E0D458C45004332B
:10451000C4188C42F9D30B4A0B4C002301E0136002
:104520000432A242FBD3FFF7DFFF00F09FFAFCF753
:1045300065FE70470000032000000020B00100204D
:10454000884B0008B0010020000E0020FEE70000AC
:1045500051EC100BF8B5C1F30A53A3F2FF35132D3C
:1045600010EE106A0C4632DC002D1EDB364F2F4158
:1045700001EA070303432FD031A3D3E90023FBF75C
:104580003DFE00220023FCF77FFA48B1002C04DD39
:104590004FF4801343FA05F52C4424EA070400265F
:1045A0002346324643EC102BF8BD25A3D3E9002364
:1045B000FBF724FE00220023FCF766FA0028EFD068
:1045C000002C39DB264333D0204C0026E8E7332D7E
:1045D00005DDB5F5806F23D041EC100BF8BDA3F2DB
:1045E00013434FF0FF37DF400742F5D014A3D3E960
:1045F0000023FBF703FE00220023FCF745FA002806
:10460000CED0002C09DD142D14D00123C5F13405C2
:1046100003FA05F5AE1928BFE41826EA0706BFE736
:1046200010EE102A0B46FBF7E9FD41EC100BF8BD2C
:104630003446B5E70134F0E700264FF00044AFE719
:104640009C7500883CE4377EFFFF0F000000F03FC0
:1046500051EC100BF8B5C1F30A53A3F2FF35132D3B
:1046600010EE106A0C4620DC002D3DDB384F2F4148
:1046700001EA070303431DD033A3D3E90023FBF76B
:10468000BDFD00220023FCF7FFF948B1002C04DA3D
:104690004FF4801343FA05F52C4424EA070400265E
:1046A0002346324643EC102BF8BD332D05DDB5F51E
:1046B000806F29D041EC100BF8BDA3F213434FF0EB
:1046C000FF37DF400742F5D01FA3D3E90023FBF7F4
:1046D00095FD00220023FCF7D7F90028E0D0002C3C
:1046E00023DB26EA0706DBE717A3D3E90023FBF762
:1046F00085FD00220023FCF7C7F90028D0D0002C4C
:104700000ADB00263446CBE710EE102A0B46FBF7F7
:1047100075FD41EC100BF8BD24F000430D4A1E431B
:10472000002E18BF14460026BAE7142D08D0012326
:10473000C5F1340503FA05F5AE1928BFE418D0E732
:104740000134CEE7AFF300809C7500883CE4377EEF
:10475000FFFF0F000000F0BFF8B52DED028B57EC06
:10476000106B55EC114B00F03BF81C4BB0EE408A3F
:10477000F0EE608A93F90030013314D022462B46C4
:1047800020462946FCF78AF968B932463B4630464E
:104790003946FCF783F930B9204629460022002328
:1047A000FCF74AF930B9B0EE480AF0EE680ABDEC01
:1047B000028BF8BD00F054F9002200232121016092
:1047C00010461946FBF7FAFF41EC180BB0EE480A09
:1047D000F0EE680ABDEC028BF8BD00BF4801002076
:1047E00053EC112B2DE9F04723F0004555EA020662
:1047F00051EC100B34D0944E21F00049B14588465D
:104800002EDC5642DFF844C2164345EAD6766645AA
:1048100011EE10EA24D8A94511EE107A10EE10AA74
:1048200010EE102A1C4601F0004606DCC0F2BE80E5
:104830007045C0F0BB8000F0F080844B08EA0303B1
:10484000C3B9B9F1000F40F0D180BAF1000F80492F
:10485000534613DD5B00002B01F1FF31FADC0DE064
:10486000FBF782FE02460B46FBF7A8FF41EC100B5C
:10487000BDE8F0874FEA2951A1F2FF31734B234085
:1048800073B9002D40F0A680BEF1000FDFF8C0C163
:10489000734609DD5B00002B0CF1FF3CFADC03E002
:1048A0004FEA255CACF2FF3C6A4B994270DBC8F3DF
:1048B000130343F480136748844558DBC4F313049F
:1048C00044F48014A2EB0E00B1EB0C010AD11BE002
:1048D00050EA050343D0EB0F013903EB40034FEAE5
:1048E000450210D0181B974288BF00F1FF30002806
:1048F000A2EB07054FEAD27EEADA01390EEB430359
:104900004FEA4202EED1D01B1C1B974288BF04F134
:10491000FF34002CA4BF0246234653EA020106D10D
:104920001DE0D10F01EB43030CF1FF3C5200B3F546
:10493000801FF6DB47498C4564DAA1EB0C01142992
:1049400072DC0CF21E40CA4003FA00F043FA01F197
:1049500010430E433346024643EC102B88E73E4B90
:10496000F60F03EBC60696ED000BBDE8F087A0EB53
:104970000C001F2823DD394CB1EB0C01A4EB0C0417
:104980000EFA04F418BF0027ACD11C1B1046C0E778
:104990005A1A1F2A0DDC01F21E4309FA02F92AFAFB
:1049A00003F30AFA02F243EA090384E741EC100B2D
:1049B0005EE72A4B5B1A0AFA03F300227BE70CF24C
:1049C0001E4485400EFA00F72EFA04F040EA050472
:1049D000D01B79E7EB02002BDFF878C07FF764AFDC
:1049E0005B00002B0CF1FF3CFADC5DE74FEAC923CA
:1049F000002B18497FF742AF5B00002B01F1FF311C
:104A0000FADC3BE7A3F580131E430CF2FF3C46EAB9
:104A10000C51104641EC100B2AE70F4BF60F03EB3D
:104A2000C60393ED000B23E71F2907DC0CF21E40A1
:104A3000834022FA01F143EA01008BE70749A1EB29
:104A40000C0143FA01F085E7FFFFEF7F0000F07FE4
:104A5000EDFBFFFF02FCFFFF684B0008E2FBFFFFDE
:104A6000014B1868704700BF4C01002070B50D4D18
:104A70000D4C641BA4100026A64209D10B4D0C4C12
:104A800000F048F8641BA4100026A64205D170BDB2
:104A900055F8043B98470136EEE755F8043B984734
:104AA0000136F2E7804B0008804B0008804B00087D
:104AB000844B00080A44914200F1FF3300D1704753
:104AC00010B511F8014B03F8014F9142F9D110BD17
:104AD000884210B501EB020402D98442234607D86C
:104AE000431EA14208D011F8012B03F8012FF8E76B
:104AF000024401468A4200D110BD13F8014D02F86C
:104B0000014DF7E702440346934200D1704703F892
:104B1000011BF9E7F8B500BFF8BC08BC9E4670471A
:0C4B2000F8B500BFF8BC08BC9E4670470A
:104B3000102840587088A0B8466978656453746539
:104B4000704469736372657465000000D8010020C9
:104B5000000000000000000001020304060708092D
:104B6000000000000102030400000000000000003B
:084B70000000000000000080BD
:084B7800C0BFFF7F0100000037
:044B8000D501000853
:044B8400B101000873
:104B8800000000000000084000000000000018407D
:104B980000000000000000000000000000000840C5
:104BA800000000000000000000000000000008C035
:104BB80000000000000049400000000000003E40E6
:104BC8000000000000002440000000000000000079
:104BD8000000000000005940000000000000000034
:104BE80000000000000000000000000000000000BD
:104BF800000000000000F03F0000000000408F406F
:104C0800000000000000F03F00000000000000006D
:104C18000000000000FEAF4000000000000000009F
:104C28000000000000805B40000000000000000061
:104C3800000000000000000000000000000000402C
:104C4800000000000000000000000000000000401C
:104C5800000000000000000000000000000000004C
:104C6800000000000000000000000000000000003C
:104C78000000000000000040000000000000594053
:104C880000000000000024400000000000000000B8
:104C980000000100000001000000006F7F077D6D2B
:104CA800664F5B063F6F7F077D6D664F5B063F6F04
:104CB8007F077D6D664F5B063F0000000000000027
:104CC800010000000024F400FF0000005001002053
:104CD80000000000000000000000000000000000CC
:104CE80000000000000000000000000000000000BC
:104CF80000000000000000000000000000000000AC
:104D0800000000000000000000000000000000009B
:104D1800000000000000000000000000000000008B
:104D2800000000000000000000000000000000007B
:04000005080044FDAE
:00000001FF
