:1000000052C0000075C0000073C0000071C0000045
:100010006FC000006DC000006BC0000069C0000030
:1000200067C0000065C0000063C0000061C0000040
:100030005FC000009CC200005BC0000059C000000F
:1000400019C5000055C000001BC700004BC70000C9
:100050004FC000004DC000004BC0000049C0000070
:1000600047C0000045C00000010204081020408085
:1000700001020408102001020408102004040404F2
:100080000404040402020202020203030303030342
:1000900000000000250028002B00000000002400C4
:1000A00027002A00970711241FBECFEFD8E0DEBF3C
:1000B000CDBF11E0A0E0B1E0EEE6F0E102C00590B6
:1000C0000D92AC33B107D9F722E0ACE3B1E001C047
:1000D0001D92A338B207E1F710E0C3E5D0E003C0FA
:1000E0002197FE01BCD7C235D107D1F7A2D2BDC737
:1000F00087CFCF93DF93882341F0EB0181503FD529
:1001000099838883DF91CF910895FB01118210823A
:10011000F9CF0F931F938B019C0183E036952795B0
:10012000179507958A95D1F7045C1E4F462F4770A7
:1001300021E030E0F90102C0EE0FFF1F4A95E2F71F
:10014000AF01F80120812423CB010196211102C0C7
:1001500090E080E01F910F9108950F931F938B0102
:100160009C0183E036952795179507958A95D1F7D9
:10017000677081E090E001C0880F6A95EAF7F801A6
:10018000E45CFE4F2081452B31F4809582238083EF
:100190001F910F910895822BFACFCF92DF92EF92A9
:1001A000FF92CF93DF936B017C0160E08EE0C81675
:1001B000D104E104F10488F48EE08C0DFBD4E60157
:1001C0002196AE01C701B601C8DFCE01DF91CF9104
:1001D000FF90EF90DF90CF9008958C2DEFCF882384
:1001E00041F08150682F70E090E080E050E040E006
:1001F000B4CF08954F925F926F927F928F929F92A9
:10020000AF92BF92CF92DF92EF92FF922B013C010F
:1002100049015A01BC01A201442777FD43955527A6
:1002200066277727D501C4018827B7FD83959927CD
:10023000AA27BB27C12CD12C76014817C1F0C301D6
:10024000B201A5019401EFD6C12CD12C7601C39443
:10025000672B682B692B19F4C12CD12C7601F094F3
:10026000E094D094C094C11CD11CE11CF11CC301CA
:10027000B201A5019401D7D6CA01B9016C0D7D1D4B
:100280008E1D9F1DFF90EF90DF90CF90BF90AF909D
:100290009F908F907F906F905F904F900895CF9236
:1002A000DF92EF92FF92809180028F3118F48F5F7E
:1002B0008093800280917E028111A0C081E08093B2
:1002C0007E0283E080937F021092520210925302CA
:1002D000109254021092550260915602709157028A
:1002E000E8E5F2E081919191680F791F82E0EE37A5
:1002F000F807C1F7072E000C880B990B24E130E0BA
:1003000040E050E077DF90E080E09BD220910A014E
:1003100030910B0140910C0150910D012AD2209196
:100320000E0130910F0140911001509111013FD306
:100330006093F0017093F1018093F2019093F301C7
:10034000C0900601D0900701E0900801F0900901EB
:10035000A70196016091FE017091FF01809100025A
:100360009091010202D2882341F0C092FE01D09206
:10037000FF01E0920002F092010262E170E080E091
:1003800090E0C7DE9093FD018093FC0143E050E0D4
:1003900064EF71E0AEDEE2E0F2E0A6E5B2E04481B7
:1003A0005581668177814193519361937193129640
:1003B0008D919C9113978D939D9382E0EE34F80775
:1003C00071F78091F0019091F101A091F201B0914B
:1003D000F30180934E0290934F02A0935002B0938A
:1003E00051028091F4019091F50190937D028093E8
:1003F0007C02FF90EF90DF90CF90089580917F0274
:10040000813009F469CF823061F5C0905202D090FA
:100410005302E0905402F090550220E030E048ECA6
:1004200052E4C701B601BFD2181624F481E08093CC
:100430007F0252CF80918002843108F44DCF109218
:10044000800220E030E040E85FE3C701B60129D137
:10045000609352027093530280935402909355021A
:100460003BCF82E080937F021092800220E030E058
:1004700040E85FE360915202709153028091540210
:1004800090915502E4CF409100015091010160919B
:100490000201709103018091040190910501E2E055
:1004A000F2E0A6E5B2E041935193619371938D938D
:1004B0009D9322E0E235F207B1F71092F6018091A8
:1004C000060190910701A0910801B0910901809364
:1004D000FE019093FF01A0930002B09301021092DD
:1004E000FB0181E090E0A0E0B0E08093F701909301
:1004F000F801A093F901B093FA0162E170E080E0A5
:1005000090E04BDE9093FD018093FC0181E08093AD
:10051000FB0108958091F60181111DC081E0809357
:10052000F6018091F7019091F801A091F901B09145
:10053000FA010197A105B10571F48091FB018823AF
:1005400051F062E170E080E090E0E3DD9093FD0126
:100550008093FC0144CE089540E855E260E070E0ED
:1005600090E080E000C026E083E591E029C41F927E
:100570000F920FB60F9211242F933F934F935F93D7
:100580006F937F938F939F93AF93BF93EF93FF935B
:1005900086E09FEF909385008093840032D0FF9196
:1005A000EF91BF91AF919F918F917F916F915F91EB
:1005B0004F913F912F910F900FBE0F901F90189564
:1005C00086E09FEF9093850080938400AFE6B0E0D3
:1005D0008C918E7F8C93E0E8F0E080818C7F80832B
:1005E000E1E8F0E08081877E808380818360808382
:1005F00080818B7F80838C9181608C93089581E0D2
:1006000008958091470191E0980F909347018823C6
:1006100049F021E030E03093490120934801809374
:100620004701089578943BDEF8948091470181500A
:10063000F6CFCF93DF93109282021092810264D2A0
:100640008BDFC0912701D0912801198218821BDF0E
:10065000F894B6DF2881398181E0232B09F080E00E
:10066000809381027894789480918102811107C0EF
:1006700051DFF89490E080E0DF91CF9108952881D8
:10068000398181E0232B09F480E0809382029091EC
:10069000820281E0911180E080938102B0DFE4CF9B
:1006A0005058BB27AA270ED044C135D130F03AD1DB
:1006B00020F031F49F3F11F41EF42AC10EF4E095AE
:1006C000E7FB20C1E92F46D180F3BA176207730711
:1006D0008407950718F071F49EF55EC10EF4E0955D
:1006E0000B2EBA2FA02D0B01B90190010C01CA01EC
:1006F000A0011124FF27591B99F0593F50F4503E97
:1007000068F11A16F040A22F232F342F4427585F88
:10071000F3CF469537952795A795F0405395C9F7A0
:100720007EF41F16BA0B620B730B840BBAF0915058
:10073000A1F0FF0FBB1F661F771F881FC2F70EC0F7
:10074000BA0F621F731F841F48F4879577956795CA
:10075000B795F7959E3F08F0B3CF9395880F08F0B3
:100760009927EE0F979587950895A8D008F481E012
:1007700008950CD0DEC0D6D040F0CDD030F021F4BA
:100780005F3F19F0BFC0511108C1C2C0E3D098F358
:100790009923C9F35523B1F3951B550BBB27AA2702
:1007A00062177307840738F09F5F5F4F220F331F74
:1007B000441FAA1FA9F333D00E2E3AF0E0E830D040
:1007C00091505040E695001CCAF729D0FE2F27D043
:1007D000660F771F881FBB1F261737074807AB0711
:1007E000B0E809F0BB0B802DBF01FF2793585F4F86
:1007F0002AF09E3F510568F085C0CFC05F3FECF303
:10080000983EDCF3869577956795B795F7959F5F4A
:10081000C9F7880F911D9695879597F90895E1E09E
:10082000660F771F881FBB1F621773078407BA07FD
:1008300020F0621B730B840BBA0BEE1F88F7E09558
:100840000895E89409C097FB3EF4909580957095C3
:1008500061957F4F8F4F9F4F9923A9F0F92F96E90C
:10086000BB279395F695879577956795B795F11181
:10087000F8CFFAF4BB0F11F460FF1BC06F5F7F4F1E
:100880008F4F9F4F16C0882311F096E911C0772330
:1008900021F09EE8872F762F05C0662371F096E839
:1008A000862F70E060E02AF09A95660F771F881F08
:1008B000DAF7880F9695879597F90895990F0008AC
:1008C000550FAA0BE0E8FEEF16161706E807F90722
:1008D000C0F012161306E407F50798F0621B730BBD
:1008E000840B950B39F40A2661F0232B242B252B3E
:1008F00021F408950A2609F4A140A6958FEF811DE1
:10090000811D089597F99F6780E870E060E0089581
:100910009FEF80EC089500240A9416161706180617
:100920000906089500240A941216130614060506F3
:100930000895092E0394000C11F4882352F0BB0F84
:1009400040F4BF2B11F460FF04C06F5F7F4F8F4FE7
:100950009F4F089557FD9058440F551F59F05F3F22
:1009600071F04795880F97FB991F61F09F3F79F0D1
:1009700087950895121613061406551FF2CF469553
:10098000F1DF08C0161617061806991FF1CF8695D5
:100990007105610508940895E894BB2766277727B9
:1009A000CB0197F908958ADF08F48FEF08950BD0F3
:1009B000C0CFB1DF28F0B6DF18F0952309F0A2CF41
:1009C000A7CF1124EACFC6DFA0F3959FD1F3950FEF
:1009D00050E0551F629FF001729FBB27F00DB11DC3
:1009E000639FAA27F00DB11DAA1F649F6627B00D53
:1009F000A11D661F829F2227B00DA11D621F739F3C
:100A0000B00DA11D621F839FA00D611D221F749F49
:100A10003327A00D611D231F849F600D211D822F90
:100A2000762F6A2F11249F5750408AF0E1F08823D7
:100A30004AF0EE0FFF1FBB1F661F771F881F9150E4
:100A40005040A9F79E3F510570F05CCFA6CF5F3FA5
:100A5000ECF3983EDCF3869577956795B795F79517
:100A6000E7959F5FC1F7FE2B880F911D969587959F
:100A700097F908951F920F920FB60F9211242F939A
:100A80003F938F939F93AF93BF9380914B0190912E
:100A90004C01A0914D01B0914E0130914A0123E0EB
:100AA000230F2D3758F50196A11DB11D20934A0142
:100AB00080934B0190934C01A0934D01B0934E0154
:100AC00080914F0190915001A0915101B09152013C
:100AD0000196A11DB11D80934F0190935001A093E9
:100AE0005101B0935201BF91AF919F918F913F916E
:100AF0002F910F900FBE0F901F90189526E8230F8F
:100B00000296A11DB11DD2CF789484B5826084BDB8
:100B100084B5816084BD85B5826085BD85B5816001
:100B200085BDEEE6F0E0808181608083E1E8F0E061
:100B30001082808182608083808181608083E0E890
:100B4000F0E0808181608083E1EBF0E0808184606F
:100B50008083E0EBF0E0808181608083EAE7F0E071
:100B600080818460808380818260808380818160D5
:100B700080838081806880831092C10008958E30C8
:100B800008F08E502091260190E4299F90011124B5
:100B90008770822B80937C0080917A0080648093A0
:100BA0007A0080917A0086FDFCCF80917800909148
:100BB00079000895CF93DF9390E0FC01E859FF4F4F
:100BC000249184589F4FFC0184918823C9F090E0C0
:100BD000880F991FFC01E656FF4FA591B491FC01C7
:100BE000E057FF4FC591D49161110DC09FB7F894A4
:100BF0008C91209582238C938881282328839FBF02
:100C0000DF91CF910895623051F49FB7F8943C91F1
:100C1000822F809583238C93E8812E2BEFCF8FB783
:100C2000F894EC912E2B2C938FBFEACFFC01918D81
:100C3000228D892F90E0805C9F4F821B91098F73DA
:100C400099270895FC01918D828D981731F0828D3E
:100C5000E80FF11D858D90E008958FEF9FEF0895C7
:100C6000FC01918D828D981761F0A28DAE0FBF2F80
:100C7000B11D5D968C91928D9F5F9F73928F90E0D6
:100C800008958FEF9FEF0895FC01538D448D252F1C
:100C900030E0842F90E0821B930B541710F0CF9616
:100CA000089501970895FC01A48DA80FB92FB11DD7
:100CB000A35ABF4F2C91848D90E001968F73992792
:100CC000848FA689B7892C93A089B1898C91837070
:100CD00080648C93938D848D981306C00288F38969
:100CE000E02D80818F7D80830895CF93DF93EC0189
:100CF000888D8823B1F0AA89BB89E889F9898C910C
:100D000085FD03C0808186FD0CC00FB607FCF7CFC0
:100D10008C9185FFF2CF808185FFEDCFCE01C3DFBF
:100D2000EACFDF91CF910895EF92FF920F931F9337
:100D3000CF93DF93EC0181E0888F9B8D8C8D98138E
:100D40001AC0E889F989808185FF15C09FB7F8949A
:100D5000EE89FF896083E889F989808183708064E6
:100D600080839FBF81E090E0DF91CF911F910F9131
:100D7000FF90EF900895F62E0B8D10E00F5F1F4F40
:100D80000F731127E02E8C8D8E110BC00FB607FC50
:100D9000FACFE889F989808185FFF5CFCE0183DF1D
:100DA000F2CFEB8DEC0FFD2FF11DE35AFF4FF082D8
:100DB0009FB7F8940B8FEA89FB8980818062D0CF3E
:100DC000CF92DF92EF92FF921F93CF93DF93EC01CC
:100DD0006A017B01122FE889F98982E08083C114BE
:100DE00081EED806E104F10499F060E079E08DE34A
:100DF00090E0A7019601F5D0215031094109510930
:100E00005695479537952795211580E1380790F03D
:100E1000E889F989108260E874E88EE190E0A70122
:100E20009601DFD021503109410951095695479566
:100E300037952795EC85FD853083EE85FF852083EA
:100E4000188EEC89FD891083EA89FB898081806195
:100E50008083EA89FB89808188608083EA89FB89B5
:100E6000808180688083EA89FB8980818F7D80838F
:100E7000DF91CF911F91FF90EF90DF90CF90089579
:100E80001F920F920FB60F9211242F938F939F935F
:100E9000EF93FF93E0916301F09164018081E09111
:100EA0006901F0916A0182FD1BC0908180916C0103
:100EB0008F5F8F7320916D01821741F0E0916C017B
:100EC000F0E0ED5AFE4F958F80936C01FF91EF910A
:100ED0009F918F912F910F900FBE0F901F9018959B
:100EE0008081F4CF1F920F920FB60F9211242F938F
:100EF0003F934F935F936F937F938F939F93AF93A2
:100F0000BF93EF93FF9383E591E0CDDEFF91EF91E7
:100F1000BF91AF919F918F917F916F915F914F9111
:100F20003F912F910F900FBE0F901F901895E3E502
:100F3000F1E01382128288EE93E0A0E0B0E08483B7
:100F40009583A683B7838DE291E09183808385ECBE
:100F500090E09587848784EC90E09787868780EC83
:100F600090E0918B808B81EC90E0938B828B82EC74
:100F700090E0958B848B86EC90E0978B868B118E1E
:100F8000128E138E148E0895AF92BF92CF92DF927D
:100F9000EF92FF920F931F93CF93DF936C017B012E
:100FA0008B01040F151FEB015E01AE18BF08C017BF
:100FB000D10759F06991D601ED91FC910190F08132
:100FC000E02DC6010995892B79F7C501DF91CF91F5
:100FD0001F910F91FF90EF90DF90CF90BF90AF9057
:100FE0000895A1E21A2EAA1BBB1BFD010DC0AA1F6A
:100FF000BB1FEE1FFF1FA217B307E407F50720F082
:10100000A21BB30BE40BF50B661F771F881F991FFC
:101010001A9469F760957095809590959B01AC0145
:10102000BD01CF010895052E97FB16F400940FD053
:1010300057FD05D0D6DF07FC02D046F408C0509516
:101040004095309521953F4F4F4F5F4F08959095B4
:101050008095709561957F4F8F4F9F4F0895EE0F4C
:0E106000FF1F0590F491E02D0994F894FFCF46
:10106E00000000000000000080BF0000804400006F
:10107E00A040000000000000344435FA8E3C000011
:10108E00704100000000014501000000009406C4FC
:0C109E0007440675061606300622060000
:00000001FF
