:1000000052C0000078C0000076C0000074C000003C
:1000100072C0000070C000006EC000006CC0000024
:100020006AC0000068C0000066C0000064C0000034
:1000300062C000000C94AD285EC000005CC00000EF
:100040000C940D2C58C000000C946E2E0C94A02E15
:1000500052C0000050C000004EC000004CC0000064
:100060004AC0000048C0000001020408102040807F
:1000700001020408102001020408102004040404F2
:100080000404040402020202020203030303030342
:1000900000000000250028002B00000000002400C4
:1000A00027002A00C52E11241FBECFEFD8E0DEBFE7
:1000B000CDBF12E0A0E0B1E0EEE1FFE502C00590A7
:1000C0000D92A632B107D9F727E0A6E2B2E001C04F
:1000D0001D92A23DB207E1F710E0C3E5D0E004C0F5
:1000E0002197FE010E945E2FC235D107C9F70E94F9
:1000F000AA290C948D2F84CFCF93DF93882349F0C6
:10010000EB0181500E94ED2C99838883DF91CF9180
:100110000895FB0111821082F9CF0F931F938B0179
:100120009C0183E036952795179507958A95D1F719
:100130000A5D1D4F462F477021E030E0F90102C0F3
:10014000EE0FFF1F4A95E2F7AF01F801208124234B
:10015000CB010196211102C090E080E01F910F9128
:1001600008950F931F938B019C0183E0369527958B
:10017000179507958A95D1F7677081E090E001C0E7
:10018000880F6A95EAF7F801EA5DFD4F2081452B5B
:1001900031F48095822380831F910F910895822BE3
:1001A000FACFCF92DF92EF92FF92CF93DF936B0162
:1001B0007C0160E08EE0C816D104E104F10490F403
:1001C0008EE08C0D0E94082DE6012196AE01C7013C
:1001D000B601C7DFCE01DF91CF91FF90EF90DF90A6
:1001E000CF9008958C2DEECF882341F08150682F59
:1001F00070E090E080E050E040E0B3CF089590E000
:1002000080E008950F931F93009709F485C061154E
:10021000710509F481C000916E0110916F01209168
:100220007001309171010E3F1F4F2F4F3F4F09F06A
:1002300064C04FEF5FEFBA0140936E0150936F01BE
:10024000609370017093710140916E0150916F0144
:100250006091700170917101DC011296ED91FC9139
:1002600080819181A281B3818093A7029093A8029B
:10027000A093A902B093AA0284819581A681B78137
:100280008093A3029093A402A093A502B093A60228
:1002900080859185A285B38580939F029093A0026B
:1002A000A093A102B093A20284859585A685B78507
:1002B00080939B0290939C02A0939D02B0939E0218
:1002C00010929702109298021092990210929A023C
:1002D0000E94460F8BE69FE09093300280932F029E
:1002E0000E94450E009731F421E030E03093AC02DB
:1002F0002093AB021F910F91089500916E01109110
:100300006F012091700130917101DB010D931D93FC
:100310002D933C93139798CF8FEF9FEFEBCF8F9256
:100320009F92AF92BF92CF92DF92EF92FF921F9374
:10033000CF93DF934B015C011091AE0282E090E01D
:100340009093AC028093AB0281149104A104B10498
:1003500041F48091AE02811104C08091AD02C1E0F0
:100360008111C0E0C12CD12C76018091AE028111A7
:1003700006C08091AD02811102C0CC23D9F083E088
:1003800090E09093AC028093AB02CC2381F1CCE956
:10039000DFEF111102C00E94CF12CE01DF91CF9189
:1003A0001F91FF90EF90DF90CF90BF90AF909F9004
:1003B0008F9008956AE070E080E090E00E947C2CCD
:1003C00080E1C80E87E2D81EE11CF11C8FEF881671
:1003D0009806A806B80631F0C1E08C149D04AE045E
:1003E000BF0408F0C0E080E00E94710EBECFD0E0F4
:1003F000C0E0CFCFCF92DF92EF92FF921F93CF93C7
:10040000DF938F3F910511F008F042C02091AB02BD
:100410003091AC022330310539F02091AB0230919C
:10042000AC022130310531F424E030E03093AC02ED
:100430002093AB026A017B01EC01892BB1F011E042
:10044000AE01C701B6010E94440EAB01BC0190E0B1
:1004500080E01123F9F0CE01DF91CF911F91FF9041
:10046000EF90DF90CF900C94E41480912F02909144
:100470003002892B21F30E94EB14029701F7E091DF
:100480002F02F091300290E080E00995182FD8CF2C
:100490008FEF9FEFDF91CF911F91FF90EF90DF9053
:1004A000CF90089580E00C94710ECF93DF9386E097
:1004B00090E09093AC028093AB020E94CA0EEC01D4
:1004C0001092300210922F020E9467121092AC021A
:1004D0001092AB02CE01DF91CF9108958091AD02D1
:1004E000089580919602089560936E0170936F0154
:1004F000809370019093710190E080E0089560E036
:1005000070E080E89FE7089560E070E080E89FE792
:10051000089560E070E080E89FEF089560E070E08B
:1005200080E89FEF089560E070E080EC9FEF089511
:1005300060E070E080EC9FEF0895F5DF6093BC050C
:100540007093BD058093BE059093BF05F1DF609366
:10055000B0057093B1058093B2059093B305CFDFDA
:100560006093B8057093B9058093BA059093BB0565
:10057000CBDF6093B4057093B5058093B605909377
:10058000B705C7DF6093C0057093C1058093C205AE
:100590009093C305C3DF6093C4057093C505809332
:1005A000C6059093C70508950F931F938B019C0177
:1005B0000027112720783F770115110520483F4774
:1005C00049F4AB01BC016F77772781E0452B462BBF
:1005D000472B09F480E01F910F910895E5CF4F92CA
:1005E0005F926F927F928F929F92AF92BF92CF92C3
:1005F000DF92EF92FF922B013C0149015A01BC01AD
:10060000A201442777FD4395552766277727D50113
:10061000C4018827B7FD83959927AA27BB27C12C3A
:10062000D12C76014817C9F0C301B201A50194018C
:100630000E94422FC12CD12C7601C394672B682BCA
:10064000692B19F4C12CD12C7601F094E094D0944C
:10065000C094C11CD11CE11CF11CC301B201A50155
:1006600094010E94422FCA01B9016C0D7D1D8E1D9F
:100670009F1DFF90EF90DF90CF90BF90AF909F9025
:100680008F907F906F905F904F9008954F925F9200
:100690006F927F928F929F92AF92BF92CF92DF9292
:1006A000EF92FF920F931F93CF93DF93CDB7DEB7F7
:1006B00064970FB6F894DEBF0FBECDBF8091CC0714
:1006C0008150823008F470C01D828D818093CC07E8
:1006D0008091CB078150823008F469C01982A981CA
:1006E000A093CB078091CA078150823008F462C082
:1006F00080E08093CA078091C9078150823008F456
:100700005BC080E08093C90760910D0670910E0672
:1007100080910F069091100601E116E0BDE5EB2EE9
:10072000B6E0FB2EF80121913191419151918F0159
:100730000E94242AE016F106A9F720E030E040EA02
:1007400051E40E948C2AAB01BC014093C805509330
:10075000C9056093CA057093CB058091B30790914A
:10076000B4078F3FF7E09F0728F401969093B407F2
:100770008093B3078091CF07811120C081E08093DF
:10078000CF0782E090E0A0E0B0E0809387079093ED
:100790008807A0938907B0938A071092B407109234
:1007A000B30710E000E033C023E02D838ECF93E049
:1007B000998395CF83E09DCF83E0A4CF8091870775
:1007C00090918807A0918907B0918A070197A105A8
:1007D000B105D9F08091B3079091B407803D97405F
:1007E00000F381E090E0A0E0B0E080938707909371
:1007F0008807A0938907B0938A074093EC0550932C
:10080000ED056093EE057093EF0501E010E0E090D8
:100810008B07F0908C0760915D0670915E06809169
:100820005F0690916006EDE8CE2EE7E0DE2EF1E661
:100830008F2EF6E09F2EA3EBAA2EA7E0BA2ED601AC
:100840002D913D916D01E20EF31EF4012191319144
:10085000419151914F010E94242AAC14BD0479F7B3
:1008600020E030E040EA51E40E948C2A6093F405D5
:100870007093F5058093F6059093F705B701FF0C8B
:10088000880B990B24E130E040E050E0A8DE90E0D6
:1008900080E00E94F42A20912601309127014091A6
:1008A0002801509129010E948C2A20912A0130911F
:1008B0002B0140912C0150912D010E94AA2B6B011C
:1008C0007C01C092CC05D092CD05E092CE05F0928D
:1008D000CF05B801110F880B990B0E94F62A2091C1
:1008E0002E0130912F0140913001509131010E9431
:1008F000A62B18160CF0ECC08091EC059091ED053C
:10090000A091EE05B091EF058093F0059093F1056D
:10091000A093F205B093F305A70196016091F0054D
:100920007091F1058091F2059091F3050E94232AC0
:1009300020913201309133014091340150913501C1
:100940000E94AA2B20913601309137014091380145
:10095000509139010E94AA2B20913A0130913B011C
:1009600040913C0150913D010E94AA2B6093D0051B
:100970007093D1058093D2059093D30520E030E0A9
:10098000A9010E94882A87FFAFC080913E01909103
:100990003F01A0914001B09141018093D005909317
:1009A000D105A093D205B093D305FD81FF2309F4AF
:1009B00098C0F33011F421E02D839D819093CC07F2
:1009C0008091D0059091D105A091D205B091D30529
:1009D000898B9A8BAB8BBC8B8090AD069090AE06CA
:1009E000A090AF06B090B006A5019401BC01CD0166
:1009F0000E94232A6B017C014090B1065090B20600
:100A00006090B3067090B406A3019201C501B401D1
:100A10000E94232A69837A838B839C838090B90602
:100A20009090BA06A090BB06B090BC06A5019401B8
:100A3000C301B2010E94232A6D837E838F8398872E
:100A40004090C5065090C6066090C7067090C806D4
:100A5000A3019201C501B4010E94232A69877A8704
:100A60008B879C878090D5069090D606A090D7065D
:100A7000B090D806A5019401C301B2010E94232AB7
:100A80006D877E878F87988B2091E9063091EA06E3
:100A90004091EB065091EC06C501B4010E94232A57
:100AA0002B013C0120E030E0A901C701B6010E9402
:100AB000882A87FF27C080E090E0A0E8BFEB809302
:100AC000F0059093F105A093F205B093F30539C0BA
:100AD000C092F005D092F105E092F205F092F30594
:100AE0001BCF82E08D8369CFA981AA2341F0A33077
:100AF00011F4B1E0B983F981F093CB0761CFE2E063
:100B0000E983F9CF20E030E0A901C701B6010E94D6
:100B1000A62B18162CF480E090E0A0E8BFE3CFCF1E
:100B200020E030E0A901C701B6010E94882A8111A6
:100B300020C01092F0051092F1051092F20510926B
:100B4000F30520E030E0A90169817A818B819C81E5
:100B50000E94882A87FF16C080E090E0A0E8BFEBE3
:100B60008093F8059093F905A093FA05B093FB05DF
:100B70002CC08091BC059091BD05A091BE05B0919F
:100B8000BF059DCF20E030E0A90169817A818B818A
:100B90009C810E94A62B18162CF480E090E0A0E81F
:100BA000BFE3DECF20E030E0A90169817A818B814B
:100BB0009C810E94882A81114CC41092F8051092E1
:100BC000F9051092FA051092FB0520E030E0A9012A
:100BD0006D817E818F8198850E94882A812C912C3D
:100BE00050E8A52E5FEBB52E87FD27C020E030E052
:100BF000A9016D817E818F8198850E94A62B812C11
:100C0000912C40E8A42E4FE3B42E1816B4F020E047
:100C100030E0A9016D817E818F8198850E94882AAC
:100C2000812C912C5401882341F08090BC05909038
:100C3000BD05A090BE05B090BF0520E030E0A90141
:100C400069857A858B859C850E94882AC12CD12C48
:100C500030E8E32E3FEBF32E87FD27C020E030E0A5
:100C6000A90169857A858B859C850E94A62BC12C5C
:100C7000D12C20E8E22E2FE3F22E1816B4F020E05B
:100C800030E0A90169857A858B859C850E94882A38
:100C9000C12CD12C7601882341F0C090BC05D090A6
:100CA000BD05E090BE05F090BF0520E030E0A90151
:100CB0006D857E858F8598890E94882A87FDD2C39D
:100CC00020E030E0A9016D857E858F8598890E949E
:100CD000A62B18160CF4CBC320E030E0A9016D85DB
:100CE0007E858F8598890E94882A882309F4C4C349
:100CF0008091BC059091BD05A091BE05B091BF0546
:100D000089839A83AB83BC8320E030E0A901C301CF
:100D1000B2010E94882A87FDB4C320E030E0A90117
:100D2000C301B2010E94A62B18160CF4B1C320E037
:100D300030E0A901C301B2010E94882A412C512C44
:100D40003201882341F04090BC055090BD05609071
:100D5000BE057090BF052091F0053091F1054091DE
:100D6000F2055091F3056091460170914701809121
:100D70004801909149010E94AA2B6D837E838F8345
:100D800098872091F8053091F9054091FA05509126
:100D9000FB0560914E0170914F018091500190913F
:100DA00051010E94AA2B9B01AC016D817E818F8134
:100DB00098850E94242AA50194010E94242AA70153
:100DC00096010E94242A29813A814B815C810E94EC
:100DD000242AA30192010E94242A4B015C018092E3
:100DE000F0059092F105A092F205B092F3052091E2
:100DF00004013091050140910601509107010E94C4
:100E0000A62B87FD4CC391E099832091000130917E
:100E1000010140910201509103016091F40570912C
:100E2000F5058091F6059091F7050E94A62B87FDA8
:100E30001982F980F1100AC08091B507811131C380
:100E4000A1E0AD838091B707811101C01D82ED81C2
:100E5000E093B707209108013091090140910A0100
:100E600050910B01C501B4010E94882A1816B4F0F4
:100E7000F1E0F98320910C0130910D0140910E01B8
:100E800050910F016091F4057091F5058091F60580
:100E90009091F7050E94882A18160CF41982E980AF
:100EA000EE2009F401C381E02D81211180E0D82ECC
:100EB000882309F4FAC281E09091B8079111F5C234
:100EC0008093FE058091BA07882309F4F0C28091CF
:100ED000100190911101A0911201B0911301809322
:100EE000D4059093D505A093D605B093D7058091EE
:100EF000CE078111FDC281E08093CE0782E090E0B1
:100F0000A0E0B0E08093830790938407A0938507C7
:100F1000B09386071092E8051092E9051092EA0551
:100F20001092EB058981811109C08091BF07811161
:100F300001C381E09091C107911101C080E08093CD
:100F4000C107FF2009F4F8C291E0811190E0892FD8
:100F50008093FF05882321F081E09091C2079111D1
:100F600080E0809300068091C407882309F4E6C2DC
:100F70008091140190911501A0911601B091170173
:100F80008093D8059093D905A093DA05B093DB053B
:100F90008091CD078111FFC281E08093CD0782E06F
:100FA00090E0A0E0B0E080937F0790938007A0934B
:100FB0008107B09382071092E4051092E505109224
:100FC000E6051092E7058090E4059090E505A09075
:100FD000E605B090E70520E030E0A901C501B401C5
:100FE0000E94882A87FF00C380916201909163016B
:100FF000A0916401B09165018093DC059093DD05BB
:10100000A093DE05B093DF058091CA07882309F419
:10101000E8C2833009F0E1C281E090E08093CA0722
:101020002091E9063091EA064091EB065091EC06DA
:101030006091D0057091D1058091D2059091D30532
:101040000E94232A6093E0057093E1058093E205F6
:101050009093E3058090220190902301A0902401B9
:10106000B0902501A50194016091090670910A06CE
:1010700080910B0690910C060E94882A882341F0EB
:101080008092090690920A06A0920B06B0920C0676
:101090006EE070E080E090E040D890930806809386
:1010A000070643E050E06CEF75E026D8EDE0F6E08F
:1010B0008BE897E00DE516E029E536E0448155819F
:1010C000668177814193519361937193DC0112960C
:1010D0004D915C9113974D935D93CD01D80114967A
:1010E0004D915D916D917C9117974D935D936D93AB
:1010F0007D938D012E173F0709F78091CC059091C4
:10110000CD05A091CE05B091CF058093590690935F
:101110005A06A0935B06B0935C068091FC05909103
:10112000FD059093B2078093B1078091E0059091FF
:10113000E105A091E205B091E3058093A9069093A3
:10114000AA06A093AB06B093AC068091D00590910F
:10115000D105A091D205B091D3058093AD069093AF
:10116000AE06A093AF06B093B0064091B50650917D
:10117000B6066091B7067091B8064093B1065093D9
:10118000B2066093B3067093B4068093B50690934D
:10119000B606A093B706B093B8064091BD0650912D
:1011A000BE066091BF067091C0064093B906509389
:1011B000BA066093BB067093BC064091C10650917D
:1011C000C2066091C3067091C4064093BD06509359
:1011D000BE066093BF067093C0068093C1069093CD
:1011E000C206A093C306B093C4064091C9065091AD
:1011F000CA066091CB067091CC064093C506509309
:10120000C6066093C7067093C8064091CD065091FC
:10121000CE066091CF067091D0064093C9065093D8
:10122000CA066093CB067093CC064091D1065091CC
:10123000D2066091D3067091D4064093CD065093A8
:10124000CE066093CF067093D0068093D10690931C
:10125000D206A093D306B093D4064091D9065091FC
:10126000DA066091DB067091DC064093D506509358
:10127000D6066093D7067093D8064091DD0650914C
:10128000DE066091DF067091E0064093D906509328
:10129000DA066093DB067093DC064091E10650911C
:1012A000E2066091E3067091E4064093DD065093F8
:1012B000DE066093DF067093E0064091E5065091EC
:1012C000E6066091E7067091E8064093E1065093C8
:1012D000E2066093E3067093E4068093E50690933C
:1012E000E606A093E706B093E806E9EEF6E02DE502
:1012F00037E04481558166817781419351936193B1
:1013000071932E173F07A9F780935D0790935E07AF
:10131000A0935F07B09360078091B6078093B507ED
:10132000B981B093B6078091B9078093B807D0927E
:10133000B9078091C0078093BF07F092C0078091E2
:10134000C3078093C2078091FF058093C3078091F4
:10135000BB078093BA078091C5078093C40780912B
:10136000BC078093BB078091C6078093C507809117
:10137000BD078093BC078091C7078093C607809103
:10138000BE078093BD078091C8078093C707FF20E1
:1013900011F0E1E0E9838981F1101982F981F0937C
:1013A000BE07882311F081E0E11080E08093C80738
:1013B0008091D8059091D905A091DA05B091DB050F
:1013C0008093610790936207A0936307B0936407CB
:1013D0006091710270917202809173029091740217
:1013E0006F5F7F4F8F4F9F4F6093710270937202B8
:1013F00080937302909374020E94F42A9B01AC01C3
:1014000060917502709176028091770290917802D6
:101410000E94AA2B60936D0270936E0280936F02FC
:101420009093700264960FB6F894DEBF0FBECDBFE6
:10143000DF91CF911F910F91FF90EF90DF90CF90B0
:10144000BF90AF909F908F907F906F905F904F90E4
:1014500008958091BC059091BD05A091BE05B09105
:10146000BF057ECB80E090E0A0E8BFEB49CC80E0F8
:1014700090E0A0E8BFE344CC19821A821B821C8250
:1014800043CC412C512C90E8692E9FEB792E63CCF4
:10149000412C512C80E8682E8FE3782E5CCCF12C07
:1014A000CBCCB1E0BD83D3CCD12C80E009CD8090F2
:1014B000D4059090D505A090D605B090D705A5018C
:1014C000940169897A898B899C890E94A62B87FD62
:1014D00009C08091D0059091D105A091D205B0911D
:1014E000D305FDCCC501B40179D88111F2CFFFCC71
:1014F0008091FE05882309F415CD81E090E0A0E0FD
:10150000B0E08093830790938407A0938507B093FE
:1015100086078091D4059091D505A091D605B0910C
:10152000D7058093E8059093E905A093EA05B09369
:10153000EB05F8CC81E003CD80E00ACD8090610717
:1015400090906207A0906307B0906407A501940192
:101550006091D0057091D1058091D2059091D3050D
:101560000E94882A18164CF08091D0059091D105E0
:10157000A091D205B091D30503CDC501B4012ED8F9
:101580008111F2CF8091610790916207A09163076A
:10159000B0916407F5CC80910006882309F413CD3F
:1015A00081E090E0A0E0B0E080937F079093800717
:1015B000A0938107B09382078091D8059091D905B7
:1015C000A091DA05B091DB058093E4059093E505E1
:1015D000A093E605B093E705F6CC082E000C990B16
:1015E0001DCD82E090E01ACD8092DC059092DD0561
:1015F000A092DE05B092DF058091C907882359F0DB
:10160000833029F481E090E08093C90709CD082E4A
:10161000000C990BF9CF82E090E0F6CF0F931F9367
:10162000CF93DF9384E090E00E949D0280E090E001
:10163000A0E8BFEB8093790290937A02A0937B029B
:10164000B0937C028FE692E1A3E8BAE3809375023F
:1016500090937602A0937702B09378028FE29EEE89
:10166000AAE9B6E080935B0290935C02A0935D02CE
:10167000B0935E028AE69BE3A7E7B0ED80935F023A
:1016800090936002A0936102B09362028CE992E9A8
:10169000A5EFBDEA8093630290936402A093650274
:1016A000B093660281EF9FEAA5EFB5E480936702ED
:1016B00090936802A0936902B0936A028BE492E06F
:1016C00090935A028093590281E392E090934C02E6
:1016D00080934B028CE891E0909332028093310228
:1016E00090933402809333022CEC37E0309336022F
:1016F000209335022BEC37E03093380220933702E9
:1017000090933A028093390290933C0280933B027B
:1017100090933E0280933D029093400280933F025B
:1017200090934202809341022AEC37E030934402C6
:101730002093430229EC37E0309346022093450280
:10174000909348028093470290934A028093490203
:101750008BE692E09093500280934F028BE592E0EB
:1017600090934E0280934D028DE692E09093520248
:1017700080935102009118011091190120911A01D2
:1017800030911B01809120019091210140911C0119
:1017900050911D0160911E0170911F01EDE0F6E076
:1017A000ABE8B7E001931193219331938D939D930F
:1017B000EF01C45BDF4F488359836A837B83C6E0B4
:1017C000ED35FC0779F78091420190914301A0919A
:1017D0004401B09145018093AD069093AE06A0936D
:1017E000AF06B093B00680914A0190914B01A09151
:1017F0004C01B0914D018093B1069093B206A09335
:10180000B306B093B4068093B5069093B606A09342
:10181000B706B093B8068091520190915301A09100
:101820005401B09155018093B9069093BA06A093E4
:10183000BB06B093BC068093BD069093BE06A093F2
:10184000BF06B093C0068093C1069093C206A093D2
:10185000C306B093C4068091560190915701A091A0
:101860005801B09159018093C5069093C606A09384
:10187000C706B093C8068093C9069093CA06A09382
:10188000CB06B093CC068093CD069093CE06A09362
:10189000CF06B093D0068093D1069093D206A09342
:1018A000D306B093D40680915A0190915B01A09128
:1018B0005C01B0915D018093D5069093D606A0930C
:1018C000D706B093D8068093D9069093DA06A093F2
:1018D000DB06B093DC068093DD069093DE06A093D2
:1018E000DF06B093E0068093E1069093E206A093B2
:1018F000E306B093E4068093E5069093E606A09392
:10190000E706B093E80680915E0190915F01A09197
:101910006001B0916101E9EEF6E081939193A193AA
:10192000B19327E0E136F207C1F780916701809318
:10193000B707909166019093B507809168018093F5
:10194000B8079093B6078093B907809110019091E2
:101950001101A0911201B09113018093D4059093CD
:10196000D505A093D605B093D70580916B018093E0
:10197000C10790916A019093BF0780916C01809399
:10198000C2079093C0078093C3079091690180912B
:101990006D019093BA078093C4079093BB0780931F
:1019A000C5079093BC078093C6079093BD078093AB
:1019B000C7079093BE078093C80780911401909148
:1019C0001501A0911601B0911701809361079093C2
:1019D0006207A0936307B093640710920106809199
:1019E000220190912301A0912401B09125018093BF
:1019F000090690930A06A0930B06B0930C0610926A
:101A0000060681E090E0A0E0B0E0809302069093AB
:101A10000306A0930406B09305066EE070E080E034
:101A200090E00E94D100909308068093070681E021
:101A300080930606DF91CF911F910F9108958091B9
:101A4000010681111FC081E080930106809102068A
:101A500090910306A0910406B09105060197A10597
:101A6000B10581F480910606882361F06EE070E094
:101A700080E090E00E948D00909308068093070616
:101A80000C94F40008954F925F926F927F928F9220
:101A90009F92AF92BF92CF92DF92EF92FF920F93FD
:101AA0001F93F89440908A0250908B0260908C02B1
:101AB00070908D02C0907E02D0907F02E0908002F4
:101AC000F0908102452B09F0A4C09B01AC012419C0
:101AD00035094609570929013A01009186021091FA
:101AE0008702209188023091890248015901840CB3
:101AF000951CA61CB71C80169106A206B306A0F47E
:101B0000009182021091830220918402309185021B
:101B10000F5F1F4F2F4F3F4F00938202109383029E
:101B200020938402309385028092860290928702ED
:101B3000A0928802B09289020091820210918302E1
:101B4000209184023091850280928E0290928F02C1
:101B5000A0929002B092910200939202109393028D
:101B6000209394023093950260938A0270938B02C3
:101B700080938C0290938D02A8EEB3E0A3019201B2
:101B80000E94642F6C0D7D1D8E1D9F1D60937E0233
:101B900070937F02809380029093810200916E0186
:101BA00010916F0120917001309171010F3F1F4F13
:101BB0002F4F3F4FF1F000916E0110916F01209176
:101BC0007001309171010E3F1F4F2F4F3F4F89F031
:101BD000C0906E01D0906F01E0907001F0907101A3
:101BE00021E08C149D04AE04BF0408F420E020938F
:101BF000960278941F910F91FF90EF90DF90CF9015
:101C0000BF90AF909F908F907F906F905F904F901C
:101C100008954B015C0184189508A608B708A30134
:101C20009201261B370B480B590B64157505860569
:101C30009705D0F082169306A406B50640F420E07E
:101C400030E0A90181149104A104B10491F4A8EE3B
:101C5000B3E00E94642FA7019601261B370B480BA7
:101C6000590BCA01B901C5CF82169306A406B50661
:101C700070F7A8EEB3E0A50194010E94642F6C0DEB
:101C80007D1D8E1D9F1DB5CFFECECF93DF9300D05F
:101C900000D0CDB7DEB71C821B821A821982BE012A
:101CA0006F5F7F4FCE0103960E94952869817A81EC
:101CB0008B819C810E94C821009761F4BE016F5FF7
:101CC0007F4FCE0103960E94A12869817A818B8182
:101CD0009C8124D50F900F900F900F90DF91CF91A2
:101CE0000895FF920F931F93CF93DF93082F60E027
:101CF00070E0CB010E947C2CFF24F3940E94B3205F
:101D0000EC01892B89F010E0CE3F8FEFD80769F006
:101D1000002361F160E070E0CB010E947C2C81E047
:101D200090E0892B59F322C011E01BD5EC01892BDF
:101D300021F0CE3F8FEFD80759F711111EC011E0E7
:101D4000229609F410E00E946420EC01892B21F016
:101D5000CE3F8FEFD807E1F6111111C011E0CE3F51
:101D60008FEFD80709F410E001110BC0CE01DF910D
:101D7000CF911F910F91FF90089511E0E4CF11E0F2
:101D8000F3CF60E070E0CB010E947C2C1F25812FF7
:101D900090E0C7CFCF93DF931ED6D0E0C0E0892B71
:101DA00071F06AE070E080E090E00E947C2C81E0BD
:101DB00098DF11D62196C03D27E0D20781F710D6D3
:101DC0000E941C221092AE021092AD021092A70245
:101DD0001092A8021092A9021092AA021092A302D5
:101DE0001092A4021092A5021092A60210929F02D5
:101DF0001092A0021092A1021092A20210929B02D5
:101E000010929C0210929D0210929E0210929702D4
:101E1000109298021092990210929A024EEF5FEF80
:101E20006FEF7FEF40936E0150936F0160937001ED
:101E30007093710110929602EEE8F2E028E0DF0163
:101E40001D922A95E9F710928A0210928B02109245
:101E50008C0210928D0210928602109287021092CC
:101E600088021092890210928202109283021092CC
:101E700084021092850210927E0210927F021092CC
:101E8000800210928102DF91CF9108951092BA02E0
:101E90001092BB021092BC021092BD021092B902C5
:101EA0008091C2029091C3029093B8028093B702CE
:101EB0001092B6021092B5021092B1021092B202C4
:101EC0001092B3021092B4021092BF021092BE029E
:101ED00090E080E00895CF92DF92EF92FF920F930F
:101EE0001F93CF938C01892B09F055C02091C2021A
:101EF0003091C3028091B7029091B8024091C20222
:101F00005091C3025093B8024093B7022817390783
:101F100081F01092B6021092B5021092B1021092A6
:101F2000B2021092B3021092B4021092BF02109249
:101F3000BE028091C2029091C302019761F5809127
:101F4000BE029091BF02892B21F480917201811110
:101F500012C08091BE029091BF020197E1F480917E
:101F6000B1029091B202A091B302B091B402019774
:101F7000A105B10581F41092B1021092B202109243
:101F8000B3021092B4021092720182E090E090933A
:101F9000BF028093BE028091C2029091C30201975A
:101FA00009F01CC18091D8029091D9028017910745
:101FB00009F014C18091D4029091D502A091D6026B
:101FC000B091D702009709F409C12091D3022111E1
:101FD0000DC04091D4025091D5026091D60270910B
:101FE000D702452B462B472B09F4F8C02091BE029F
:101FF0003091BF022230310509F0F0C02091B502C6
:102000002111ECC0FC01C080D180E280F38080917E
:10201000B902882309F4D3C08091C5029091C60209
:10202000892B09F4FDC02091C5023091C60281E0E0
:102030002230310509F080E02091C5023091C602BE
:10204000C1E02130310549F02091C5023091C6022E
:10205000C1E02230310509F0C0E0882309F456C000
:102060002091CF023091D0024091D1025091D20202
:10207000C701B6010E94A62B87FD14C02091CF0294
:102080003091D0024091D1025091D2026091BA02B7
:102090007091BB028091BC029091BD020E94882A7F
:1020A00087FD22C02091CF023091D0024091D10211
:1020B0005091D202C701B6010E94A62B181634F522
:1020C0002091CF023091D0024091D1025091D202A2
:1020D0006091BA027091BB028091BC029091BD02E6
:1020E0000E94882A811112C08091C7029091C80273
:1020F000A091C902B091CA02892B8A2B8B2B19F4AB
:1021000081E08093B60281E08093B502CC2309F48C
:1021100056C02091CF023091D0024091D10250910F
:10212000D202C701B6010E94882A87FF14C02091FD
:10213000CF023091D0024091D1025091D2026091F1
:10214000BA027091BB028091BC029091BD020E94C4
:10215000A62B87FF22C02091CF023091D002409160
:10216000D1025091D202C701B6010E94882A811182
:1021700026C02091CF023091D0024091D1025091DF
:10218000D2026091BA027091BB028091BC02909120
:10219000BD020E94A62B181694F48091C70290915C
:1021A000C802A091C902B091CA02892B8A2B8B2B3D
:1021B00019F481E08093B60281E08093B50281E05A
:1021C0009091B502911180E08093B902C092BA0259
:1021D000D092BB02E092BC02F092BD02012B09F04A
:1021E00067C18091BE029091BF02892BD9F41092F1
:1021F000C4021092B50280917201882379F082E0C6
:1022000090E09093BF028093BE02109272012091E1
:10221000C2023091C30281E0232BE9F080E01BC0B1
:1022200081E00ACF109272018091C402882349F0A4
:102230001092B6021092BF021092BE021092C40217
:10224000EDCF8091C2029091C302892BE1F0809181
:10225000B5021092B5022091BE023091BF02223029
:10226000310509F45EC088F42115310509F448C030
:102270002130310509F4F3C01092B6021092B50274
:102280001092C40238C081E0E6CF2330310509F452
:10229000B1C02430310581F74091B1025091B202B2
:1022A0006091B3027091B402411551056105710549
:1022B00061F041505109610971094093B102509395
:1022C000B2026093B3027093B4024091B102509194
:1022D000B2026091B3027091B402452B462B472B9A
:1022E000D9F42091C0023091C1022130310509F0AA
:1022F00046C01092B6021092BF021092BE020CC0ED
:1023000080917201882341F082E090E09093BF02B7
:102310008093BE02109272011092AF028091B602B9
:10232000CEC08823C9F38091C7029091C802A091C2
:10233000C902B091CA02181619061A061B060CF03B
:102340007DC08091C2029091C302019709F076C0CE
:102350008091C7029091C802A091C902B091CA02AF
:102360008093B1029093B202A093B302B093B402EF
:1023700083E090E09093BF028093BE02CDCF409166
:10238000CB025091CC026091CD027091CE02452BD0
:10239000462B472BA9F01092B6028091CB02909168
:1023A000CC02A091CD02B091CE028093B102909365
:1023B000B202A093B302B093B40281E090E0DACF0E
:1023C000882399F08091730190917401A091750117
:1023D000B09176018093B1029093B202A093B302C0
:1023E000B093B40284E090E0C5CF1092B60282E0D0
:1023F00090E0C0CF8091B1029091B202A091B3025F
:10240000B091B4020097A105B10559F00197A10957
:10241000B1098093B1029093B202A093B302B0933A
:10242000B4028091B1029091B202A091B302B09136
:10243000B402892B8A2B8B2B09F06ECF809173010C
:1024400090917401A0917501B0917601892B8A2B2E
:102450008B2B09F44ECF81E08093B602B3CF40912D
:10246000B1025091B2026091B3027091B402411571
:1024700051056105710561F041505109610971090A
:102480004093B1025093B2026093B3027093B402CE
:102490004091B1025091B2026091B3027091B402C6
:1024A000452B462B472B09F037CF8111C7CF9FCF44
:1024B0008091AF02882309F431CF8091B002CF918F
:1024C0001F910F91FF90EF90DF90CF9008951092A1
:1024D000BA021092BB021092BC021092BD0210927E
:1024E000B9021092BF021092BE021092B80210926E
:1024F000B7021092D9021092D8021092B60210922E
:10250000B5021092B1021092B2021092B302109270
:10251000B4021092B0021092AF021092D402109244
:10252000D5021092D6021092D7021092D3021092C6
:10253000CF021092D0021092D1021092D20288EEF5
:1025400093E0A0E0B0E08093730190937401A093B6
:102550007501B09376011092CB021092CC021092CA
:10256000CD021092CE021092C7021092C8021092B1
:10257000C9021092CA021092C6021092C50281E0EE
:10258000809372011092C4021092C3021092C20290
:102590001092C1021092C00290E080E008958091F4
:1025A000C2029091C302892B19F580917201882390
:1025B00051F08091C402811106C081E08093B00285
:1025C0008093AF0208952091C4023091720181E09E
:1025D00090E0332311F090E080E030E082239323F9
:1025E000892B21F01092B00281E0EACF1092AF0265
:1025F000089582E090E0FA01918380838FEF9FEF4E
:102600000895CF93DF93EA01009711F00E943723DA
:102610001982188290E080E0DF91CF910895DB016C
:10262000009719F48FEF8C9308952EEF2C930F964B
:102630008F30910508F033C0FC01EF5DFC4E0C9427
:102640005E2F4D134B134913471345134113431387
:102650003F133D133B1338133413301336134F130A
:1026600080E311968C93089589E2FBCF82E2F9CF43
:1026700011961C92089583E2F4CF81E2F2CF81E1BA
:10268000F0CF87E2EECF8AE2ECCF80E1EACF84E2BE
:10269000E8CF88E2E6CF86E2E4CF81E3E2CF80E2D2
:1026A000E0CF8091E6029091E70208959093E702CF
:1026B0008093E60208958091E50208959091E502E5
:1026C000892B8093E5020895982F90958091E502DB
:1026D00089238093E50208958091E4020895809112
:1026E000E2029091E30208956115710559F0FB0132
:1026F00030E020E070E060E02417350719F0611544
:10270000710511F0CB010895A081B181A817B90717
:1027100009F4BF012F5F3F4F3696EECF8091E8025C
:1027200081111CC043D249D29093DB028093DA021C
:102730000E94A81C0E94BA1C9093DF028093DE02C4
:102740000E94CE1F0E94D51F9093DD028093DC0271
:1027500081E08093E80290E080E0089584EF9FEFAD
:1027600008958F929F92AF92BF92CF92DF92EF9295
:10277000FF920F931F93CF93DF93CDB7DEB72A97C6
:102780000FB6F894DEBF0FBECDBF1A861986188625
:102790001F821E821D821C821B821A8219828091D6
:1027A000E80207EF1FEF882309F48BC08E010D5F4D
:1027B0001F4F9E012B5F3F4FAE01495F5F4FBE0130
:1027C000675F7F4F90E080E00E944E218C01009770
:1027D00021F00596029708F0C7C089859A85009771
:1027E00009F4EFC0ED80FE802B813C812E0D3F1D52
:1027F0004F8158854217530708F4E3C0E80EF91ECD
:10280000D7014C912091E6023091E702232B09F485
:1028100094C0413F08F069C08CE1840F8D3008F40A
:1028200083C08DE2840F803108F481C088E3840F77
:102830008B3008F47FC09FE0C92E93E1D92EE9EFD9
:10284000F2E16D817E81AE014F5F5F4F89859A8590
:1028500009955C01C114D104A1F189809A80811489
:10286000910479F18B819C818815990508F484C0C5
:1028700010E000E04B815C8170E060E0C7010E94E5
:10288000862F01151105E9F449815A8169857A85F8
:102890008D819E81680F791FC501F6010995E98038
:1028A000FA800D811E812F81388549855A856FEF09
:1028B0007FEF81E090E00E94EA208C01892B09F0F3
:1028C00053C0C8012A960FB6F894DEBF0FBECDBF25
:1028D000DF91CF911F910F91FF90EF90DF90CF90FC
:1028E000BF90AF909F908F90089530E020E0220F2E
:1028F000331FF901E652FD4F0190F081E02D309732
:1029000009F499CF842F90E00995009709F493CFAB
:10291000DC011296ED91FC9113971496CD90DC900A
:10292000309709F08ECF1EC021E030E0E0CF22E0EA
:1029300030E0DDCF23E030E0DACFD12CC12CE1E074
:10294000F3E14F3F09F07DCFE091DA02F091DB0235
:10295000309719F404EF1FEF0CC08FEF90E009954A
:102960000097B1F604EF1FEF89859A85009709F467
:10297000A8CF0E943723A5CF0E9417228C018985FA
:102980009A850E94372370E060E0C4010E94B02164
:1029900098878F830E94E7209E838D836F8178853F
:1029A0006115710559F0C8010E94CD249A87898765
:1029B00006EF1FEF892B09F05BCF5CCF08EF1FEF0D
:1029C00059CF08EF1FEFD0CF2091E8022111D7C7D0
:1029D00087EF9FEF08958091E6029091E7020895B6
:1029E0000E94DA1F0E94341FEDD0EAEDF2E088E089
:1029F000DF011D928A95E9F71092E80290E080E0ED
:102A0000089586E090E0FA019183808390E080E071
:102A1000089547E050E06FE871E066CEDF92EF92F4
:102A2000FF920F931F93CF93DF938A01EC01C60FA0
:102A3000D71FE090EC02F090ED02D9800E94FF21B8
:102A4000D816190678F082E090E0F801918380832F
:102A50008EEF9FEFDF91CF911F910F91FF90EF903D
:102A6000DF900895EF2841F482E090E0F80191832F
:102A7000808384EF9FEFEECF89818093EB0290E01B
:102A80000196F8019183808390E080E0E3CFCF93BB
:102A9000DF93EA010E94471E882321F00E940C2246
:102AA0000E94481E82E090E0998388838BEF9FEF1D
:102AB000DF91CF910895CF93DF93EB0186E0FB0187
:102AC00011928A95E9F78FEF8883F5DD898304DE1B
:102AD0008A8305DE9D838C83DF91CF910895CF9308
:102AE000DF93EA010E944A1E811109C082E090E052
:102AF0009983888385EF9FEFDF91CF91089590E0D0
:102B000080E0D4DD81E090E09983888390E080E0EC
:102B1000F3CF0F931F93CF93DF93EA018C01060F3E
:102B2000171F0E944A1E81110BC082E090E099831A
:102B3000888385EF9FEFDF91CF911F910F910895CB
:102B4000F8018181823038F082E090E099838883B7
:102B50008EEF9FEFF0CF81E090E0A8DD88E090E07D
:102B60009983888390E080E0E6CFCF93DF9300974E
:102B7000D1F4EB01FB01329686E0DF011D928A95CC
:102B8000E9F78FEF888385E089831A820E94FF210D
:102B90008B830E94FE219D838C8381E08E838F83B3
:102BA000DF91CF910895DF91CF9139CD89E095E103
:102BB0009093EA028093E90208958091E90290914E
:102BC000EA0208951092EA021092E90208958091B3
:102BD000EC029091ED020895411105C06115710557
:102BE0008105910561F06093EC027093ED02809392
:102BF000EE029093EF024093F00281E0089580E0AE
:102C00000895FF920F931F93CF93DF938A01EC01F6
:102C1000C60FD71FF9800E94FF21F816190668F029
:102C200082E090E0F801918380838EEF9FEFDF9147
:102C3000CF911F910F91FF9008956C817D818E81BE
:102C40009F814B81C9DF811108C082E090E0F801CB
:102C50009183808384EF9FEFEACF89818093EB0299
:102C600090E00196F8019183808390E080E0DFCFCF
:102C7000CF93DF93EA01FC01E60FF71F64817581B2
:102C8000868197814381A8DF811109C082E090E0AD
:102C90009983888384EF9FEFDF91CF91089581E03E
:102CA00090E09983888390E080E0F6CFECEEF2E04C
:102CB0004081518162817381480F511D611D711DD9
:102CC00040835183628373830895CF93C091EB0255
:102CD0004C2F50E06091EC027091ED0201960E9441
:102CE0007D2F8C2FE3DF1092EB02CF910895009798
:102CF00099F48091EC029091ED022FEFFB0120837B
:102D0000892B59F02091EB0230E02F5F3F4F2417C1
:102D1000350719F4CB01D9CF82CC0895009799F4E7
:102D20008091EC029091ED022FEFFB012083892B23
:102D300059F02091EB0230E02F5F3F4F2417350709
:102D400019F4CB01C2CF6BCC08952DE0AC01249FC8
:102D5000C001259F900D1124E091F502F091F6023B
:102D6000E80FF91F238134812250310981E022309C
:102D7000310508F080E008950F931F93CF93DF9300
:102D80000091F7021091F802D0E0C0E080E00C174B
:102D90001D0749F491E0811190E0892FDF91CF91D7
:102DA0001F910F9108958111F5CFCE01CEDF2196AD
:102DB000EECFA091F502B091F602109729F1209183
:102DC000F7023091F80282179307F0F45DE0589F04
:102DD0009001599F300D1124A20FB31FED91FC916A
:102DE0001197309789F012968C91681768F485E0F6
:102DF000689FE00DF11D112480819181892B21F0C4
:102E000081E09281491708F080E00895EF92FF92E7
:102E10000F931F93CF93DF93EA01FC01E60FF71F97
:102E200002811381E480F5804F2D6E2DC801C1DF32
:102E300081110DC082E090E0998388838EEF9FEF2F
:102E4000DF91CF911F910F91FF90EF900895C801EE
:102E50007CDF882339F082E090E09983888388EFD3
:102E60009FEFEECF10937E0100937D01E0927F01F2
:102E7000F092800181E090E09983888390E080E087
:102E8000DFCFCF92DF92EF92FF920F931F93CF93FA
:102E9000DF937A01EC01C60FD71FC0907D01D0905F
:102EA0007E0100917F0110918001412F602FC601AA
:102EB00080DF811110C082E090E0F7019183808370
:102EC0008AEF9FEFDF91CF911F910F91FF90EF90CD
:102ED000DF90CF900895C60138DF882341F082E06B
:102EE00090E0F7019183808388EF9FEFEBCF4C81D7
:102EF0005D816E817F819A8189818F3F41F082E07F
:102F000090E0F701918380838EEF9FEFDBCFEDE0C0
:102F1000EC9D9001ED9D300D1124E091F502F091B2
:102F2000F602E20FF31F0190F081E02D25E0029FF1
:102F3000E00DF11D11240190F081E02D27E0129F9A
:102F4000E00DF11D1124808391838B818283438363
:102F50005483658376831F5F1093800181E090E046
:102F6000F7019183808390E080E0ACCFEF92FF92F5
:102F70000F931F93CF93DF937A018C01060F171FD6
:102F8000C091F502D091F602209781F021E030E067
:102F9000F801828193814091F7025091F8028417E1
:102FA000950710F030E020E0232B71F482E090E0F0
:102FB000F701918380838EEF9FEFDF91CF911F9177
:102FC0000F91FF90EF9008954DE0489F9001499F29
:102FD000300D1124C20FD31FB8DE882341F082E0E8
:102FE00090E0F7019183808388EF9FEFE6CFF801AF
:102FF0002481358120383105C8F687818111D6CFEB
:103000004181842F90E08F7E009741F082E090E034
:10301000F7019183808386EF9FEFCFCF4F833E836D
:103020002D83268128871986223010F421E02887F5
:1030300021E030E0F70131832083BFCF88E090E0CA
:10304000FA019183808390E080E00895FB018FEF87
:10305000808381E181838FEF9FEF9383828380E878
:1030600090E095838483168217820895FB018FEF89
:10307000808391E0918382839383848384E3858337
:1030800081E090E09783868308954BE050E069EB00
:1030900071E02ACB8F929F92BF92CF92DF92EF92F4
:1030A000FF920F931F93CF93DF93EA01FC01E60F8A
:1030B000F71F828193810481B580E091F502F09140
:1030C000F602309791F482E090E0998388838CEF48
:1030D0009FEFDF91CF911F910F91FF90EF90DF90C5
:1030E000CF90BF909F908F9008952091F7023091DC
:1030F000F8028217930738F082E090E09983888382
:103100008EEF9FEFE6CF2DE0289F6001299FD00C26
:103110001124EC0DFD1DE080F180E114F10499F221
:103120008281081748F785E0089F80011124E00E8E
:10313000F11EF70180819181892B29F6BB20E1F2F4
:10314000F7E0BF9E40011124C4010E94E822F7016C
:1031500091838083E091F502F091F602EC0DFD1D64
:103160000190F081E02DE00FF11F808191810097A7
:1031700039F482E090E0998388838DEF9FEFA9CFA7
:10318000A40170E060E00E94862F8091F50290918A
:10319000F602C80ED91EF60180819181080F191F11
:1031A000F801B28281E090E09983888390E080E02A
:1031B00090CFAF92BF92CF92DF92FF920F931F9367
:1031C000CF93DF93EA01FC01E60FF71F8281938121
:1031D000F4800091F5021091F6020115110581F4B9
:1031E00082E090E0998388838CEF9FEFDF91CF910D
:1031F0001F910F91FF90DF90CF90BF90AF900895F7
:103200002091F7023091F8028217930738F082E09C
:1032100090E0998388838EEF9FEFE8CF2FEF2F0DFB
:103220002C3FA8F72DE0289F6001299FD00C112486
:103230000C0D1D1DF80180819181892B89F6F5E027
:10324000FF9E50011124C5010E94E822F8019183DC
:103250008083E091F502F091F602EC0DFD1D808176
:103260009181009739F482E090E0998388838DEF13
:103270009FEFBCCFA50170E060E00E94862FE09137
:10328000F502F091F602EC0DFD1DF28281E090E076
:103290009983888390E080E0A9CFCF92DF92EF926C
:1032A000FF920F931F93CF93DF93860F971FFC011D
:1032B000028113818091F5029091F602892B81F0B1
:1032C00082E090E0FA01918380838CEF9FEFDF91A1
:1032D000CF911F910F91FF90EF90DF90CF900895C5
:1032E000C801B0E0A0E00197A109B1098F3F9F4F4D
:1032F000A105B10540F082E090E0FA01918380835E
:103300008EEF9FEFE4CF7A018DE0809F6001819F77
:10331000D00C1124C6010E94E822EC01009741F470
:1033200082E090E0F701918380838DEF9FEFCFCF14
:10333000A60170E060E00E94862FD093F602C09351
:10334000F5021093F8020093F70290E080E02FEF6F
:103350003FEF8017910741F481E090E0F7019183FE
:10336000808390E080E0B3CF3C872B8701962D9639
:10337000F0CFCF92DF92EF92FF920F931F93CF93F4
:10338000DF93EC01D12CC12C10E000E0F12CE12CFA
:103390008A818017110609F0BCF4AE01455F5F4FCA
:1033A00063E070E0C7010E946323009721F02FEFD4
:1033B0003FEF3C872B87DF91CF911F910F91FF90BB
:1033C000EF90DF90CF900895E881F981EC0DFD1D1D
:1033D00023813481C90101960115110519F44F812A
:1033E00044FD049661E070E0BBD7E816F90608F4E6
:1033F0007C010F5F1F4F85E0C80ED11CC9CFF89428
:103400002091F3023091F40281E02115310509F099
:1034100080E0232B09F0789408954F925F926F9289
:103420007F928F929F92AF92BF92CF92DF92EF9254
:10343000FF920F931F93CF93DF933C01660E771E8D
:10344000F301828193814C01B12CA12CC091F50232
:10345000D091F602209769F021E030E06091F70208
:103460007091F8028617970710F030E020E0232BC8
:10347000C1F482E090E0FA01918380838EEF9FEFA8
:10348000DF91CF911F910F91FF90EF90DF90CF9040
:10349000BF90AF909F908F907F906F905F904F9074
:1034A00008958092810190928201A0928301B0924E
:1034B00084016DE0689F9001699F300D1124C20F57
:1034C000D31FF3018181833040F082E090E0FA0164
:1034D0009183808386EF9FEFD3CF2A012B813C819C
:1034E000232BF1F4288139819F8191FF2EC0232B5A
:1034F00009F464C02091FA029A81422F490F55279E
:10350000551FBA0141E050E06138710514F050E0F8
:1035100040E0452B09F452C02A87920F9093FA029B
:103520008150823008F476C06ADF882309F4C5C070
:10353000F3018181813009F480C008F470C08230C9
:1035400009F4B3C090E080E08EC0232BB9F1209144
:10355000F9029A81E22FE90FFF27FF1F41E050E0B7
:10356000ED3FF10514F050E040E0452B39F12A879A
:10357000920F9093F902D4CFA081B181A20FB31F13
:1035800011966C91060F111D0196295F3F4F84170C
:10359000950794F3C114D104C9F48F8184FF16C038
:1035A0002DD721E0A8014B5F5F4F8417950708F4E2
:1035B00020E0A7014B5F5F4F21110EC082E090E039
:1035C000F2019183808387EF9FEF5ACF17D721E0D5
:1035D000A8014F5F5F4FE9CF88819981E80EF91EFE
:1035E000F70114830383FFEFCF1ADF0A7A018A8180
:1035F0008C151D0409F00CF497CFE881F981EE0DCC
:10360000FF1D428150E030E020E010E000E090E05B
:1036100080E0BDCFF12CE12CD12CC12CE8CF81E092
:1036200090E09C838B83A8DB882309F48BCF81E017
:1036300090E03CD880E448D885CF8B859C85019666
:1036400051F083E090E09C838B8382E090E02ED861
:1036500080E434D877CF89288A288B2879F4CE0162
:1036600088DE009771F3789422E030E0F201318334
:103670002083892BF9F08DEF9FEF02CF2D813E81C2
:10368000809177019091780128173907D1F66091E0
:103690007B0170917C01AE01455F5F4F80917901A4
:1036A00090917A010E948C24DCCF82E090E09C8390
:1036B0008B8348CF90E080E0E3CE82E090E0F2019F
:1036C0009183808385EF9FEFDBCE8F929F92AF92A5
:1036D000BF92CF92DF92EF92FF920F931F93CF93FF
:1036E000DF93EA018C01060F171FF80181818330F7
:1036F00098F082E090E09983888386EF9FEFDF91D6
:10370000CF911F910F91FF90EF90DF90CF90BF90DE
:10371000AF909F908F9008958091F5029091F6025E
:10372000892B61F081E090E02091F7023091F8025E
:10373000232B11F490E080E0892B39F482E090E0B3
:10374000998388838EEF9FEFDACF59DE882309F4BF
:10375000D5C0F8018181813009F48BC0E8F0823056
:1037600099F42091F7023091F802E091F502F0917E
:10377000F60290E080E041E050E02817390709F0B8
:10378000B3C0FADA811117C0789481E090E0998390
:10379000888390E080E0B3CF2091F7023091F80267
:1037A000E091F502F091F60290E080E041E050E017
:1037B0002817390741F481E090E00E94561380E415
:1037C0000E946413E1CF63817481672B11F05483ED
:1037D000438301963D96ECCFE091F502F091F6021D
:1037E000E00FF11F238134812230310561F42385FC
:1037F00034852F3F3F4F39F4C114D104E104F10463
:1038000009F5CF01B6DDEFEFCE1ADE0AEE0AFE0AA9
:10381000035F1F4F4091F7025091F80270E060E0A3
:10382000C416D506E606F70664F50097A9F2789463
:10383000892B09F4AACF82E090E0998388838DEFE9
:103840009FEF5DCF458156812091770130917801BE
:1038500042175307C1F6AF01455F5F4F60917B018F
:1038600070917C018091790190917A010E948C2461
:10387000CACF10E000E090E080E0C12CD12C7601AE
:10388000C9CF0097A1F610E000E0812C912C5401E3
:1038900083E0E82EF12C1AC0E091F502F091F602D7
:1038A000E00FF11F83819481029749F4F482E3824F
:1038B00082E090E00E94561380E40E945E13FFEFC6
:1038C0008F1A9F0AAF0ABF0A035F1F4F8091F7024A
:1038D0009091F802B0E0A0E088169906AA06BB060F
:1038E000DCF290E080E0A3CF6381748162307105E7
:1038F00011F45483438301963D963FCF82E090E0DC
:103900009983888385EF9FEFFACE0097B9F48FEF04
:10391000FB01808320918101309182014DE0429F23
:10392000C001439F900D1124E091F502F091F60241
:10393000E80FF91F8285FB01818308950C940F1312
:1039400088E090E0FA019183808390E080E0089520
:103950001092F4021092F302E5EFF2E086E0DF014C
:103960001D928A95E9F785E498E19093F20280939D
:10397000F10208958091F1029091F20208952F9240
:103980003F924F925F926F927F928F929F92AF92EF
:10399000BF92CF92DF92EF92FF920F931F93CF933C
:1039A000DF93CDB7DEB762970FB6F894DEBF0FBED8
:1039B000CDBFF8942091F3023091F4022F5F3F4F76
:1039C0003093F4022093F30278942091F502309121
:1039D000F6023B832A83232B09F456C12091F70278
:1039E0003091F802232B09F44FC14D875E876F8712
:1039F000788B9C878B878A819B819A8B898BD12C32
:103A0000C12C198210E000E08091F7029091F80239
:103A1000C816D90618F43981332329F1F894809116
:103A2000F3029091F40201979093F4028093F302D1
:103A30007894C80162960FB6F894DEBF0FBECDBF72
:103A4000DF91CF911F910F91FF90EF90DF90CF907A
:103A5000BF90AF909F908F907F906F905F904F90AE
:103A60003F902F900895B60190E080E028D388879A
:103A7000A989BA8917968C91179781FD8DC01396E5
:103A80008D919C911497039709F086C01596ED913E
:103A9000FC91FF83EE832B853C85E217F30709F049
:103AA0007BC0712C612C512C412C63C090D39A8720
:103AB000898710E04114510431F4A989BA89179615
:103AC0001C9112951170A989BA89ED91FC91E60DAE
:103AD000F71D23803480111169C0BFEF2B1A3B0AF8
:103AE00061E070E0C1013CD45C01A989BA891B96F0
:103AF0008D919C918F3F980709F45CC0B5014DD71B
:103B00004C01009709F4BBC0E985FA85E80FF91F5D
:103B1000A989BA891A968C91840D808311114DC0A0
:103B20008F010F5F1F4F8091770190917801AE81D7
:103B3000BF81A817B90709F09DC081E090E0B88562
:103B4000BB2311F090E080E0710109851A85950191
:103B5000A401B6019195819591093CD38C01892BE3
:103B600011F0C40184D58FEF481A580A95E0690E08
:103B7000711CA989BA8912968C918415150429F0B3
:103B800024F0B981BB2309F491CFE885EE2321F01D
:103B9000B60190E080E095D2FFEFCF1ADF0A2989C5
:103BA0003A89235F3F4F3A8B298B2ECFE5E02E0ECB
:103BB000311C96CFC5010CD5A3CF8D859E85AF85D1
:103BC000B88981839283A383B4838F010B5F1F4FD6
:103BD000AACFE080F180EC81FD81EE0EFF1ED701BF
:103BE00013966D917C9114978C918F3FE1F1E1E0F8
:103BF000F0E002C0EE0FFF1F8A95E2F7CF01092E19
:103C0000000CAA0BBB0BFB014081518162817381C7
:103C100084239523A623B72321E0892B8A2B8B2B82
:103C200009F420E0D8012C93D70111968C91080F4C
:103C3000111DEA81FB813196FB83EA832C813D8152
:103C4000295F3F4F3D832C83A989BA89ED91FC916F
:103C5000E60DF71D82812A813B818217130611F040
:103C60000CF0B7CF6ACFF701418150E0C8010E9444
:103C70007D2FDACF1D821C821B821A82E5CF31E0B4
:103C8000398306EF1FEF6FCF10E000E0C7CEB7CB50
:103C9000789408952F923F924F925F926F927F9205
:103CA0009F92AF92BF92CF92DF92EF92FF920F93CB
:103CB0001F93CF93DF9300D000D000D0CDB7DEB7F5
:103CC0000091F5021091F6029924939401151105C3
:103CD00009F43EC0A090F702B090F80290DB982E55
:103CE0008823B1F11092F6021092F5021092F802B8
:103CF0001092F7021092F9021092FA028FEF9FEFE2
:103D0000DC018093810190938201A0938301B093A1
:103D10008401789475D31E830D83C12CD12C760138
:103D2000C501B0E0A0E089839A83AB83BC832224E1
:103D30002A94322C89819A81AB81BC81C816D9061C
:103D4000EA06FB06F4F0C80192D480E40E946413F2
:103D5000892D26960FB6F894DEBF0FBECDBFDF913A
:103D6000CF911F910F91FF90EF90DF90CF90BF9078
:103D7000AF909F907F906F905F904F903F902F906B
:103D80000895C114D104E104F10409F5D8011B968A
:103D90008D919C918F3F980709F03FD5F8013486AB
:103DA0002386ED81FE8180819181B12CA12C412C53
:103DB000512C3201892B69F5BFEFCB1ADB0AEB0AD4
:103DC000FB0AED81FE813D96FE83ED83B3CFAD818D
:103DD000BE8115962D913C91169780917701909117
:103DE000780128173907E9F61B968D919C91C3D568
:103DF000D8CF8A0D9B1DDC018D919C91009709F015
:103E000036D4BFEF4B1A5B0A6B0A7B0AE5E0AE0EB5
:103E1000B11CAD81BE818D919C91119712964C91F0
:103E200050E070E060E044165506660677060CF335
:103E30001ED4C2CFCF93DF93EA012CDF811109C0DA
:103E400082E090E09983888385EF9FEFDF91CF91A7
:103E5000089581E090E00E94561381E090E09983FC
:103E6000888390E080E0F2CF15DF1092F20210928A
:103E7000F102089542E050E06BEF71E00C9474138E
:103E8000FF920F931F93CF93DF938A01EC01C60F2C
:103E9000D71FF980B4D20897F816190671F068F0A8
:103EA00082E090E0F801918380838EEF9FEFDF91B5
:103EB000CF911F910F91FF9008956C817D818E812C
:103EC0009F814B810E94EC15811108C082E090E037
:103ED000F8019183808384EF9FEFE9CFF9800E94FE
:103EE000E7154F2D50E0BE01685F7F4F0E947D2F88
:103EF00089810E94561681E090E0F80191838083C9
:103F000090E080E0D4CFDF92EF92FF920F931F9367
:103F1000CF93DF938A01EC01C60FD71F0E94E715EC
:103F20007C01D9806CD2DD2059F0029721E030E08D
:103F3000D816190619F010F030E020E0232B79F4A0
:103F400082E090E0F801918380838EEF9FEFDF9114
:103F5000CF911F910F91FF90EF90DF900895EF2880
:103F600041F482E090E0F8019183808384EF9FEF39
:103F7000EECFF9800E94E7154F2D50E0BE016E5F35
:103F80007F4F0E947D2F89810E94561681E090E02C
:103F9000F8019183808390E080E0D9CF8AE39FE1AC
:103FA0009093FC028093FB0208958091FB02909114
:103FB000FC0208950895FC0111821082938382838C
:103FC0000895DB011D921C92DC011296ED91FC918B
:103FD00013977183608313967C936E931297089561
:103FE000FC0180819181DB018D939C93A081B18143
:103FF000109741F08D919C9191838083892B11F4CE
:10400000F383E2830895FC0180819181DB018D932C
:104010009C93892B11F47383628371836083089569
:10402000FC0111821082938382830895CF93DF93E2
:1040300000D0CDB7DEB71A821982F894BE016F5F47
:104040007F4F82E093E0CCDF89819A81009709F06D
:104050000ED389819A81892B89F7BE016F5F7F4FCB
:1040600086E093E0BDDF89819A81009709F0FFD255
:1040700089819A81892B89F778940F900F90DF912D
:10408000CF910895CF93DF9300D0CDB7DEB71A82DA
:104090001982F894BE016F5F7F4F8EEF92E0A0DF30
:1040A00089819A81009709F0E2D289819A81892BCE
:1040B00089F778940F900F90DF91CF91089581E068
:1040C000089590E080E00895EF92FF920F931F9380
:1040D000CF93DF9300D0CDB7DEB71A8219828091DB
:1040E000FD0207EF1FEF8823A1F1F894BE016F5F77
:1040F0007F4F86E093E074DF789489819A81EE2483
:10410000E394F12C892B51F4F894BE016F5F7F4F3B
:1041100082E093E065DF7894F12CE12C89819A812B
:104120000EEF1FEF0097A9F0FC014281538164E07C
:1041300070E02FD68C01892B61F0F89469817A8127
:10414000C701880F991F880F991F8E5F9C4F5BDFF7
:104150007894C8010F900F90DF91CF911F910F912C
:10416000FF90EF9008950F931F93CF93DF9300D0AC
:1041700000D0CDB7DEB71C821B821A8219828091D3
:10418000FD0207EF1FEF8823C1F0AE014D5F5F4FC7
:1041900064E070E0CE0101966FD68C01892B69F442
:1041A000E981FA818B819C8193838283F894698170
:1041B0007A818EEF92E005DF7894C8010F900F901E
:1041C0000F900F90DF91CF911F910F91089574D7A9
:1041D000049608958F929F92AF92BF92CF92DF92F2
:1041E000EF92FF920F931F93CF93DF9300D0CDB741
:1041F000DEB71A821982BC016F5F7F4F6330710591
:1042000098F0AA24AA94BA2CC5010F900F90DF91C0
:10421000CF911F910F91FF90EF90DF90CF90BF90C3
:10422000AF909F908F9008954115510551F348012B
:1042300059018A016C01CBDF8815990511F7E1144A
:10424000F104F9F28E0D9F1DA816B906D0F28091E7
:10425000FD028823F1F0F894B501645071099701CB
:10426000AE014F5F5F4FC80104969BD65C01892B5E
:1042700071F489819A81F80193838283C601880F42
:10428000991F880F991FB8018E5F9C4F9ADE789412
:10429000BBCF87EFA82EBB24BA94B6CFAF92BF9204
:1042A000CF92DF92EF92FF920F931F93CF93DF9302
:1042B00000D0CDB7DEB71A821982892B09F047C02A
:1042C0006115710509F443C04115510509F43FC05A
:1042D0002115310509F43BC001151105C1F180918B
:1042E000FD028823B9F179016A015B01F894BE01EE
:1042F0006F5F7F4F8EEF92E073DE789489819A81B1
:10430000009759F1DC0112966D917C91A8010496F9
:1043100061D68C01E981FA81D501ED93FC9382810C
:1043200093810496F6019183808351DFD7018D93A9
:104330009C93C8010F900F90DF91CF911F910F9127
:10434000FF90EF90DF90CF90BF90AF9008950FEF68
:104350001FEFEFCF07EF1FEFECCF0EEF1FEFE9CF0F
:10436000CF93DF93EC01672B71F4AFD68C179D07C9
:1043700060F0A2D62496C80FD91FA1D68C0F9D1F1E
:10438000DF91CF9108959ED6F1CF90E080E0F8CFF5
:104390000F931F93CF93DF932091FD0221112BC028
:1043A0008B01EC0182E093E006DE86E093E003DE21
:1043B0008EEF92E000DE86D00097C1F486D670E0E2
:1043C00060E0CEDF45E851E062E070E07CD100972C
:1043D00069F4809185019091860189D6B801CE015A
:1043E000BED4009719F421E02093FD02DF91CF9114
:1043F0001F910F91089584EF9FEFF8CF63C665C6B4
:10440000CF93DF9365D6EC01892B11F40FDE3ADEF2
:10441000CE01DF91CF910895CF93DF9359D6EC0170
:10442000892B09F403DECE01DF91CF9108958091AD
:104430008501909186010895CF93DF938091FD02CD
:10444000D0E0C0E08823D1F057D6EC01892BB1F43D
:10445000EDDD18DE8091850190918601DED1EDD2EF
:10446000EC01892B59F482E093E0DADD86E093E0F9
:10447000D7DD8EEF92E0D4DD1092FD02CE01DF9108
:10448000CF910895CF93DF930097A1F4DF91CF915F
:104490000895EC011A821982A883309711F0928353
:1044A00081832F5F3F4FFC01860F971F42175307F1
:1044B00081F7ECCF30E020E0F0E0E0E0AFEF6F5FBD
:1044C0007F4FF4CFCF92DF92EF92FF920F931F9323
:1044D000CF93DF9305E414E00C7F87E0E82E82E0C1
:1044E000F82E9DE0C92E92E0D92ECCECD4E0D70175
:1044F0004D915D917D01F601619171916F0119837B
:1045000008835D834C835B834A837F836E839B0137
:104510002F5F3F4F249FC001259F900D349F900D2A
:10452000112499878887C801ADDF88859985080F90
:10453000191F2A96FDE0EF16F2E0FF06C1F6ECE047
:10454000F3E086E391E0DF019C011D9221503040B1
:10455000E1F710920B0310920A031092EB041092F1
:10456000EA041092EF041092EE041092ED041092FF
:10457000EC041092F1041092F0041092F3041092E3
:10458000F2041092F5041092F4041092F9041092BF
:10459000F8041092F7041092F6041092FB041092A3
:1045A000FA041092FD041092FC041092C9041092B7
:1045B000C8041092CB041092CA0490E080E0DF910E
:1045C000CF911F910F91FF90EF90DF90CF900895C2
:1045D0000097A1F1F8948131910550F48091CE04B7
:1045E0009091CF04892B39F020E090E080E019C051
:1045F0008132910550F48091D8049091D904892B8F
:1046000039F021E081E090E00CC081359105A8F4FB
:104610008091E2049091E304892B79F022E082E01A
:1046200090E0EAE0E89FD001E99FB00D1124A45387
:10463000BB4F8D919C91009721F4789490E080E09D
:104640000895E29FF0011124E453FB4FDC01119621
:104650004D915C9151834083428153814150510976
:1046600053834283FC012193CF01789408950097EE
:1046700049F1DC018E91853041F4E091CA04F0915A
:10468000CB043097F9F0CD0109948530D8F4282F68
:1046900030E0F8948FEF8C938AE0829FF001839F43
:1046A000F00D1124E453FB4F8081918112969C936D
:1046B0008E931197B183A083828193810196938316
:1046C000828378940895CF92DF92EF92FF920F93B6
:1046D0001F93CF93DF939C018FE093E08C7F411574
:1046E000510509F497C02115310509F493C06115EE
:1046F000710509F48FC07A01AB01B9016D5F7F4F7D
:104700006C7F9B012F5F3F4F249F8001259F100DE1
:10471000349F100D1124F8942091EA043091EB0499
:10472000232B59F42091F2043091F3042115310523
:1047300069F12017310708F056C02091F404309138
:10474000F504232B91F42091F2043091F304820FAD
:10475000931F2091FC043091FD042115310509F4CB
:104760003FC02017310708F052C07894CFEFDFEF39
:1047700086EF9FEFF701D183C083DF91CF911F9127
:104780000F91FF90EF90DF90CF900895C3E0D0E0BD
:10479000C0900A03D0900B0323E331E02C193D09AC
:1047A0002017310710F32AE02C9FF0012D9FF00D08
:1047B0001124E453FB4F91838083558344835383B7
:1047C000428377836683118700875CDE0C0D1D1D95
:1047D00010930B0300930A03789490E080E0CACF13
:1047E000C4E0D0E0D5CFC3E0D0E02AE02C9FF001B8
:1047F0002D9FF00D1124E453FB4F9183808355834B
:10480000448353834283778366833CDEE5CFC4E0F1
:10481000D0E0EBCF8FEF9FEFB0CFFF920F931F93BE
:10482000CF93DF939C01235031092230310508F0EA
:1048300070C0EC01F89484E09AE09C9FD0019D9FA9
:10484000B00D1124AC52BB4F082F10E0909FF00127
:10485000919FF00D1124E453FB4F20813181C0174B
:10486000D10714F1FF24F394232B41F52AE0209F74
:10487000F001219FF00D1124E453FB4F80910A03B6
:1048800090910B0340855185841B950B90930B03EE
:1048900080930A032C9FF0012D9FF00D1124E45307
:1048A000FB4F118610861CC0232B39F42D913C91AF
:1048B0001197232BA9F48150C7CFF12C8AE08C9F4C
:1048C000F0018D9FF00D1124E453FB4F408551857D
:1048D00070E060E0808191810E94862FF110C6CF48
:1048E0008AE08C9FF0018D9FF00D1124E453FB4F63
:1048F000118210821582148213821282178216820C
:10490000789490E080E0DF91CF911F910F91FF901C
:1049100008958FEF9FEFF7CF4115510549F10097AB
:1049200039F16115710521F1F8942091C804309195
:10493000C904232BB9F42091CA043091CB04232B52
:1049400089F49093C9048093C8047093CB04609356
:10495000CA04789425E030E090E080E0FA013183E9
:104960002083089578942FEF3FEF86EF9FEFF6CFE7
:104970008FEF9FEF0895059769F4F8941092C9049A
:104980001092C8041092CB041092CA04789490E05C
:1049900080E008958FEF9FEF08956115710519F478
:1049A000F0E0E0E011C08530910581F4E091C804A9
:1049B000F091C9043097A1F3CB01019609950097B6
:1049C00079F3FC0185E08193CF0108959C01235088
:1049D00031092230310520F72AE0289FD001299F94
:1049E000B00D1124A453BB4F2D913C911197232B53
:1049F000B9F216962D913C9117972617370780F23A
:104A0000F89412962D913C9113972115310529F0B8
:104A1000ED91FC911197309711F47894C1CF4181B9
:104A2000528111965C934E932150310913963C9319
:104A30002E93129781937894C7CFE2E4F4E086E84E
:104A4000DF011D928A95E9F7ECE0F3E086E391E05F
:104A5000DF019C011D9221503040E1F710920B03C1
:104A600010920A03ECECF4E082E3DF011D928A95D8
:104A7000E9F7E8ECF4E084E0DF011D928A95E9F7BC
:104A800090E080E00895CF93DF93C0918701D091AB
:104A90008801CF3FDC0759F4BDD390938801809300
:104AA000870197FF09C0D0938801C093870184EFE5
:104AB0009FEFDF91CF91089590E080E0FACF8230B0
:104AC000910528F48093FE0490E080E008958FEF34
:104AD0009FEF08954F925F926F927F92AF92BF9235
:104AE000CF92DF92EF92FF920F931F93CF93DF93BA
:104AF00000D0CDB7DEB71A821982009709F478C0CA
:104B00006115710509F474C0209187013091880105
:104B100007EF1FEF2F3F3F4F09F444C06B015C01CB
:104B2000412C512C3201F12CE12C10E000E09E01CF
:104B30002F5F3F4FA6014E195F09B5016E0D7F1D16
:104B40008091870190918801C3D3892B09F04AC0D5
:104B500089819A81009741F4E114F10429F42091AC
:104B6000FE04222309F441C0E80EF91EEC14FD04F2
:104B7000C8F480E8481684E858068EE16806710497
:104B800018F560E070E0CB01B7D62AE0420E511C68
:104B9000611C711C0A3F4FEF140721F0043F8FEF97
:104BA0001807A1F4C8010F900F90DF91CF911F91CA
:104BB0000F91FF90EF90DF90CF90BF90AF907F90DC
:104BC0006F905F904F90089501EF1FEF81E090E0AC
:104BD000013F2FEF120711F090E080E0892B09F4DC
:104BE000A6CFE0CF04EF1FEFDDCF0AEF1FEFDACF44
:104BF0000FEF1FEFD7CF4F925F926F927F92AF92DE
:104C0000BF92CF92DF92EF92FF920F931F93CF93B9
:104C1000DF9300D0CDB7DEB71A821982009709F46E
:104C200078C06115710509F474C020918701309135
:104C3000880107EF1FEF2F3F3F4F09F444C06B017E
:104C40005C01412C512C3201F12CE12C10E000E0F0
:104C50009E012F5F3F4FA6014E195F09B5016E0DF2
:104C60007F1D8091870190918801E8D2892B09F0FE
:104C70004AC089819A81009741F4E114F10429F432
:104C80002091FE04222309F441C0E80EF91EEC1421
:104C9000FD04C8F480E8481686E9580688E96806E5
:104CA000710418F560E070E0CB0126D62AE0420ED0
:104CB000511C611C711C0E3F4FEF140721F0043F83
:104CC0008FEF1807A1F4C8010F900F90DF91CF91DB
:104CD0001F910F91FF90EF90DF90CF90BF90AF901A
:104CE0007F906F905F904F90089502EF1FEF81E0EB
:104CF00090E0023F2FEF120711F090E080E0892B47
:104D000009F4A6CFE0CF04EF1FEFDDCF0EEF1FEFCA
:104D1000DACF0FEF1FEFD7CF8091870190918801F5
:104D20008F3F980749F06ED2892B49F48FEF9FEFA0
:104D3000909388018093870190E080E0089584EF4C
:104D40009FEF0895FC01680F791F90E080E0E6175F
:104D5000F70709F408952191820F911DF8CF209152
:104D6000FF04211113C08FDE009791F41092050506
:104D7000109204051092030510920205109201058D
:104D80001092000521E02093FF04089584EF9FEF27
:104D90000895AF92BF92CF92DF92EF92FF920F935E
:104DA0001F93CF93DF93009709F460C046305105FD
:104DB00008F45CC02091FF04C7EFDFEF222309F461
:104DC00049C08C01060F171FF801C080D180C114A3
:104DD000D10409F44EC096012A5F3F4F4217530792
:104DE00008F447C07C0180910405909105059383E8
:104DF0008283B6016C5F7F4F5801A60EB71EC801B3
:104E0000A1DFF5019183808364E070E0C80162DE78
:104E1000EC01892BF9F481E090E051DEB601C80184
:104E2000049658DEEC01892B91F462E070E0C50134
:104E300051DEEC01892B59F4C70119DC809104057E
:104E4000909105050196909305058093040590E0E7
:104E500080E035DECE01DF91CF911F910F91FF9061
:104E6000EF90DF90CF90BF90AF900895CFEFDFEF3E
:104E7000F1CFC9EFDFEFEECF6F927F928F929F92CB
:104E8000AF92BF92CF92DF92EF92FF920F931F9358
:104E9000CF93DF9300D000D0CDB7DEB7009709F4F1
:104EA0007AC04115510509F476C02091FF0407EF3F
:104EB0001FEF222309F44DC03A017B015C0164E03D
:104EC00070E0CE01019697DE8C01892B09F041C07C
:104ED00009811A810115110509F45AC0480186E0BB
:104EE000880E911CB701680D791D80918901909100
:104EF0008A0153DD6C01009709F450C0A70170E0EE
:104F000060E00E94862F89819A81AB81BC81EC0C84
:104F1000FD1CF70181939193A193B1937F0181E0EF
:104F200090E0CDDDB801C70166DE892B31F562E086
:104F300070E0C701800F911F5EDE8C01892BE9F4C0
:104F400090E080E0BCDDF501D182C082F301918266
:104F50008082C8010F900F900F900F90DF91CF913A
:104F60001F910F91FF90EF90DF90CF90BF90AF9087
:104F70009F908F907F906F90089590E080E09FDDEC
:104F8000F50111821082F30111821082C6016FDBDC
:104F900009EF1FEFDECF0FEF1FEFDBCF06EF1FEFA5
:104FA000D8CF0097A1F04115510589F021153105A1
:104FB00071F0F90136966E177F0748F0DC012D93EA
:104FC0003C93DA01ED93FC9390E080E008958FEF3D
:104FD0009FEF0895AF92BF92CF92DF92EF92FF9230
:104FE0000F931F93CF93DF93009709F45FC0411590
:104FF000510509F45BC06530710508F457C0209174
:10500000FF04C7EFDFEF222391F1DC01CD90DC90AC
:1050100011971296ED91FC9196012A5F3F4FC9EFCF
:10502000DFEF2617370719F5C0910005D09101056C
:10503000209749F521E030E03093010520930005E9
:105040007A018C01F0930305E09302055601B4E068
:10505000AB0EB11CB50176DE0A0D1B1DF8012081D7
:1050600031818217930729F5D701CD92DC92CE01C9
:10507000DF91CF911F910F91FF90EF90DF90CF9034
:10508000BF90AF90089520910205309103052F5FE6
:105090003F4FCCEFDFEFE217F30790F2CBEFDFEFFC
:1050A0002E173F0768F2D0E0C0E0CACFCFEFDFEFA6
:1050B000DECFC3EFDFEFDBCF84E090E0089582E046
:1050C00090E008958CEF9FEF089580E290E00895BE
:1050D0001092050510920405109203051092020526
:1050E000109201051092000590E080E008959093E1
:1050F0008A018093890108958091FF04882391F0AB
:105100000BDE009789F410920505109204051092A9
:1051100003051092020510920105109200051092ED
:10512000FF04089590E080E00895009749F061152C
:10513000710531F0FC0111821082FB011182108295
:105140000895F3CF40E855E260E070E090E080E041
:1051500000C026E083E195E061C51F920F920FB673
:105160000F9211242F933F934F935F936F937F93ED
:105170008F939F93AF93BF93EF93FF9386E09FEF3F
:105180009093850080938400B6D0FF91EF91BF91FA
:10519000AF919F918F917F916F915F914F913F91CF
:1051A0002F910F900FBE0F901F90189586E09FEFE4
:1051B0009093850080938400AFE6B0E08C918E7F61
:1051C0008C93E0E8F0E080818C7F8083E1E8F0E080
:1051D0008081877E808380818360808380818B7FD4
:1051E00080838C9181608C930895EFE6F0E080815C
:1051F00090819E7F90838170089581E00895109240
:105200000605089568EE73E080E090E075D390E0C5
:1052100080E0089526E040E050E16EE070E083E138
:1052200095E0FCD483E195E02FD4892B21F083E134
:1052300095E044D4F7CF90E080E00895CF92DF92DC
:10524000EF92FF920F931F93CF93DF936B017A013D
:10525000E9011982188283E195E016D4892B69F15E
:105260008601CC24C39482E0D82E8091060581115A
:1052700010C083E195E022D40297B9F7C0920605E9
:10528000F801D1928F018881998101969983888351
:10529000ECCF888199818E159F0578F483E195E0A4
:1052A0000DD48F3F9807A9F3F80181938F0188816E
:1052B0009981019699838883ECCF90E080E0DF911B
:1052C000CF911F910F91FF90EF90DF90CF900895B5
:1052D0000F931F93CF93DF93EA01890183E195E058
:1052E00081D5F801D183C08390E080E0DF91CF9138
:1052F0001F910F910895CF92DF92EF92FF928091CC
:10530000070591E0980F90930705882369F021E045
:1053100030E0309309052093080580930705FF903E
:10532000EF90DF90CF9008957894E0918D01F09107
:105330008E01C28CD38CE48CF58C0E944603B7019D
:10534000A60190E080E00E94FA01F89480910705A0
:105350008150E3CFCF93DF931092D1071092D00703
:1053600001D3F0DEC0918D01D0918E011982188297
:105370006FEF7FEFCB010E94740270E060E090E07D
:1053800080E00E94FF000097A9F50E940E0BF894A0
:105390007894BE016E5D7F4F8A819B810E940201DD
:1053A000892B59F46FEF7FEFCB010E948F010E9490
:1053B0006E02882311F081E08EA3F894F7DE0E943C
:1053C0007102811104C00E946E0291E0811190E08F
:1053D0009093D00778940E945113EC0178948091B7
:1053E000D00781110AC00E941F0D0E945502F89437
:1053F00090E080E0DF91CF9108950E9452020E94D8
:10540000710291E0811106C00E946E0291E081114B
:1054100001C090E09093D1079091D10781E0911164
:1054200080E08093D0078091D1078111DEDE219743
:1054300029F40E945113892B09F4E1DE0E945113D3
:10544000EC01DBDECCCF5058BB27AA270ED044C1DD
:1054500035D130F03AD120F031F49F3F11F41EF4F1
:105460002AC10EF4E095E7FB20C1E92F46D180F375
:10547000BA17620773078407950718F071F49EF551
:105480005EC10EF4E0950B2EBA2FA02D0B01B901D1
:1054900090010C01CA01A0011124FF27591B99F0AA
:1054A000593F50F4503E68F11A16F040A22F232FB6
:1054B000342F4427585FF3CF469537952795A79506
:1054C000F0405395C9F77EF41F16BA0B620B730BAD
:1054D000840BBAF09150A1F0FF0FBB1F661F771F1E
:1054E000881FC2F70EC0BA0F621F731F841F48F4D3
:1054F000879577956795B795F7959E3F08F0B3CF59
:105500009395880F08F09927EE0F97958795089542
:10551000A8D008F481E008950CD0DEC0D6D040F0C9
:10552000CDD030F021F45F3F19F0BFC0511108C158
:10553000C2C0E3D098F39923C9F35523B1F3951B67
:10554000550BBB27AA2762177307840738F09F5FA4
:105550005F4F220F331F441FAA1FA9F333D00E2E13
:105560003AF0E0E830D091505040E695001CCAF780
:1055700029D0FE2F27D0660F771F881FBB1F261745
:1055800037074807AB07B0E809F0BB0B802DBF0118
:10559000FF2793585F4F2AF09E3F510568F085C062
:1055A000CFC05F3FECF3983EDCF386957795679527
:1055B000B795F7959F5FC9F7880F911D96958795C9
:1055C00097F90895E1E0660F771F881FBB1F6217E8
:1055D00073078407BA0720F0621B730B840BBA0BA6
:1055E000EE1F88F7E0950895E89409C097FB3EF414
:1055F00090958095709561957F4F8F4F9F4F992320
:10560000A9F0F92F96E9BB279395F695879577959D
:105610006795B795F111F8CFFAF4BB0F11F460FF5D
:105620001BC06F5F7F4F8F4F9F4F16C0882311F0B5
:1056300096E911C0772321F09EE8872F762F05C0C9
:10564000662371F096E8862F70E060E02AF09A9564
:10565000660F771F881FDAF7880F9695879597F959
:105660000895990F0008550FAA0BE0E8FEEF1616F3
:105670001706E807F907C0F012161306E407F50746
:1056800098F0621B730B840B950B39F40A2661F0BA
:10569000232B242B252B21F408950A2609F4A1405D
:1056A000A6958FEF811D811D089597F99F6780E86A
:1056B00070E060E008959FEF80EC089500240A9464
:1056C0001616170618060906089500240A941216DD
:1056D0001306140605060895092E0394000C11F410
:1056E000882352F0BB0F40F4BF2B11F460FF04C0BD
:1056F0006F5F7F4F8F4F9F4F089557FD9058440F16
:10570000551F59F05F3F71F04795880F97FB991F20
:1057100061F09F3F79F087950895121613061406DD
:10572000551FF2CF4695F1DF08C01616170618066A
:10573000991FF1CF86957105610508940895E89445
:10574000BB2766277727CB0197F908958ADF08F4EE
:105750008FEF08950BD0C0CFB1DF28F0B6DF18F07F
:10576000952309F0A2CFA7CF1124EACFC6DFA0F37B
:10577000959FD1F3950F50E0551F629FF001729FE6
:10578000BB27F00DB11D639FAA27F00DB11DAA1F05
:10579000649F6627B00DA11D661F829F2227B00D52
:1057A000A11D621F739FB00DA11D621F839FA00DDD
:1057B000611D221F749F3327A00D611D231F849F2D
:1057C000600D211D822F762F6A2F11249F57504084
:1057D0008AF0E1F088234AF0EE0FFF1FBB1F661F1F
:1057E000771F881F91505040A9F79E3F510570F0D8
:1057F0005CCFA6CF5F3FECF3983EDCF386957795C0
:105800006795B795F795E7959F5FC1F7FE2B880FD2
:10581000911D9695879597F908951F920F920FB64F
:105820000F9211242F933F938F939F93AF93BF9326
:1058300080910B0590910C05A0910D05B0910E057E
:1058400030910A0523E0230F2D3758F50196A11D4D
:10585000B11D20930A0580930B0590930C05A0932E
:105860000D05B0930E0580910F0590911005A09144
:105870001105B09112050196A11DB11D80930F0570
:1058800090931005A0931105B0931205BF91AF91AD
:105890009F918F913F912F910F900FBE0F901F906E
:1058A000189526E8230F0296A11DB11DD2CF3FB750
:1058B000F89480910F0590911005A0911105B09179
:1058C000120526B5A89B05C02F3F19F00196A11D12
:1058D000B11D3FBFBA2FA92F982F8827BC01CD013A
:1058E000620F711D811D911D42E0660F771F881F99
:1058F000991F4A95D1F708958F929F92AF92BF92C8
:10590000CF92DF92EF92FF926B017C01D0DF4B01CF
:105910005C01C114D104E104F104D9F090D2C7DFD5
:10592000681979098A099B09683E734081059105C8
:1059300080F321E0C21AD108E108F10888EE880E50
:1059400083E0981EA11CB11CC114D104E104F10430
:1059500031F7FF90EF90DF90CF90BF90AF909F9086
:105960008F900895789484B5826084BD84B58160F9
:1059700084BD85B5826085BD85B5816085BDEEE657
:10598000F0E0808181608083E1E8F0E01082808136
:1059900082608083808181608083E0E8F0E08081A4
:1059A00081608083E1EBF0E0808184608083E0EBC4
:1059B000F0E0808181608083EAE7F0E080818460AC
:1059C0008083808182608083808181608083808108
:1059D000806880831092C10008958E3008F08E5048
:1059E00020918B0190E4299F900111248770822BD4
:1059F00080937C0080917A00806480937A0080910B
:105A00007A0086FDFCCF809178009091790008950E
:105A1000CF93DF9390E0FC01E859FF4F2491845825
:105A20009F4FFC0184918823C9F090E0880F991F53
:105A3000FC01E656FF4FA591B491FC01E057FF4FE2
:105A4000C591D49161110DC09FB7F8948C912095A8
:105A500082238C938881282328839FBFDF91CF9155
:105A60000895623051F49FB7F8943C91822F80954D
:105A700083238C93E8812E2BEFCF8FB7F894EC9192
:105A80002E2B2C938FBFEACFFC01918D228D892F75
:105A900090E0805C9F4F821B91098F739927089536
:105AA000FC01918D828D981731F0828DE80FF11DE8
:105AB000858D90E008958FEF9FEF0895FC01918D03
:105AC000828D981761F0A28DAE0FBF2FB11D5D962C
:105AD0008C91928D9F5F9F73928F90E008958FEFCE
