:020000040800F2
:1000000000000320E1440008793800087D3800082A
:100010008138000885380008893800080000000091
:10002000000000000000000000000000E52C0008B7
:100030008D38000800000000A12C0008D92B000812
:1000400031450008314500083145000831450008B8
:1000500031450008314500083145000831450008A8
:100060003145000831450008314500083145000898
:100070003145000831450008314500083145000888
:100080003145000831450008590E00083145000887
:100090003145000831450008314500083145000868
:1000A0003145000831450008314500083145000858
:1000B0003145000831450008314500083145000848
:1000C0003145000831450008314500083145000838
:1000D0003145000831450008314500083145000828
:1000E0003145000831450008314500083145000818
:1000F0003145000831450008314500083145000808
:1001000031450008314500089138000831450008A4
:1001100031450008314500083145000831450008E7
:10012000010E0008314500089D38000831450008DF
:1001300031450008314500083145000831450008C7
:1001400031450008314500083145000831450008B7
:1001500031450008314500083145000831450008A7
:100160003145000831450008314500083145000897
:100170003145000831450008314500080000000005
:100180003145000831450008314500083145000877
:100190003145000831450008314500083145000867
:0C01A000314500083145000831450008D9
:1001B00010B5054C237833B9044B13B10448AFF3A1
:1001C00000800123237010BDC0010020000000004A
:1001D000FC4A000808B5034B1BB103490348AFF3C1
:1001E000008008BD00000000C4010020FC4A000897
:1001F00081F0004102E000BF83F0004330B54FEAD8
:1002000041044FEA430594EA050F08BF90EA020F44
:100210001FBF54EA000C55EA020C7FEA645C7FEAD7
:10022000655C00F0E2804FEA5454D4EB5555B8BFFA
:100230006D420CDD2C4480EA020281EA030382EA6B
:10024000000083EA010180EA020281EA0303362DFD
:1002500088BF30BD11F0004F4FEA01314FF4801CD0
:100260004CEA113102D0404261EB410113F0004FE2
:100270004FEA03334CEA133302D0524263EB430399
:1002800094EA050F00F0A780A4F10104D5F1200E37
:100290000DDB02FA0EFC22FA05F2801841F1000192
:1002A00003FA0EF2801843FA05F359410EE0A5F166
:1002B00020050EF1200E012A03FA0EFC28BF4CF097
:1002C000020C43FA05F3C01851EBE37101F000454D
:1002D00007D54FF0000EDCF1000C7EEB00006EEB5A
:1002E0000101B1F5801F1BD3B1F5001F0CD34908E4
:1002F0005FEA30004FEA3C0C04F101044FEA44523B
:1003000012F5800F80F09A80BCF1004F08BF5FEAC1
:10031000500C50F1000041EB045141EA050130BDA1
:100320005FEA4C0C404141EB0101013C28BFB1F5B3
:10033000801FE9D291F0000F04BF01460020B1FAFE
:1003400081F308BF2033A3F10B03B3F120020CDAD1
:100350000C3208DD02F1140CC2F10C0201FA0CF0AF
:1003600021FA02F10CE002F11402D8BFC2F1200C14
:1003700001FA02F120FA0CFCDCBF41EA0C019040CA
:10038000E41AA2BF01EB0451294330BD6FEA040413
:100390001F3C1CDA0C340EDC04F11404C4F12002FE
:1003A00020FA04F001FA02F340EA030021FA04F310
:1003B00045EA030130BDC4F10C04C4F1200220FA67
:1003C00002F001FA04F340EA0300294630BD21FAA5
:1003D00004F0294630BD94F0000F83F4801306BF6B
:1003E00081F480110134013D4EE77FEA645C18BF5F
:1003F0007FEA655C29D094EA050F08BF90EA020FF6
:1004000005D054EA000C04BF1946104630BD91EAED
:10041000030F1EBF0021002030BD5FEA545C05D1F0
:100420004000494128BF41F0004130BD14F580042F
:100430003CBF01F5801130BD01F0004545F0FE41A3
:1004400041F470014FF0000030BD7FEA645C1ABFD8
:10045000194610467FEA655C1CBF0B46024650EA0F
:10046000013406BF52EA033591EA030F41F400213B
:1004700030BD00BF90F0000F04BF0021704730B5C1
:100480004FF4806404F132044FF000054FF0000196
:1004900050E700BF90F0000F04BF0021704730B557
:1004A0004FF4806404F1320410F0004548BF40422C
:1004B0004FF000013EE700BF42004FEAE2014FEA81
:1004C00031014FEA02701FBF12F07F4393F07F4F5C
:1004D00081F06051704732F07F4208BF704793F05F
:1004E0007F4F04BF41F40021704730B54FF4607472
:1004F00001F0004521F000411CE700BF50EA010275
:1005000008BF704730B54FF000050AE050EA01021D
:1005100008BF704730B511F0004502D5404261EB8D
:1005200041014FF4806404F132045FEA915C3FF4CE
:10053000D8AE4FF003025FEADC0C18BF03325FEA6B
:10054000DC0C18BF033202EBDC02C2F1200300FA1C
:1005500003FC20FA02F001FA03FE40EA0E0021FA41
:1005600002F11444BDE600BF70B54FF0FF0C4CF42F
:10057000E06C1CEA11541DBF1CEA135594EA0C0FE1
:1005800095EA0C0F00F0DEF82C4481EA030621EA1C
:100590004C5123EA4C5350EA013518BF52EA033557
:1005A00041F4801143F4801338D0A0FB02CE4FF009
:1005B0000005E1FB02E506F00042E0FB03E54FF039
:1005C0000006E1FB03569CF0000F18BF4EF0010E31
:1005D000A4F1FF04B6F5007F64F5407404D25FEA2D
:1005E0004E0E6D4146EB060642EAC62141EA5551E0
:1005F0004FEAC52040EA5E504FEACE2EB4F1FD0C22
:1006000088BFBCF5E06F1ED8BEF1004F08BF5FEA9F
:10061000500E50F1000041EB045170BD06F0004651
:1006200046EA010140EA020081EA0301B4EB5C04FE
:10063000C2BFD4EB0C0541EA045170BD41F48011F6
:100640004FF0000E013C00F3AB8014F1360FDEBF1B
:10065000002001F0004170BDC4F10004203C35DAF7
:100660000C341BDC04F11404C4F1200500FA05F37A
:1006700020FA04F001FA05F240EA020001F000421B
:1006800021F0004110EBD37021FA04F642EB060191
:100690005EEA430E08BF20EAD37070BDC4F10C04BB
:1006A000C4F1200500FA04F320FA05F001FA04F27F
:1006B00040EA020001F0004110EBD37041F100016B
:1006C0005EEA430E08BF20EAD37070BDC4F1200576
:1006D00000FA05F24EEA020E20FA04F301FA05F2DE
:1006E00043EA020321FA04F001F0004121FA04F286
:1006F00020EA020000EBD3705EEA430E08BF20EA56
:10070000D37070BD94F0000F0FD101F0004640008F
:1007100041EB010111F4801F08BF013CF7D041EA11
:10072000060195F0000F18BF704703F00046520015
:1007300043EB030313F4801F08BF013DF7D043EAE6
:100740000603704794EA0C0F0CEA135518BF95EA9C
:100750000C0F0CD050EA410618BF52EA4306D1D123
:1007600081EA030101F000414FF0000070BD50EA42
:10077000410606BF1046194652EA430619D094EACC
:100780000C0F02D150EA013613D195EA0C0F05D1B6
:1007900052EA03361CBF104619460AD181EA03010A
:1007A00001F0004141F0FE4141F470014FF00000C2
:1007B00070BD41F0FE4141F4780170BD70B54FF05D
:1007C000FF0C4CF4E06C1CEA11541DBF1CEA1355DD
:1007D00094EA0C0F95EA0C0F00F0A7F8A4EB0504BF
:1007E00081EA030E52EA03354FEA013100F08880B6
:1007F0004FEA03334FF0805545EA131343EA12637F
:100800004FEA022245EA111545EA10654FEA002633
:100810000EF000419D4208BF964244F1FD0404F5EC
:10082000407402D25B084FEA3202B61A65EB030548
:100830005B084FEA32024FF480104FF4002CB6EB05
:10084000020E75EB030E22BFB61A754640EA0C0085
:100850005B084FEA3202B6EB020E75EB030E22BFC5
:10086000B61A754640EA5C005B084FEA3202B6EB06
:10087000020E75EB030E22BFB61A754640EA9C00C5
:100880005B084FEA3202B6EB020E75EB030E22BF95
:10089000B61A754640EADC0055EA060E18D04FEA53
:1008A000051545EA16754FEA06164FEAC30343EAF3
:1008B00052734FEAC2025FEA1C1CC0D111F4801FC0
:1008C0000BD141EA00014FF000004FF0004CB6E7B9
:1008D00011F4801F04BF01430020B4F1FD0C88BF58
:1008E000BCF5E06F3FF6AFAEB5EB030C04BFB6EB63
:1008F000020C5FEA500C50F1000041EB045170BD56
:100900000EF0004E4EEA113114EB5C04C2BFD4EB82
:100910000C0541EA045170BD41F480114FF0000E06
:10092000013C90E645EA060E8DE60CEA135594EA82
:100930000C0F08BF95EA0C0F3FF43BAF94EA0C0F85
:100940000AD150EA01347FF434AF95EA0C0F7FF4FA
:1009500025AF104619462CE795EA0C0F06D152EA4E
:1009600003353FF4FDAE1046194622E750EA410632
:1009700018BF52EA43067FF4C5AE50EA41047FF443
:100980000DAF52EA43057FF4EBAE12E74FF0FF3CA8
:1009900006E000BF4FF0010C02E000BF4FF0010C79
:1009A0004DF804CD4FEA410C7FEA6C5C4FEA430CF2
:1009B00018BF7FEA6C5C1BD001B050EA410C0CBF41
:1009C00052EA430C91EA030F02BF90EA020F0020A3
:1009D000704710F1000F91EA030F58BF994208BF0A
:1009E00090422CBFD8176FEAE37040F001007047C7
:1009F0004FEA410C7FEA6C5C02D150EA013C07D11E
:100A00004FEA430C7FEA6C5CD6D152EA033CD3D068
:100A10005DF8040B704700BF8446104662468C4662
:100A20001946634600E000BF01B5FFF7B7FF002895
:100A300048BF10F1000F01BD4DF808EDFFF7F4FFBE
:100A40000CBF012000205DF808FB00BF4DF808ED49
:100A5000FFF7EAFF34BF012000205DF808FB00BF6C
:100A60004DF808EDFFF7E0FF94BF012000205DF88E
:100A700008FB00BF4DF808EDFFF7CEFF94BF012043
:100A800000205DF808FB00BF4DF808EDFFF7C4FF3C
:100A900034BF012000205DF808FB00BF4FEA410C85
:100AA0007FEA6C5C02D150EA013C0AD14FEA430C68
:100AB0007FEA6C5C02D152EA033C02D14FF00000A5
:100AC00070474FF0010070474A0011D212F5001232
:100AD00011D20DD56FF47873B3EB62520ED44FEA96
:100AE000C12343F0004343EA505323FA02F0704716
:100AF0004FF00000704750EA013002D14FF0FF3054
:100B000070474FF00000704753B94AB9002908BF39
:100B100000281CBF4FF0FF314FF0FF3000F06EB9DE
:100B2000ADF1080C6DE904CE00F006F8DDF804E044
:100B3000DDE9022304B070472DE9F047089D044623
:100B40008C46002B40F083808A42174647D9B2FA80
:100B500082F242B1C2F1200024FA00F091409740A5
:100B600040EA010C94404FEA1748230CBCFBF8F60E
:100B70001FFA87FE08FB16C143EA014306FB0EF18C
:100B8000994209D9FB1806F1FF3080F0198199428A
:100B900040F21681023E3B445B1AA4B2B3FBF8F06C
:100BA00008FB103344EA034400FB0EFEA64509D9B6
:100BB0003C1900F1FF3380F00581A64540F2028127
:100BC00002383C4440EA0640A4EB0E0400261DB166
:100BD000D4400023C5E900433146BDE8F08702B99F
:100BE000FFDEB2FA82F2002A50D1CB1B4FEA174E39
:100BF0001FFA87F80126B3FBFEFC210C0EFB1C3309
:100C000041EA034108FB0CF38B4207D979180CF138
:100C1000FF3002D28B4200F2E9808446C91AA3B2A7
:100C2000B1FBFEF00EFB101143EA014408FB00F893
:100C3000A04507D93C1900F1FF3302D2A04500F2CC
:100C4000D9801846A4EB080440EA0C40BFE78B4269
:100C500009D9002D00F0B1800026C5E90001304619
:100C60003146BDE8F087B3FA83F6002E4AD18B42B5
:100C700002D3824200F2B880841A61EB03010120A2
:100C80008C46002DA8D0C5E9004CA5E7C2F1200391
:100C900020FA03F6974001FA02F04FEA174ED940C6
:100CA0003043030CB1FBFEF61FFA87F80EFB16115A
:100CB00043EA014306FB08F1994204FA02F409D918
:100CC000FB1806F1FF3C80F08D80994240F28A804B
:100CD000023E3B445B1A81B2B3FBFEF00EFB1033C5
:100CE00041EA034100FB08F38B4207D9791800F170
:100CF000FF3C73D28B4271D902383944CB1A40EA97
:100D0000064678E7C6F1200C03FA06F422FA0CF343
:100D10001C4320FA0CF701FA06F34FEA144E21FAAD
:100D20000CF11F433B0CB1FBFEF91FFA84F80EFBDC
:100D3000191143EA014109FB08FA8A4502FA06F251
:100D400000FA06F308D9611809F1FF3048D28A4544
:100D500046D9A9F102092144A1EB0A01BFB2B1FBB6
:100D6000FEF00EFB101147EA014700FB08F8B845FA
:100D700007D9E71900F1FF312ED2B8452CD9023836
:100D8000274440EA0940A7EB0807A0FB02894F452A
:100D9000C64649461AD317D05DB1B3EB0E0267EBD6
:100DA000010707FA0CFCF2404CEA0202F740C5E9E1
:100DB000002700263146BDE8F0872E4628460BE77F
:100DC0000646E9E61846FDE64345E5D2B8EB020ED5
:100DD00069EB04010138DFE70846D2E760468DE79A
:100DE0008146B9E7664675E730464AE7ACF1020C42
:100DF000394413E702383C4424E700BF704700BF82
:100E000030B4134913480A794B69825C9858C50677
:100E100003EB020402D51868800601D430BC704789
:100E200020200425CD719860985810F4907FF5D15A
:100E30009D58088825F001059D506168090C09043A
:100E400001436160995841F001019950E6E700BF04
:100E500028030020184B0008704700BF704700BFF0
:100E6000F0B4364C0569A54229D1354C0026012B3A
:100E70002561667120D02AB3E379082B1CD0C7689E
:100E800042690688E760626190F804C084F804C093
:100E90008378A370EB6A0498268023F470030343DD
:100EA0000129EB6203D0042921D002291AD008239A
:100EB000E3712348F0BC70472046F0BC7047002027
:100EC000F0BC7047237A082BF6D0C378E370022970
:100ED00003D008231A482372EFE76B6843F08003BE
:100EE0006B60F6E76B6843F020036B60DFE7154B40
:100EF000A96813F80C30DFF850C0D01841F44071E5
:100F0000A960C0F808C007EB4601C7600569016128
:100F1000D15841F48021D1504168090C0904314372
:100F20004160D15841F01001D150D15841F0040135
:100F3000D150D15841F00101D150B8E70022014011
:100F400028030020184B00084C22014003699A68CE
:100F5000D20703D49A6842F001029A60704700BF3A
:100F600038B5036933B10129044643D0042903D0BD
:100F7000022922D0012038BD996811F0405FF9D1D3
:100F80000121C171996841F080419960E379042B96
:100F9000FCD123792D486169C35CCB58E16813F417
:100FA000002FA378104608BF01EB43015A0003F05D
:100FB00075FD0823E371002038BDC379202B05D0CF
:100FC000C379042B02D0C379102BD3D11F482379C6
:100FD0006169C35C0820E071CD58A378E16815F41D
:100FE000002510462DD101EB43015A0003F056FDB8
:100FF000284638BD9A6812F0405FBBD1C279022AF8
:1010000008D0C279042A05D0C279082A02D01A6809
:101010009107AFD51A68920604D56FF0200110220F
:101020001960E271E279102AA4D0E279082A0CBF93
:1010300001222022E2719A6842F080429A600020E8
:1010400038BD5A0003F02AFD002038BD184B0008B7
:10105000036910B49C68E40703D59C6824F001047C
:101060009C605C68640603D55C6824F040045C60A6
:101070005C68640103D55C6824F080645C6092B1B4
:10108000002202718270DC6AC26024F470040129BB
:1010900002804261DC6203D0022924D004290CD0F2
:1010A0005DF8044B70470229C270F9D15A685DF8A7
:1010B000044B22F080025A6070471022116821F020
:1010C00001011160116821F004011160116821F023
:1010D000100111605168D140914051609A6822F42A
:1010E00040729A60DCE75A685DF8044B22F02002F7
:1010F0005A60704710B5094C23785A1C227023B1EE
:10110000074A23700123136010BD62B600F0E4F9B2
:1011100072B62378013B237010BD00BFE0010020B0
:10112000DC010020F8B5214C214D002727702F70DD
:1011300002F07AFE01F002FE01F030FD02F0B6F896
:1011400002F092F801F016FF01F08CFF01F0DAFFD7
:1011500002F00CF801F05AFE164B1E68376001F0E1
:101160001BFC72B69FED140A01F03EFD3368B3FA22
:1011700083F35B092B7062B662B6104A06E03368EF
:10118000003B18BF0123237023784BB92B7803F061
:10119000FF07002BF3D101F0EFFC72B63846F8BD23
:1011A000136823F001031360F0E700BF4103002040
:1011B00040030020344B00086F12833A10E000E037
:1011C0009FED010B704700BF000000000000F07FA2
:1011D0009FED010A704700BF0000807F0000000003
:1011E0009FED010B704700BF000000000000F0FF02
:1011F0009FED010A704700BF000080FF0000000063
:101200009FED010B704700BF000000000000F8FFD9
:101210009FED010A704700BF0000C0FF08B5FFF74F
:10122000EFFF0E4B83ED000BFFF7F2FF0C4B83ED4E
:10123000000AFFF7C5FF0B4B83ED000BFFF7C8FF5C
:10124000094B83ED000AFFF7CBFF084B83ED000B42
:10125000FFF7CEFF064B83ED000A08BD58030020C0
:1012600048030020500300204C03002060030020AE
:101270006803002038B50C4B55EC104BD3E9000146
:1012800010EE102A2B46FFF7D7FB50B9074922462C
:10129000D1E900012B46FFF7CFFB003818BF012032
:1012A00038BD012038BD00BF50030020600300207E
:1012B00053EC102B0648984301D000207047C3F32D
:1012C000130151EA020314BF01200020704700BF40
:1012D0000000F07F2DE9F84F55EC114B2DED028BFE
:1012E00011EE100A29460022002357EC106BFFF77D
:1012F000A3FBC8B30022002330463946FFF79CFB0E
:1013000040B345EC184BB0EE480AF0EE680ABDEC6D
:10131000028BBDE8F88F45EC104BFFF7ABFF0028C0
:101320004FD00022002329462046FFF78FFB0022E2
:10133000B0F100084FF000033046394618BF4FF0B7
:101340000108FFF783FB00385FFA88F818BF012017
:101350008045D6D147EC186BB0EE480AF0EE680A2B
:10136000BDEC028BBDE8F88F47EC106BFFF7A0FFD8
:1013700050B1554B93ED008BB0EE480AF0EE680A81
:10138000BDEC028BBDE8F88F45EC104BFFF790FFEA
:101390000028EED147EC106BFFF76CFF0028E8D176
:1013A0000022002330463946FFF746FB0028B2D022
:1013B00022462B4600200021FFF700FA41EC180BD3
:1013C000A1E745EC114B47EC106B03F0B9F9002293
:1013D00051EC100BB0EE408AF0EE608A0023FFF76C
:1013E0002BFB8046B8F1000851EC180B4FF00002BF
:1013F0004FF0000318BF4FF00108FFF71DFBB0BB13
:1014000045EC104B03F018F9204653EC102B2946FD
:10141000FFF73AFB58B322462B4630463946FFF7D2
:10142000CDF921F00049294B002249468046FEF7BC
:10143000E5FE41EC100B03F0FFF8404653EC102B97
:101440004946FEF7D9FE0B46824623F0004B404644
:101450001F4B00224946FFF787F802460B465046CD
:101460005946FFF711FBB0FA80F84FEA5818B8F167
:10147000000F08D02046294600220023FFF774F809
:1014800041EC180B3FE73046394600220023FFF7B6
:10149000DDFA0022061E4FF000032046294618BF41
:1014A0000126FFF7D3FA0038F6B218BF01208642B2
:1014B0003FF429AF51EC180B22462B46FEF79EFE57
:1014C00041EC180B1FE700BF580300200000E03F6D
:1014D0000000B03C000000002DE9F04F2DED028B24
:1014E000DFF820B3BC4993B05846A022A1F1180AF6
:1014F00003F0D4FADBE90045CBE9DA45DAF83086C7
:101500000BF108060BF1A0090AF5C667F6E80223FD
:1015100020462946FEF772FE57F8043F4E45044622
:101520000D469844F2D1AD4EDAE92E2306F5467702
:1015300010461946F6E80223FEF760FEBE42024658
:101540000B46F5D1A64B0022FFF738F90B46A5490B
:101550000246D1E92001FFF707F8B8F1000FCBE907
:10156000D80180F28986A04BA049A14A03FB081349
:10157000B2EBB30F34BF4FF0FF3000209D4A4FEA6B
:10158000E87382FB0828C3EBE8084044FEF782FFBB
:10159000944BD3E90089D3E92223FFF70FF94246A0
:1015A0004B46FEF7E1FFBAF8883640F2FE72064677
:1015B0000F469342CBE9CA6703D801339BB2AAF81E
:1015C00088369AF8A326002A40F08D824FF4817362
:1015D000AAF88826AAF8A236002200238149D1E978
:1015E0002401FFF733FA002800F07A82DBE9CE45C8
:1015F00042464B4676A1D1E90001FFF7DFF83246BB
:101600003B4606460F4620462946FEF7F5FD0246B4
:101610000B4630463946FEF7A7FF724E0446D6E920
:1016200002230D4600207449FFF7C8F802460B4616
:1016300020462946FEF798FFD6E92623FEF794FFB9
:101640000022002380468946FFF700FA08B1D6E958
:101650002889DAE9F645404622462B464946FEF7F8
:10166000CBFDDAE9F86741EC180B32463B462046E1
:1016700029468BEDDA8BFEF7BFFDDAE9FC4541EC3C
:10168000170B22468BEDDC7B2B4630463946FEF7A6
:10169000B3FD0B465949D1E900670246CBE9DE2389
:1016A000204632463B462946FEF7A6FD534C0B46E4
:1016B0002146F1E908450246CBE9E0230A9122469A
:1016C000304639462B46FEF797FD4C4B06462046E2
:1016D0001C46F4E912230F46CBE9D66729460B9442
:1016E000FEF78AFDB0EE480AF0EE680ACBE9D401B5
:1016F000FFF7DEFD002800F0DB81414BD3E900233A
:10170000CBE9DA239BEDDC0BFFF7D2FD002800F0DC
:10171000B6813B4BD3E90023CBE9DC239BEDDE0B09
:10172000FFF7C6FD002800F09181354BD3E9002377
:10173000CBE9DE239BEDE00BFFF7BAFD002800F0BC
:101740006C812F4BD3E90023CBE9E0239BEDD60B33
:10175000FFF7AEFD002800F04781294BD3E90023B5
:10176000CBE9D6239BEDD40BFFF7A2FD002800F0B8
:101770002481234BD3E900671A49DBE9DA23D1E955
:101780002C01FEF7F1FE0D461649DBE9DC23044689
:10179000D1E93001FEF7E8FE02460B462046294615
:1017A000FEF72CFDDBE9DE23FEF728FDDBE9E02375
:1017B000FEF724FDDBE9D623FEF720FD32463B464B
:1017C000FEF71CFD074E04460D461DE0AFF30080FA
:1017D000182D4454FB21194028070020D007002071
:1017E0000000594000000020CDCCCCCC989999192C
:1017F000CCCCCC0C676666660000F03F180B00206E
:101800005803002070030020D6E90623CBE9D44515
:10181000FFF730F940B1D6E90423DBE9D801FFF73F
:1018200029F9002840F0A0819AF890369AF88E267F
:10183000134318BF01264FF0000308BF00260E9384
:10184000374602932046B84C8AF89076D4E90823AC
:101850002946FFF705F9002800F08480D4E90A231F
:10186000DBE9D801FFF7FCF800287BD0002E40F020
:1018700081819AF89176B7FA87F701267F09079652
:101880003A460196029900238AF89536002979D1C3
:1018900000230C930693A549BAF88C36D1F8201191
:1018A000D1E9004540F2FE318B42CBE9D64503D861
:1018B00001339BB2AAF88C369AF8A71600296BD18F
:1018C00040F20313AAF8A636BAF88A3640F2FE327E
:1018D000934203D801339BB2AAF88A369AF8A52618
:1018E000002A40F02B819FED8C0B914A8BEDD00BA1
:1018F00082ED000B40F20313AAF8A4368A4B93ED55
:101900003A1BFFF7E7FCDBE9D00153EC102B8BED22
:10191000D40BFEF771FC82A3D3E90023FEF724FE6B
:1019200041EC100B02F088FE8BEDDA0BFFF7C0FCE8
:10193000002800F0E68400240025CBE9DA452046A3
:101940002946FFF7C1F8092800F24E81DFE810F0C0
:101950008C0585057E0577057005690562055B05C3
:10196000540547019AF893269AF895361A4300F0E1
:10197000088100220123174607928AF895360192C2
:10198000164685E79AF89616002940F0FF80029BDC
:10199000069301220C927EE79AF8A616012900F020
:1019A000EB84022900F0DA84002A8DD00222002381
:1019B0008AF8A626AAF88C3686E7DBE9D445002209
:1019C000002320462946FFF741F8002840F0E28036
:1019D0002046294600220023FFF756F8002600285B
:1019E00000F00185534FC7E6DBE9D645002200230E
:1019F00020462946FFF72AF8002840F0CE80002232
:101A0000204629460023FFF73FF80022002800F077
:101A1000E484484BCBE9D623A4E6DBE9E045002289
:101A2000002320462946FFF711F8002840F0BF8028
:101A30000022204629460023FFF726F8002200282E
:101A400000F0CE843B4BCBE9E0237FE6DBE9DE45CB
:101A50000022002320462946FEF7F8FF002840F028
:101A6000A1800022204629460023FFF70DF800221E
:101A7000002800F0A9842F4BCBE9DE235AE6DBE9EE
:101A8000DC450022002320462946FEF7DFFF002820
:101A900040F097800022204629460023FEF7F4FFFD
:101AA0000022002800F09384224BCBE9DC2335E6AA
:101AB000DBE9DA450022002320462946FEF7C6FF6F
:101AC000002879D10022204629460023FEF7DCFFBA
:101AD0000022002800F07E84164BCBE9DA2311E6C1
:101AE00034463D4684E59AF8A226012A00F0648433
:101AF000B3F5FA6FC0F06484204601240E4B8AF8D7
:101B0000A24600222946FEF759FE0A4BCBE9CE0138
:101B1000002263E5AFF30080000000000000000039
:101B20007B14AE47E17A843F00000020E8010020EA
:101B3000000D00200000F03F000034409AF8A42679
:101B4000012A00F0DF85022A40D0069B002B43D0FB
:101B50005D4B0222C3E9004500239BEDD00B8AF8C0
:101B6000A426AAF88A36C9E6012300270E933E462A
:101B7000029367E600231F4607931A460123019349
:101B800080E607920192164617467BE606930123EC
:101B90000C9380E64D4F0026EEE54C4B0022CBE93E
:101BA000D623DFE5494B0022CBE9DE23C2E5474BD4
:101BB0000022CBE9E023C9E5444B0022CBE9DA233C
:101BC000A0E5424B0022CBE9DC23A7E5092B03D992
:101BD000069B002B40F01B869BEDD00B8EE63C4B0A
:101BE00093F83F318BF89833394B9BEDD40B93ED41
:101BF0003C1BFFF76FFBDBE9D40153EC102B8BEDA3
:101C0000D80BFEF7F9FA2EA3D3E90023FEF7ACFCBC
:101C100041EC100B02F010FD8BEDDA0BFFF748FBE7
:101C2000002800F04E830024002520462946FEF7B8
:101C30004BFF092810D8DFE810F0D90333042C0437
:101C400025041E0461045A0453044C040A00204B6A
:101C500093F835318BF89933DBE9D845002200231E
:101C600020462946FEF7F2FE45EC104B002840F0D6
:101C7000FC8202F0E1FCB0EE407AF0EE607AB0EE69
:101C8000470AF0EE670A8BEDDA7BFFF711FB0028BD
:101C900000F0F58200240025CBE9DA4520462946EC
:101CA000FEF712FF09281AD8DFE810F00D04070428
:101CB000010452044B0444043D0436042F04140070
:101CC0009A9999999999B93F000D00200000F0BFA9
:101CD00000000020B34B93F82B318BF89A339AF81D
:101CE000A936002B40F06482AF4900220023084649
:101CF000E0E80423C1E90623C0E90023C1E9082381
:101D0000C1E90A2340F20314AAF8A8469AF89836C3
:101D1000002B00F0F981A34B93ED187B8DED047B34
:101D2000A24B08939AF8B136002B40F001820020B4
:101D30000021CBE9D8014FF48173AAF8B0369AF8A4
:101D40009D36002B00F00982964BD3E91623CBE990
:101D5000E223974B06939AF8B336002B40F011829A
:101D60004FF48173AAF8B236029B002B00F0188260
:101D7000002E00F0EC8200230D930F930B9B894FF4
:101D8000D3E9002340464946FEF736FA04460D469D
:101D90004B46D7E90C01CBE9CC454246FEF756FE4F
:101DA000844C002815BF4023002300214FF48001FC
:101DB000A36142464B46A161D7E90E01FEF746FEFC
:101DC000002815BF2023002300214FF40011A36138
:101DD00042464B46A161D7E91001FEF737FE0028C5
:101DE00015BF1023002300214FF48011A361424648
:101DF0004B46A161D7E91201FEF728FE002815BF66
:101E00000823002300214FF400214246A3614B46E2
:101E1000A161D7E91401FEF719FEDAF880660028FF
:101E200015BF0422002200234FF48023A261304614
:101E3000A361FEF72FFBD7E9442304460D46FEF7C6
:101E400005FE002800F05B81002EC0F2588197ED5E
:101E5000407B8DED027B5349574B0022D1E9420173
:101E60008BEDD87BFEF7C8F902460B462046294683
:101E7000FEF700FE002840F0E98101369AF8AF46EF
:101E8000CAF880660E2C03D80134E4B28AF8AF4653
:101E90009AF8AE36002B40F0A28148480023002279
:101EA000CBE9D223C0E90023012103238AF8AE162F
:101EB0008AF8AD364FF0807100209BF89A339BF87A
:101EC00099539BF898433B4A1B0403EB05239AF86C
:101ED000AC5690611E2D1C44916103D80135EDB2C2
:101EE0008AF8AC569AF8AB36002B40F0B181314AF3
:101EF000CAF884464FF48171CBF89033AAF8AA1639
:101F0000CBF820234FF000742A4ADAF80C009361D2
:101F1000042194610DF14602ABF82413FFF720F879
:101F20002749BDF84650CBF89453A1F108009822F8
:101F300002F0C2FD23494C22081FA1F50D7402F0E6
:101F4000BBFDDBE9CA23A4F55071CAE92C23A1F13A
:101F500008004FF44672CAF87C5602F0ADFD2346E5
:101F60002246F2E90401F3E906672546C2E9006763
:101F7000F5E90867C4E902012046C3E90067F0E912
:101F80000C67C5E900890A9D2146C5E90067F1E9AA
:101F90000E672246C0E90067F2E9106794ED127BF4
:101FA00012E000BF00000020080D0020F00C00200F
:101FB000F80C0020001002400000F03F380D002017
:101FC00030070020440D0020C1E90067D4E9006714
:101FD000DAE9FE0182ED007BCAE9FE679BEDCC7B6E
:101FE000DAE9FA67CAE9FC012146E1E8168904F159
:101FF00050004FF4C472CAE9F867C4E912898AED47
:10200000F47BCAE9F689CAE9FA8902F055FD9DED2B
:10201000047B9AF88F169AF892269AF894368AF8E2
:102020008E16C4E97689089C01999AF897E69AF881
:1020300099C69AF89E769AF89F569AF89A669AF8F0
:102040009B068AF88F1684ED007B9AF8A0160C9CEC
:102050008AF891268AF89336079A0E9B8AF896E6B4
:102060008AF898C68AF892268AF894369AF89C26B6
:102070009AF8A1368AF897468AF89E568AF89D768D
:102080008AF899668AF89A068AF89F16C6498AF8E5
:102090009B268AF8A0360F9A0D9BD1F808018AF882
:1020A0009C268AF8A136DBE9E223069DD1F820417F
:1020B0000130C5E90023C1F808010D46FEF7DAF941
:1020C00002460B46D5E94401FEF74EFAC4E9000189
:1020D00095F81E31D5F818210133DBB2632B02F1DC
:1020E0000102C5F8182189BFAF4A85F81E310023C7
:1020F00082F81E3113B0BDEC028BBDE8F08F9FED6E
:10210000A67B8DED027BA6E6A84B0893D3E900459C
:1021100042464B4620462946FEF7ACFC002800F01C
:102120002E839AF8B136CDE90489002B3FF4FFAD38
:102130009AF8B036012B069B00F0CE82002B3FF4BC
:10214000FEAD01239DED047B8AF8B0369AF89D36EA
:102150008BEDD87B002B7FF4F7AD954B0693D3E93D
:10216000004542464B4620462946FEF779FC0028AA
:1021700000F0F7829AF8B336CBE9E289002B3FF4FE
:10218000EFAD9AF8B236012B3FF4EEAD002F3FF4DD
:10219000EBAD01238AF8B236029B002B7FF4E8AD49
:1021A000019B002B40F0D0800D9300230F93E5E5B9
:1021B0009AF8A836013B072B09D8DFE813F0340260
:1021C0000800260208006402080008000800069BB8
:1021D000002B7FF49BAD05238AF8A83696E59AF884
:1021E000AD36022B00F0F182032B11D0012B00F051
:1021F000D482092C1BD96F490020CBE9D2010123DD
:1022000000218AF8AD368AF8AF164FF4807054E694
:10221000DDE90201674B0022FEF70EFC002800F00A
:10222000E982042200238AF8AD268AF8AF36DBE97A
:10223000D20100220023FEF7FFFB00280BBF002184
:102240004FF080714FF48070002036E6002615E6CE
:102250009AF8AA36013B042B00F27683DFE813F0EC
:1022600094017F01C501B601A60102F065F9B0EE47
:10227000407AF0EE607A02E50020FFF77FB99BED2F
:10228000DA0BFEF7F7FF00287FF404AD9FED441B47
:102290009BEDDA0B02F054FA55EC104B8BEDDA0B98
:1022A00010EE100A002200232946FEF7CFFB00287B
:1022B0003FF4F4AC204605F10041FEF705FC404236
:1022C000F0E49BEDDA0BFEF7D5FF00287FF4ABAC12
:1022D0009FED331B9BEDDA0B02F032FA55EC104BFD
:1022E00010EE100A002200232946FEF7AFFB00285B
:1022F0003FF49BAC204605F10041FEF7E5FB404270
:1023000097E49BEDDA0BFEF7B5FF00287FF413ABE3
:102310009FED231B9BEDDA0B02F012FA55EC104BEC
:102320008BEDDA0B10EE100A002200232946FEF78F
:102330008DFB00283FF403AB204605F10041FEF77A
:10234000C3FB4042FFF7FFBA002E40F0FA82029B27
:1023500083F001030D9301230F930FE5092B7FF603
:10236000B3AA002A3FF4B0AA012200238AF8A626C5
:10237000AAF88C36FFF7A8BA092B7FF6A5AA002A7F
:1023800040F05D82B3F57A7FFFF49EAA03238AF8BA
:10239000A636FFF799BA00BF000000000000000059
:1023A000000000000000F041E8010020F00C0020D7
:1023B000F80C00200000F03FCC4B0022FFF70EB9D4
:1023C00000220023FFF70AB90023FFF755BB0023C3
:1023D000FFF76BBB0023FFF780BB0023FFF71ABB9F
:1023E0000023FFF730BB0027FFF7C6B9C04B93F8B7
:1023F0003E318BF899332FE4BD4B93F840318BF885
:102400009833FFF7F1BBBA4B93F841318BF898330F
:10241000FFF7EABBB64B93F842318BF89833FFF7DE
:10242000E3BBB34B93F843318BF89833FFF7DCBB36
:10243000AF4B93F844318BF89833FFF7D5BBAC4BD7
:1024400093F845318BF89833FFF7CEBBA84B93F840
:1024500046318BF89833FFF7C7BBA54B93F847314C
:102460008BF89833FFF7C0BBA14B93F848318BF83A
:102470009833FFF7B9BB9E4B93F83A318BF89933F9
:10248000FFF7EABB9A4B93F83B318BF89933FFF790
:10249000E3BB974B93F83C318BF89933FFF7DCBBE8
:1024A000934B93F83D318BF89933FFF7D5BB904BA5
:1024B00093F832318BF89A3311E48D4B93F8333122
:1024C0008BF89A330BE48A4B93F834318BF89A33B8
:1024D00005E4874B93F836318BF89933FFF7BCBB93
:1024E000834B93F837318BF89933FFF7B5BB804BAB
:1024F00093F838318BF89933FFF7AEBB7C4B93F8E8
:1025000039318BF89933FFF7A7BB794B93F82C310E
:102510008BF89A33FFF7E3BB754B93F82D318BF8AB
:102520009A33FFF7DCBB724B93F82E318BF89A335A
:10253000FFF7D5BB6E4B93F82F318BF89A33FFF72B
:10254000CEBB6B4B93F830318BF89A33FFF7C7BB98
:10255000674B93F831318BF89A33FFF7C0BBDDE955
:102560000201624B0022FEF767FA002840F060810A
:10257000DBF890335F4ACBF82023002B00F0438137
:1025800000244FF40073BFE4DAF88436002B00F027
:102590004781092DECD903F0010303210022CBF878
:1025A00090338AF8AA168AF8AC26E3E7092DDFD91A
:1025B000504ACAF88446022100238AF8AA16CBF8AA
:1025C0009033CBF820234FF000749DE4132DCFD926
:1025D000DAF88436032103F001030022CBF89033AC
:1025E0008AF8AA168AF8AC26C4E7092DC0D9DAF809
:1025F0008426DBF890335208CAF8842601228AF830
:10260000AA2600228AF8AC26B4E7069B002B3FF4EA
:102610007DABDBE9D601384A0923C2E900018AF81B
:10262000A836FFF773BB354C0022D4E90001002324
:10263000FEF702FA002840F025812546F5E902015F
:1026400000220023FEF7F8F9002840F071812546AA
:10265000F5E9040100220023FEF7EEF9002840F01E
:102660005581F4E9060100220023FEF7E5F9002870
:1026700000F04C81DBE9D6010223C4E900018AF8AD
:10268000A836FFF743BB069B002B40F0DD801A4CB9
:10269000DBE9D601D4E90023FDF7AEFD184B00229B
:1026A000FEF7F2F900283FF431ABA4F108030493DC
:1026B0001249002200230846E0E80223C0E9002373
:1026C00004980324C0E90023C1E90423C1E90623D7
:1026D0008AF8A846FFF71ABB002B3FF430AB9DEDFC
:1026E000047B8BEDD87BFFF72ABB00BF0000F03FD7
:1026F0000000002000100240100D0020180D0020E6
:1027000000001040092B7FF667AA069ACAB19A4BBF
:10271000D3E900234FF0000CAAF88AC620462946C8
:10272000FDF76AFD0B46024694490020FEF746F885
:10273000914BCBE9D001C3E9004541EC100BFFF709
:10274000DDB8B3F57A7FFFF447AA9FED890B8A4A7B
:1027500003238BEDD00B82ED000B8AF8A436FFF734
:10276000CDB845EC104BFEF7A3FD00287FF402AD79
:10277000069BD3E90023CBE9E223FFF7ECBA45EC53
:10278000104BFEF795FD00287FF4CBAC089B93ED32
:10279000007B8DED047BFFF7C5BA092C7FF647ADB2
:1027A000774C0020002102230025CBE9D2018AF8D2
:1027B000AD36D4E90001734B8AF8AF560022FDF71D
:1027C0001DFDC4E90001FFF775BB6D4D6E4BD5E9EA
:1027D00000010022FEF730F900283FF40AAD002284
:1027E00000230321C5E90023CBE9D2238AF8AD16E3
:1027F000FFF760BB624900220023CBE9D223C1E985
:102800000023FFF757BB4FF00074FFF77DBB5A4B17
:102810000121D3E900234FF0000C8AF8A4167BE7CE
:1028200005228AF8AC368AF8AA26DBF89033A1E6AE
:10283000062200238AF8AA268AF8AC3698E60023F6
:10284000AAF88C36FFF740B8504B049393ED008BF9
:102850001D4651EC180B4E4B0022FEF701F9D0B18A
:102860000124484B8AF8A846002251EC180BFDF7CA
:10287000C5FC2C46E4E80201DBE9D623C4E90023C9
:10288000FFF744BADBE9D6010423C4E900018AF862
:10289000A836FFF73BBA049B9BEDD67B1C46F4E9B8
:1028A000022351EC170B8DED087B0D94FDF7A4FC72
:1028B000384B0022FEF7E8F800287FF4F9AE51EC1F
:1028C000180B334B0022FEF7DFF800283FF41EAA56
:1028D000DDF810C09DED087B6346204680ED007B4F
:1028E000F3E906459CED087B624683ED007BCCE96D
:1028F00004459DED087BF2E90A450623CCE908452D
:1029000082ED007B8AF8A836FFF700BAD5E900010E
:1029100000220023FEF790F800283FF4F7A9DBE936
:10292000D6010723C5E900018AF8A836FFF7EEB9FA
:10293000DBE9D6010823C5E900018AF8A836FFF7CC
:10294000E5B9019B0D9330E4042D7FF611AE002311
:1029500004228AF8AC3603F180438AF8AA2603F5EC
:1029600004330122CBF89023CBF8203308E600BFD4
:102970000000000000000000000D002000004E409C
:10298000380D00200000F03F00004240080D0020FC
:1029900000000840000010402DE9F043082089B0F5
:1029A000FEF73CFC71A7D7E90067674A674D684BA3
:1029B000684CA86F546102F21F1102F5907CC2E9C5
:1029C0004467C2E90221D5E91A6702F58871C2F8A5
:1029D00084C091624FF0010C02F59471C2F820118D
:1029E000C2F8D02082F81FC1A3F1180403F21462C8
:1029F00003F1A001E3E802678B4242F8040FF9D12A
:102A0000D5E91C01544B04F57672E3E802019342C8
:102A1000FBD1524BD5E932011A46E2E80201C4E982
:102A2000FC01C4E9FE01D5E93601D5E92A89C3E9EB
:102A30000A01C3E90C01C3E90E01C3E91001C3E9AE
:102A40001201D5E92E01D5E93467C4E9F801C4E9DA
:102A5000FA01C4E9F689D5E93801C2E90067C3E99A
:102A60000467C3E90667C3E9086704F5BC6250332D
:102A7000E3E802019A42FBD195F82131384E84F8FF
:102A80009036D5E9182395F8241195F8277184F824
:102A90009516304695F8231184F89316E0E82E2316
:102AA00095F8203195F8222184F88E3684F88F36F7
:102AB00084F8912695F8253184F8922684F89416A6
:102AC000052295F8261184F8963684F8973602F098
:102AD0000DF8394606F1BD00052202F007F8D5E9E8
:102AE00016232049B5F82801A1F89803002095F88D
:102AF0002A7100900125C6E902230423A6F5BA66CF
:102B0000DFF870C005962A4681F89A73207019463E
:102B100020728DF80C00144F65604FF0011602A86A
:102B2000CDF81CC006970296FEF79AF9E060FEF712
:102B30000DFAE0682946FEF791F9257209B0BDE863
:102B4000F08300BFAFF30080E80100200000002008
:102B500028070020204B0008C8070020100B002089
:102B6000F00C00207003002000220140FCA9F1D2EB
:102B70004D62503F00640240074B1A7822B95A68F0
:102B800001218A42197000D07047197A0029FBD0C0
:102B9000D8680421FEF75CBA10070020704700BF18
:102BA00008B5BFF34F8FBFF36F8F094A0949136808
:102BB00009688B4206D30123136072B6FEF79AFAB6
:102BC00062B608BD591C1160002BF6D008BD00BFCD
:102BD000CC0D0020C80D0020024A536843F08053FA
:102BE0005360704700ED00E0254BD3ED007AF8EE1E
:102BF000677A10B427EE800AFCEEC07A17EE903A9E
:102C0000B3F1807F2AD3F8EE676A9FED1E7A1E49E2
:102C1000C6EE877AFCEEE77A17EE902A0132B3FB14
:102C2000F2F3013BB3F1807F0A6009D2174A1848DA
:102C30005360F0240021072380F823409160136043
:102C4000144A134B144815491060F0220020086004
:102C5000DA7783F822205DF8044B70470A49013B7C
:102C60000022B3F1807F0A60EAD2084908484B602D
:102C7000F024072380F823408A600B60E0E700BF60
:102C800054010020FFFF7F4BC80D002010E000E042
:102C900000ED00E0D00D0020A12B0008CC0D00209D
:102CA000EFF3008001B5EFF3118003B41EF0100FB5
:102CB00008BFB0EE400A0A48006803B488B004A018
:102CC00006904FF0807007906FF0060086467047C0
:102CD00003BC8047BFF36F8F00DFFEE700BF00003B
:102CE000D00D00201EF0100F08BFB0EE400A1EF0FD
:102CF000040F0CBFEFF30880EFF30980816911F82E
:102D0000020C10B101280DD00BE01EF0100F0CBF0B
:102D10001AB008B003BC80F3118803BC80F30088AC
:102D20000847FEE74EF61451CEF200010A6842F061
:102D300001020A607047F4E700BF00BF2D4B1A681C
:102D400022F00F0242F0050210B51A601A6802F074
:102D50000F02052AFAD1284A284B116841F4404154
:102D60001160116821F4803111601A6842F48032D8
:102D70001A601A689203FCD55C68214821491F4AF1
:102D8000204001435960596821F440315960196865
:102D900041F08071196013689B01FCD59368174C52
:102DA00023F0F0039360936823F4E05343F4A053BB
:102DB0009360936823F4604343F400439360936803
:102DC00023F0030343F002039360A36803F00C03B2
:102DD000082BFAD10C4800F037FF002000F080FDEE
:102DE00008B172B6FEE7D4F88C3023F08073C4F8D3
:102DF0008C3010BD003C02400070004000380240A2
:102E00000080BFFF042A4000007A030AF0B50023C7
:102E100097B0CDE91333CDE90233CDE90B33CDE9DA
:102E20000D33CDE907334D4A04930A930693129369
:102E300009931593516C4A484A4C41F4806151649E
:102E4000516C01F4806101910199116B41F02001F5
:102E50001163126B149302F02002009203232022CC
:102E600010A9CDE91023009D00F07AFD3E4B1A68B1
:102E700022F0606242F080621A601A6822F0C0029A
:102E80001A601A6822F440321A601A6822F49072AA
:102E900042F480721A601A6822F400721A601A688A
:102EA00042F480621A601A6822F4C05242F400624E
:102EB0001A601A6822F4C04242F400521A605A6939
:102EC00022F004025A610026002702A94FF48075FF
:102ED0002046CDE90267049500F02AFE0AA92046A3
:102EE000CDE90A67CDE90C670E9500F03BFEA368BB
:102EF0001E4843F48063A36006A94FF44033069351
:102F000000F0E6FD4FF44073194A93FAA3F33BB186
:102F1000B3FA83F34FF4007121FA03F302EB830257
:102F20001368104923F01F0343F00F031360CA68AE
:102F30004FF0F87393FAA3F363B1B3FA83F34FF44A
:102F40007001D94007238B40DB4306491340CB6017
:102F500017B0F0BD6FF00703F7E700BF003802407D
:102F6000001402400022014010640240002301408E
:102F70002C2201402DE9F043354D364C93B00AA880
:102F80002022002101F0B2FD2B6B334843F00403F3
:102F90002B632B6B03F004030393039B2B6B43F016
:102FA00001032B632B6B03F001030293029E04A920
:102FB0004FF4007202234FF000084FF00109012680
:102FC0000427CDE90423CDE90689CDE9086700F09F
:102FD000C7FC04A94FF4807202232048CDE906897A
:102FE000CDE90867CDE9042300F0BAFC2B6CDFF8CB
:102FF000709043F400032B642B6C03F400030193E3
:10300000019BE36823F00103E360236823F040039E
:103010002360236823F080032360002200230AA991
:1030200020464FF000084FF480664FF48047CDE90A
:103030000C23CDE90E23CDE90A89CDE9106700F014
:1030400019FFE36823F0FE03E36013B0BDE8F083EB
:1030500000380240005C00400008024000000240CE
:10306000A0860100D0B592B008A82822002101F066
:103070003DFD214B21485A6C214C42F480125A6488
:103080005A6C02F480120192019A1A6B42F02002EB
:103090001A631B6B03F0200300934FF4607202234A
:1030A000CDE902230099002600270022052302A96A
:1030B000CDE90623CDE9046700F052FC00224FF46D
:1030C0008273CDE9082300224FF40073CDE90C236D
:1030D00018220023CDE90E2308A900220A23204646
:1030E000CDE91023CDE90A6700F04AFF636823F0B9
:1030F0001003636012B0D0BD0038024000140240DB
:103100000050014030B587B00023164AADF80630B4
:10311000516C154C41F001015164526CADF8043012
:1031200002F00102009220464FF6FF7201A9CDE99C
:1031300004330293009D039201F0DAF8236823F030
:1031400080032360A36823F4804323F00703A36074
:10315000636823F070036360A36823F08003A360B7
:1031600007B030BD003802400000014030B50024F7
:1031700091B0CDE90844CDE90A44CDE90C44364B81
:103180000E945A6C3548364D42F010025A645A6C0F
:1031900002F010020192019A1A6B42F001021A63C6
:1031A0001B6B03F0010300934FF4C0620223CDE9CF
:1031B000022303220023CDE90423009900220723E0
:1031C00002A9CDE9062300F0CBFB264B1A6822F0BA
:1031D000606242F000621A601A6822F0C0021A604F
:1031E0001A6822F440321A601A6822F490721A6047
:1031F0001A6822F400721A601A6842F480621A6037
:103200001A6822F4C0521A601A6822F4C0421A6086
:103210005A6922F004025A614FF4E1320023CDE9E9
:10322000082300220023CDE90A2308A90C22002349
:103230002846CDE90C230E9401F0B6F82B6923F44F
:1032400090432B616B6923F02A036B61EB6843F4B5
:103250000053EB6011B030BD003802400000024066
:1032600000100140406402400D4A0E48116B0E4BA5
:1032700041F480011163126B82B002F4800201926A
:1032800000220199C16883F838234FF0807159609A
:10329000C16883F83A234FF080625A6002B07047E9
:1032A0000038024000ED00E000E100E02DE9F04FC1
:1032B0002DED048B4FF0000993B0CDE90A99D94B5D
:1032C000CDF844901A6B9FEDD89A9FEDD88AD84ECE
:1032D000DFEDD89ADFEDD88A42F010021A631A6B3C
:1032E00002F010020992099A1A6B42F004021A6362
:1032F0001A6B02F004020892089A1A6B42F020023C
:103300001A631A6B02F020020792079A1A6B42F0B6
:1033100080021A631A6B02F080020692069A1A6BF8
:1033200042F001021A631A6B02F001020592059A3B
:103330001A6B42F002021A631A6B02F00202049244
:10334000049A1A6B42F040021A631A6B02F04002B0
:103350000392039A1A6B42F008021A631B6B03F084
:1033600008030293029819EE100A4FF05F714FF4B0
:10337000B012816118EE104AB26119EE902A4FF036
:103380005C5E4FF400039361C4F818E018EE904AB5
:103390004FF0C04CC4F818C04FF45F7201230027EF
:1033A0004FF000080CA9CDE90C23CDE90E78CDF83B
:1033B000409000F0D5FA4FF61F020223CDE90C230E
:1033C000032400220C2300250CA99C4892469B460E
:1033D000CDE90E45CDE9102300F0C2FA4FF480622A
:1033E0000223CDE90C230CA900220E239348CDE93A
:1033F0000E78CDE910231746984600F0B1FACDE9D2
:103400000E450122022354465D460CA93046CDE903
:103410001045CDE90C23002400F0A2FA0025162265
:1034200001230CA93046CDE90E45CDE90C23CDF89A
:10343000409000F095FACDE90E4541F6580202237E
:103440003C4645460CA919EE900ACDE91045CDE958
:103450000C23002400F084FA0025802201230CA90B
:1034600019EE900ACDE90E45CDE90C23CDF8409038
:1034700000F076FA03220223CDE90E45CDE90C23B4
:103480000CA9002309246E48CDE91034002500F072
:1034900067FA0324042200230CA96948CDF8409060
:1034A000CDE90C2300F05CFACDE90E4548F2331269
:1034B000022354465D460CA918EE900A5746D8469A
:1034C000CDE91045CDE90C23032400F049FA00258D
:1034D0004FF6834202230CA919EE100A4FF0000A9E
:1034E0004FF00E0BCDE90E45CDE90C23002400254D
:1034F000CDE9107800F034FA4FF4706202230CA981
:103500004F48CDE90E45CDE910ABCDE90C2300F0D5
:1035100027FA4FF4504202230CA94948CDE90E4541
:10352000CDE90C23CDE9107800F01AFA4FF40052DF
:1035300000230CA94248CDF84090CDE90C2300F0BF
:103540000FFA4FF45C5201230CA918EE100ACDE9D2
:103550000E45CDE90C23CDF8409000F001FA4FF470
:10356000006200230CA918EE100ACDE90C230324F5
:103570000025CDF8409000F0F3F94CF2030202234D
:103580000CA918EE100ACDE90045CDE90E45CDE9AC
:103590000C2300240025CDE9107800F0E1F94FF468
:1035A0000C6202230CA918EE900ACDE910ABCDE90C
:1035B0000C23CDE90E4500F0D3F94FF498620223B5
:1035C0000CA93046CDE910ABCDE90C23CDE90E4571
:1035D00000F0C6F9CDE910AB482202230CA94FF048
:1035E000000A4FF0090B18EE100ACDE90C23CDE9C3
:1035F0000E4500F0B5F9CDE910AB4FF4A05202230F
:10360000A246AB460CA918EE900ACDE90C23CDE9F1
:103610000EAB00F0A5F94FF4C04201230CA918EE3F
:10362000900A0FE00038024000100240000C0240F7
:10363000000802400000024000180240001402404E
:1036400000040240CDE90C23CDE90EABCDF840904B
:1036500000F086F9DDE90045602202237D480CA9CF
:10366000CDE90C23CDE90E45CDE9107800F078F9CD
:10367000794B9A6822F00F029A609A6822F0F00261
:103680009A609A6822F470629A60DA68F02322F0F5
:10369000F00293FAA3F32BB1B3FA83F3022101FAF8
:1036A00003F31A436C4BDA605A6922F470425A6190
:1036B000012440F201150AA80A948DF82E40ADF8B5
:1036C0002C5000F0C7FA02230AA88DF82E400A9366
:1036D000ADF82C5000F0BEFA04230AA88DF82E4055
:1036E0000A93ADF82C5000F0B5FA20230AA88DF803
:1036F0002E400A93ADF82C5000F0ACFA4FF4004382
:103700000AA88DF82E400A93ADF82C5000F0A2FACA
:1037100094FAA4F4514BDB683CB1B4FA84F464002D
:10372000032202FA04F423EA04034C4AD360D26869
:10373000022393FAA3F33BB1B3FA83F35B000321B3
:1037400001FA03F322EA0302444BDA60DA68042345
:1037500093FAA3F33BB1B3FA83F35B00032101FABD
:1037600003F322EA03023D493D4BCA60DA68202395
:1037700093FAA3F33BB1B3FA83F35B00032101FA9D
:1037800003F322EA03023649344BCA60DA684FF485
:10379000004393FAA3F33BB1B3FA83F35B00032135
:1037A00001FA03F322EA03022C4BDA601A680123C0
:1037B00093FAA3F33BB1B3FA83F35B00032101FA5D
:1037C00003F322EA0302254B1A601A68022393FAD4
:1037D000A3F33BB1B3FA83F35B00032101FA03F3D4
:1037E00022EA03021D4B1A601A68042393FAA3F31A
:1037F0003BB1B3FA83F35B00032101FA03F322EA3E
:1038000003021649164B0A601A68202393FAA3F3A1
:103810003BB1B3FA83F35B00032101FA03F322EA1D
:1038200003020F490D4B0A601A684FF4004393FAE4
:10383000A3F33BB1B3FA83F35B00032101FA03F373
:1038400022EA0302054B1A6013B0BDEC048BBDE8FD
:10385000F08F00BF00040240003801400000024029
:1038600000080240034B02689A4200D0704700F003
:10387000F5BA00BF000C0040FEE700BFFEE700BF46
:10388000FEE700BFFEE700BFFEE700BF704700BFD6
:10389000014800F07FBC00BFD40D0020704700BF7E
:1038A00082B00E4B00220092596C41F48041596461
:1038B000596C01F48041009100990192196C41F01A
:1038C000805119641B6C03F080530193019B0F21FD
:1038D0006FF0010002B000F061BA00BF0038024092
:1038E00030B5014689B00022322000F057FA32206C
:1038F00000F08CFA0025164B02951A6C154C42F01C
:1039000008021A641B6C03F0080301A9029303A8C0
:10391000029B00F00DFA00F0FBF90F4A0F492561F8
:103920004300A2FB03239B0C013B40F2E7322046FD
:10393000C4E901352160E26000F05AFB10B10120BA
:1039400009B030BD204600F0E1FB09B030BD00BF3A
:1039500000380240D40D002083DE1B43000C0040E1
:103960002DE9F0470D6895FAA5F2B2FA82F235FA20
:1039700002F300F0848001264FF0030C4FF00F0E8D
:1039800038E0D1F81080D0F80C9093FAA3F737B153
:10399000B7FA87F77F000CFA07F729EA070993FAC5
:1039A000A3F7002F6ED0B7FA87F77F0008FA07F762
:1039B00047EA0907022CC76048D093FAA3F80768C2
:1039C000B8F1000F07D0B8FA88F84FEA48080CFAA7
:1039D00008F827EA080793FAA3F3002B54D0B3FAA8
:1039E00083F35B0004FA03F33B430360013235FACF
:1039F00002F344D006FA02F32B40F7D04C68671E5E
:103A0000012FBED893FAA3F7D1F80880D0F8089018
:103A100037B1B7FA87F77F000CFA07F729EA0709E9
:103A200093FAA3F7002F4FD0B7FA87F77F0008FA71
:103A300007F747EA09078760476827EA0308CF685E
:103A400007FB03F748EA070747609AE793FAA3F7EB
:103A5000E7B1B7FA87F8B8F1070F17DCD0F820A064
:103A60004F694FEA88090EFA09F94FEA88082AEAED
:103A7000090A07FA08F747EA0A0707629DE70020E4
:103A8000BDE8F087402791E74023ABE71F0AD1F854
:103A90001480D0F8249097FAA7FABAF1000F07D053
:103AA000BAFA8AFA4FEA8A0A0EFA0AFA29EA0A09DF
:103AB00097FAA7F757B1B7FA87F7BF0008FA07F7E1
:103AC00047EA0907476278E74027B0E78027F5E72C
:103AD00070B4134B134C144AA4689B689268234338
:103AE000134313F0010310D14A68054640687AB1C8
:103AF0000E4C0E680440D1E90201224332430243D6
:103B00000A4318466A6070BC7047012070BC704759
:103B1000064B096803400B4310466B6070BC70474E
:103B2000002101400020014000220140E010FCFF84
:103B3000836813F0010313D170B40246446891E81E
:103B4000610024F0407424F48074304320435060BA
:103B5000916821F400612943184670BC9160704758
:103B6000012070478368DB071AD470B44C6843683F
:103B7000C4B923F46843436082680D4BCE680D6975
:103B800013400A6833432B4302F07062134383608F
:103B9000C36A23F470032343C36270BC00207047E0
:103BA000012070478A6823F4684313434360E3E7C6
:103BB000FDFCFFC01F4A936803F00C03042BF0B414
:103BC00036D0082B32D157685568536851681A4C63
:103BD0001A4EC1F30141C3F3881217F4800F01F1AB
:103BE00001010CBF2346334605F03F044900B3FBF7
:103BF000F4F302FB03F3B3FBF1F30E4A03609168A5
:103C00000F4D104CC1F30311695CCB4043609168C8
:103C1000C1F38221615C23FA01F181609268C2F3F1
:103C20004232A25CD340F0BCC3607047024BE4E771
:103C3000024BE2E7003802400024F40000127A0050
:103C4000384B0008484B0008014B1860704700BF14
:103C50005401002010B403460079A0B1186878B16F
:103C60005A79012A34D0022A1AD042B301229B7910
:103C70000BB3022B31D0032B43D0012B37D00120C3
:103C80005DF8044B7047214A1C68116821EA040161
:103C90001160536823EA040353605DF8044B7047D6
:103CA0001A4A1168014311605168014351609B79C0
:103CB0000022002BDDD110465DF8044B70471349FC
:103CC0004C6824EA00044C600C6804430C60CEE7A6
:103CD0000E4A116821EA0001E5E70C4B996821EAD8
:103CE00000019960D9680843D8601046E4E7074BA3
:103CF000D96821EA0001D9609968084398601046A4
:103D0000BEE7024B99680143EBE700BF003C01406E
:103D1000044B054A9B680549C3F382230868D35CBA
:103D2000D840704700380240484B0008540100203A
:103D30000E4B0F2202609A6802F0030242609A68FA
:103D400002F0F00282609A6802F4E052C2609B685E
:103D5000DB0810B403F4E053054C036123685DF8FD
:103D6000044B03F00F030B60704700BF00380240A4
:103D7000003C02400849CA6810B400024FF6FF0434
:103D8000224000F4E063134343F0BF6343F4003385
:103D90005DF8044BCB60704700ED00E0194BDB6829
:103DA000C3F3022330B4C3F10705042D03F1040467
:103DB00028BF0425062C19D9033B4FF0FF349C4043
:103DC00022EA04024FF0FF34AC4021EA040199409A
:103DD000002841EA02010CDB00F1604000F561407F
:103DE0000901C9B280F8001330BC704700221346A5
:103DF000E8E7054B00F00F0009010344C9B219764A
:103E000030BC704700ED00E0FCEC00E0002807DB70
:103E1000044A00F01F01012340098B4042F8203082
:103E2000704700BF00E100E008B50B4B1A6842F490
:103E300000721A601A6842F480621A601A6842F4CA
:103E400080721A600320FFF795FF0020FFF748FDFE
:103E5000FFF726FD002008BD003C0240034A044B4A
:103E600011681B780B441360704700BF1C0E0020C4
:103E700050010020F0B50368044685B023F001032B
:103E8000036068460D46FFF795FE676AE968029889
:103E9000384B27F01F0C2F69394341EA0C01D5E953
:103EA000016261626168DFF8D0C0A3FB007321F09A
:103EB0003F0141EA93416160276A66454FEA9343B7
:103EC00027F03F072ED8013340F6FC7172003B43C8
:103ED000B0FBF2F20A42236208BF0422E369696977
:103EE000EE6923F44F4323F0FF031343E361A0681B
:103EF0002B68AD6920F4034020F0FF0031430143FB
:103F0000A160226822F01A021A432260226842F05D
:103F100001022260236823F480632B430020236086
:103F200005B0F0BDDFF854C04FF4967101FB03F10A
:103F3000ACFB0131890901313943216252B906EBE9
:103F40004603B0FBF3F3C3F30B0181B948F201035D
:103F50001A43C3E706EB860606EB8606B0FBF6F6C9
:103F6000C6F30B03002BF1D046F40043F0E743F413
:103F70000043EDE783DE1B43A0860100D34D6210B2
:103F80000246006810F0400027D1F0B4D1E90037B4
:103F9000D1E902543B430E692B43D1E90575234314
:103FA00033433B432B43D1E907651468334324F47F
:103FB0007F442B4324F0BF0423431360536823F052
:103FC000040343EA1743B5F5005F53600BD0D36990
:103FD00023F40063F0BCD3617047D36923F400631A
:103FE0000120D36170478B8C1361F0E7704700BFED
:103FF000002800F0878038B590F83D30044603F083
:10400000FF02002B79D022683F49022384F83D301B
:104010008A4213685DD0B2F1804F31D0A1F57C4166
:104020008A422DD001F580618A4229D001F5806154
:104030008A4225D001F578418A424AD001F5705173
:104040008A4221D001F580618A421DD001F580614C
:104050008A4219D0A1F598318A4215D001F58061C4
:104060008A4211D001F580618A420DD0A569E068CD
:10407000616823F080032B431360D062916210E0EB
:10408000A16823F070030B432569A169E06823F45C
:1040900040732B4323F080030B4361681360D062AD
:1040A00091620123536184F8463084F83E3084F8ED
:1040B0003F3084F8403084F8413084F8423084F84E
:1040C000433084F8443084F8453084F83D30002093
:1040D00038BDA5682069A16923F070032B4323F440
:1040E0004073034323F080030B431360E368D36200
:1040F0006368936263691363D3E780F83C20FFF73A
:1041000075FF80E7012070470000014090F83D30C6
:10411000012B2FD103681949022280F83D20DA686B
:104120008B4242F00102DA6019D0B3F1804F16D011
:10413000134A934213D002F5806293420FD002F5E6
:10414000806293420BD002F57842934207D002F589
:104150007052934203D0A2F59432934204D19A68EC
:1041600002F00702062A07D01A6842F001021A601C
:104170000020704701207047002070470000014078
:1041800000040040704700BF704700BF704700BF89
:10419000704700BF03681A69910710B5044602D53D
:1041A000DA6892075FD41A69500702D5DA685107B6
:1041B00046D41A69120702D5DA6810072ED41A6994
:1041C000D20602D5DA68D00618D41A69D10702D50A
:1041D000DA68D2075DD41A69100602D5DA681106CA
:1041E0005FD41A69520602D5DA68500661D41A699A
:1041F000910602D5DA68920643D410BD6FF0100123
:10420000082219612277DB6913F4407F204664D0CD
:10421000FFF7BAFF002223682277D6E76FF0080184
:10422000042219612277DB699907204652D1FFF7F2
:10423000A9FF2046FFF7AAFF002223682277BEE7E6
:104240006FF004010222196122779B6913F4407F09
:1042500020463CD1FFF796FF2046FFF797FF00224C
:1042600023682277A5E76FF0020101221961027726
:104270009B699B0725D0FFF787FF002223682277E1
:1042800091E76FF0200220461A61BDE8104000F06F
:104290002BB86FF001021A612046FFF7E3FA23689A
:1042A00099E76FF080021A61204600F01FF823683A
:1042B00097E76FF040021A612046FFF769FF236815
:1042C00095E7FFF75FFF2046FFF760FFD5E7FFF7B1
:1042D0005BFFC4E7FFF758FFAEE7FFF753FF204649
:1042E000FFF754FF96E700BF704700BF704700BF5D
:1042F0002C4A0368904230B444D0B0F1804F33D0A0
:10430000A2F57C4290422FD002F5806290422BD0E1
:1043100002F58062904227D002F57842904231D077
:1043200002F57052904223D002F5806290421FD075
:1043300002F5806290421BD0A2F59832904217D0CD
:1043400002F58062904213D002F5806290420FD055
:104350008C680A880360C4628262436943F0010387
:10436000436130BC002070474A6823F07003134358
:10437000D1E9024523F440730A882B430360C462E9
:104380008262EAE74D68CC680A8823F070032B4309
:1043900023F44073234303608B68C36282620B691A
:1043A0000363DAE700000140C3689B0401D50120E4
:1043B000704730B54B6804460D46D1E90310E268FA
:1043C0000B43A969034322F416420B4322F00C026B
:1043D0001343E3602269AB68696922F440521A43CF
:1043E0002261636923F440730B4385B063616846BF
:1043F000FFF7E0FB314B9C4220D0314B9C4216D062
:10440000304B9C4213D003F54C439C4216D0A3F58D
:1044100048439C420BD003F580639C4207D003F5D0
:1044200020539C4203D003F580639C4203D1029940
:1044300009B12B6823B9012005B030BD0399F7E716
:10444000AA69B2F5004F18D019209A00A1FB00010B
:104450009B0FFCF759FB1C4DA5FB00235B09642156
:1044600001FB130212013232A5FB02121B0103EB06
:1044700052139BB2A3600020DEE7DA184FF0190058
:104480004FF000035B41A1FB0001FCF73DFB0E4D2B
:10449000A5FB00325109642202FB1103DB00323319
:1044A000A5FB0323C3F342121B0902EB011203F421
:1044B000F87313449BB2A3600020BDE700100140D5
:1044C00000440040004800401F85EB51034AD2F8E9
:1044D000883043F47003C2F88830704700ED00E084
:1044E000DFF834D00D480E490E4A002302E0D458BC
:1044F000C4500433C4188C42F9D30B4A0B4C00232C
:1045000001E013600432A242FBD3FFF7DFFF00F0AB
:10451000A1FAFCF707FE704700000320000000200E
:10452000C0010020704B0008C0010020200E0020B8
:10453000FEE700000000000051EC100BF8B5C1F3DD
:104540000A53A3F2FF35132D10EE106A0C4632DC2D
:10455000002D1EDB364F2F4101EA070303432FD006
:1045600031A3D3E90023FBF749FE00220023FCF727
:104570008BFA48B1002C04DD4FF4801343FA05F5A3
:104580002C4424EA070400262346324643EC102B31
:10459000F8BD25A3D3E90023FBF730FE002200235A
:1045A000FCF772FA0028EFD0002C39DB264333D019
:1045B000204C0026E8E7332D05DDB5F5806F23D0CC
:1045C00041EC100BF8BDA3F213434FF0FF37DF406F
:1045D0000742F5D014A3D3E90023FBF70FFE002216
:1045E0000023FCF751FA0028CED0002C09DD142D51
:1045F00014D00123C5F1340503FA05F5AE1928BF1F
:10460000E41826EA0706BFE710EE102A0B46FBF770
:10461000F5FD41EC100BF8BD3446B5E70134F0E789
:1046200000264FF00044AFE79C7500883CE4377EDD
:10463000FFFF0F000000F03F51EC100BF8B5C1F385
:104640000A53A3F2FF35132D10EE106A0C4620DC3E
:10465000002D3DDB384F2F4101EA070303431DD0F6
:1046600033A3D3E90023FBF7C9FD00220023FCF7A5
:104670000BFA48B1002C04DA4FF4801343FA05F525
:104680002C4424EA070400262346324643EC102B30
:10469000F8BD332D05DDB5F5806F29D041EC100B49
:1046A000F8BDA3F213434FF0FF37DF400742F5D0C8
:1046B0001FA3D3E90023FBF7A1FD00220023FCF791
:1046C000E3F90028E0D0002C23DB26EA0706DBE72D
:1046D00017A3D3E90023FBF791FD00220023FCF789
:1046E000D3F90028D0D0002C0ADB00263446CBE7D3
:1046F00010EE102A0B46FBF781FD41EC100BF8BDC4
:1047000024F000430D4A1E43002E18BF1446002615
:10471000BAE7142D08D00123C5F1340503FA05F5D5
:10472000AE1928BFE418D0E70134CEE7AFF300801C
:104730009C7500883CE4377EFFFF0F000000F0BF4F
:10474000F8B52DED028B57EC106B55EC114B00F0CA
:104750003BF81C4BB0EE408AF0EE608A93F90030D3
:10476000013314D022462B4620462946FCF796F901
:1047700068B932463B4630463946FCF78FF930B9C6
:104780002046294600220023FCF756F930B9B0EE46
:10479000480AF0EE680ABDEC028BF8BD00F054F94F
:1047A000002200232121016010461946FCF706F87B
:1047B00041EC180BB0EE480AF0EE680ABDEC028B33
:1047C000F8BD00BF5801002053EC112B2DE9F04734
:1047D00023F0004555EA020651EC100B34D0944EFC
:1047E00021F00049B14588462EDC5642DFF844C22C
:1047F000164345EAD676664511EE10EA24D8A94557
:1048000011EE107A10EE10AA10EE102A1C4601F0DC
:10481000004606DCC0F2BE807045C0F0BB8000F0F0
:10482000F080844B08EA0303C3B9B9F1000F40F0EC
:10483000D180BAF1000F8049534613DD5B00002B95
:1048400001F1FF31FADC0DE0FBF78EFE02460B466C
:10485000FBF7B4FF41EC100BBDE8F0874FEA29519C
:10486000A1F2FF31734B234073B9002D40F0A680B5
:10487000BEF1000FDFF8C0C1734609DD5B00002BFD
:104880000CF1FF3CFADC03E04FEA255CACF2FF3CA4
:104890006A4B994270DBC8F3130343F480136748F3
:1048A000844558DBC4F3130444F48014A2EB0E00D7
:1048B000B1EB0C010AD11BE050EA050343D0EB0F2A
:1048C000013903EB40034FEA450210D0181B974211
:1048D00088BF00F1FF300028A2EB07054FEAD27E27
:1048E000EADA01390EEB43034FEA4202EED1D01B64
:1048F0001C1B974288BF04F1FF34002CA4BF024662
:10490000234653EA020106D11DE0D10F01EB430318
:104910000CF1FF3C5200B3F5801FF6DB47498C4594
:1049200064DAA1EB0C01142972DC0CF21E40CA40BF
:1049300003FA00F043FA01F110430E4333460246F6
:1049400043EC102B88E73E4BF60F03EBC60696EDC3
:10495000000BBDE8F087A0EB0C001F2823DD394CCD
:10496000B1EB0C01A4EB0C040EFA04F418BF002701
:10497000ACD11C1B1046C0E75A1A1F2A0DDC01F2ED
:104980001E4309FA02F92AFA03F30AFA02F243EA89
:10499000090384E741EC100B5EE72A4B5B1A0AFA25
:1049A00003F300227BE70CF21E4485400EFA00F769
:1049B0002EFA04F040EA0504D01B79E7EB02002B45
:1049C000DFF878C07FF764AF5B00002B0CF1FF3C91
:1049D000FADC5DE74FEAC923002B18497FF742AFA5
:1049E0005B00002B01F1FF31FADC3BE7A3F58013FC
:1049F0001E430CF2FF3C46EA0C51104641EC100BF2
:104A00002AE70F4BF60F03EBC60393ED000B23E7EA
:104A10001F2907DC0CF21E40834022FA01F143EA11
:104A200001008BE70749A1EB0C0143FA01F085E790
:104A3000FFFFEF7F0000F07FEDFBFFFF02FCFFFFB9
:104A4000504B0008E2FBFFFF014B1868704700BFA6
:104A50005C01002070B50D4D0D4C641BA4100026A8
:104A6000A64209D10B4D0C4C00F048F8641BA41071
:104A70000026A64205D170BD55F8043B9847013683
:104A8000EEE755F8043B98470136F2E7684B00081B
:104A9000684B0008684B00086C4B00080A449142C0
:104AA00000F1FF3300D1704710B511F8014B03F846
:104AB000014F9142F9D110BD884210B501EB0204BB
:104AC00002D98442234607D8431EA14208D011F8D8
:104AD000012B03F8012FF8E7024401468A4200D176
:104AE00010BD13F8014D02F8014DF7E702440346EB
:104AF000934200D1704703F8011BF9E7F8B500BFF6
:104B0000F8BC08BC9E467047F8B500BFF8BC08BCAE
:044B10009E46704706
:104B1800102840587088A0B8466978656453746551
:104B2800704469736372657465000000E8010020D1
:104B38000000000000000000010203040607080945
:104B48000000000001020304000000000000000053
:084B58000000000000000080D5
:084B6000D8BFFF7F0100000037
:044B6800D50100086B
:044B6C00B10100088B
:104B70000000000000000840000000000000244089
:104B800000000000000008400000000000000000DD
:104B9000000000000000000000000000000008C04D
:104BA00000000000000049400000000000004440F8
:104BB0000000000000003E40000000000000344003
:104BC0000000000000002440000000000000000081
:104BD000000000000000594000000000000000003C
:104BE00000000000000000000000000000000000C5
:104BF00000000000000000400000000000FEAF4088
:104C0000000000000000000000000000000059400B
:104C10000000000000000000000000000000000094
:104C20000000000000000040000000000000000044
:104C30000000000000000040000000000000000034
:104C40000000000000000000000000000000000064
:104C500000000000000000000000000000005940BB
:104C600000000000000024400000000000000000E0
:104C7000000000000000F03F0000000000408F40F6
:104C8000000000000000F03F0000000000000000F5
:104C900000000100000100000000006F7F077D6D33
:104CA000664F5B063F6F7F077D6D664F5B063F6F0C
:104CB0007F077D6D664F5B063F000000000000002F
:104CC000010000000024F400FF000000600100204B
:104CD00000000000000000000000000000000000D4
:104CE00000000000000000000000000000000000C4
:104CF00000000000000000000000000000000000B4
:104D000000000000000000000000000000000000A3
:104D10000000000000000000000000000000000093
:104D20000000000000000000000000000000000083
:04000005080044E1CA
:00000001FF
